:100000000C9438010C9477090C9450090C946001FD
:100010000C9460010C9460010C9460010C949E0996
:100020000C9460010C9460010C9460010C946001CC
:100030000C9460010C9460010C9460010C946001BC
:100040000C9406090C9460010C94200A0C94FA0993
:100050000C9460010C9460010C9460010C9460019C
:100060000C94E7070C94600108000000BE9224493C
:10007000123EABAAAA2ABECDCCCC4C3E00000080DA
:10008000BEABAAAAAA3E00000000BF000000803F4D
:100090000000000000084178D3BB4387D1133D190D
:1000A0000E3CC3BD4282AD2B3E68EC8276BED98F3A
:1000B000E1A93E4C80EFFFBE01C4FF7F3F0000007E
:1000C000000000407A10F35A00A0724E1809001088
:1000D000A5D4E80000E87648170000E40B540200BD
:1000E00000CA9A3B000000E1F505000080969800E8
:1000F000000040420F000000A08601000000102711
:1001000000000000E80300000000640000000000A0
:100110000A00000000000100000000002C76D888D2
:10012000DC674F0823DFC1DFAE59E1B1B796E5E3E5
:10013000E453C63AE651997696E8E6C28426EB89FE
:100140008C9B62ED407C6FFCEFBC9C9F40F2BAA59B
:100150006FA5F490055A2AF75C936B6CF9676DC133
:100160001BFCE0E40D47FEF520E6B500D0ED902E37
:100170000300943577050080841E080000204E0A95
:10018000000000C80C333333330F986E12831141D3
:10019000EF8D2114893BE65516CFFEE6DB18D1849E
:1001A0004B381BF77C1D901DA4BBE42420328472C5
:1001B0005E228100C9F124ECA1E53D273A42652386
:1001C000003A41652300005EBCE2613FDD83C29CD2
:1001D0007E20A3FD1F41009D23BE46DB65F88C11E8
:1001E000AF32CA57E97402503230320050323034E4
:1001F0000050323033004D31303200496E6974693D
:10020000616C697A696E672043505520436F72654F
:100210002E2E2E0000000000240027002A000000DF
:100220000000250028002B0000000008000201004B
:1002300000030407000000000000000000000000B0
:100240002300260029000404040404040404020218
:100250000202020203030303030301020408102045
:100260004080010204081020010204081020520AF4
:1002700011241FBECFEFD8E0DEBFCDBF23E0A6E63E
:10028000B1E001C01D92A134B207E1F711E0A0E096
:10029000B1E0ECE8FFE202C005900D92A636B1078E
:1002A000D9F711E0C8E3D1E004C02197FE010E9414
:1002B0003214C733D107C9F70E94060B0C94C41738
:1002C0000C9400002091FA01260F3327331F2132AE
:1002D0003105ECF420912002FC0190E080E0243014
:1002E00069F082E00895A091FA012191AC01485291
:1002F0005E4FA40FB52FB11D2C930196861798F36E
:100300008091FA01680F6093FA0180E0089581E01E
:100310000895089508950895E091CF018091CE0148
:10032000E81730F4F0E0E255FE4F808190E0089548
:100330008FEF9FEF08959091CF018091CE012FEF25
:100340003FEF981748F4E92FF0E0E255FE4F208187
:1003500030E09F5F9093CF01C90108958091CE0155
:100360009091CF01891B990B0895CF92DF92EF9264
:10037000FF920F931F93CF93DF937C01CB018A01F0
:100380002091AD01222389F0EB016B01C40ED51E33
:10039000CC15DD0569F06991D701ED91FC910190D3
:1003A000F081E02DC7010995F3CF642F0E9462010F
:1003B000C801DF91CF911F910F91FF90EF90DF90D7
:1003C000CF900895CF93DF931F92CDB7DEB76983A7
:1003D0002091AD012223F9F02091D001203258F074
:1003E00021E030E0FC013383228390E080E00F9035
:1003F000DF91CF9108958091D101E82FF0E0E3578C
:10040000FE4F998190838F5F8093D1018093D001BB
:1004100081E090E0ECCF61E0CE0101960E946201A4
:10042000F7CF833081F028F4813099F08230A9F041
:1004300008958730A9F08830C9F08430B1F48091F4
:1004400080008F7D03C0809180008F778093800033
:10045000089584B58F7784BD089584B58F7DFBCFD3
:100460008091B0008F778093B00008958091B000A4
:100470008F7DF9CFCF93DF93282F30E0F901E85D2E
:10048000FD4F8491F901E65AFD4FD491F901EA5BE1
:10049000FD4FC491CC23A1F081110E941102EC2FD9
:1004A000F0E0EE0FFF1FE45CFD4FA591B491EC91DD
:1004B000ED2381E090E009F480E0DF91CF91089591
:1004C00080E090E0FACF1F93CF93DF93282F30E0A6
:1004D000F901E85DFD4F8491F901E65AFD4FD49191
:1004E000F901EA5BFD4FC491CC23A9F0162F8111CD
:1004F0000E941102EC2FF0E0EE0FFF1FE25EFD4FB5
:10050000A591B4918FB7F894EC91111108C0D095D2
:10051000DE23DC938FBFDF91CF911F910895DE2BF7
:10052000F8CF1092200281E08093220210922102E3
:1005300061E082E10E94630261E083E10E94630264
:10054000E9EBF0E080818E7F808380818D7F8083E6
:1005500088E48093B80085E48093BC000895CF932D
:10056000DF9391E09093D7018823B9F0C091B80050
:10057000D091BA008091BC008A7B8093BC0060E07F
:1005800082E10E94630260E083E10E9463020E94B4
:100590009102D093BA00C093B800DF91CF91089533
:1005A000CF93DF9390E0FC01E65AFD4F24918A5BE4
:1005B0009D4FFC0184918823C9F090E0880F991F1A
:1005C000FC01EC5EFD4FA591B491FC01E25EFD4F94
:1005D000C591D49161110DC09FB7F8948C9120956D
:1005E00082238C938881282328839FBFDF91CF911A
:1005F0000895623051F49FB7F8943C91822F809512
:1006000083238C93E8812E2BEFCF8FB7F894EC9156
:100610002E2B2C938FBFEACF8E50806480937C006A
:1006200080917A00806480937A0080917A0086FDC0
:10063000FCCF809178009091790008953FB7F894AD
:100640008091890190918A01A0918B01B0918C01D8
:1006500026B5A89B05C02F3F19F00196A11DB11D1D
:100660003FBFBA2FA92F982F8827BC01CD01620F59
:10067000711D811D911D42E0660F771F881F991F14
:100680004A95D1F708958F929F92AF92BF92CF92E1
:10069000DF92EF92FF926B017C010E941E034B01DF
:1006A0005C01C114D104E104F104B9F00E941E03FD
:1006B000681979098A099B09683E7340810591058B
:1006C00080F321E0C21AD108E108F10888EE880E13
:1006D00083E0981EA11CB11CE4CFFF90EF90DF9047
:1006E000CF90BF90AF909F908F9008950895909174
:1006F000040189130BC0E6EEF1E0E4919FEF9093C3
:100700000401E13049F028F0E23061F060E00C943F
:10071000630210926E00FACF90916F009D7F9093CC
:100720006F00F4CF909170009D7F9093700091E0E6
:100730009093B0009091B100987F94609093B10035
:100740001092B300E3CFAF92BF92CF92DF92EF92BD
:10075000FF920F931F93CF93DF936C017B018B016B
:10076000040F151FEB015E01AE18BF08C017D107BB
:1007700059F06991D601ED91FC910190F081E02D45
:10078000C6010995892B79F7C501DF91CF911F919A
:100790000F91FF90EF90DF90CF90BF90AF900895B2
:1007A000FC01448155816081718186E492E00C9462
:1007B000A30390E080E00895FC01538D448D252F24
:1007C00030E0842F90E0821B930B541710F0CF96EB
:1007D000089501970895FC01918D828D981761F01D
:1007E000A28DAE0FBF2FB11D5D968C91928D9F5F34
:1007F0009F73928F90E008958FEF9FEF0895FC0113
:10080000918D828D981731F0828DE80FF11D858DC5
:1008100090E008958FEF9FEF0895FC01918D228D58
:10082000892F90E0805C9F4F821B91098F739927DD
:10083000089586E492E00E940D0421E0892B09F4DA
:1008400020E0822F089580E090E0892B29F00E941B
:10085000190481110C9400000895FC01A48DA80FC7
:10086000B92FB11DA35ABF4F2C91848D90E00196F2
:100870008F739927848FA689B7892C93A089B18912
:100880008C91837080648C93938D848D981306C0B3
:100890000288F389E02D80818F7D80830895EF9217
:1008A000FF920F931F93CF93DF93EC0181E0888F2A
:1008B0009B8D8C8D98131AC0E889F989808185FFFA
:1008C00015C09FB7F894EE89FF896083E889F9899C
:1008D00080818370806480839FBF81E090E0DF919E
:1008E000CF911F910F91FF90EF900895F62E0B8DF1
:1008F00010E00F5F1F4F0F731127E02E8C8D8E11AC
:100900000CC00FB607FCFACFE889F989808185FF12
:10091000F5CFCE010E942D04F1CFEB8DEC0FFD2F12
:10092000F11DE35AFF4FF0829FB7F8940B8FEA89CD
:10093000FB8980818062CFCFCF93DF93EC01888DDC
:100940008823B9F0AA89BB89E889F9898C9185FD4A
:1009500003C0808186FD0DC00FB607FCF7CF8C91D8
:1009600085FFF2CF808185FFEDCFCE010E942D045F
:10097000E9CFDF91CF910895DC0180E0615090F0E4
:100980009D919827E92FEF70F0E0EA53FE4F2491F4
:10099000E92FE295EF70F0E0EA52FE4FE491822FEA
:1009A0008E27ECCF0895DC012C911196ED91FC91EE
:1009B000F8948181822B81839281322F3095932309
:1009C000928387E090E00197F1F78181832381830F
:1009D00083E290E00197F1F790817894EFECF0E0FA
:1009E0003197F1F7922381E009F480E00895FC014A
:1009F00090810180F281E02D292F209560FF14C0A5
:100A0000F8948281822382838181892B8183A3E26E
:100A1000B0E01197F1F78281982B9283789487ED5B
:100A200090E00197F1F70895F89482818223828300
:100A30008181892B8183AFEFB0E01197F1F782813B
:100A4000982B928378948FE090E0EBCFEF92FF9217
:100A50000F931F93CF93DF93EC01E62E08E010E095
:100A6000FF24F39461E08E2D8F2109F460E0CE0124
:100A70000E94F704FF0C01501109A1F7F894E981D5
:100A8000FA8191818881809589238183E981FA8126
:100A9000928188818095892382837894DF91CF9198
:100AA0001F910F91FF90EF900895EF92FF920F9397
:100AB0001F93CF93DF938C017B0165E50E94260590
:100AC000E70188E0E80EF11C6991C8010E94260543
:100AD000CE15DF05C9F7DF91CF911F910F91FF90E0
:100AE000EF900895FC0190810180F281E02DF8944F
:100AF0008181292F20958223818378943DE743E0EB
:100B000050E0315029F1DA011197F1F78081892302
:100B1000C1F3F8948281822382838181892B81832E
:100B20007894ABE7B7E01197F1F7F89481818223CD
:100B30008183A3E1B1E01197F1F78081982381E0EF
:100B400009F080E07894E3E6F6E03197F1F7089554
:100B500080E0089542E050E06FE271E086E492E0C8
:100B60000C94A303CF93DF93FC0101900020E9F7DD
:100B70003197AF01481B590BBC0186E492E00E94FB
:100B8000A303EC010E94AA058C0F9D1FDF91CF915A
:100B900008950F931F93CF93DF938C01D0E0C0E0B3
:100BA000F801EC0FFD1F6491662341F086E492E0AA
:100BB0000E944F04892B11F02196F2CF0E94AA05C2
:100BC0008C0F9D1FDF91CF911F910F9108950F936F
:100BD0001F9341E050E060E070E08A019B0104C097
:100BE000000F111F221F331F8A95D2F7C801E4E1BD
:100BF000F3E02389282B238B2489282B248B8095B1
:100C000095899823958B97899823978B9689892323
:100C1000868B1F910F91089585ED8093BC00809184
:100C2000D3019091D401A091D501B091D60107963E
:100C3000A11DB11D23E0B695A795979587952A9597
:100C4000D1F72091BC0024FD03C01092200208952A
:100C50004091D3015091D4016091D5017091D6019A
:100C6000452B462B472B69F30097A105B10541F0B1
:100C700025E32A95F1F700000197A109B109E1CF19
:100C80008091D2010C94AF02CF93DF93EC01888165
:100C90009981009711F00E946E16198218821D82A8
:100CA0001C821B821A82DF91CF910895FC01808102
:100CB0009181009711F00C946E1608950F931F9375
:100CC000CF93DF93EC0188819981009759F02A81B5
:100CD0003B812617370730F081E0DF91CF911F91DC
:100CE0000F9108958B016F5F7F4F0E94F716009759
:100CF00059F0998388831B830A832C813D81232BA0
:100D000059F7FC011082E8CF80E0E7CFEF92FF9225
:100D10000F931F93CF93DF936115710541F480E02A
:100D2000DF91CF911F910F91FF90EF9008954115A2
:100D30005105B1F07B01EC010C811D81040F151FE1
:100D4000B8010E945E06882351F3288139818C8185
:100D50009D81B701820F931F0E94BD171D830C83D5
:100D600081E0DECFEF92FF920F931F93CF93DF933B
:100D7000CDB7DEB764970FB6F894DEBF0FBECDBF18
:100D80007C01CB01BA018E010F5F1F4F22E044E0CE
:100D90000E94AB10FC0101900020E9F73197AF01F0
:100DA000481B590BBC01C7010E948606811103C074
:100DB000C7010E944406C70164960FB6F894DEBFCF
:100DC0000FBECDBFDF91CF911F910F91FF90EF909C
:100DD0000895CF93DF93EC01FB0101900020E9F728
:100DE0003197AF01461B570B0E948606811103C045
:100DF000CE010E944406CE01DF91CF910895EF927B
:100E0000FF920F931F93CF93DF93EC017B018A0135
:100E1000BA010E945E0681110BC0CE010E944406F9
:100E2000CE01DF91CF911F910F91FF90EF90089528
:100E30001D830C83B701888199810E94BD17F0CF73
:100E4000FB0101900020E9F73197AF01461B570BDA
:100E50000C94FF060F931F93CF93DF9300D000D025
:100E600000D0CDB7DEB7182F062F1A8219821C8248
:100E70001B821E821D8250E040E061E371E0CE01E2
:100E800001960E94FF0662E371E0133051F066E3C1
:100E900071E0112331F06AE371E0113011F06EE37B
:100EA00071E0CE0101960E942007812F01112BC015
:100EB0000E943A02892BD9F060E0812F0E946302E0
:100EC000CE0101960E94D00381EC91E00E94C905F9
:100ED000CE0101960E94560626960FB6F894DEBF04
:100EE0000FBECDBFDF91CF911F910F910895812F3C
:100EF0000E943A02892B61F7CE0101960E94D0032D
:100F00008CEB91E0E3CF0E943A02019769F061E037
:100F1000812F0E946302CE0101960E94D00382E4D9
:100F200091E00E94B205D4CF812F0E943A0201972E
:100F300079F6CE0101960E94D00387E491E0F1CFCB
:100F4000CF92DF92EF92FF922AE038E240EA5BE331
:100F50000E943D136B017C01AC019B0160E070E0DD
:100F600080EA90E40E94381420E030E44CE156E43A
:100F70000E94A5149B01AC01C701B6010E94A514F3
:100F800020E030E44CE156E40E94A5140E9455157F
:100F900020E030E948E755E40E94A5142FE03FEC3B
:100FA0004BE55BE30E9439149B01AC0160E070E00B
:100FB00080E89FE30E94A51423E333E948E853E463
:100FC0000E943814FF90EF90DF90CF9008951F9209
:100FD0000F920FB60F9211242F933F934F935F936D
:100FE0006F937F938F939F93AF93BF93EF93FF93F1
:100FF0008091B900887F803609F44AC0F0F58832C4
:1010000009F4A7C018F5803109F49BC0B8F488230F
:1010100009F4F9C0883009F494C0FF91EF91BF91B1
:10102000AF919F918F917F916F915F914F913F9180
:101030002F910F900FBE0F901F901895883109F4D3
:1010400088C0803251F780931F0214C0803409F4A5
:101050009DC040F48033B9F38833F9F680931F02C2
:1010600085ECB0C0803509F485C0883509F496C098
:10107000883499F60E940C06D0CF883909F48CC0C8
:1010800038F5883729F050F4883611F0803729F682
:1010900083E08093200210921E0257C0883809F422
:1010A0007BC0803919F0803809F0B7CF80911E02DB
:1010B000803208F071C0E0911E0281E08E0F8093B3
:1010C0001E028091BB00F0E0E250FE4F80833DC0E5
:1010D000803B39F0E0F4803A09F479C0883A09F0AD
:1010E0009CCF84E0809320021092FB011092FA01C1
:1010F000E091F801F091F90109958091FA018111CF
:101100000FC081E08093FA011092D80109C0803CA1
:1011100009F4A6CF883C09F4A3CF883B09F07DCF22
:10112000E091FB0181E08E0F8093FB01F0E0E8523B
:10113000FE4F80818093BB009091FB018091FA016A
:1011400029C0809145028093BB0085EC8093BC0050
:1011500064CF9091440280914302981758F5E09132
:10116000440281E08E0F80934402F0E0ED5DFD4F7C
:101170008081E9CFE091440281E08E0F80934402A8
:101180008091BB00F0E0ED5DFD4F808390914402C3
:10119000809143029817C8F285E8D8CFE0914402C5
:1011A00081E08E0F809344028091BB00F0E0ED5D02
:1011B000FD4F80838091220281115CCF81E080937A
:1011C000210284EA8093BC001092200226CF85EC95
:1011D0008093BC001092200280911E02803230F475
:1011E000E0911E02F0E0E250FE4F108260911E027C
:1011F00070E0E091FC01F091FD018EEF91E0099526
:1012000010921E020ACF10921F0234CF1F920F922B
:101210000FB60F9211242F933F938F939F93AF9309
:10122000BF938091850190918601A0918701B09133
:1012300088013091840123E0230F2D3758F5019662
:10124000A11DB11D20938401809385019093860197
:10125000A0938701B09388018091890190918A01C0
:10126000A0918B01B0918C010196A11DB11D8093BD
:10127000890190938A01A0938B01B0938C01BF9157
:10128000AF919F918F913F912F910F900FBE0F9033
:101290001F90189526E8230F0296A11DB11DD2CFED
:1012A0001F920F920FB60F9211242F933F934F93DB
:1012B0005F936F937F938F939F93AF93BF93EF93BE
:1012C000FF93E0910201F09103010995FF91EF91E5
:1012D000BF91AF919F918F917F916F915F914F914E
:1012E0003F912F910F900FBE0F901F9018951F9256
:1012F0000F920FB60F9211242F933F934F935F934A
:101300006F937F938F939F93AF93BF93EF93FF93CD
:10131000E0910001F09101010995FF91EF91BF91DA
:10132000AF919F918F917F916F915F914F913F917D
:101330002F910F900FBE0F901F9018951F920F9234
:101340000FB60F9211242F933F934F935F936F9398
:101350007F938F939F93AF93BF93EF93FF9380916E
:101360006C0190916D01A0916E01B0916F01892B7C
:101370008A2B8B2BD1F190916701E0916801F0915C
:10138000690180818927808380916C0190916D0132
:10139000A0916E01B0916F01181619061A061B066E
:1013A0009CF480916C0190916D01A0916E01B091BF
:1013B0006F010197A109B10980936C0190936D01B0
:1013C000A0936E01B0936F01FF91EF91BF91AF9128
:1013D0009F918F917F916F915F914F913F912F914D
:1013E0000F900FBE0F901F901895809104010E94DE
:1013F0007703EACF1F920F920FB60F9211242F930B
:101400003F934F935F936F937F938F939F93AF938C
:10141000BF93EF93FF9386E492E00E942D04FF9127
:10142000EF91BF91AF919F918F917F916F915F915C
:101430004F913F912F910F900FBE0F901F901895D5
:101440001F920F920FB60F9211242F938F939F9399
:10145000EF93FF93E0915602F09157028081E09163
:101460005C02F0915D0282FD1BC0908180915F0261
:101470008F5F8F7320916002821741F0E0915F02CD
:10148000F0E0EA5BFD4F958F80935F02FF91EF9153
:101490009F918F912F910F900FBE0F901F901895D5
:1014A0008081F4CFA3EEB2E013961C921E921297A5
:1014B00048EE53E060E070E014964D935D936D93B9
:1014C0007C9317978FE091E011969C938E93E6E4BE
:1014D000F2E013821282448355836683778381E22C
:1014E00091E09183808385EC90E09587848784ECFC
:1014F00090E09787868780EC90E0918B808B81ECE1
:1015000090E0938B828B82EC90E0958B848B86ECC1
:1015100090E0978B868B118E128E138E148EE4E1E1
:10152000F3E082E190E09287818783E190E0948705
:101530008387178682E0808B128A118A138A148A25
:10154000158A168A178A108E118E128E138E148E9B
:10155000158E168E178E10A211A213A212A28AE067
:1015600090E095A384A38BE486A381EE87A310A6C5
:10157000B687A58781E2808760E082E00E94D00282
:10158000ECE5F2E0E491A6E0B3E0EC93E8E4F2E00D
:10159000E491F0E0EE0FFF1FE45CFD4F8591949124
:1015A00012969C938E9311971B961C921B971D96D7
:1015B0001C921D971C961C921C971A961C921A97A7
:1015C00019961C92199718961C92189717961C92A8
:1015D000179716961C92169715961C9215971496A7
:1015E0001C92149713961C921397EFEEF2E0168A52
:1015F000158A1182B287A18717821086108289E02E
:10160000838381E08483858386830895CF93DF93EA
:10161000CDB7DEB765970FB6F894DEBF0FBECDBF6E
:10162000789484B5826084BD84B5816084BD85B5BD
:10163000826085BD85B5816085BD80916E008160C9
:1016400080936E001092810080918100826080936F
:101650008100809181008160809381008091800071
:101660008160809380008091B10084608093B1009C
:101670008091B00081608093B00080917A00846096
:1016800080937A0080917A00826080937A008091C2
:101690007A00816080937A0080917A0080688093DC
:1016A0007A001092C10061E08CE00E94630264E65F
:1016B00070E080E090E00E944303E0915602F091D8
:1016C000570282E08083E0915202F091530210822F
:1016D000E0915402F09155028FEC808310925E02EB
:1016E000E0915A02F0915B0286E08083E09158021B
:1016F000F0915902808180618083E0915802F091DD
:101700005902808188608083E0915802F0915902EB
:10171000808180688083E0915802F0915902808135
:101720008F7D80838CE491E00E94B20568EE73E0C7
:1017300080E090E00E9443038BEF91E00E94C90596
:1017400064EC79E080E090E00E94430361E083E094
:101750000E94D00261E08CE00E94D00260E08EE046
:101760000E94D00260E08FE00E94D00260E080E141
:101770000E94D00260E081E10E94D00261E08DE031
:101780000E94D00281E591E00E94B20580E00E94B3
:10179000E70581E00E94E70582E00E94E70583E01B
:1017A0000E94E70584E00E94E70581EF91E00E9436
:1017B000C90584E080933C031092CF011092CE01C2
:1017C0001092D1011092D0010E94910289E891E01B
:1017D0009093F9018093F8018AE891E09093FD01DC
:1017E0008093FC018091270320912903811103C07C
:1017F000222309F4CCC080912103909122033091DF
:101800001C0341E04093AD013093660160912803D1
:10181000622B60932D03DC01ED91FC910190F0812E
:10182000E02D09959091280380912A03892B8093BC
:101830002E0380932C03909333030091D00181E019
:10184000013208F09CC0109166010E941E036B01DA
:101850007C018091200281116CC082E08093200283
:1018600081E0809322028FEF80931F021092440246
:1018700000934302ADE8B1E0E3E2F2E080E0081358
:10188000FFC01092450280914502110F182B109352
:10189000450280912102813009F0F6C010922102A8
:1018A0000E941E036B017C01809145028093BB0066
:1018B0008091D3019091D401A091D501B091D6012E
:1018C000892B8A2B8B2BA1F00E941E030091D30140
:1018D0001091D4012091D5013091D6016C197D0968
:1018E0008E099F09061717072807390708F442C011
:1018F0008091BC0083FDD8CF85EC8093BC000E9412
:101900001E036B017C0180912002823009F4BEC06D
:1019100080911F028F3F09F4DBC080911F0280324B
:1019200009F4D8C080911F02803309F0D5C083E04C
:1019300026C08091D3019091D401A091D501B0919E
:10194000D601892B8A2B8B2B09F483CF0E941E038F
:101950008090D3019090D401A090D501B090D60191
:101960006C197D098E099F0986169706A806B90687
:1019700008F06FCF8091D2010E94AF0285E01092F3
:10198000D1011092D0011092AD0180933C0380915F
:1019900023038823D9F062E0809124030E94D002BF
:1019A000809125039091260320912403223009F48D
:1019B00095C0233059F490930301809302018091E4
:1019C0006900837F886080936900E99A2FB7F89453
:1019D0008091850190918601A0918701B091880145
:1019E0002FBF80932F0390933003A0933103B093C4
:1019F000320380913C03811162C287EE91E00E9424
:101A0000C90504E044244A94542C320150EF852E39
:101A100056E0952E66EEA62E61E0B62E7AE4E72E0D
:101A200072E0F72EEEE5CE2EE2E0DE2E809104018C
:101A3000843009F05FC0F501149117FDF7C061E033
:101A400084E00E94D002112309F4C2C0123009F0D0
:101A5000D3C08091B100887F82608093B1008DED0A
:101A60008093B30040926C0150926D0160926E01C0
:101A700070926F0180917000826080937000D6C078
:101A80009D9191938F5FFBCE85EE37CF8091D301EF
:101A90009091D401A091D501B091D601892B8A2BC8
:101AA0008B2B09F430CF0E941E030091D3011091BB
:101AB000D4012091D5013091D6016C197D098E0990
:101AC0009F09061717072807390708F01CCF52CFC0
:101AD00080E055CF82E053CF84E051CF9093010155
:101AE00080930001809169008C7F826080936900FF
:101AF000E89A6CCF8F3F09F099C084E0809304018D
:101B0000F50114911F3F09F491C0113019F150F003
:101B1000123009F43CC017FD89C061E084E00E94E6
:101B2000D00294CF14BC15BC84B5826084BD85B549
:101B3000816085BDF7018491E82FF0E0EE0FFF1F73
:101B4000E25EFD4F85919491F601849180936B0143
:101B500010E075CF1092800010928100809181007A
:101B600088608093810080918100816080938100F2
:101B7000F7018491E82FF0E0EE0FFF1FE25EFD4FCA
:101B800085919491F601849180936A0158CF1092C7
:101B9000B0001092B1008091B00082608093B000DC
:101BA0008091B10081608093B100F7018491E82FAA
:101BB000F0E0EE0FFF1FE25EFD4F85919491909350
:101BC000690180936801F60184918093670137CFA2
:101BD00085B5887F826085BD8DED87BD409274019B
:101BE00050927501609276017092770180916E003B
:101BF000826080936E001AC0113009F058C1809144
:101C00008100887F8160809381009092890080921A
:101C1000880040927001509271016092720170923E
:101C2000730180916F00826080936F006AEF70E0B3
:101C300080E090E00E94430384E00E9477036AEF13
:101C400070E080E090E00E944303015009F0EECE86
:101C500068EE73E080E090E00E944303E091F802B8
:101C6000F091F90213861586148612861186108665
:101C7000178216821582148213821092F602109235
:101C8000F70277247394662463946E01FAE0CF0E12
:101C9000D11CE090F802F090F902D7011D968C91CA
:101CA000882309F411C1F70113861586148686E589
:101CB00091E00E94B20586EF91E00E94C9056EEEA8
:101CC00072E080E090E00E94430361E083E00E94C4
:101CD0002A0700E010E086E492E00E940D04181646
:101CE000190674F486E492E00E94EB0361E081340B
:101CF00021F0813609F008C260E08DE00E946302A5
:101D00008FE00E940C03BC01990F880B990B0E9475
:101D100002130E94A0072B013C01409280015092C7
:101D2000810160928201709283018EE00E940C0317
:101D3000BC01990F880B990B0E9402130E94A00707
:101D40004B015C0180927C0190927D01A0927E010A
:101D5000B0927F0180E10E940C03BC01990F880BB7
:101D6000990B0E9402130E94A0076B017C01C09294
:101D70007801D0927901E0927A01F0927B0181E1C1
:101D80000E940C03BC01990F880B990B0E9402134F
:101D90000E94A0076A8B7B8B8C8B9D8B1B861A867F
:101DA0001D861C861F861E8641E050E06BE571E0B3
:101DB000CE010A960E94FF061A8219821C821B829B
:101DC0001E821D826A857B856115710531F04E8505
:101DD0005F85CE0101960E94FF06B301A201CE01EC
:101DE00001960E94B2066DE571E00E94E906B50118
:101DF000A4010E94B2066FE571E00E94E906B701F6
:101E0000A6010E94B20661E671E00E94E9064A89D5
:101E10005B896C897D890E94B20663E671E00E944D
:101E2000E9060E94D0030E94AA05CE0101960E94F5
:101E30005606CE010A960E94560660918001709166
:101E4000810180918201909183010E9417156E306B
:101E500071050CF05FC161E080E00E942A0761E03B
:101E600081E00E942A0760917C0170917D01809140
:101E70007E0190917F010E941715643171050CF06D
:101E80004FC161E082E00E942A0768EE73E080E0C3
:101E900090E00E9443030115110509F41CCF0E9434
:101EA0001904882309F417CF0E94000014CF1230C0
:101EB00021F01111BBCE80EF90CE80EFD1CD8CEE12
:101EC00091E00E94C905C4CEC7010E94720581112C
:101ED0000AC0D7011B961C921B971D961C921D973A
:101EE0001C961C92E4CE60EFC7010E94260501E01B
:101EF000A12C912C11E0C7010E94D304B82EC70178
:101F00000E94D304B1E0BB1270C0813009F08EC0D2
:101F1000113408F4C8CEF7019386911001C075867C
:101F2000D70113968C911397882309F4BCCE13968E
:101F3000FE013A968BE0E80EF11C8F018D918193A2
:101F4000AE15BF05D9F767E0C8010E94BC049989A6
:101F500089139FCE8091F6028F5F8093F6028A8567
:101F6000883239F008F078C0803119F0823209F0F7
:101F700090CE8091F7028F5F8093F7028091EF02FD
:101F8000811125C08091F8029091F9020E9472059A
:101F9000B8018091F8029091F9020E94550564EB16
:101FA0008091F8029091F9020E9426058091F80232
:101FB0009091F9020E94D304F82E8091F80290913A
:101FC000F9020E947205F11002C06092EF028A8548
:101FD000803109F48CC08091F8029091F9020E943E
:101FE0007205811140C080E085C0EA2DF0E0B81292
:101FF00013C0D7011B968C911B971817A8F4AE0F2E
:10200000BF1F13968C91802389F4B12C193018F4DA
:10201000D7011C961C93912EEE0DFF1D8381902FEE
:102020009095892383830AC08113EFCFF701EA0DCE
:10203000F11D8381802B8383BB24B3946B2DC70157
:102040000E94F7041F5F000F11F4A39401E0B7E0B2
:10205000BA1508F050CF5CCF8B3309F48ACF8234A5
:1020600009F017CE86CFB8018091F8029091F9025D
:102070000E9455056EEB8091F8029091F9020E9442
:1020800026058E010F5F1F4F780118018090F8021E
:102090009090F90288E0A82EB12C512C442443944E
:1020A000C4010E94D30481115428440C91E0A91A60
:1020B000B108B1F7D7015D927D01AC15BD0531F7CF
:1020C0008091F8029091F9020E947205813009F026
:1020D0008ACFF80181918F01811128C0EE16FF0689
:1020E000C1F781CF8F3571F08F3709F07CCF8CE04D
:1020F00001C08AE09091F202981708F0CACD80934F
:10210000F202C7CD8BE0F6CF823709F0F9CD60E05F
:102110008CE0F4CD673171050CF4A5CE60E09CCE67
:102120006E3271050CF4B1CE60E0ACCE68E0C10156
:102130000E94BC049985891356CF8D819A859B3363
:1021400011F487FDD4CF8F33A1F260F68F3109F0FF
:102150004ACF89E0CFCFEF920F931F93CF93DF93B6
:10216000E80134E047FD34E1042E000C550B57FF25
:1021700003C0519541955109E32E022F242FAE0142
:102180000E94C910CE01DF91CF911F910F91EF9066
:102190000895A9E0B0E0EFECF0E10C9401146A01BD
:1021A000F22EB02E102FFBE3AF2EA01608F41BE387
:1021B0001F5F012F27E0AE014F5F5F4F0E94281283
:1021C000BC018981982F9970913009F43FC09BE23E
:1021D000E1FC04C09E2D9170E0FC3AC05E2D507170
:1021E000E82FE87083FF46C084E0911101C083E0CE
:1021F000EF2DE81B8F1508F0E0E0D6018E2F20E2CE
:10220000552351F1992329F0D6019C93C6010196DB
:102210006C0196012D5F3F4FE2FE24C08EE4D60193
:102220008C9391E411969C93119712968C93D901FB
:102230008E2F90E281111BC0E20FF32FF11D10824F
:102240008EEF9FEF2996ECE00C941D149DE2C6CF13
:1022500090E2C4CF2D9381508111FCCFCE0ED11CC2
:10226000E0E0D0CF8EE6D6018C9391E6DBCF9D9354
:102270008150E0CF482F447082FF3DC084E091112F
:1022800001C083E08F1510F4EF2DE81BD6018E2FCF
:1022900020E2552309F1992329F0D6019C93C60128
:1022A00001966C0196012D5F3F4FE2FE1BC089E451
:1022B000D6018C938EE411968C93119786E4129636
:1022C0008C93D9018E2F90E2882309F4B5CF9D938A
:1022D0008150FACF2D9381508111FCCFCE0ED11CAD
:1022E000E0E0D9CF89E6D6018C938EE611968C93E7
:1022F000119786E6E4CF9B0177FF02C030E020E033
:10230000A1E0B0E0911102C0B0E0A0E0F901319687
:10231000AE0FBF1F8B2C912CBB2009F461C0540160
:10232000EFEFAE1ABE0AAA0DBB1DFA161B0619F076
:1023300014F04F2D4A1B511188C0E3FC59C076019F
:10234000A42FB0E2A1114FC0C40ED11C992309F4EF
:102350005BC040E0D6011196F60190836D015523D4
:1023600009F448C0012F060F9A81582F507184FF3D
:1023700003C0913309F4015010160CF047C0093026
:1023800008F008E0EEE2FE2E5B01A01AB10885011C
:102390009194819491082F3F320729F4D601FC9241
:1023A000F60131966F016217730794F10217130754
:1023B0007CF5DB01A21BB30BAA24A394B12CAC0EB9
:1023C000BD1EAA0DBB1D11968C9121503109D6015D
:1023D000119628153905F4F0F60180836D01DBCFE5
:1023E000B12CA12CA0CFF701B1937F01A150AACFAE
:1023F0009111B0CFD601942F50E302C05D9391505C
:102400009111FCCFC40ED11C40E0ACCF01E0BACF9B
:1024100080E3DBCF6217730731F4963388F495338A
:1024200011F4552369F0F6018083FD01842F90E2B9
:10243000811108C0A40FB11D1C9290E080E002CF72
:1024400081E3F1CF91938150F3CF911183CF8ACF64
:10245000283008F027E03327DA01990F311D87FD76
:10246000916000966105710539F432602E5F3D93ED
:1024700030E32A95E1F708959F3F30F080387105E9
:10248000610509F03C5F3C5F3D93913008F0806846
:10249000911DDF93CF931F930F93FF92EF92192F0C
:1024A000987F9695E92F96959695E90FFF27E45E1C
:1024B000FE4F99273327EE24FF24A701E70105905B
:1024C0000894079428F4360FE71EF81E491F511D83
:1024D000660F771F881F991F0694A1F70590079430
:1024E00028F4E70EF81E491F561FC11D770F881FDD
:1024F000991F661F0694A1F70590079428F4F80E1B
:10250000491F561FC71FD11D880F991F661F771FB0
:102510000694A1F70590079420F4490F561FC71F92
:10252000D81F990F661F771F881F0694A9F78491FB
:102530001095177041F0D695C79557954795F79424
:10254000E7941A95C1F7E2ECF0E0689415901591C4
:1025500035916591959105907FE27395E118F10AA7
:10256000430B560BC90BD009C0F7E10CF11E431FFA
:10257000561FC91FD01D7EF4703311F48A95E6CF23
:10258000E894015030F0080F0AF40027021708F40D
:10259000202F2395022F7A3328F079E37D932A9513
:1025A000E9F710C07D932A9589F60694979567956B
:1025B000379517951794E118F10A430B560BC90B81
:1025C000D00998F023957E9173957A3308F070E3E3
:1025D0007C932013B8F77E9170617D9330F08395E2
:1025E00071E37D9370E32A95E1F71124EF90FF905A
:1025F0000F911F91CF91DF91992787FD90950895B5
:10260000E89409C097FB3EF490958095709561958C
:102610007F4F8F4F9F4F9923A9F0F92F96E9BB2742
:102620009395F695879577956795B795F111F8CFBE
:10263000FAF4BB0F11F460FF1BC06F5F7F4F8F4F29
:102640009F4F16C0882311F096E911C0772321F01F
:102650009EE8872F762F05C0662371F096E8862FB7
:1026600070E060E02AF09A95660F771F881FDAF70E
:10267000880F9695879597F908950E9450130C94AA
:10268000C1130E94B31338F00E94BA1320F09523AF
:1026900011F00C94AA130C94B01311240C94F5139C
:1026A0000E94D21370F3959FC1F3950F50E0551F10
:1026B000629FF001729FBB27F00DB11D639FAA2797
:1026C000F00DB11DAA1F649F6627B00DA11D661FE6
:1026D000829F2227B00DA11D621F739FB00DA11D07
:1026E000621F839FA00D611D221F749F3327A00DC1
:1026F000611D231F849F600D211D822F762F6A2F5D
:1027000011249F5750409AF0F1F088234AF0EE0FC1
:10271000FF1FBB1F661F771F881F91505040A9F7EE
:102720009E3F510580F00C94AA130C94F5135F3F63
:10273000E4F3983ED4F3869577956795B795F7952A
:10274000E7959F5FC1F7FE2B880F911D96958795A2
:1027500097F9089597F99F6780E870E060E0089521
:102760009FEF80EC089500240A94161617061806A9
:102770000906089500240A94121613061406050685
:102780000895092E0394000C11F4882352F0BB0F16
:1027900040F4BF2B11F460FF04C06F5F7F4F8F4F79
:1027A0009F4F089557FD9058440F551F59F05F3FB4
:1027B00071F04795880F97FB991F61F09F3F79F063
:1027C00087950895121613061406551FF2CF4695E5
:1027D000F1DF08C0161617061806991FF1CF869567
:1027E0007105610508940895E894BB27662777274B
:1027F000CB0197F908952F923F924F925F926F927B
:102800007F928F929F92AF92BF92CF92DF92EF9280
:10281000FF920F931F93CF93DF93CDB7DEB7CA1B01
:10282000DB0B0FB6F894DEBF0FBECDBF09942A882C
:10283000398848885F846E847D848C849B84AA84D4
:10284000B984C884DF80EE80FD800C811B81AA8161
:10285000B981CE0FD11D0FB6F894DEBF0FBECDBF2C
:10286000ED010895EE0FFF1F0590F491E02D0994FE
:102870005058BB27AA270E9450140C94C1130E94E1
:10288000B31338F00E94BA1320F039F49F3F19F4C3
:1028900026F40C94B0130EF4E095E7FB0C94AA1305
:1028A000E92F0E94D21358F3BA17620773078407FF
:1028B000950720F079F4A6F50C94F4130EF4E09546
:1028C0000B2EBA2FA02D0B01B90190010C01CA01EA
:1028D000A0011124FF27591B99F0593F50F4503E95
:1028E00068F11A16F040A22F232F342F4427585F87
:1028F000F3CF469537952795A795F0405395C9F79F
:102900007EF41F16BA0B620B730B840BBAF0915056
:10291000A1F0FF0FBB1F661F771F881FC2F70EC0F5
:10292000BA0F621F731F841F48F4879577956795C8
:10293000B795F7959E3F08F0B0CF9395880F08F0B4
:102940009927EE0F9795879508950E94B9140C94D6
:10295000C1130E94BA1358F00E94B31340F029F437
:102960005F3F29F00C94AA1351110C94F5130C94A9
:10297000B0130E94D21368F39923B1F3552391F356
:10298000951B550BBB27AA2762177307840738F0DE
:102990009F5F5F4F220F331F441FAA1FA9F335D03B
:1029A0000E2E3AF0E0E832D091505040E695001CEF
:1029B000CAF72BD0FE2F29D0660F771F881FBB1FA9
:1029C000261737074807AB07B0E809F0BB0B802D87
:1029D000BF01FF2793585F4F3AF09E3F510578F0B3
:1029E0000C94AA130C94F5135F3FE4F3983ED4F3D0
:1029F000869577956795B795F7959F5FC9F7880F87
:102A0000911D9695879597F90895E1E0660F771FD8
:102A1000881FBB1F621773078407BA0720F0621B69
:102A2000730B840BBA0BEE1F88F7E09508950E9494
:102A30001E156894B1110C94F51308950E94DA13D1
:102A400088F09F5798F0B92F9927B751B0F0E1F06F
:102A5000660F771F881F991F1AF0BA95C9F714C01F
:102A6000B13091F00E94F413B1E008950C94F41386
:102A7000672F782F8827B85F39F0B93FCCF3869558
:102A800077956795B395D9F73EF4909580957095B5
:102A900061957F4F8F4F9F4F089516F00C949D15B1
:102AA0000C94B01368940C94AA130E94DA13A8F340
:102AB0009923C1F3AEF3DF93CF931F930F93FF924C
:102AC000C92FDD2788232AF02197660F771F881FDB
:102AD000DAF720E030E040E85FEB9FE3883920F050
:102AE000803E38F021968F770E943914E8E6F0E0B6
:102AF00004C00E943914E5E9F0E00E94AB158B0197
:102B0000BE01EC01FB2E6F5771097595771F880B7D
:102B1000990B0E94021328E132E741E35FE30E9430
:102B20005013AF2D9801AE01FF900F911F91CF91DF
:102B3000DF910E9450140C94C1139F3F31F09150CB
:102B400020F4879577956795B795880F911D969591
:102B5000879597F90895DF93CF931F930F93FF9273
:102B6000EF92DF927B018C01689406C0DA2EEF01B0
:102B70000E945013FE01E894A5912591359145914D
:102B80005591A6F3EF010E945014FE019701A80190
:102B9000DA9469F7DF90EF90FF900F911F91CF913A
:102BA000DF9108950F931F93CF93DF9382309105A8
:102BB00010F482E090E0E0913F03F091400330E0B8
:102BC00020E0B0E0A0E0309799F42115310509F438
:102BD0004AC0281B390B24303105D8F58A819B81E6
:102BE0006115710589F1FB0193838283FE0111C098
:102BF000408151810281138148175907E0F048173D
:102C0000590799F4109761F012960C931297139646
:102C10001C933296CF01DF91CF911F910F910895B0
:102C200000933F0310934003F4CF2115310551F079
:102C30004217530738F0A901DB019A01BD01DF01FA
:102C4000F801C1CFEF01F9CF9093400380933F0388
:102C5000CDCFFE01E20FF31F8193919322503109F2
:102C600039832883D7CF20913D0330913E03232B16
:102C700041F4209107013091080130933E032093E5
:102C80003D0320910501309106012115310541F4E4
:102C90002DB73EB74091090150910A01241B350B15
:102CA000E0913D03F0913E03E217F307A0F42E1BE1
:102CB0003F0B2817390778F0AC014E5F5F4F2417A0
:102CC000350748F04E0F5F1F50933E0340933D037E
:102CD000819391939FCFF0E0E0E09CCFCF93DF937F
:102CE0000097E9F0FC01329713821282A0913F0312
:102CF000B0914003ED0130E020E01097A1F4208175
:102D00003181820F931F20913D0330913E0328179C
:102D1000390709F061C0F0933E03E0933D03DF9172
:102D2000CF910895EA01CE17DF07E8F54A815B816C
:102D30009E0141155105B1F7E901FB83EA834991F1
:102D40005991C40FD51FEC17FD0761F48081918163
:102D50000296840F951FE90199838883828193816C
:102D60009B838A83F0E0E0E012968D919C9113970B
:102D70000097B9F52D913C911197CD010296820FE4
:102D8000931F20913D0330913E032817390739F6F0
:102D9000309751F51092400310923F03B0933E03D9
:102DA000A0933D03BCCFD383C28340815181840F64
:102DB000951FC817D90761F44E5F5F4F88819981CD
:102DC000480F591F518340838A819B81938382835B
:102DD0002115310509F0B0CFF0934003E0933F0394
:102DE0009ECFFD01DC01C0CF13821282D7CFB0E0AD
:102DF000A0E0EDEFF6E10C94FD138C01009751F487
:102E0000CB010E94D2158C01C801CDB7DEB7E0E13D
:102E10000C941914FC01E60FF71F9C012250310994
:102E2000E217F30708F49DC0D901CD91DC91119709
:102E3000C617D70798F0C530D10530F3CE010497F7
:102E40008617970708F3C61BD70B2297C193D19318
:102E50006D937C93CF010E946E16D6CF5B01AC1AA6
:102E6000BD0A4C018C0E9D1EA0913F03B091400302
:102E7000512C412CF12CE12C109731F580913D0320
:102E800090913E038815990509F05CC046165706D7
:102E900008F058C08091050190910601009741F417
:102EA0008DB79EB74091090150910A01841B950B83
:102EB000E817F90708F055C0F0933E03E0933D038F
:102EC000F90171836083A0CF8D919C911197129627
:102ED0006C90129713967C901397A815B90559F525
:102EE0006C0142E0C40ED11CCA14DB0420F1AC0119
:102EF0004A195B09DA011296159780F06282738293
:102F000051834083D9016D937C93E114F10471F0F6
:102F1000D7011396FC93EE93129776CF22968C0FDF
:102F20009D1FF90191838083F301EFCFF09340035C
:102F3000E0933F0369CF4816590608F42C017D0140
:102F4000D3019ACFCB010E94D2157C01009749F0A2
:102F5000AE01B8010E94B417C8010E946E16870125
:102F600053CF10E000E050CFFB01DC0102C0019024
:102F70000D9241505040D8F70895FB01DC010190BB
:0C2F80000D920020E1F70895F894FFCFB7
:102F8C0076037603FF00004103800000000000E29E
:102F9C0001B501D9038B01AE019B018C010000002E
:102FAC00004F04A303DC039C040D04EB03FF030D8F
:102FBC000A00523131005231320052313300523159
:102FCC0034003A586623003A596623004D313034A8
:102FDC00004D313031005331303200540041004249
:062FEC0000430044000058
:00000001FF
