:100000000C942C010C947D090C9456090C94540109
:100010000C9454010C9454010C9454010C94A409B4
:100020000C9454010C9454010C9454010C945401FC
:100030000C9454010C9454010C9454010C945401EC
:100040000C940C090C9454010C94260A0C94000A8C
:100050000C9454010C9454010C9454010C945401CC
:100060000C94ED070C94540108000000BE92244942
:10007000123EABAAAA2ABECDCCCC4C3E00000080DA
:10008000BEABAAAAAA3E00000000BF000000803F4D
:100090000000000000084178D3BB4387D1133D190D
:1000A0000E3CC3BD4282AD2B3E68EC8276BED98F3A
:1000B000E1A93E4C80EFFFBE01C4FF7F3F0000007E
:1000C000000000407A10F35A00A0724E1809001088
:1000D000A5D4E80000E87648170000E40B540200BD
:1000E00000CA9A3B000000E1F505000080969800E8
:1000F000000040420F000000A08601000000102711
:1001000000000000E80300000000640000000000A0
:100110000A00000000000100000000002C76D888D2
:10012000DC674F0823DFC1DFAE59E1B1B796E5E3E5
:10013000E453C63AE651997696E8E6C28426EB89FE
:100140008C9B62ED407C6FFCEFBC9C9F40F2BAA59B
:100150006FA5F490055A2AF75C936B6CF9676DC133
:100160001BFCE0E40D47FEF520E6B500D0ED902E37
:100170000300943577050080841E080000204E0A95
:10018000000000C80C333333330F986E12831141D3
:10019000EF8D2114893BE65516CFFEE6DB18D1849E
:1001A0004B381BF77C1D901DA4BBE42420328472C5
:1001B0005E228100C9F124ECA1E53D273A42652386
:1001C000003A41652300005EBCE2613FDD83C29CD2
:1001D0007E20A3FD1F41009D23BE46DB65F88C11E8
:1001E000AF32CA57E97402503230320050323034E4
:1001F0000050323033004D31303300000000002415
:100200000027002A0000000000250028002B000025
:1002100000000800020100000304070000000000C5
:100220000000000000000023002600290004040450
:10023000040404040402020202020203030303038F
:10024000030102040810204080010204081020016C
:10025000020408102000580A11241FBECFEFD8E076
:10026000DEBFCDBF23E0AEE7B1E001C01D92A935EE
:10027000B207E1F711E0A0E0B1E0E8E0F0E302C08E
:1002800005900D92AE37B107D9F711E0CCE2D1E07D
:1002900004C02197FE010E947014CB32D107C9F728
:1002A0000E940C0B0C9402180C9400002091120276
:1002B000260F3327331F21323105ECF42091380209
:1002C000FC0190E080E0243069F082E00895A09184
:1002D00012022191AC0140515E4FA40FB52FB11D08
:1002E0002C930196861798F380911202680F609301
:1002F000120280E0089581E0089508950895089518
:10030000E091E7018091E601E81730F4F0E0EA536C
:10031000FE4F808190E008958FEF9FEF08959091B8
:10032000E7018091E6012FEF3FEF981748F4E92F9E
:10033000F0E0EA53FE4F208130E09F5F9093E701A9
:10034000C90108958091E6019091E701891B990BFD
:100350000895CF92DF92EF92FF920F931F93CF9366
:10036000DF937C01CB018A012091C501222389F012
:10037000EB016B01C40ED51ECC15DD0569F069914A
:10038000D701ED91FC910190F081E02DC701099515
:10039000F3CF642F0E945601C801DF91CF911F91C6
:1003A0000F91FF90EF90DF90CF900895CF93DF9360
:1003B0001F92CDB7DEB769832091C5012223F9F0E2
:1003C0002091E801203258F021E030E0FC01338335
:1003D000228390E080E00F90DF91CF91089580918B
:1003E000E901E82FF0E0EB55FE4F998190838F5F94
:1003F0008093E9018093E80181E090E0ECCF61E037
:10040000CE0101960E945601F7CF833081F028F487
:10041000813099F08230A9F008958730A9F08830B2
:10042000C9F08430B1F4809180008F7D03C0809149
:1004300080008F7780938000089584B58F7784BD86
:10044000089584B58F7DFBCF8091B0008F77809326
:10045000B00008958091B0008F7DF9CFCF93DF93E6
:10046000282F30E0F901E15FFD4F8491F901EF5B46
:10047000FD4FD491F901E35DFD4FC491CC23A1F070
:1004800081110E940502EC2FF0E0EE0FFF1FED5DE1
:10049000FD4FA591B491EC91ED2381E090E009F43A
:1004A00080E0DF91CF91089580E090E0FACF1F9334
:1004B000CF93DF93282F30E0F901E15FFD4F849166
:1004C000F901EF5BFD4FD491F901E35DFD4FC4915C
:1004D000CC23A9F0162F81110E940502EC2FF0E029
:1004E000EE0FFF1FEB5FFD4FA591B4918FB7F8940E
:1004F000EC91111108C0D095DE23DC938FBFDF9102
:10050000CF911F910895DE2BF8CF1092380281E031
:1005100080933A021092390261E082E10E94570210
:1005200061E083E10E945702E9EBF0E080818E7F79
:10053000808380818D7F808388E48093B80085E408
:100540008093BC000895CF93DF9391E09093EF01E7
:100550008823B9F0C091B800D091BA008091BC0056
:100560008A7B8093BC0060E082E10E94570260E0D9
:1005700083E10E9457020E948502D093BA00C09383
:10058000B800DF91CF910895CF93DF9390E0FC0105
:10059000EF5BFD4F2491835D9D4FFC018491882387
:1005A000C9F090E0880F991FFC01E550FE4FA5911E
:1005B000B491FC01EB5FFD4FC591D49161110DC069
:1005C0009FB7F8948C91209582238C93888128235F
:1005D00028839FBFDF91CF910895623051F49FB778
:1005E000F8943C91822F809583238C93E8812E2B65
:1005F000EFCF8FB7F894EC912E2B2C938FBFEACFCF
:100600008E50806480937C0080917A008064809317
:100610007A0080917A0086FDFCCF809178009091DD
:10062000790008953FB7F8948091A1019091A201BB
:10063000A091A301B091A40126B5A89B05C02F3FAE
:1006400019F00196A11DB11D3FBFBA2FA92F982FF8
:100650008827BC01CD01620F711D811D911D42E0F3
:10066000660F771F881F991F4A95D1F708958F92BB
:100670009F92AF92BF92CF92DF92EF92FF926B0167
:100680007C010E9412034B015C01C114D104E104FE
:10069000F104B9F00E941203681979098A099B09CB
:1006A000683E73408105910580F321E0C21AD108AC
:1006B000E108F10888EE880E83E0981EA11CB11CA9
:1006C000E4CFFF90EF90DF90CF90BF90AF909F90DE
:1006D0008F90089508959091040189130BC0E6EE60
:1006E000F1E0E4919FEF90930401E13049F028F0AC
:1006F000E23061F060E00C94570210926E00FACF85
:1007000090916F009D7F90936F00F4CF9091700057
:100710009D7F9093700091E09093B0009091B10014
:10072000987F94609093B1001092B300E3CFAF92A2
:10073000BF92CF92DF92EF92FF920F931F93CF93CE
:10074000DF936C017B018B01040F151FEB015E0130
:10075000AE18BF08C017D10759F06991D601ED91C5
:10076000FC910190F081E02DC6010995892B79F764
:10077000C501DF91CF911F910F91FF90EF90DF9016
:10078000CF90BF90AF900895FC0144815581608166
:1007900071818EE592E00C94970390E080E00895DB
:1007A000FC01538D448D252F30E0842F90E0821B77
:1007B000930B541710F0CF96089501970895FC01FC
:1007C000918D828D981761F0A28DAE0FBF2FB11D54
:1007D0005D968C91928D9F5F9F73928F90E00895AC
:1007E0008FEF9FEF0895FC01918D828D981731F066
:1007F000828DE80FF11D858D90E008958FEF9FEFBA
:100800000895FC01918D228D892F90E0805C9F4F8F
:10081000821B91098F73992708958EE592E00E94BB
:10082000010421E0892B09F420E0822F089580E063
:1008300090E0892B29F00E940D0481110C94000096
:100840000895FC01A48DA80FB92FB11DA35ABF4F65
:100850002C91848D90E001968F739927848FA689BF
:10086000B7892C93A089B1898C91837080648C9313
:10087000938D848D981306C00288F389E02D8081C2
:100880008F7D80830895EF92FF920F931F93CF93F4
:10089000DF93EC0181E0888F9B8D8C8D98131AC0BB
:1008A000E889F989808185FF15C09FB7F894EE89A2
:1008B000FF896083E889F9898081837080648083FF
:1008C0009FBF81E090E0DF91CF911F910F91FF904A
:1008D000EF900895F62E0B8D10E00F5F1F4F0F73F2
:1008E0001127E02E8C8D8E110CC00FB607FCFACFAD
:1008F000E889F989808185FFF5CFCE010E94210426
:10090000F1CFEB8DEC0FFD2FF11DE35AFF4FF0827D
:100910009FB7F8940B8FEA89FB8980818062CFCFE3
:10092000CF93DF93EC01888D8823B9F0AA89BB8926
:10093000E889F9898C9185FD03C0808186FD0DC011
:100940000FB607FCF7CF8C9185FFF2CF808185FF32
:10095000EDCFCE010E942104E9CFDF91CF91089520
:10096000DC0180E0615090F09D919827E92FEF70B5
:10097000F0E0EA53FE4F2491E92FE295EF70F0E0AA
:10098000EA52FE4FE491822F8E27ECCF0895DC01CE
:100990002C911196ED91FC91F8948181822B8183A9
:1009A0009281322F30959323928387E090E00197D4
:1009B000F1F781818323818383E290E00197F1F74E
:1009C00090817894EFECF0E03197F1F7922381E099
:1009D00009F480E00895FC0190810180F281E02D0E
:1009E000292F209560FF14C0F8948281822382838E
:1009F0008181892B8183A3E2B0E01197F1F7828195
:100A0000982B9283789487ED90E00197F1F7089501
:100A1000F8948281822382838181892B8183AFEF45
:100A2000B0E01197F1F78281982B928378948FE050
:100A300090E0EBCFEF92FF920F931F93CF93DF9352
:100A4000EC01E62E08E010E0FF24F39461E08E2D27
:100A50008F2109F460E0CE010E94EB04FF0C0150ED
:100A60001109A1F7F894E981FA8191818881809533
:100A700089238183E981FA81928188818095892304
:100A800082837894DF91CF911F910F91FF90EF9027
:100A90000895EF92FF920F931F93CF93DF938C01F2
:100AA0007B0165E50E941A05E70188E0E80EF11C6C
:100AB0006991C8010E941A05CE15DF05C9F7DF91BB
:100AC000CF911F910F91FF90EF900895FC019081BD
:100AD0000180F281E02DF8948181292F20958223D5
:100AE000818378943DE743E050E0315029F1DA0109
:100AF0001197F1F780818923C1F3F89482818223D1
:100B000082838181892B81837894ABE7B7E0119749
:100B1000F1F7F894818182238183A3E1B1E01197F9
:100B2000F1F78081982381E009F080E07894E3E692
:100B3000F6E03197F1F7089580E0089542E050E043
:100B40006FE271E08EE592E00C949703CF93DF9310
:100B5000FC0101900020E9F73197AF01481B590BC8
:100B6000BC018EE592E00E949703EC010E949E0575
:100B70008C0F9D1FDF91CF9108950F931F93CF93FB
:100B8000DF938C01D0E0C0E0F801EC0FFD1F649111
:100B9000662341F08EE592E00E944304892B11F018
:100BA0002196F2CF0E949E058C0F9D1FDF91CF9161
:100BB0001F910F9108950F931F9341E050E060E063
:100BC00070E08A019B0104C0000F111F221F331F18
:100BD0008A95D2F7C801ECE2F3E02389282B238B16
:100BE0002489282B248B809595899823958B978928
:100BF0009823978B96898923868B1F910F9108954F
:100C000085ED8093BC008091EB019091EC01A09167
:100C1000ED01B091EE010796A11DB11D23E0B6953F
:100C2000A795979587952A95D1F72091BC0024FD2B
:100C300003C01092380208954091EB015091EC01ED
:100C40006091ED017091EE01452B462B472B69F326
:100C50000097A105B10541F025E32A95F1F70000C1
:100C60000197A109B109E1CF8091EA010C94A30297
:100C7000CF93DF93EC0188819981009711F00E9456
:100C8000AC16198218821D821C821B821A82DF9187
:100C9000CF910895FC0180819181009711F00C940F
:100CA000AC1608950F931F93CF93DF93EC018881C7
:100CB0009981009759F02A813B812617370730F038
:100CC00081E0DF91CF911F910F9108958B016F5FAC
:100CD0007F4F0E943517009759F0998388831B83B3
:100CE0000A832C813D81232B59F7FC011082E8CF28
:100CF00080E0E7CFEF92FF920F931F93CF93DF93A4
:100D00006115710541F480E0DF91CF911F910F9142
:100D1000FF90EF90089541155105B1F07B01EC0172
:100D20000C811D81040F151FB8010E9452068823F3
:100D300051F3288139818C819D81B701820F931FE6
:100D40000E94FB171D830C8381E0DECFCF93DF93DE
:100D5000EC01FB0101900020E9F73197AF01461B40
:100D6000570B0E947A06811103C0CE010E943806FB
:100D7000CE01DF91CF910895CF93DF93EC01FB017A
:100D800044815581608171810E947A06811103C07E
:100D9000CE010E943806CE01DF91CF910895EF92E7
:100DA000FF920F931F93CF93DF93EC017B018A0196
:100DB000BA010E94520681110BC0CE010E94380672
:100DC000CE01DF91CF911F910F91FF90EF90089589
:100DD0001D830C83B701888199810E94FB17F0CF96
:100DE000FB0101900020E9F73197AF01461B570B3B
:100DF0000C94CF06EF92FF920F931F93CF93DF9344
:100E0000CDB7DEB7A1970FB6F894DEBF0FBECDBF4A
:100E10007C01CB01BA01F701118210821382128288
:100E2000158214828E010F5F1F4F22E044E00E9462
:100E3000E910009789F0BC01C7010E94F006A19655
:100E40000FB6F894DEBF0FBECDBFDF91CF911F91DB
:100E50000F91FF90EF900895C7010E943806EFCFE1
:100E60000F931F93CF93DF9300D000D000D0CDB766
:100E7000DEB7182F062F1A8219821C821B821E824F
:100E80001D8250E040E061E371E0CE0101960E94D6
:100E9000CF0662E371E0133051F066E371E0112395
:100EA00031F06AE371E0113011F06EE371E0CE01D0
:100EB00001960E94F006812F01112BC00E942E0284
:100EC000892BD9F060E0812F0E945702CE01019654
:100ED0000E94C40381EC91E00E94BD05CE01019601
:100EE0000E944A0626960FB6F894DEBF0FBECDBF0D
:100EF000DF91CF911F910F910895812F0E942E02B3
:100F0000892B61F7CE0101960E94C4038CEB91E01E
:100F1000E3CF0E942E02019769F061E0812F0E94C9
:100F20005702CE0101960E94C40382E491E00E9420
:100F3000A605D4CF812F0E942E02019779F6CE010B
:100F400001960E94C40387E491E0F1CFCF92DF9233
:100F5000EF92FF922AE038E240EA5BE30E947B13C3
:100F60006B017C01AC019B0160E070E080EA90E4E1
:100F70000E94761420E030E44CE156E40E94E31431
:100F80009B01AC01C701B6010E94E31420E030E4EC
:100F90004CE156E40E94E3140E94931520E030E9EE
:100FA00048E755E40E94E3142FE03FEC4BE55BE398
:100FB0000E9477149B01AC0160E070E080E89FE341
:100FC0000E94E31423E333E948E853E40E947614D3
:100FD000FF90EF90DF90CF9008951F920F920FB681
:100FE0000F9211242F933F934F935F936F937F93AF
:100FF0008F939F93AF93BF93EF93FF938091B9002B
:10100000887F803609F44AC0F0F5883209F4A7C019
:1010100018F5803109F49BC0B8F4882309F4F9C0AD
:10102000883009F494C0FF91EF91BF91AF919F91E7
:101030008F917F916F915F914F913F912F910F9081
:101040000FBE0F901F901895883109F488C0803228
:1010500051F78093370214C0803409F49DC040F4E6
:101060008033B9F38833F9F68093370285ECB0C04A
:10107000803509F485C0883509F496C0883499F61E
:101080000E940006D0CF883909F48CC038F5883723
:1010900029F050F4883611F0803729F683E08093E8
:1010A00038021092360257C0883809F47BC0803964
:1010B00019F0803809F0B7CF80913602803208F0FD
:1010C00071C0E091360281E08E0F809336028091EC
:1010D000BB00F0E0EA5EFD4F80833DC0803B39F00D
:1010E000E0F4803A09F479C0883A09F09CCF84E0B2
:1010F000809338021092130210921202E0911002B3
:10110000F091110209958091120281110FC081E0C6
:10111000809312021092F00109C0803C09F4A6CF1E
:10112000883C09F4A3CF883B09F07DCFE0911302FE
:1011300081E08E0F80931302F0E0E051FE4F80813A
:101140008093BB00909113028091120229C080917C
:101150005D028093BB0085EC8093BC0064CF9091CE
:101160005C0280915B02981758F5E0915C0281E087
:101170008E0F80935C02F0E0E55CFD4F8081E9CF4B
:10118000E0915C0281E08E0F80935C028091BB0055
:10119000F0E0E55CFD4F808390915C0280915B0202
:1011A0009817C8F285E8D8CFE0915C0281E08E0FF5
:1011B00080935C028091BB00F0E0E55CFD4F808392
:1011C00080913A0281115CCF81E08093390284EAF8
:1011D0008093BC001092380226CF85EC8093BC002F
:1011E0001092380280913602803230F4E09136025B
:1011F000F0E0EA5EFD4F10826091360270E0E0910F
:101200001402F091150286E192E0099510923602DF
:101210000ACF1092370234CF1F920F920FB60F925F
:1012200011242F933F938F939F93AF93BF938091FC
:101230009D0190919E01A0919F01B091A0013091DC
:101240009C0123E0230F2D3758F50196A11DB11DF8
:1012500020939C0180939D0190939E01A0939F01F8
:10126000B093A0018091A1019091A201A091A3014E
:10127000B091A4010196A11DB11D8093A10190938D
:10128000A201A093A301B093A401BF91AF919F913C
:101290008F913F912F910F900FBE0F901F90189537
:1012A00026E8230F0296A11DB11DD2CF1F920F92E7
:1012B0000FB60F9211242F933F934F935F936F9329
:1012C0007F938F939F93AF93BF93EF93FF93E0919F
:1012D0000201F09103010995FF91EF91BF91AF9148
:1012E0009F918F917F916F915F914F913F912F913E
:1012F0000F900FBE0F901F9018951F920F920FB670
:101300000F9211242F933F934F935F936F937F938B
:101310008F939F93AF93BF93EF93FF93E09100015F
:10132000F09101010995FF91EF91BF91AF919F91CC
:101330008F917F916F915F914F913F912F910F907E
:101340000FBE0F901F9018951F920F920FB60F921D
:1013500011242F933F934F935F936F937F938F93BA
:101360009F93AF93BF93EF93FF93809184019091EC
:101370008501A0918601B0918701892B8A2B8B2B47
:10138000D1F190917F01E0918001F0918101808104
:10139000892780838091840190918501A0918601A5
:1013A000B0918701181619061A061B069CF4809145
:1013B000840190918501A0918601B09187010197E8
:1013C000A109B1098093840190938501A0938601BE
:1013D000B0938701FF91EF91BF91AF919F918F9152
:1013E0007F916F915F914F913F912F910F900FBE21
:1013F0000F901F901895809104010E946B03EACF13
:101400001F920F920FB60F9211242F933F934F9379
:101410005F936F937F938F939F93AF93BF93EF935C
:10142000FF938EE592E00E942104FF91EF91BF911E
:10143000AF919F918F917F916F915F914F913F916C
:101440002F910F900FBE0F901F9018951F920F9223
:101450000FB60F9211242F938F939F93EF93FF93C7
:10146000E0916E02F0916F028081E0917402F09140
:10147000750282FD1BC09081809177028F5F8F7310
:1014800020917802821741F0E0917702F0E0E25A71
:10149000FD4F958F80937702FF91EF919F918F91F0
:1014A0002F910F900FBE0F901F9018958081F4CF51
:1014B000ABEFB2E013961C921E92129748EE53E0E7
:1014C00060E070E014964D935D936D937C93179755
:1014D0008FE091E011969C938E93EEE5F2E01382FB
:1014E0001282448355836683778381E291E09183FE
:1014F000808385EC90E09587848784EC90E09787E3
:10150000868780EC90E0918B808B81EC90E0938BD0
:10151000828B82EC90E0958B848B86EC90E0978BAD
:10152000868B118E128E138E148EECE2F3E082E124
:1015300090E09287818783E190E094878387178684
:1015400082E0808B128A118A138A148A158A168A7D
:10155000178A108E118E128E138E148E158E168E83
:10156000178E10A211A213A212A28AE090E095A3F6
:1015700084A38BE486A381EE87A310A6B687A587F4
:1015800081E2808760E082E00E94C402E3E4F2E04E
:10159000E491AEE1B3E0EC93EFE2F2E0E491F0E04D
:1015A000EE0FFF1FED5DFD4F8591949112969C9378
:1015B0008E9311971B961C921B971D961C921D973C
:1015C0001C961C921C971A961C921A9719961C929C
:1015D000199718961C92189717961C92179716969B
:1015E0001C92169715961C92159714961C92149798
:1015F00013961C921397E7E0F3E0168A158A11827E
:10160000B287A18717821086108289E0838381E0E8
:101610008483858386830895CF93DF93CDB7DEB728
:10162000A9970FB6F894DEBF0FBECDBF789484B5EE
:10163000826084BD84B5816084BD85B5826085BDCE
:1016400085B5816085BD80916E00816080936E005C
:10165000109281008091810082608093810080914E
:1016600081008160809381008091800081608093FF
:1016700080008091B10084608093B1008091B000BF
:1016800081608093B00080917A00846080937A00BA
:1016900080917A00826080937A0080917A008160E4
:1016A00080937A0080917A00806880937A0010920B
:1016B000C10061E08CE00E94570264E670E080E0C7
:1016C00090E00E943703E0916E02F0916F0282E099
:1016D0008083E0916A02F0916B021082E0916C02CB
:1016E000F0916D028FEC808310927602E09172028D
:1016F000F091730286E08083E0917002F0917102B4
:10170000808180618083E0917002F091710280811C
:1017100088608083E0917002F0917102808180681E
:101720008083E0917002F091710280818F7D8083CF
:101730008CE491E00E94A60568EE73E080E090E002
:101740000E94370381E591E00E94A60564EC79E0F0
:1017500080E090E00E94370361E083E00E94C402D1
:1017600061E08CE00E94C40260E08EE00E94C4024E
:1017700060E08FE00E94C40260E080E10E94C40249
:1017800060E081E10E94C40261E08DE00E94C40239
:101790008AE691E00E94A60580E00E94DB0581E0D8
:1017A0000E94DB0582E00E94DB0583E00E94DB05EE
:1017B00084E00E94DB0581EF91E00E94BD0584E09A
:1017C000809354031092E7011092E6011092E90110
:1017D0001092E8010E9485028DE791E0909311023A
:1017E000809310028EE791E090931502809314028B
:1017F00080913F0320914103811103C0222309F40A
:10180000CCC08091390390913A033091340341E088
:101810004093C50130937E0160914003622B609339
:101820004503DC01ED91FC910190F081E02D0995DB
:101830009091400380914203892B809346038093CB
:10184000440390934B030091E80181E0013208F0DA
:101850009CC010917E010E9412036B017C0180915B
:10186000380281116CC082E08093380281E080935D
:101870003A028FEF8093370210925C0200935B0272
:10188000A5EAB1E0EBE3F2E080E00813FFC01092BC
:101890005D0280915D02110F182B10935D02809103
:1018A0003902813009F0F6C0109239020E94120309
:1018B0006B017C0180915D028093BB008091EB0104
:1018C0009091EC01A091ED01B091EE01892B8A2B52
:1018D0008B2BA1F00E9412030091EB011091EC01FF
:1018E0002091ED013091EE016C197D098E099F095F
:1018F000061717072807390708F442C08091BC0073
:1019000083FDD8CF85EC8093BC000E9412036B014D
:101910007C0180913802823009F4BEC08091370288
:101920008F3F09F4DBC080913702803209F4D8C0C0
:1019300080913702803309F0D5C083E026C08091C2
:10194000EB019091EC01A091ED01B091EE01892B9A
:101950008A2B8B2B09F483CF0E9412038090EB011A
:101960009090EC01A090ED01B090EE016C197D0912
:101970008E099F0986169706A806B90608F06FCF4C
:101980008091EA010E94A30285E01092E901109281
:10199000E8011092C5018093540380913B03882392
:1019A000D9F062E080913C030E94C40280913D0323
:1019B00090913E0320913C03223009F495C02330DE
:1019C00059F4909303018093020180916900837F11
:1019D000886080936900E99A2FB7F89480919D01FF
:1019E00090919E01A0919F01B091A0012FBF809383
:1019F000470390934803A0934903B0934A0380910F
:101A00005403811194C287EE91E00E94BD0504E069
:101A100044244A94542C320150EF852E56E0952EE2
:101A200066EEA62E61E0B62E71E3E72E72E0F72E89
:101A3000E5E4CE2EE2E0DE2E80910401843009F050
:101A40005FC0F501149117FDF7C061E084E00E94CA
:101A5000C402112309F4C2C0123009F0D3C080912E
:101A6000B100887F82608093B1008DED8093B300D8
:101A700040928401509285016092860170928701A4
:101A800080917000826080937000D6C09D91919388
:101A90008F5FFBCE85EE37CF8091EB019091EC010B
:101AA000A091ED01B091EE01892B8A2B8B2B09F4CB
:101AB00030CF0E9412030091EB011091EC012091B4
:101AC000ED013091EE016C197D098E099F09061711
:101AD00017072807390708F01CCF52CF80E055CFF1
:101AE00082E053CF84E051CF9093010180930001B5
:101AF000809169008C7F826080936900E89A6CCF46
:101B00008F3F09F099C084E080930401F50114919E
:101B10001F3F09F491C0113019F150F0123009F44F
:101B20003CC017FD89C061E084E00E94C40294CFEC
:101B300014BC15BC84B5826084BD85B5816085BD4B
:101B4000F7018491E82FF0E0EE0FFF1FEB5FFD4FF0
:101B500085919491F60184918093830110E075CF73
:101B600010928000109281008091810088608093A3
:101B7000810080918100816080938100F7018491D0
:101B8000E82FF0E0EE0FFF1FEB5FFD4F8591949182
:101B9000F60184918093820158CF1092B000109288
:101BA000B1008091B00082608093B0008091B1005C
:101BB00081608093B100F7018491E82FF0E0EE0F8F
:101BC000FF1FEB5FFD4F859194919093810180936E
:101BD0008001F601849180937F0137CF85B5887F9E
:101BE000826085BD8DED87BD40928C0150928D0144
:101BF00060928E0170928F0180916E00826080935E
:101C00006E001AC0113009F08AC180918100887F6E
:101C10008160809381009092890080928800409238
:101C200088015092890160928A0170928B018091A3
:101C30006F00826080936F006AEF70E080E090E058
:101C40000E94370384E00E946B036AEF70E080E03B
:101C500090E00E943703015009F0EECE68EE73E089
:101C600080E090E00E943703E0911003F0911103AF
:101C700013861586148612861186108617821682A0
:101C800015821482138210920E0310920F03772490
:101C90007394662463946E01FAE0CF0ED11C009118
:101CA000100310911103D8011D968C91882309F41B
:101CB00043C1F8011386158614868FE691E00E94D1
:101CC000A60586EF91E00E94BD056EEE72E080E011
:101CD00090E00E94370361E083E00E94300700E05B
:101CE00010E08EE592E00E9401041816190674F4C3
:101CF0008EE592E00E94DF0361E0813421F08136BD
:101D000009F040C260E08DE00E9457028FE00E941F
:101D10000003BC01990F880B990B0E9440130E948D
:101D2000A607609398017093990180939A0190930C
:101D30009B018EE00E940003BC01990F880B990B58
:101D40000E9440130E94A60760939401709395012E
:101D5000809396019093970180E10E940003BC015B
:101D6000990F880B990B0E9440130E94A60760935D
:101D7000900170939101809392019093930181E17E
:101D80000E940003BC01990F880B990B0E9440131D
:101D90000E94A607AB01BC01CE0101960E94FA0683
:101DA0004091900150919101609192017091930145
:101DB000CE010A960E94FA06409194015091950135
:101DC0006091960170919701CE0142960E94FA06A9
:101DD000409198015091990160919A0170919B01F5
:101DE000CE0148960E94FA061DA21CA21FA21EA2A6
:101DF00019A618A641E050E064E771E0CE01849690
:101E00000E94CF061F8E1E8E19A218A21BA21AA214
:101E10006CA17DA16115710531F048A559A5CE01D0
:101E20004E960E94CF06BE01685E7F4FCE014E9651
:101E30000E94BC0666E771E00E94A606BE016E5EC7
:101E40007F4F0E94BC0668E771E00E94A606BE01B3
:101E5000665F7F4F0E94BC066AE771E00E94A6069B
:101E6000BE016F5F7F4F0E94BC066CE771E00E946D
:101E7000A6060E94C4030E949E05CE014E960E94B3
:101E80004A06CE0184960E944A06CE0148960E94D8
:101E90004A06CE0142960E944A06CE010A960E9448
:101EA0004A06CE0101960E944A06609198017091FF
:101EB000990180919A0190919B010E9455156E3075
:101EC00071050CF065C161E080E00E94300761E0BF
:101ED00081E00E943007609194017091950180919A
:101EE0009601909197010E945515643171050CF08F
:101EF00055C161E082E00E94300768EE73E080E047
:101F000090E00E9437030115110509F4EACE0E9402
:101F10000D04882309F4E5CE0E940000E2CE1230C1
:101F200021F0111189CE80EF5ECE80EF9FCD8CEE37
:101F300091E00E94BD0592CEC8010E946605811104
:101F40000AC0D8011B961C921B971D961C921D97C8
:101F50001C961C92B2CE60EFC8010E941A05EE24B6
:101F6000E394A12C912CFF24F394C8010E94C70490
:101F7000B82EC8010E94C704B1E0BB1272C0813004
:101F800009F091C0E0E4EF1508F093CED8011B965C
:101F90009C921B97911002C01D967C92F801838140
:101FA000882309F486CED8011396FE013A96055F80
:101FB0001F4F7F018D918193A017B107D9F767E07B
:101FC000C7010E94B0049989891369CE80910E03DC
:101FD0008F5F80930E038A85883239F008F07AC0CB
:101FE000803119F0823209F05ACE80910F038F5F51
:101FF00080930F0380910703811125C08091100306
:10200000909111030E946605B70180911003909191
:1020100011030E94490564EB809110039091110314
:102020000E941A0580911003909111030E94C70429
:10203000182F80911003909111030E9466051111D1
:1020400002C0609207038A85803109F48EC08091B6
:102050001003909111030E946605811142C080E037
:1020600087C0EA2DF0E0B81214C0D8011B968C91FD
:102070001B97F816B0F4AE0FBF1F13968C918E21EC
:1020800091F4B12CB8E0BF1518F0D8011C96FC9261
:102090009F2CE00FF11F83819E2D909589238383D0
:1020A0000AC08F11EECFF801EA0DF11D83818E2950
:1020B0008383BB24B3946B2DC8010E94EB04F3947B
:1020C000EE0C19F4A394EE24E394B7E0BA1508F0EB
:1020D0004CCF58CF8B3309F488CF823409F0DFCD51
:1020E00084CFB70180911003909111030E9449059C
:1020F0006EEB80911003909111030E941A058E01DE
:102100000F5F1F4F7801180180901003909011030A
:1021100088E0A82EB12C512C44244394C4010E9481
:10212000C70481115428440CF1E0AF1AB108B1F78B
:10213000D7015D927D01AC15BD0531F7809110038B
:10214000909111030E946605813009F088CFF80153
:1021500081918F01811128C0EE16FF06C1F77FCF54
:102160008F3571F08F3709F07ACF8CE001C08AE0AB
:1021700090910A03981708F092CD80930A038FCDAF
:102180008BE0F6CF823709F0C1CD60E08CE0BCCDAA
:10219000673171050CF49FCE60E096CE6E3271050A
:1021A0000CF4ABCE60E0A6CE68E0C1010E94B004A2
:1021B0009985891354CF8D819A859B3311F487FDBE
:1021C000D4CF8F33A1F260F68F3109F048CF89E088
:1021D000CFCFEF920F931F93CF93DF93E80134E0BB
:1021E00047FD34E1042E000C550B57FF03C05195F9
:1021F00041955109E32E022F242FAE010E940711B1
:10220000CE01DF91CF911F910F91EF900895A9E03A
:10221000B0E0EDE0F1E10C943F146A01F22EB02E33
:10222000102FFBE3AF2EA01608F41BE31F5F012F56
:1022300027E0AE014F5F5F4F0E946612BC018981AB
:10224000982F9970913009F43FC09BE2E1FC04C0E3
:102250009E2D9170E0FC3AC05E2D5071E82FE87021
:1022600083FF46C084E0911101C083E0EF2DE81B9D
:102270008F1508F0E0E0D6018E2F20E2552351F1B2
:10228000992329F0D6019C93C60101966C01960111
:102290002D5F3F4FE2FE24C08EE4D6018C9391E483
:1022A00011969C93119712968C93D9018E2F90E2E0
:1022B00081111BC0E20FF32FF11D10828EEF9FEFF3
:1022C0002996ECE00C945B149DE2C6CF90E2C4CF5B
:1022D0002D9381508111FCCFCE0ED11CE0E0D0CFE8
:1022E0008EE6D6018C9391E6DBCF9D938150E0CFB3
:1022F000482F447082FF3DC084E0911101C083E00B
:102300008F1510F4EF2DE81BD6018E2F20E25523F8
:1023100009F1992329F0D6019C93C60101966C011D
:1023200096012D5F3F4FE2FE1BC089E4D6018C93DE
:102330008EE411968C93119786E412968C93D901B2
:102340008E2F90E2882309F4B5CF9D938150FACF68
:102350002D9381508111FCCFCE0ED11CE0E0D9CF5E
:1023600089E6D6018C938EE611968C93119786E6BA
:10237000E4CF9B0177FF02C030E020E0A1E0B0E0B5
:10238000911102C0B0E0A0E0F9013196AE0FBF1F7D
:102390008B2C912CBB2009F461C05401EFEFAE1AD5
:1023A000BE0AAA0DBB1DFA161B0619F014F04F2D1C
:1023B0004A1B511188C0E3FC59C07601A42FB0E23A
:1023C000A1114FC0C40ED11C992309F45BC040E099
:1023D000D6011196F60190836D01552309F448C08A
:1023E000012F060F9A81582F507184FF03C091333B
:1023F00009F4015010160CF047C0093008F008E04D
:10240000EEE2FE2E5B01A01AB10885019194819441
:1024100091082F3F320729F4D601FC92F60131963C
:102420006F016217730794F1021713077CF5DB0144
:10243000A21BB30BAA24A394B12CAC0EBD1EAA0DF3
:10244000BB1D11968C9121503109D601119628158A
:102450003905F4F0F60180836D01DBCFB12CA12C9E
:10246000A0CFF701B1937F01A150AACF9111B0CFB6
:10247000D601942F50E302C05D9391509111FCCF8F
:10248000C40ED11C40E0ACCF01E0BACF80E3DBCF7B
:102490006217730731F4963388F4953311F455239A
:1024A00069F0F6018083FD01842F90E2811108C05C
:1024B000A40FB11D1C9290E080E002CF81E3F1CF28
:1024C00091938150F3CF911183CF8ACF283008F0B8
:1024D00027E03327DA01990F311D87FD91600096BF
:1024E0006105710539F432602E5F3D9330E32A9522
:1024F000E1F708959F3F30F080387105610509F0DC
:102500003C5F3C5F3D93913008F08068911DDF9304
:10251000CF931F930F93FF92EF92192F987F969569
:10252000E92F96959695E90FFF27E45EFE4F9927D0
:102530003327EE24FF24A701E701059008940794B0
:1025400028F4360FE71EF81E491F511D660F771F2E
:10255000881F991F0694A1F70590079428F4E70EA9
:10256000F81E491F561FC11D770F881F991F661F30
:102570000694A1F70590079428F4F80E491F561FFA
:10258000C71FD11D880F991F661F771F0694A1F7DB
:102590000590079420F4490F561FC71FD81F990FA5
:1025A000661F771F881F0694A9F7849110951770EE
:1025B00041F0D695C79557954795F794E7941A95A6
:1025C000C1F7E2ECF0E068941590159135916591B2
:1025D000959105907FE27395E118F10A430B560B34
:1025E000C90BD009C0F7E10CF11E431F561FC91FCC
:1025F000D01D7EF4703311F48A95E6CFE894015033
:1026000030F0080F0AF40027021708F4202F239552
:10261000022F7A3328F079E37D932A95E9F710C0E9
:102620007D932A9589F60694979567953795179522
:102630001794E118F10A430B560BC90BD00998F017
:1026400023957E9173957A3308F070E37C93201381
:10265000B8F77E9170617D9330F0839571E37D933F
:1026600070E32A95E1F71124EF90FF900F911F91ED
:10267000CF91DF91992787FD90950895E89409C03F
:1026800097FB3EF490958095709561957F4F8F4FA5
:102690009F4F9923A9F0F92F96E9BB279395F695BB
:1026A000879577956795B795F111F8CFFAF4BB0F39
:1026B00011F460FF1BC06F5F7F4F8F4F9F4F16C09D
:1026C000882311F096E911C0772321F09EE8872F27
:1026D000762F05C0662371F096E8862F70E060E0E3
:1026E0002AF09A95660F771F881FDAF7880F96955C
:1026F000879597F908950E948E130C94FF130E94FA
:10270000F11338F00E94F81320F0952311F00C9487
:10271000E8130C94EE1311240C9433140E9410143B
:1027200070F3959FC1F3950F50E0551F629FF00124
:10273000729FBB27F00DB11D639FAA27F00DB11D3D
:10274000AA1F649F6627B00DA11D661F829F2227C6
:10275000B00DA11D621F739FB00DA11D621F839F4D
:10276000A00D611D221F749F3327A00D611D231F23
:10277000849F600D211D822F762F6A2F11249F5771
:1027800050409AF0F1F088234AF0EE0FFF1FBB1F74
:10279000661F771F881F91505040A9F79E3F510533
:1027A00080F00C94E8130C9433145F3FE4F3983EEC
:1027B000D4F3869577956795B795F795E7959F5FDD
:1027C000C1F7FE2B880F911D9695879597F908956F
:1027D00097F99F6780E870E060E008959FEF80ECD4
:1027E000089500240A941616170618060906089577
:1027F00000240A9412161306140605060895092EDD
:102800000394000C11F4882352F0BB0F40F4BF2B4B
:1028100011F460FF04C06F5F7F4F8F4F9F4F08958B
:1028200057FD9058440F551F59F05F3F71F0479581
:10283000880F97FB991F61F09F3F79F08795089566
:10284000121613061406551FF2CF4695F1DF08C085
:10285000161617061806991FF1CF869571056105A2
:1028600008940895E894BB2766277727CB0197F94A
:1028700008952F923F924F925F926F927F928F9224
:102880009F92AF92BF92CF92DF92EF92FF920F93FF
:102890001F93CF93DF93CDB7DEB7CA1BDB0B0FB609
:1028A000F894DEBF0FBECDBF09942A8839884888C6
:1028B0005F846E847D848C849B84AA84B984C8845C
:1028C000DF80EE80FD800C811B81AA81B981CE0F53
:1028D000D11D0FB6F894DEBF0FBECDBFED01089538
:1028E000EE0FFF1F0590F491E02D09945058BB277F
:1028F000AA270E948E140C94FF130E94F11338F043
:102900000E94F81320F039F49F3F19F426F40C9438
:10291000EE130EF4E095E7FB0C94E813E92F0E9408
:10292000101458F3BA17620773078407950720F04D
:1029300079F4A6F50C9432140EF4E0950B2EBA2F10
:10294000A02D0B01B90190010C01CA01A0011124B5
:10295000FF27591B99F0593F50F4503E68F11A1661
:10296000F040A22F232F342F4427585FF3CF4695F2
:1029700037952795A795F0405395C9F77EF41F1614
:10298000BA0B620B730B840BBAF09150A1F0FF0FDE
:10299000BB1F661F771F881FC2F70EC0BA0F621FCA
:1029A000731F841F48F4879577956795B795F795BA
:1029B0009E3F08F0B0CF9395880F08F09927EE0F4F
:1029C0009795879508950E94F7140C94FF130E9421
:1029D000F81358F00E94F11340F029F45F3F29F0FA
:1029E0000C94E81351110C9433140C94EE130E94C0
:1029F000101468F39923B1F3552391F3951B550BEC
:102A0000BB27AA2762177307840738F09F5F5F4FC1
:102A1000220F331F441FAA1FA9F335D00E2E3AF000
:102A2000E0E832D091505040E695001CCAF72BD018
:102A3000FE2F29D0660F771F881FBB1F2617370769
:102A40004807AB07B0E809F0BB0B802DBF01FF279B
:102A500093585F4F3AF09E3F510578F00C94E8137D
:102A60000C9433145F3FE4F3983ED4F38695779546
:102A70006795B795F7959F5FC9F7880F911D969554
:102A8000879597F90895E1E0660F771F881FBB1FB0
:102A9000621773078407BA0720F0621B730B840B5D
:102AA000BA0BEE1F88F7E09508950E945C156894B4
:102AB000B1110C94331408950E94181488F09F5794
:102AC00098F0B92F9927B751B0F0E1F0660F771F52
:102AD000881F991F1AF0BA95C9F714C0B13091F048
:102AE0000E943214B1E008950C943214672F782FAD
:102AF0008827B85F39F0B93FCCF38695779567950D
:102B0000B395D9F73EF490958095709561957F4F78
:102B10008F4F9F4F089516F00C94DB150C94EE1315
:102B200068940C94E8130E941814A8F39923C1F335
:102B3000AEF3DF93CF931F930F93FF92C92FDD273F
:102B400088232AF02197660F771F881FDAF720E085
:102B500030E040E85FEB9FE3883920F0803E38F0BA
:102B600021968F770E947714E8E6F0E004C00E9477
:102B70007714E5E9F0E00E94E9158B01BE01EC0154
:102B8000FB2E6F5771097595771F880B990B0E9463
:102B9000401328E132E741E35FE30E948E13AF2D3B
:102BA0009801AE01FF900F911F91CF91DF910E948C
:102BB0008E140C94FF139F3F31F0915020F48795B1
:102BC00077956795B795880F911D9695879597F995
:102BD0000895DF93CF931F930F93FF92EF92DF92AD
:102BE0007B018C01689406C0DA2EEF010E948E13DF
:102BF000FE01E894A5912591359145915591A6F353
:102C0000EF010E948E14FE019701A801DA9469F782
:102C1000DF90EF90FF900F911F91CF91DF9108957A
:102C20000F931F93CF93DF938230910510F482E0CE
:102C300090E0E0915703F091580330E020E0B0E0DD
:102C4000A0E0309799F42115310509F44AC0281BFA
:102C5000390B24303105D8F58A819B8161157105C6
:102C600089F1FB0193838283FE0111C04081518170
:102C70000281138148175907E0F04817590799F462
:102C8000109761F012960C93129713961C9332963C
:102C9000CF01DF91CF911F910F91089500935703BA
:102CA00010935803F4CF2115310551F04217530703
:102CB00038F0A901DB019A01BD01DF01F801C1CFA4
:102CC000EF01F9CF9093580380935703CDCFFE01C6
:102CD000E20FF31F819391932250310939832883A6
:102CE000D7CF2091550330915603232B41F42091E7
:102CF000070130910801309356032093550320912A
:102D00000501309106012115310541F42DB73EB77B
:102D10004091090150910A01241B350BE0915503A4
:102D2000F0915603E217F307A0F42E1B3F0B281770
:102D3000390778F0AC014E5F5F4F2417350748F034
:102D40004E0F5F1F50935603409355038193919309
:102D50009FCFF0E0E0E09CCFCF93DF930097E9F0C6
:102D6000FC01329713821282A0915703B09158034D
:102D7000ED0130E020E01097A1F420813181820F35
:102D8000931F20915503309156032817390709F0F6
:102D900061C0F0935603E0935503DF91CF910895FE
:102DA000EA01CE17DF07E8F54A815B819E014115F4
:102DB0005105B1F7E901FB83EA8349915991C40FA9
:102DC000D51FEC17FD0761F4808191810296840F75
:102DD000951FE90199838883828193819B838A83EC
:102DE000F0E0E0E012968D919C9113970097B9F571
:102DF0002D913C911197CD010296820F931F209146
:102E00005503309156032817390739F6309751F595
:102E10001092580310925703B0935603A093550392
:102E2000BCCFD383C28340815181840F951FC817C3
:102E3000D90761F44E5F5F4F88819981480F591F10
:102E4000518340838A819B8193838283211531053D
:102E500009F0B0CFF0935803E09357039ECFFD01E4
:102E6000DC01C0CF13821282D7CFB0E0A0E0EBE349
:102E7000F7E10C943B148C01009751F4CB010E94B4
:102E800010168C01C801CDB7DEB7E0E10C945714E1
:102E9000FC01E60FF71F9C0122503109E217F307EE
:102EA00008F49DC0D901CD91DC911197C617D707C1
:102EB00098F0C530D10530F3CE01049786179707F7
:102EC00008F3C61BD70B2297C193D1936D937C93C4
:102ED000CF010E94AC16D6CF5B01AC1ABD0A4C01E3
:102EE0008C0E9D1EA0915703B0915803512C412C7C
:102EF000F12CE12C109731F58091550390915603F8
:102F00008815990509F05CC04616570608F058C0A8
:102F10008091050190910601009741F48DB79EB70D
:102F20004091090150910A01841B950BE817F9079C
:102F300008F055C0F0935603E0935503F9017183EF
:102F40006083A0CF8D919C91119712966C901297EF
:102F500013967C901397A815B90559F56C0142E0BA
:102F6000C40ED11CCA14DB0420F1AC014A195B0960
:102F7000DA011296159780F0628273825183408342
:102F8000D9016D937C93E114F10471F0D70113968C
:102F9000FC93EE93129776CF22968C0F9D1FF9012A
:102FA00091838083F301EFCFF0935803E0935703AD
:102FB00069CF4816590608F42C017D01D3019ACF38
:102FC000CB010E9410167C01009749F0AE01B801B8
:102FD0000E94F217C8010E94AC16870153CF10E07F
:102FE00000E050CFFB01DC0102C001900D92415086
:102FF0005040D8F70895FB01DC0101900D920020AC
:08300000E1F70895F894FFCFF9
:103008006A036A03FF00005903800000000000D62D
:1030180001A901CD037F01A2018F018001000000F9
:103028000043049703D00390040104DF03F3030D66
:103038000A005231310052313200523133005231DC
:1030480034003A586623003A596623004D3130342B
:1030580000496E697469616C697A696E67204350CA
:103068005520436F72652E2E2E004D31303100539E
:0E307800313032005400410042004300440059
:00000001FF
