:100000000C9457010C947F010C947F010C947F0198
:100010000C947F010C947F010C947F010C947F0160
:100020000C947F010C947F010C947F010C947F0150
:100030000C947F010C947F010C947F010C947F0140
:100040000C94410C0C947F010C94B10C0C948B0C0F
:100050000C947F010C947F010C947F010C947F0120
:100060000C94E30C0C947F0108000000BE9224491C
:10007000123EABAAAA2ABECDCCCC4C3E00000080DA
:10008000BEABAAAAAA3E00000000BF000000803F4D
:100090000000000000084178D3BB4387D1133D190D
:1000A0000E3CC3BD4282AD2B3E68EC8276BED98F3A
:1000B000E1A93E4C80EFFFBE01C4FF7F3F0000007E
:1000C000000000407A10F35A00A0724E1809001088
:1000D000A5D4E80000E87648170000E40B540200BD
:1000E00000CA9A3B000000E1F505000080969800E8
:1000F000000040420F000000A08601000000102711
:1001000000000000E80300000000640000000000A0
:100110000A00000000000100000000002C76D888D2
:10012000DC674F0823DFC1DFAE59E1B1B796E5E3E5
:10013000E453C63AE651997696E8E6C28426EB89FE
:100140008C9B62ED407C6FFCEFBC9C9F40F2BAA59B
:100150006FA5F490055A2AF75C936B6CF9676DC133
:100160001BFCE0E40D47FEF520E6B500D0ED902E37
:100170000300943577050080841E080000204E0A95
:10018000000000C80C333333330F986E12831141D3
:10019000EF8D2114893BE65516CFFEE6DB18D1849E
:1001A0004B381BF77C1D901DA4BBE42420328472C5
:1001B0005E228100C9F124ECA1E53D273A426E237D
:1001C000003A416E23003A426E23003A416E23000A
:1001D0003A426E23003A416E2300005EBCE2613F6A
:1001E000DD83C29C7E20A3FD1F41009D23BE46DB14
:1001F00065F88C11AF32CA57E9745032303900506B
:100200003230380050323034005032303200503208
:100210003033005032313100503231300050323002
:100220003700503230350050323036004D313032E8
:10023000004D31303100496E697469616C697A69C9
:100240006E672043505520436F72652E2E2E00009E
:10025000000000240027002A0000000000250028DC
:10026000002B00000000080002010000030407004A
:10027000000000000000000000000023002600290C
:10028000000404040404040404020202020202033F
:100290000303030303010204081020408001020449
:1002A00008102001020408102000020EDD131124A2
:1002B0001FBECFEFD8E0DEBFCDBF23E0A2E9B1E0A3
:1002C00001C01D92A834B207E1F711E0A0E0B1E04F
:1002D000ECE2F6E302C005900D92A239B107D9F71E
:1002E00011E0C6E5D1E004C02197FE010E94A417E9
:1002F000C535D107C9F70E94AC0E0C94091B0C94AC
:10030000000008950895833081F028F4813099F039
:100310008230A9F008958730A9F08830C9F0843080
:10032000B1F4809180008F7D03C0809180008F7731
:1003300080938000089584B58F7784BD089584B537
:100340008F7DFBCF8091B0008F778093B0000895B0
:100350008091B0008F7DF9CFCF93DF93282F30E0CD
:10036000F901ED59FD4F8491F901EB56FD4FD49100
:10037000F901EF57FD4FC491CC23A1F081110E94E8
:100380008301EC2FF0E0EE0FFF1FE958FD4FA59120
:10039000B491EC91ED2381E090E009F480E0DF91ED
:1003A000CF91089580E090E0FACF1F93CF93DF9331
:1003B000282F30E0F901ED59FD4F8491F901EB56FA
:1003C000FD4FD491F901EF57FD4FC491CC23A9F013
:1003D000162F81110E948301EC2FF0E0EE0FFF1F1A
:1003E000E75AFD4FA591B4918FB7F894EC91111194
:1003F00008C0D095DE23DC938FBFDF91CF911F9192
:100400000895DE2BF8CFCF93DF9390E0FC01EB56FD
:10041000FD4F24918F579D4FFC0184918823D1F08B
:1004200090E0880F991FFC01E15BFD4FA591B4910D
:10043000FC01E75AFD4FC591D49161110EC09FB7E1
:10044000F8948C91E22FE0958E238C932881E223FF
:10045000E8839FBFDF91CF9108958FB7F894EC9117
:10046000E22BEC938FBFF6CFCF93DF93EC0161E0EB
:1004700089E00E940302209731F460E089E0DF9177
:10048000CF910C94D501CF3FD10511F461E0F6CFA7
:10049000ECE6F2E0E491E33029F140F4E130B1F030
:1004A000E230D9F0C038D1058CF7E7CFE73021F141
:1004B000E83051F1E430B1F78091800080628093A0
:1004C0008000D0938B00C0938A0004C084B58068FC
:1004D00084BDC7BDDF91CF91089584B5806284BD8E
:1004E000C8BDF8CF80918000806880938000D09351
:1004F0008900C0938800EECF8091B000806880931F
:10050000B000C093B300E6CF8091B00080628093CA
:10051000B000C093B400DECF8E50806480937C0026
:1005200080917A00806480937A0080917A0086FDC1
:10053000FCCF809178009091790008953FB7F894AE
:100540008091020290910302A0910402B0910502F1
:1005500026B5A89B05C02F3F19F00196A11DB11D1E
:100560003FBFBA2FA92F982F8827BC01CD01620F5A
:10057000711D811D911D42E0660F771F881F991F15
:100580004A95D1F708958F929F92AF92BF92CF92E2
:10059000DF92EF92FF924B015C010E949E026B0181
:1005A0007C010E949E026C197D098E099F09683E9C
:1005B000734081059105A8F321E0821A9108A108F2
:1005C000B10888EEC80E83E0D81EE11CF11C81142E
:1005D0009104A104B10429F7FF90EF90DF90CF9030
:1005E000BF90AF909F908F9008950895FC01248153
:1005F00035816217730720F480819181009729F477
:100600001092F60186EF91E00895860F971F0895E6
:10061000AF92BF92CF92DF92EF92FF920F931F9310
:10062000CF93DF936C017B018B01040F151FEB014E
:100630005E01AE18BF08C017D10759F06991D60105
:10064000ED91FC910190F081E02DC6010995892B77
:1006500079F7C501DF91CF911F910F91FF90EF9036
:10066000DF90CF90BF90AF900895FC0144815581F9
:100670006081718180E692E00C940803FC01538D47
:10068000448D252F30E0842F90E0821B930B54176C
:1006900010F0CF96089501970895FC01918D828DF9
:1006A000981761F0A28DAE0FBF2FB11D5D968C9192
:1006B000928D9F5F9F73928F90E008958FEF9FEFD1
:1006C00008952FB7F8948091060290910702A091A7
:1006D0000802B09109022FBF8093680290936902CB
:1006E000A0936A02B0936B0280E692E00E944D03F1
:1006F00097FF26C02FB7F8948091060290910702C9
:10070000A0910802B09109022FBF40916802509158
:10071000690260916A0270916B02841B950BA60BB3
:10072000B70B40916402509165026091660270912E
:10073000670284179507A607B707B0F28FEF9FEF00
:100740000895FC01918D828D981731F0828DE80F0C
:10075000F11D858D90E008958FEF9FEF0895FC01C6
:10076000918D228D892F90E0805C9F4F821B910993
:100770008F739927089580E692E00E94AF0321E0ED
:10078000892B09F420E0822F089580E090E0892BE6
:1007900029F00E94BB0381110C9400000895FC0114
:1007A000A48DA80FB92FB11DA35ABF4F2C91848DD2
:1007B00090E001968F739927848FA689B7892C932F
:1007C000A089B1898C91837080648C93938D848D82
:1007D000981306C00288F389E02D80818F7D808385
:1007E0000895EF92FF920F931F93CF93DF93EC0145
:1007F00081E0888F9B8D8C8D98131AC0E889F989C8
:10080000808185FF15C09FB7F894EE89FF896083CA
:10081000E889F98980818370806480839FBF81E04B
:1008200090E0DF91CF911F910F91FF90EF9008958D
:10083000F62E0B8D10E00F5F1F4F0F731127E02E68
:100840008C8D8E110CC00FB607FCFACFE889F989A0
:10085000808185FFF5CFCE010E94CF03F1CFEB8DD4
:10086000EC0FFD2FF11DE35AFF4FF0829FB7F89474
:100870000B8FEA89FB8980818062CFCFCF93DF9392
:10088000EC01888D8823B9F0AA89BB89E889F989A8
:100890008C9185FD03C0808186FD0DC00FB607FCDD
:1008A000F7CF8C9185FFF2CF808185FFEDCFCE0110
:1008B0000E94CF03E9CFDF91CF9108952091B3013A
:1008C000260F3327331F21323105ECF420913602F5
:1008D000FC0190E080E0243069F082E00895A0916E
:1008E000B3012191AC014D565E4FA40FB52FB11D40
:1008F0002C930196861798F38091B301680F60934B
:10090000B30180E0089581E008951092360281E0FD
:10091000809335021092100261E082E10E94D501BD
:1009200061E083E10E94D501E9EBF0E080818E7FF8
:10093000808380818D7F808388E48093B80085E404
:100940008093BC000895CF93DF9391E09093920140
:100950008823B9F0C091B800D091BA008091BC0052
:100960008A7B8093BC0060E082E10E94D50160E058
:1009700083E10E94D5010E948504D093BA00C09300
:10098000B800DF91CF9108958F929F92AF92BF925E
:10099000CF92DF92EF92FF920F931F93CF93DF934B
:1009A000D0915F02D13208F0D7C0182FC0915E02FB
:1009B0000E949E026B017C018091360281116BC006
:1009C00082E080933602109335028FEF80933402D9
:1009D00010923302D0933202AEE3B2E0E2E1F2E0F1
:1009E00080E0D81391C01092110280911102CC0FB7
:1009F000C82BC093110280911002813009F088C089
:100A0000109210020E949E026B017C0180911102E3
:100A10008093BB008091380290913902A0913A02F4
:100A2000B0913B02892B8A2B8B2BA1F00E949E0256
:100A3000009138021091390220913A0230913B0224
:100A40006C197D098E099F090617170728073907B2
:100A500008F442C08091BC0083FDD8CF85EC809320
:100A6000BC000E949E026B017C01809136028230A4
:100A700009F450C0809134028F3F09F46FC0809117
:100A80003402803209F46CC080913402803309F45E
:100A900069C084E026C08091380290913902A0910B
:100AA0003A02B0913B02892B8A2B8B2B09F484CF1D
:100AB0000E949E028090380290903902A0903A02E3
:100AC000B0903B026C197D098E099F098616970626
:100AD000A806B90608F070CF809137020E94A304DF
:100AE00085E010923D0210925F0210923C02DF916D
:100AF000CF911F910F91FF90EF90DF90CF90BF901B
:100B0000AF909F908F9008959D9191938F5F69CF43
:100B100085EEA5CF8091380290913902A0913A02DA
:100B2000B0913B02892B8A2B8B2B09F49ECF0E941C
:100B30009E02009138021091390220913A023091C0
:100B40003B026C197D098E099F09061717072807B4
:100B5000390708F08ACFC0CF81E0C3CF80E0C1CF92
:100B600082E0BFCF83E0BDCFCF93DF93EC016A83F8
:100B70008E819F81288131E030933C0220935E0278
:100B800010923D0210925F02DC01ED91FC91019008
:100B9000F081E02D099581E00E94C40490E09D83DE
:100BA0008C83DF91CF910895FC01683028F081E8B3
:100BB00090E0958384830895828121E030E001C034
:100BC000220F6A95EAF7411107C020952823228356
:100BD0006281CF010C94B405282BF9CFFC018081F0
:100BE00091E090933C0280935E0210923D0210923D
:100BF0005F0281E00E94C40491E0811190E0892F9E
:100C000008950F931F93CF938C0110920F021092AF
:100C10000E0210923D0210925F020E94850481E84C
:100C200091E090930D0280930C0282E891E0909302
:100C30000B0280930A02C8010E94EE05C82F882388
:100C400021F06FEFC8010E94B4058C2FCF911F9146
:100C50000F9108950895E0910F0280910E02E81718
:100C600030F4F0E0EA52FE4F808190E008958FEF7B
:100C70009FEF089590910F0280910E022FEF3FEFAA
:100C8000981748F4E92FF0E0EA52FE4F208130E057
:100C90009F5F90930F02C901089580910E02909179
:100CA0000F02891B990B0895CF92DF92EF92FF926A
:100CB0000F931F93CF93DF937C01CB018A01209187
:100CC0003C02222389F0EB016B01C40ED51ECC152A
:100CD000DD0569F06991D701ED91FC910190F081FA
:100CE000E02DC7010995F3CF642F0E945E04C8016F
:100CF000DF91CF911F910F91FF90EF90DF90CF90F8
:100D00000895CF93DF931F92CDB7DEB7698320910B
:100D10003C022223F9F020915F02203258F021E0BA
:100D200030E0FC013383228390E080E00F90DF917C
:100D3000CF91089580913D02E82FF0E0E25CFD4FF5
:100D4000998190838F5F80933D0280935F0281E061
:100D500090E0ECCF61E0CE0101960E945E04F7CFF7
:100D600090E080E00895DC0180E0615090F09D917A
:100D70009827E92FEF70F0E0E652FE4F2491E92F1B
:100D8000E295EF70F0E0E651FE4FE491822F8E275E
:100D9000ECCF0895DC012C911196ED91FC91F89423
:100DA0008181822B81839281322F3095932392838C
:100DB00087E090E00197F1F781818323818383E2CB
:100DC00090E00197F1F790817894EFECF0E03197A3
:100DD000F1F7922381E009F480E00895FC0190810D
:100DE0000180F281E02D292F209560FF14C0F89436
:100DF0008281822382838181892B8183A3E2B0E077
:100E00001197F1F78281982B9283789487ED90E087
:100E10000197F1F70895F89482818223828381817A
:100E2000892B8183AFEFB0E01197F1F78281982B86
:100E3000928378948FE090E0EBCFEF92FF920F9344
:100E40001F93CF93DF93EC01E62E08E010E0FF2420
:100E5000F39461E08E2D8F2109F460E0CE010E94B1
:100E6000EE06FF0C01501109A1F7F894E981FA810F
:100E700091818881809589238183E981FA8192819A
:100E800088818095892382837894DF91CF911F9107
:100E90000F91FF90EF900895EF92FF920F931F93A1
:100EA000CF93DF938C017B0165E50E941D07E7016D
:100EB00088E0E80EF11C6991C8010E941D07CE155B
:100EC000DF05C9F7DF91CF911F910F91FF90EF9050
:100ED0000895FC0190810180F281E02DF8948181D8
:100EE000292F20958223818378943DE743E050E0C9
:100EF000315029F1DA011197F1F780818923C1F38B
:100F0000F8948281822382838181892B81837894E2
:100F1000ABE7B7E01197F1F7F894818182238183E1
:100F2000A3E1B1E01197F1F78081982381E009F006
:100F300080E07894E3E6F6E03197F1F7089580E0F9
:100F400008958F929F92AF92BF92CF92DF92EF92CD
:100F5000FF920F931F93CF93DF93683048F021E8FF
:100F600030E0DC0115963C932E93149780E0B0C0DE
:100F7000062FEC0118810E949E026B017C0180917A
:100F80003602811164C081E080933602809335027D
:100F90009FEF9093340210923302109232028093AA
:100FA000110280911102110F182B109311028091E0
:100FB0001002813009F099C0109210020E949E0226
:100FC0006B017C01809111028093BB0080913802FB
:100FD00090913902A0913A02B0913B02892B8A2B61
:100FE0008B2BA1F00E949E028090380290903902D3
:100FF000A0903A02B0903B026C197D098E099F09BE
:1010000086169706A806B90608F442C08091BC006F
:1010100083FDD8CF85EC8093BC000E949E026B01BB
:101020007C0180913602813009F461C080913302E5
:1010300081117FC080913302A2E1B2E0E6EDF1E0E0
:1010400090E0981751F12D9121939F5FFACF8091F5
:10105000380290913902A0913A02B0913B02892B5B
:101060008A2B8B2B09F48BCF0E949E028090380232
:1010700090903902A0903A02B0903B026C197D0921
:101080008E099F0986169706A806B90608F077CF3D
:10109000809137020E94A30480E010920F02809397
:1010A0000E02813009F447C082E890E09D838C8372
:1010B000298130E081E090E002C0880F991F0A95F5
:1010C000E2F72823392381E0121613060CF04ECFE5
:1010D000DF91CF911F910F91FF90EF90DF90CF9014
:1010E000BF90AF909F908F90089585EE94CF8091A0
:1010F000380290913902A0913A02B0913B02892BBB
:101100008A2B8B2B09F48DCF0E949E02809038028F
:1011100090903902A0903A02B0903B026C197D0980
:101120008E099F0986169706A806B90608F079CF9A
:10113000AFCF81E081CF8E819F81DC01ED91FC9169
:101140000284F385E02D09958983B2CF42E050E017
:101150006AE271E080E692E00C940803CF93DF939B
:10116000FC0101900020E9F73197AF01481B590BB2
:10117000BC0180E692E00E940803EC010E94A608F0
:101180008C0F9D1FDF91CF9108950F931F93CF93E5
:10119000DF938C01D0E0C0E0F801EC0FFD1F6491FB
:1011A000662341F080E692E00E94F103892B11F062
:1011B0002196F2CF0E94A6088C0F9D1FDF91CF9140
:1011C0001F910F910895CF93DF93EC01888199814E
:1011D000009711F00E94AA19198218821D821C82A0
:1011E0001B821A82DF91CF910895FC018081918149
:1011F000009711F00C94AA190895FC018081918147
:10120000009711F00C94FF1360E070E0CB0108959B
:101210000F931F93CF93DF93EC01888199810097FF
:1012200059F02A813B812617370730F081E0DF91A2
:10123000CF911F910F9108958B016F5F7F4F0E9497
:10124000331A009759F0998388831B830A832C8172
:101250003D81232B59F7FC011082E8CF80E0E7CFD6
:10126000EF92FF920F931F93CF93DF936115710558
:1012700041F480E0DF91CF911F910F91FF90EF90AB
:10128000089541155105B1F07B01EC010C811D81E0
:10129000040F151FB8010E940809882351F3288103
:1012A00039818C819D81B701820F931F0E94021B9F
:1012B0001D830C8381E0DECFEF92FF920F931F938B
:1012C000CF93DF93CDB7DEB764970FB6F894DEBF48
:1012D0000FBECDBF7C01CB01BA018E010F5F1F4F46
:1012E00022E044E00E94E113FC0101900020E9F7B4
:1012F0003197AF01481B590BBC01C7010E9430094F
:10130000811103C0C7010E94E308C70164960FB6AC
:10131000F894DEBF0FBECDBFDF91CF911F910F912B
:10132000FF90EF900895CF93DF93EC01FB010190C4
:101330000020E9F73197AF01461B570B0E94300997
:10134000811103C0CE010E94E308CE01DF91CF914D
:101350000895EF92FF920F931F93CF93DF93EC01C9
:101360007B018A01BA010E94080981110BC0CE01DC
:101370000E94E308CE01DF91CF911F910F91FF9062
:10138000EF9008951D830C83B701888199810E9495
:10139000021BF0CFFB0101900020E9F73197AF016C
:1013A000461B570B0C94A909FB0101900020E9F79B
:1013B0003197AF01461B570B0C94A909AF92BF920E
:1013C000CF92DF92EF92FF920F931F93CF93DF9311
:1013D000EC015B016A0179012417350720F48D2D9A
:1013E0006901E42EF82E198218821B821A821D824E
:1013F0001C826CE271E0CE010E94D409D5011496E2
:101400000D911C91C016D106E8F4E016F10608F41F
:101410008701D501ED91FC911197E00FF11FF0804C
:1014200010826D917C916C0D7D1DCE016115710551
:10143000A9F00E94CA09F50180819181080F191F46
:10144000D801FC92CE01DF91CF911F910F91FF90B7
:10145000EF90DF90CF90BF90AF9008950E94E30887
:10146000EACFCF92DF92EF92FF920F931F93CF9329
:10147000DF93CDB7DEB72C970FB6F894DEBF0FBE63
:10148000CDBF182F062F18861F821A8619861C8634
:101490001B866CE271E0CE0107960E94D4096DE2D2
:1014A00071E01B3041F161E371E01C3009F470C060
:1014B00065E371E01D3009F475C069E371E01E3029
:1014C00009F47AC06DE371E01F3009F47FC061E474
:1014D00071E0103109F484C065E471E0113109F460
:1014E00089C069E471E0123109F48EC0153109F048
:1014F0004BC06DE471E0CE0107960E94CA0910E06E
:1015000023E030E041E050E0BE01695F7F4FCE0153
:1015100001960E94DE09CE0101960E94FD086B0132
:10152000CE0101960E94F508C6010B97089708F0B6
:10153000A8C0612F8CE393E0011181C00E94A10734
:10154000882309F46EC040E0612F8CE393E00E9491
:10155000D405CE0107960E94350385ED91E00E94E7
:10156000C508CE0107960E94F5082C960FB6F89490
:10157000DEBF0FBECDBFDF91CF911F910F91FF90C6
:10158000EF90DF90CF900895163141F461E571E05E
:10159000CE0107960E94CA0911E0B2CF173141F47B
:1015A00065E571E0CE0107960E94CA0912E0A8CF56
:1015B000183141F469E571E0CE0107960E94CA092D
:1015C00013E09ECF193141F46DE571E0CE0107962D
:1015D0000E94CA0914E094CF1A3141F461E671E027
:1015E000CE0107960E94CA0915E08ACF1B3141F44B
:1015F00065E671E0CE0107960E94CA0916E080CF29
:101600001C3141F469E671E0CE0107960E94CA09D7
:1016100017E076CF6DE671E0CE0107960E94CA0909
:101620006FCF612F8CE393E00E94A107811199CFC6
:10163000CE0107960E94350380ED91E090CF0E9485
:10164000A107813069F041E0612F8CE393E00E94B3
:10165000D405CE0107960E94350380E791E00EC0C5
:10166000612F8CE393E00E94A107813009F079CFCC
:10167000CE0107960E94350385E791E00E94AE08EF
:1016800070CF85E1C81AD10888E0C816D10488F562
:10169000612F88E293E001111FC00E94A1078823F7
:1016A00069F040E0612F88E293E00E94D405CE010A
:1016B00007960E9435038BEC91E051CF612F88E2B1
:1016C00093E00E94A10781114CCFCE0107960E94A2
:1016D000350386EC91E043CF0E94A107813029F0C9
:1016E00041E0612F88E293E0B2CF612F88E293E07E
:1016F000BACF812F01111CC00E94AC01892B59F077
:1017000060E0812F0E94D501CE0107960E9435032B
:1017100081EC91E024CF812F0E94AC01892B09F04C
:1017200020CFCE0107960E9435038CEB91E017CFB6
:101730000E94AC01019729F061E0812F0E94D50140
:1017400088CF812F0E94AC01019709F00ACF90CF7A
:10175000FB01DC0111961C921E9213961C921E92A4
:10176000129715961C921E9214978617970749F0A8
:10177000608171816115710521F0448155810C945E
:10178000A909089585ED8093BC008091380290915D
:101790003902A0913A02B0913B020796A11DB11DFA
:1017A00023E0B695A795979587952A95D1F720912F
:1017B000BC0024FD03C01092360208954091380207
:1017C0005091390260913A0270913B02452B462BB1
:1017D000472B69F30097A105B10541F025E32A9550
:1017E000F1F700000197A109B109E1CF809137021B
:1017F0000C94A304CF92DF92EF92FF922AE038E29A
:1018000040EA5BE30E94AF166B017C01AC019B01D7
:1018100060E070E080EA90E40E94AA1720E030E4E3
:101820004CE156E40E9417189B01AC01C701B601B8
:101830000E94171820E030E44CE156E40E9417188B
:101840000E94911820E030E948E755E40E941718FB
:101850002FE03FEC4BE55BE30E94AB179B01AC0133
:1018600060E070E080E89FE30E94171823E333E90B
:1018700048E853E40E94AA17FF90EF90DF90CF90C2
:1018800008951F920F920FB60F9211242F933F933A
:101890008F939F93AF93BF9380910602909107021D
:1018A000A0910802B09109023091010223E0230FB8
:1018B0002D3758F50196A11DB11D2093010280938B
:1018C000060290930702A0930802B0930902809148
:1018D000020290910302A0910402B09105020196C8
:1018E000A11DB11D8093020290930302A0930402F4
:1018F000B0930502BF91AF919F918F913F912F912E
:101900000F900FBE0F901F90189526E8230F029698
:10191000A11DB11DD2CF1F920F920FB60F921124AD
:101920002F933F934F935F936F937F938F939F93E7
:10193000AF93BF93EF93FF9380E692E00E94CF03B3
:10194000FF91EF91BF91AF919F918F917F916F9197
:101950005F914F913F912F910F900FBE0F901F906D
:1019600018951F920F920FB60F9211242F938F93F9
:101970009F93EF93FF93E0917002F0917102808149
:10198000E0917602F091770282FD1BC090818091F8
:1019900079028F5F8F7320917A02821741F0E09174
:1019A0007902F0E0E05AFD4F958F80937902FF9124
:1019B000EF919F918F912F910F900FBE0F901F90DD
:1019C00018958081F4CF1F920F920FB60F921124B9
:1019D0002F933F934F935F936F937F938F939F9337
:1019E000AF93BF93EF93FF938091B900887F8036C8
:1019F00009F44AC0F0F5883209F4A7C018F580311F
:101A000009F49BC0B8F4882309F4F9C0883009F4BC
:101A100094C0FF91EF91BF91AF919F918F917F9172
:101A20006F915F914F913F912F910F900FBE0F904B
:101A30001F901895883109F488C0803251F780933F
:101A4000340214C0803409F49DC040F48033B9F3EB
:101A50008833F9F68093340285ECB0C0803509F400
:101A600085C0883509F496C0883499F60E94C20B67
:101A7000D0CF883909F48CC038F5883729F050F474
:101A8000883611F0803729F683E080933602109271
:101A9000D50157C0883809F47BC0803919F08038E7
:101AA00009F0B7CF8091D501803208F071C0E09184
:101AB000D50181E08E0F8093D5018091BB00F0E0CD
:101AC000EB54FE4F80833DC0803B39F0E0F4803A18
:101AD00009F479C0883A09F09CCF84E080933602FB
:101AE0001092B4011092B301E0910C02F0910D023A
:101AF00009958091B30181110FC081E08093B301FA
:101B00001092930109C0803C09F4A6CF883C09F4E7
:101B1000A3CF883B09F07DCFE091B40181E08E0F27
:101B20008093B401F0E0ED56FE4F80818093BB00BE
:101B30009091B4018091B30129C0809111028093EA
:101B4000BB0085EC8093BC0064CF90913302809100
:101B50003202981758F5E091330281E08E0F80939E
:101B60003302F0E0EE5EFD4F8081E9CFE091330279
:101B700081E08E0F809333028091BB00F0E0EE5E37
:101B8000FD4F808390913302809132029817C8F202
:101B900085E8D8CFE091330281E08E0F8093330245
:101BA0008091BB00F0E0EE5EFD4F808380913502B6
:101BB00081115CCF81E08093100284EA8093BC00A5
:101BC0001092360226CF85EC8093BC00109236022C
:101BD0008091D501803230F4E091D501F0E0EB54F2
:101BE000FE4F10826091D50170E0E0910A02F09101
:101BF0000B0285EB91E009951092D5010ACF109266
:101C0000340234CFE0E6F2E01382128248EE53E071
:101C100060E070E044835583668377838AE091E0D7
:101C20009183808385EC90E09587848784EC90E0B5
:101C30009787868780EC90E0918B808B81EC90E099
:101C4000938B828B82EC90E0958B848B86EC90E07A
:101C5000978B868B118E128E138E148EA0E3B3E0B9
:101C600013961C921E92129714964D935D936D934A
:101C70007C9317978CE191E011969C938E93ECE303
:101C8000F3E080E28083B783A68311828FEF8283A3
:101C9000838315821482E8E2F3E098E39083B783AC
:101CA000A6831182828383831582148260E087E099
:101CB0000E940302ECE9F2E0E491AAE1B3E0EC93C4
:101CC000E8E8F2E0E491F0E0EE0FFF1FE958FD4F85
:101CD0008591949112969C938E9311971B961C92CA
:101CE0001B971D961C921D971C961C921C971A966A
:101CF0001C921A9719961C92199718961C9218976D
:101D000017961C92179716961C92169715961C926A
:101D1000159714961C92149713961C921397E3E050
:101D2000F3E0168A158A1182B287A187178210867E
:101D3000108289E0838381E0848385838683EDEF4D
:101D4000F2E01182108213821282158214826CE2F8
:101D500071E0CF010C94D409CF93DF93CDB7DEB7F8
:101D600061970FB6F894DEBF0FBECDBF789484B5EF
:101D7000826084BD84B5816084BD85B5826085BD87
:101D800085B5816085BD80916E00816080936E0015
:101D90001092810080918100826080938100809107
:101DA00081008160809381008091800081608093B8
:101DB00080008091B10084608093B1008091B00078
:101DC00081608093B00080917A00846080937A0073
:101DD00080917A00826080937A0080917A0081609D
:101DE00080937A0080917A00806880937A001092C4
:101DF000C10061E088E00E94D50164E670E080E007
:101E000090E00E94C30261E089E00E94030264E660
:101E100070E080E090E00E94C30290E080E00E94C9
:101E2000340261E08FE00E94310A64E670E080E0F5
:101E300090E00E94C302E0917002F091710282E092
:101E40008083E0916C02F0916D021082E0916E024D
:101E5000F0916F028FEC808310927802E09174020F
:101E6000F091750286E08083E0917202F091730236
:101E7000808180618083E0917202F09173028081A1
:101E800088608083E0917202F091730280818068A3
:101E90008083E0917202F091730280818F7D808354
:101EA0008AE791E00E94AE0864E670E080E090E08E
:101EB0000E94C30286E392E00E94C50864EC79E0C8
:101EC00080E090E00E94C30260E08EE00E94030286
:101ED00060E08FE00E94030260E080E10E94030264
:101EE00060E081E10E94030261E088E00E94030259
:101EF00061E08DE00E94030281E392E00E94C50848
:101F000068EE73E080E090E00E94C30261E08BE045
:101F10000E94030261E08CE00E94030261E08DE018
:101F20000E94030261E08EE00E94030261E08FE004
:101F30000E94030261E080E10E94030261E081E10E
:101F40000E94030261E082E10E9403028EE092E0BF
:101F50000E94C5088CE393E00E940106882309F4DF
:101F6000C4C089E092E00E94C5088CE393E00E941F
:101F7000EE05882309F4C2C08FEF91E00E94C508E6
:101F80006FEF8CE393E00E94B40568EE73E080E0AD
:101F900090E00E94C30261E085E10E94030261E0DB
:101FA00086E10E94030261E087E10E94030261E092
:101FB00088E10E94030261E089E10E94030261E07E
:101FC0008AE10E94030261E08BE10E94030261E06A
:101FD0008CE10E94030287E292E00E94C50888E239
:101FE00093E00E940106882309F491C082E292E006
:101FF0000E94C50888E293E00E94EE05882309F458
:1020000089C088E192E00E94C5086FEF88E293E002
:102010000E94B40568EE73E080E090E00E94C30285
:10202000E0910C03F0910D03138615861486128639
:1020300011861086178216821582148213821092DE
:102040000A0310920B0377247394662463946E0141
:102050008AE0C80ED11C00910C0310910D03D80129
:102060001D968C91882309F45EC0F80113861586AD
:1020700014868FE791E00E94AE088CE292E00E9405
:10208000C5086EEE72E080E090E00E94C30280E03E
:10209000282E80E0382E01E810E080E692E00E94D1
:1020A000AF03181619060CF056C21A8219821C8248
:1020B0001B821E821D826CE271E0CE0101960E949D
:1020C000D4090E94610397FD54C18A30910509F437
:1020D00050C18A871B8641E050E0BE01665F7F4F9A
:1020E000CE0101960E943009ECCF8CE393E00E9470
:1020F000010681113ACF84E092E035CF8CE393E082
:102100000E94EE0581113CCF8AEF91E037CF8DE13F
:1021100092E06ECF88E293E00E94EE05811175CFC8
:1021200083E192E070CFC8010E94690781110AC063
:10213000D8011B961C921B971D961C921D971C96EE
:102140001C9297CF60EFC8010E941D07EE24E39414
:10215000A12C912CFF24F394C8010E94CA06B82E2A
:10216000C8010E94CA06B1E0BB1272C0813009F0FA
:1021700091C0E0E4EF1508F078CFD8011B969C924F
:102180001B97911002C01D967C92F80183818823D1
:1021900009F46BCFD8011396FE013A96055F1F4FE5
:1021A0007F018D918193A017B107D9F767E0C7012F
:1021B0000E94B306998989134ECF80910A038F5FDD
:1021C00080930A038A85883239F008F07AC080311A
:1021D00019F0823209F03FCF80910B038F5F80931B
:1021E0000B0380910C0390910D03209103032111A7
:1021F00021C00E946907B70180910C0390910D03E3
:102200000E944C0764EB80910C0390910D030E9497
:102210001D0780910C0390910D030E94CA06182F90
:1022200080910C0390910D030E946907111102C067
:102230006092030380910C0390910D032A85203155
:1022400009F48AC00E946907811142C080E087C0FA
:10225000EA2DF0E0B81214C0D8011B968C911B97A0
:10226000F816B0F4AE0FBF1F13968C918E2191F427
:10227000B12CB8E0BF1518F0D8011C96FC929F2C29
:10228000E00FF11F83819E2D9095892383830AC0DF
:102290008F11EECFF801EA0DF11D83818E29838322
:1022A000BB24B3946B2DC8010E94EE06F394EE0C90
:1022B00019F4A394EE24E394B7E0BA1508F04CCFD8
:1022C00058CF8B3309F488CF823409F0C4CE84CF41
:1022D000B70180910C0390910D030E944C076EEBA7
:1022E00080910C0390910D030E941D078E010F5FDA
:1022F0001F4F7801180180900C0390900D0398E017
:10230000A92EB12C512C44244394C4010E94CA0626
:1023100081115428440CF1E0AF1AB108B1F7D7018C
:102320005D927D01AC15BD0531F780910C03909154
:102330000D030E946907813009F088CFF80181916F
:102340008F01811123C2EE15FF05C1F77FCF8F35B5
:1023500071F08F3709F07ACF8CE001C08AE090915C
:102360000603981708F077CE8093060374CE8BE0AF
:10237000F6CF8091FD029091FE02009709F48CC087
:1023800069817A816115710509F484C04091FF0269
:10239000509100032D813E814217530708F47AC003
:1023A0000E94021B8D819E81909302038093010302
:1023B0001E821D82CE0101960E94F50880910103C4
:1023C00090910203892BC1F0E090FD02F090FE0293
:1023D00064E871E0C7010E94F91A61E0892B49F0B5
:1023E00066E871E0C7010E94F91A892B09F06BC0F9
:1023F00060E08DE00E94D50170E060E08DEF92E03A
:102400000E94F602DC018C91843409F06FC06DEFFC
:1024100072E0CE010A960E94A80B61E070E0CE0146
:102420000A960E94F602FC0180818E3409F04BC1AD
:102430002E853F8542E050E0BE01665F7F4FCE01B2
:1024400001960E94DE09CE0101960E94FD08F62E3B
:102450006093F701CE0101960E94F508E5EFEF0DBC
:10246000E23108F03FC0F0E0E85CFD4E0C94A417A8
:102470006E12361339133C133F134213451348139E
:10248000721272124B134E135113541357135A13E3
:102490005D1360130E94AA1989819A819093FE02AC
:1024A0008093FD028B819C81909300038093FF02B7
:1024B0008D819E8190930203809301031A82198279
:1024C0001C821B8275CF68E871E0C7010E94F91A6F
:1024D000892B09F091CF60E088E08CCF60E08BE041
:1024E0000E94310ACE010A960E94F50870E060E071
:1024F0008DEF92E00E94F602FC018081833759F54E
:102500006DEF72E0CE010A960E94A80B2E853F85E2
:1025100041E050E0BE01665F7F4FCE0101960E9410
:10252000DE09CE0101960E94FD08F62E6093F801A7
:10253000CE0101960E94F508F11022C161E08FE002
:102540000E94310A8091F80190E00E943402CE018D
:102550000A960E94F5088EE00E948C02BC01990F39
:10256000880B990B0E9474160E94FA0B4B015C01B8
:102570008092FD019092FE01A092FF01B0920002B4
:1025800080E10E948C02BC01990F880B990B0E947C
:1025900074160E94FA0B6B017C01C092F901D09273
:1025A000FA01E092FB01F092FC0181E10E948C02B1
:1025B000BC01990F880B990B0E9474160E94FA0BAC
:1025C0002B013C011B861A861D861C861F861E86D3
:1025D0006AE871E0CE010A960E94D409BE01665FE6
:1025E0007F4FCE0101960E94A80BB501A401CE0138
:1025F00001960E945C0964E871E00E94930940E042
:1026000050E0BA010E945C096CE871E00E949309F5
:10261000B701A6010E945C096EE871E00E9493096F
:10262000B301A2010E945C0960E971E00E94930974
:102630000E9435030E94A608CE0101960E94F5086B
:10264000CE010A960E94F50868EE73E080E090E003
:102650000E94C3022114310409F41FCD0E94BB0360
:10266000882309F41ACD0E94000017CD60E08CE0A9
:1026700037CF60E08DE034CF60E08EE031CF60E0B6
:102680008FE02ECF60E080E12BCF60E081E128CFAA
:1026900060E082E125CF60E085E122CF60E086E165
:1026A0001FCF60E087E11CCF60E088E119CF60E0D8
:1026B00089E116CF60E08AE113CF60E08BE110CFB3
:1026C00060E08CE10DCF61E070E0CE010A960E94DF
:1026D000F602DC018C91863409F004CF2E853F850B
:1026E00042E050E0BE01665F7F4FCE0101960E943E
:1026F000DE09CE0101960E94FD08F62E6093F701D7
:10270000CE0101960E94F508E5EFEF0DE23108F0E9
:10271000E9CEF0E0E257FC4E0C94A417A013A213EC
:10272000A413A613A813AA13AC13AE137212721239
:10273000B013B213B413B613B813BA13BC13BE1349
:1027400061E0CDCE61E093CF61E094CF61E095CFC1
:1027500061E096CF61E097CF61E098CF61E099CFDB
:1027600061E09ACF61E09BCF61E09CCF61E09DCFBB
:1027700061E09ECF61E09FCF61E0A0CF61E0A1CF9B
:1027800010934103009340038F2DDECE68E0C1011A
:102790000E94B3069985891359CD8D819A859B3303
:1027A00011F487FDD9CD8F3309F4D8CD08F0CFCD02
:1027B0008F3109F04BCD89E0D2CD8DEF92E00C94B2
:1027C000F508EF920F931F93CF93DF93E80134E066
:1027D00047FD34E1042E000C550B57FF03C0519503
:1027E00041955109E32E022F242FAE010E943B1484
:1027F000CE01DF91CF911F910F91EF9008951F931C
:10280000FC0199278827BC01E89411911032E9F363
:10281000193010F01E30C8F31B3251F01D3249F44C
:10282000689406C00E942614610F711D811D911DC0
:10283000119110531A30B0F33EF490958095709535
:1028400061957F4F8F4F9F4F1F910895592F482FAC
:10285000372F262F660F771F881F991F660F771F48
:10286000881F991F620F731F841F951F660F771FA4
:10287000881F991F0895A9E0B0E0E1E4F4E10C9409
:1028800073176A01F22EB02E102FFBE3AF2EA016A5
:1028900008F41BE31F5F012F27E0AE014F5F5F4F7E
:1028A0000E949A15BC018981982F9970913009F482
:1028B0003FC09BE2E1FC04C09E2D9170E0FC3AC059
:1028C0005E2D5071E82FE87083FF46C084E09111BF
:1028D00001C083E0EF2DE81B8F1508F0E0E0D60182
:1028E0008E2F20E2552351F1992329F0D6019C9394
:1028F000C60101966C0196012D5F3F4FE2FE24C098
:102900008EE4D6018C9391E411969C9311971296C4
:102910008C93D9018E2F90E281111BC0E20FF32F0F
:10292000F11D10828EEF9FEF2996ECE00C948F172B
:102930009DE2C6CF90E2C4CF2D9381508111FCCF90
:10294000CE0ED11CE0E0D0CF8EE6D6018C9391E67E
:10295000DBCF9D938150E0CF482F447082FF3DC074
:1029600084E0911101C083E08F1510F4EF2DE81B76
:10297000D6018E2F20E2552309F1992329F0D601A3
:102980009C93C60101966C0196012D5F3F4FE2FEBC
:102990001BC089E4D6018C938EE411968C93119719
:1029A00086E412968C93D9018E2F90E2882309F445
:1029B000B5CF9D938150FACF2D9381508111FCCFDB
:1029C000CE0ED11CE0E0D9CF89E6D6018C938EE6FD
:1029D00011968C93119786E6E4CF9B0177FF02C096
:1029E00030E020E0A1E0B0E0911102C0B0E0A0E052
:1029F000F9013196AE0FBF1F8B2C912CBB2009F42F
:102A000061C05401EFEFAE1ABE0AAA0DBB1DFA1643
:102A10001B0619F014F04F2D4A1B511188C0E3FC1E
:102A200059C07601A42FB0E2A1114FC0C40ED11C31
:102A3000992309F45BC040E0D6011196F60190831A
:102A40006D01552309F448C0012F060F9A81582FB4
:102A5000507184FF03C0913309F4015010160CF03B
:102A600047C0093008F008E0EEE2FE2E5B01A01A34
:102A7000B10885019194819491082F3F320729F480
:102A8000D601FC92F60131966F016217730794F13B
:102A9000021713077CF5DB01A21BB30BAA24A39436
:102AA000B12CAC0EBD1EAA0DBB1D11968C912150F0
:102AB0003109D601119628153905F4F0F601808305
:102AC0006D01DBCFB12CA12CA0CFF701B1937F0119
:102AD000A150AACF9111B0CFD601942F50E302C0DC
:102AE0005D9391509111FCCFC40ED11C40E0ACCF4E
:102AF00001E0BACF80E3DBCF6217730731F496337E
:102B000088F4953311F4552369F0F6018083FD01B3
:102B1000842F90E2811108C0A40FB11D1C9290E097
:102B200080E002CF81E3F1CF91938150F3CF9111F7
:102B300083CF8ACF283008F027E03327DA01990FB6
:102B4000311D87FD916000966105710539F4326091
:102B50002E5F3D9330E32A95E1F708959F3F30F0D3
:102B600080387105610509F03C5F3C5F3D93913011
:102B700008F08068911DDF93CF931F930F93FF920E
:102B8000EF92192F987F9695E92F96959695E90FD4
:102B9000FF27E45EFE4F99273327EE24FF24A70189
:102BA000E70105900894079428F4360FE71EF81EF5
:102BB000491F511D660F771F881F991F0694A1F7A3
:102BC0000590079428F4E70EF81E491F561FC11DF3
:102BD000770F881F991F661F0694A1F70590079429
:102BE00028F4F80E491F561FC71FD11D880F991FC3
:102BF000661F771F0694A1F70590079420F4490FEC
:102C0000561FC71FD81F990F661F771F881F06946E
:102C1000A9F784911095177041F0D695C7955795EF
:102C20004795F794E7941A95C1F7E2ECF0E06894C1
:102C30001590159135916591959105907FE2739569
:102C4000E118F10A430B560BC90BD009C0F7E10C90
:102C5000F11E431F561FC91FD01D7EF4703311F49F
:102C60008A95E6CFE894015030F0080F0AF4002767
:102C7000021708F4202F2395022F7A3328F079E3E6
:102C80007D932A95E9F710C07D932A9589F60694DD
:102C900097956795379517951794E118F10A430BA7
:102CA000560BC90BD00998F023957E9173957A3312
:102CB00008F070E37C932013B8F77E9170617D93E8
:102CC00030F0839571E37D9370E32A95E1F7112449
:102CD000EF90FF900F911F91CF91DF91992787FD82
:102CE00090950895E89409C097FB3EF490958095DF
:102CF000709561957F4F8F4F9F4F9923A9F0F92FC2
:102D000096E9BB279395F695879577956795B7953F
:102D1000F111F8CFFAF4BB0F11F460FF1BC06F5F25
:102D20007F4F8F4F9F4F16C0882311F096E911C037
:102D3000772321F09EE8872F762F05C0662371F058
:102D400096E8862F70E060E02AF09A95660F771F6C
:102D5000881FDAF7880F9695879597F908950E944E
:102D6000C2160C9433170E94251738F00E942C17B6
:102D700020F0952311F00C941C170C9422171124A9
:102D80000C9467170E94441770F3959FC1F3950F39
:102D900050E0551F629FF001729FBB27F00DB11DDF
:102DA000639FAA27F00DB11DAA1F649F6627B00D6F
:102DB000A11D661F829F2227B00DA11D621F739F58
:102DC000B00DA11D621F839FA00D611D221F749F66
:102DD0003327A00D611D231F849F600D211D822FAD
:102DE000762F6A2F11249F5750409AF0F1F08823D4
:102DF0004AF0EE0FFF1FBB1F661F771F881F915001
:102E00005040A9F79E3F510580F00C941C170C947C
:102E100067175F3FE4F3983ED4F3869577956795FF
:102E2000B795F795E7959F5FC1F7FE2B880F911D2A
:102E30009695879597F9089597F99F6780E870E0D0
:102E400060E008959FEF80EC089500240A94161620
:102E5000170618060906089500240A941216130688
:102E6000140605060895092E0394000C11F4882316
:102E700052F0BB0F40F4BF2B11F460FF04C06F5F32
:102E80007F4F8F4F9F4F089557FD9058440F551F08
:102E900059F05F3F71F04795880F97FB991F61F0DC
:102EA0009F3F79F087950895121613061406551F53
:102EB000F2CF4695F1DF08C0161617061806991FBF
:102EC000F1CF86957105610508940895E894BB27B4
:102ED00066277727CB0197F908952F923F924F925B
:102EE0005F926F927F928F929F92AF92BF92CF929A
:102EF000DF92EF92FF920F931F93CF93DF93CDB7A3
:102F0000DEB7CA1BDB0B0FB6F894DEBF0FBECDBF1A
:102F100009942A88398848885F846E847D848C84EB
:102F20009B84AA84B984C884DF80EE80FD800C81F4
:102F30001B81AA81B981CE0FD11D0FB6F894DEBFD7
:102F40000FBECDBFED010895EE0FFF1F0590F49168
:102F5000E02D09945058BB27AA270E94C2170C9451
:102F600033170E94251738F00E942C1720F039F4EF
:102F70009F3F19F426F40C9422170EF4E095E7FB1A
:102F80000C941C17E92F0E94441758F3BA176207D4
:102F900073078407950720F079F4A6F50C9466175B
:102FA0000EF4E0950B2EBA2FA02D0B01B901900164
:102FB0000C01CA01A0011124FF27591B99F0593FA8
:102FC00050F4503E68F11A16F040A22F232F342FF0
:102FD0004427585FF3CF469537952795A795F0403E
:102FE0005395C9F77EF41F16BA0B620B730B840B53
:102FF000BAF09150A1F0FF0FBB1F661F771F881F0B
:10300000C2F70EC0BA0F621F731F841F48F4879562
:1030100077956795B795F7959E3F08F0B0CF939554
:10302000880F08F09927EE0F9795879508950E94CD
:103030002B180C9433170E942C1758F00E94251758
:1030400040F029F45F3F29F00C941C1751110C94A7
:1030500067170C9422170E94441768F39923B1F361
:10306000552391F3951B550BBB27AA2762177307AE
:10307000840738F09F5F5F4F220F331F441FAA1F42
:10308000A9F335D00E2E3AF0E0E832D091505040FE
:10309000E695001CCAF72BD0FE2F29D0660F771FAC
:1030A000881FBB1F261737074807AB07B0E809F092
:1030B000BB0B802DBF01FF2793585F4F3AF09E3F17
:1030C000510578F00C941C170C9467175F3FE4F3DC
:1030D000983ED4F3869577956795B795F7959F5F5A
:1030E000C9F7880F911D9695879597F90895E1E0A6
:1030F000660F771F881FBB1F621773078407BA0705
:1031000020F0621B730B840BBA0BEE1F88F7E0955F
:10311000089516F00C94D9180C94221768940C9406
:103120001C170E944C17A8F39923C1F3AEF3DF9349
:10313000CF931F930F93FF92C92FDD2788232AF087
:103140002197660F771F881FDAF720E030E040E80C
:103150005FEB9FE3883920F0803E38F021968F772F
:103160000E94AB17E8E6F0E004C00E94AB17E5E967
:10317000F0E00E94E7188B01BE01EC01FB2E6F57B7
:1031800071097595771F880B990B0E94741628E1B9
:1031900032E741E35FE30E94C216AF2D9801AE0112
:1031A000FF900F911F91CF91DF910E94C2170C9455
:1031B00033179F3F31F0915020F4879577956795AD
:1031C000B795880F911D9695879597F90895DF9388
:1031D000CF931F930F93FF92EF92DF927B018C01AD
:1031E000689406C0DA2EEF010E94C216FE01E89430
:1031F000A5912591359145915591A6F3EF010E9436
:10320000C217FE019701A801DA9469F7DF90EF90E9
:10321000FF900F911F91CF91DF9108950F931F930E
:10322000CF93DF938230910510F482E090E0E0913B
:103230004603F091470330E020E0B0E0A0E0309793
:1032400099F42115310509F44AC0281B390B2430A3
:103250003105D8F58A819B816115710589F1FB01E2
:1032600093838283FE0111C04081518102811381C9
:1032700048175907E0F04817590799F4109761F07B
:1032800012960C93129713961C933296CF01DF91EE
:10329000CF911F910F910895009346031093470318
:1032A000F4CF2115310551F04217530738F0A90129
:1032B000DB019A01BD01DF01F801C1CFEF01F9CFB8
:1032C0009093470380934603CDCFFE01E20FF31F97
:1032D000819391932250310939832883D7CF20914C
:1032E000440330914503232B41F420910201309196
:1032F0000301309345032093440320910001309152
:1033000001012115310541F42DB73EB7409104016B
:1033100050910501241B350BE0914403F0914503C6
:10332000E217F307A0F42E1B3F0B2817390778F09C
:10333000AC014E5F5F4F2417350748F04E0F5F1FFB
:103340005093450340934403819391939FCFF0E0C2
:10335000E0E09CCFCF93DF930097E9F0FC01329738
:1033600013821282A0914603B0914703ED0130E031
:1033700020E01097A1F420813181820F931F2091CA
:103380004403309145032817390709F061C0F093D1
:103390004503E0934403DF91CF910895EA01CE17EE
:1033A000DF07E8F54A815B819E0141155105B1F7C0
:1033B000E901FB83EA8349915991C40FD51FEC17AA
:1033C000FD0761F4808191810296840F951FE901C8
:1033D00099838883828193819B838A83F0E0E0E0F4
:1033E00012968D919C9113970097B9F52D913C9170
:1033F0001197CD010296820F931F209144033091C3
:1034000045032817390739F6309751F510924703CD
:1034100010924603B0934503A0934403BCCFD383DB
:10342000C28340815181840F951FC817D90761F469
:103430004E5F5F4F88819981480F591F51834083A8
:103440008A819B81938382832115310509F0B0CF56
:10345000F0934703E09346039ECFFD01DC01C0CF0C
:1034600013821282D7CFB0E0A0E0E9E3FAE10C9436
:103470006F178C01009751F4CB010E940E198C013B
:10348000C801CDB7DEB7E0E10C948B17FC01E60F65
:10349000F71F9C0122503109E217F30708F49DC081
:1034A000D901CD91DC911197C617D70798F0C53097
:1034B000D10530F3CE0104978617970708F3C61B92
:1034C000D70B2297C193D1936D937C93CF010E9428
:1034D000AA19D6CF5B01AC1ABD0A4C018C0E9D1EF9
:1034E000A0914603B0914703512C412CF12CE12CC3
:1034F000109731F580914403909145038815990503
:1035000009F05CC04616570608F058C080910001CB
:1035100090910101009741F48DB79EB7409104014D
:1035200050910501841B950BE817F90708F055C069
:10353000F0934503E0934403F90171836083A0CFC6
:103540008D919C91119712966C90129713967C9086
:103550001397A815B90559F56C0142E0C40ED11CAA
:10356000CA14DB0420F1AC014A195B09DA01129696
:10357000159780F06282738251834083D9016D93E5
:103580007C93E114F10471F0D7011396FC93EE9350
:10359000129776CF22968C0F9D1FF901918380831D
:1035A000F301EFCFF0934703E093460369CF48164A
:1035B000590608F42C017D01D3019ACFCB010E945A
:1035C0000E197C01009749F0AE01B8010E94F01A73
:1035D000C8010E94AA19870153CF10E000E050CF24
:1035E000FB01DC0102C001900D9241505040D8F720
:1035F0000895FB01DC018D91019080190110D9F330
:10360000990B0895FB01DC0101900D920020E1F778
:10361000089511E0C6E5D1E004C0FE010E94A417A0
:0C3620002196C735D107C9F7F894FFCFF9
:10362C0000004803800000000000F10308033E0383
:10363C003E04AF034D03A1030000000081065406B5
:10364C00B0062A064D063A062B060D0A00523131F9
:10365C000052313200523133005231340052313584
:10366C00005231360052313700523138005232316B
:10367C000052323200523233005232340052323560
:10368C00005232360052323700523238005230007B
:10369C003A586623003A596623004D3130340053B2
:1036AC00313032004100610072005400420043008E
:0236BC004400C8
:00000001FF
