:100000000C9439010C94BF090C9498090C9461016B
:100010000C9461010C9461010C9461010C94E6094B
:100020000C9461010C9461010C9461010C946101C8
:100030000C9461010C9461010C9461010C946101B8
:100040000C944E090C9461010C94680A0C94420AB9
:100050000C9461010C9461010C9461010C94610198
:100060000C942F080C94610108000000BE922449F2
:10007000123EABAAAA2ABECDCCCC4C3E00000080DA
:10008000BEABAAAAAA3E00000000BF000000803F4D
:100090000000000000084178D3BB4387D1133D190D
:1000A0000E3CC3BD4282AD2B3E68EC8276BED98F3A
:1000B000E1A93E4C80EFFFBE01C4FF7F3F0000007E
:1000C000000000407A10F35A00A0724E1809001088
:1000D000A5D4E80000E87648170000E40B540200BD
:1000E00000CA9A3B000000E1F505000080969800E8
:1000F000000040420F000000A08601000000102711
:1001000000000000E80300000000640000000000A0
:100110000A00000000000100000000002C76D888D2
:10012000DC674F0823DFC1DFAE59E1B1B796E5E3E5
:10013000E453C63AE651997696E8E6C28426EB89FE
:100140008C9B62ED407C6FFCEFBC9C9F40F2BAA59B
:100150006FA5F490055A2AF75C936B6CF9676DC133
:100160001BFCE0E40D47FEF520E6B500D0ED902E37
:100170000300943577050080841E080000204E0A95
:10018000000000C80C333333330F986E12831141D3
:10019000EF8D2114893BE65516CFFEE6DB18D1849E
:1001A0004B381BF77C1D901DA4BBE42420328472C5
:1001B0005E228100C9F124ECA1E53D273A42652386
:1001C000003A41652300005EBCE2613FDD83C29CD2
:1001D0007E20A3FD1F41009D23BE46DB65F88C11E8
:1001E000AF32CA57E97402503230320050323034E4
:1001F0000050323033004D31303200496E6974693D
:10020000616C697A696E672043505520436F72654F
:100210002E2E2E0000000000240027002A000000DF
:100220000000250028002B0000000008000201004B
:1002300000030407000000000000000000000000B0
:100240002300260029000404040404040404020218
:100250000202020203030303030301020408102045
:1002600040800102040810200102040810209A0AAC
:10027000581211241FBECFEFD8E0DEBFCDBF23E060
:10028000AAE6B1E001C01D92AD34B207E1F711E07A
:10029000A0E0B1E0E4EAF3E302C005900D92AA36D3
:1002A000B107D9F711E0C8E3D1E004C02197FE01FE
:1002B0000E941F16C733D107C9F70E945A0B0C942E
:1002C000C5190C94000020910002260F3327331F1C
:1002D00021323105ECF420912602FC0190E080E00F
:1002E000243069F082E00895A09100022191AC01D0
:1002F00042525E4FA40FB52FB11D2C930196861765
:1003000098F380910002680F6093000280E00895E6
:1003100081E00895089508950895E091D5018091B0
:10032000D401E81730F4F0E0EC54FE4F808190E007
:1003300008958FEF9FEF08959091D5018091D4019A
:100340002FEF3FEF981748F4E92FF0E0EC54FE4F01
:10035000208130E09F5F9093D501C901089580917D
:10036000D4019091D501891B990B0895CF92DF920A
:10037000EF92FF920F931F93CF93DF937C01CB01FA
:100380008A012091B301222389F0EB016B01C40E95
:10039000D51ECC15DD0569F06991D701ED91FC9171
:1003A0000190F081E02DC7010995F3CF642F0E94E1
:1003B0006301C801DF91CF911F910F91FF90EF90E2
:1003C000DF90CF900895CF93DF931F92CDB7DEB724
:1003D00069832091B3012223F9F02091D6012032C4
:1003E00058F021E030E0FC013383228390E080E08C
:1003F0000F90DF91CF9108958091D701E82FF0E021
:10040000ED56FE4F998190838F5F8093D701809343
:10041000D60181E090E0ECCF61E0CE0101960E9430
:100420006301F7CF833081F028F4813099F0823076
:10043000A9F008958730A9F08830C9F08430B1F46C
:10044000809180008F7D03C0809180008F778093A2
:100450008000089584B58F7784BD089584B58F7D1D
:10046000FBCF8091B0008F778093B000089580918A
:10047000B0008F7DF9CFCF93DF93282F30E0F901C3
:10048000E85DFD4F8491F901E65AFD4FD491F901E1
:10049000EA5BFD4FC491CC23A1F081110E941202AE
:1004A000EC2FF0E0EE0FFF1FE45CFD4FA591B4913F
:1004B000EC91ED2381E090E009F480E0DF91CF91B1
:1004C000089580E090E0FACF1F93CF93DF93282F19
:1004D00030E0F901E85DFD4F8491F901E65AFD4FE6
:1004E000D491F901EA5BFD4FC491CC23A9F0162FFA
:1004F00081110E941202EC2FF0E0EE0FFF1FE25E6E
:10050000FD4FA591B4918FB7F894EC91111108C0EB
:10051000D095DE23DC938FBFDF91CF911F9108959B
:10052000DE2BF8CF1092260281E0809328021092F1
:10053000270261E082E10E94640261E083E10E949F
:100540006402E9EBF0E080818E7F808380818D7F83
:10055000808388E48093B80085E48093BC0008958C
:10056000CF93DF9391E09093DD018823B9F0C091A0
:10057000B800D091BA008091BC008A7B8093BC0007
:1005800060E082E10E94640260E083E10E94640214
:100590000E949202D093BA00C093B800DF91CF912D
:1005A0000895CF93DF9390E0FC01E65AFD4F24912C
:1005B0008A5B9D4FFC0184918823C9F090E0880FED
:1005C000991FFC01EC5EFD4FA591B491FC01E25E28
:1005D000FD4FC591D49161110DC09FB7F8948C91D6
:1005E000209582238C938881282328839FBFDF91C5
:1005F000CF910895623051F49FB7F8943C91822FC7
:10060000809583238C93E8812E2BEFCF8FB7F894BE
:10061000EC912E2B2C938FBFEACF8E508064809369
:100620007C0080917A00806480937A0080917A00C7
:1006300086FDFCCF809178009091790008953FB7B6
:10064000F89480918F0190919001A0919101B091C7
:10065000920126B5A89B05C02F3F19F00196A11D58
:10066000B11D3FBFBA2FA92F982F8827BC01CD01FC
:10067000620F711D811D911D42E0660F771F881F5B
:10068000991F4A95D1F708958F929F92AF92BF928A
:10069000CF92DF92EF92FF926B017C010E941F03C9
:1006A0004B015C01C114D104E104F104B9F00E94D2
:1006B0001F03681979098A099B09683E73408105FF
:1006C000910580F321E0C21AD108E108F10888EE13
:1006D000880E83E0981EA11CB11CE4CFFF90EF9020
:1006E000DF90CF90BF90AF909F908F9008952FB7DD
:1006F000F89460918B0170918C0180918D019091A3
:100700008E012FBF089508950895909104018913D3
:100710000BC0E6EEF1E0E4919FEF90930401E1302D
:1007200049F028F0E23061F060E00C94640210922D
:100730006E00FACF90916F009D7F90936F00F4CF81
:10074000909170009D7F9093700091E09093B00025
:100750009091B100987F94609093B1001092B30093
:10076000E3CFAF92BF92CF92DF92EF92FF920F93BF
:100770001F93CF93DF936C017B018B01040F151F37
:10078000EB015E01AE18BF08C017D10759F069919F
:10079000D601ED91FC910190F081E02DC601099503
:1007A000892B79F7C501DF91CF911F910F91FF90B0
:1007B000EF90DF90CF90BF90AF900895FC014481FF
:1007C0005581608171818CE492E00C94B10390E0DA
:1007D00080E00895FC01538D448D252F30E0842F57
:1007E00090E0821B930B541710F0CF960895019759
:1007F0000895FC01918D828D981761F0A28DAE0F46
:10080000BF2FB11D5D968C91928D9F5F9F73928FCC
:1008100090E008958FEF9FEF08950F931F930E942C
:10082000770360935402709355028093560290931D
:1008300057028CE492E00E94F90397FF1DC00E94CA
:100840007703009154021091550220915602309185
:100850005702601B710B820B930B00915002109199
:1008600051022091520230915302601771078207A2
:100870009307F8F28FEF9FEF1F910F910895FC01FE
:10088000918D828D981731F0828DE80FF11D858D45
:1008900090E008958FEF9FEF0895FC01918D228DD8
:1008A000892F90E0805C9F4F821B91098F7399275D
:1008B00008958CE492E00E944D0421E0892B09F414
:1008C00020E0822F089580E090E0892B29F00E949B
:1008D000590481110C9400000895FC01A48DA80F07
:1008E000B92FB11DA35ABF4F2C91848D90E0019672
:1008F0008F739927848FA689B7892C93A089B18992
:100900008C91837080648C93938D848D981306C032
:100910000288F389E02D80818F7D80830895EF9296
:10092000FF920F931F93CF93DF93EC0181E0888FA9
:100930009B8D8C8D98131AC0E889F989808185FF79
:1009400015C09FB7F894EE89FF896083E889F9891B
:1009500080818370806480839FBF81E090E0DF911D
:10096000CF911F910F91FF90EF900895F62E0B8D70
:1009700010E00F5F1F4F0F731127E02E8C8D8E112B
:100980000CC00FB607FCFACFE889F989808185FF92
:10099000F5CFCE010E946D04F1CFEB8DEC0FFD2F52
:1009A000F11DE35AFF4FF0829FB7F8940B8FEA894D
:1009B000FB8980818062CFCFCF93DF93EC01888D5C
:1009C0008823B9F0AA89BB89E889F9898C9185FDCA
:1009D00003C0808186FD0DC00FB607FCF7CF8C9158
:1009E00085FFF2CF808185FFEDCFCE010E946D049F
:1009F000E9CFDF91CF910895DC0180E0615090F064
:100A00009D919827E92FEF70F0E0EA53FE4F249173
:100A1000E92FE295EF70F0E0EA52FE4FE491822F69
:100A20008E27ECCF0895DC012C911196ED91FC916D
:100A3000F8948181822B81839281322F3095932388
:100A4000928387E090E00197F1F78181832381838E
:100A500083E290E00197F1F790817894EFECF0E079
:100A60003197F1F7922381E009F480E00895FC01C9
:100A700090810180F281E02D292F209560FF14C024
:100A8000F8948281822382838181892B8183A3E2EE
:100A9000B0E01197F1F78281982B9283789487EDDB
:100AA00090E00197F1F70895F89482818223828380
:100AB0008181892B8183AFEFB0E01197F1F78281BB
:100AC000982B928378948FE090E0EBCFEF92FF9297
:100AD0000F931F93CF93DF93EC01E62E08E010E015
:100AE000FF24F39461E08E2D8F2109F460E0CE01A4
:100AF0000E943705FF0C01501109A1F7F894E98114
:100B0000FA8191818881809589238183E981FA81A5
:100B1000928188818095892382837894DF91CF9117
:100B20001F910F91FF90EF900895EF92FF920F9316
:100B30001F93CF93DF938C017B0165E50E946605CF
:100B4000E70188E0E80EF11C6991C8010E94660582
:100B5000CE15DF05C9F7DF91CF911F910F91FF905F
:100B6000EF900895FC0190810180F281E02DF894CE
:100B70008181292F20958223818378943DE743E06A
:100B800050E0315029F1DA011197F1F78081892382
:100B9000C1F3F8948281822382838181892B8183AE
:100BA0007894ABE7B7E01197F1F7F894818182234D
:100BB0008183A3E1B1E01197F1F78081982381E06F
:100BC00009F080E07894E3E6F6E03197F1F70895D4
:100BD00080E008950F931F9341E050E060E070E0E3
:100BE0008A019B0104C0000F111F221F331F8A9529
:100BF000D2F7C801E0E2F3E02389282B238B248974
:100C0000282B248B809595899823958B97899823F9
:100C1000978B96898923868B1F910F91089542E0C7
:100C200050E06FE271E08CE492E00C94B103CF935A
:100C3000DF93FC0101900020E9F73197AF01481BD9
:100C4000590BBC018CE492E00E94B103EC010E94BC
:100C50000F068C0F9D1FDF91CF9108950F931F9367
:100C6000CF93DF938C01D0E0C0E0F801EC0FFD1FC3
:100C70006491662341F08CE492E00E948F04892BFA
:100C800011F02196F2CF0E940F068C0F9D1FDF916D
:100C9000CF911F910F91089585ED8093BC008091B5
:100CA000D9019091DA01A091DB01B091DC010796A6
:100CB000A11DB11D23E0B695A795979587952A9517
:100CC000D1F72091BC0024FD03C0109226020895A4
:100CD0004091D9015091DA016091DB017091DC0102
:100CE000452B462B472B69F30097A105B10541F031
:100CF00025E32A95F1F700000197A109B109E1CF99
:100D00008091D8010C94B002CF93DF93EC018881DD
:100D10009981009711F00E945B18198218821D8238
:100D20001C821B821A82DF91CF910895FC01808181
:100D30009181009711F00C945B1808950F931F9305
:100D4000CF93DF93EC0188819981009759F02A8134
:100D50003B812617370730F081E0DF91CF911F915B
:100D60000F9108958B016F5F7F4F0E94E4180097E9
:100D700059F0998388831B830A832C813D81232B1F
:100D800059F7FC011082E8CF80E0E7CFEF92FF92A5
:100D90000F931F93CF93DF936115710541F480E0AA
:100DA000DF91CF911F910F91FF90EF900895411522
:100DB0005105B1F07B01EC010C811D81040F151F61
:100DC000B8010E949E06882351F3288139818C81C5
:100DD0009D81B701820F931F0E94BE191D830C8352
:100DE00081E0DECFEF92FF920F931F93CF93DF93BB
:100DF000CDB7DEB764970FB6F894DEBF0FBECDBF98
:100E00007C01CB01BA018E010F5F1F4F22E044E04D
:100E10000E945C12FC0101900020E9F73197AF01BC
:100E2000481B590BBC01C7010E94C606811103C0B3
:100E3000C7010E948406C70164960FB6F894DEBF0E
:100E40000FBECDBFDF91CF911F910F91FF90EF901B
:100E50000895CF93DF93EC01FB0101900020E9F7A7
:100E60003197AF01461B570B0E94C606811103C084
:100E7000CE010E948406CE01DF91CF910895EF92BA
:100E8000FF920F931F93CF93DF93EC017B018A01B5
:100E9000BA010E949E0681110BC0CE010E948406F9
:100EA000CE01DF91CF911F910F91FF90EF900895A8
:100EB0001D830C83B701888199810E94BE19F0CFF0
:100EC000FB0101900020E9F73197AF01461B570B5A
:100ED0000C943F07FB0101900020E9F73197AF0127
:100EE000461B570B0C943F070F931F93CF93DF9331
:100EF00000D000D000D0CDB7DEB7182F062F1A8251
:100F000019821C821B821E821D8261E371E0CE0168
:100F100001960E946A0762E371E0133051F066E3C4
:100F200071E0112331F06AE371E0113011F06EE3EA
:100F300071E0CE0101960E946007812F01112BC044
:100F40000E943B02892BD9F060E0812F0E9464024D
:100F5000CE0101960E94DE0381EC91E00E942E06F4
:100F6000CE0101960E94960626960FB6F894DEBF33
:100F70000FBECDBFDF91CF911F910F910895812FAB
:100F80000E943B02892B61F7CE0101960E94DE038D
:100F90008CEB91E0E3CF0E943B02019769F061E0A6
:100FA000812F0E946402CE0101960E94DE0382E43A
:100FB00091E00E941706D4CF812F0E943B02019737
:100FC00079F6CE0101960E94DE0387E491E0F1CF2D
:100FD000CF92DF92EF92FF922AE038E240EA5BE3A1
:100FE0000E942A156B017C01AC019B0160E070E05E
:100FF00080EA90E40E94251620E030E44CE156E4BB
:101000000E9492169B01AC01C701B6010E94921684
:1010100020E030E44CE156E40E9492160E94421710
:1010200020E030E948E755E40E9492162FE03FECBB
:101030004BE55BE30E9426169B01AC0160E070E08B
:1010400080E89FE30E94921623E333E948E853E4E3
:101050000E942516FF90EF90DF90CF9008951F9289
:101060000F920FB60F9211242F933F934F935F93DC
:101070006F937F938F939F93AF93BF93EF93FF9360
:101080008091B900887F803609F44AC0F0F5883233
:1010900009F4A7C018F5803109F49BC0B8F488237F
:1010A00009F4F9C0883009F494C0FF91EF91BF9121
:1010B000AF919F918F917F916F915F914F913F91F0
:1010C0002F910F900FBE0F901F901895883109F443
:1010D00088C0803251F78093250214C0803409F40F
:1010E0009DC040F48033B9F38833F9F6809325022C
:1010F00085ECB0C0803509F485C0883509F496C008
:10110000883499F60E944C06D0CF883909F48CC0F7
:1011100038F5883729F050F4883611F0803729F6F1
:1011200083E0809326021092240257C0883809F485
:101130007BC0803919F0803809F0B7CF8091240244
:10114000803208F071C0E091240281E08E0F80931C
:1011500024028091BB00F0E0EC5FFD4F80833DC036
:10116000803B39F0E0F4803A09F479C0883A09F01C
:101170009CCF84E08093260210920102109200021C
:10118000E091FE01F091FF0109958091000281112B
:101190000FC081E0809300021092DE0109C0803C04
:1011A00009F4A6CF883C09F4A3CF883B09F07DCF92
:1011B000E091010281E08E0F80930102F0E0E252A3
:1011C000FE4F80818093BB009091010280910002CC
:1011D00029C080914B028093BB0085EC8093BC00BA
:1011E00064CF90914A0280914902981758F5E09196
:1011F0004A0281E08E0F80934A02F0E0E75DFD4FE6
:101200008081E9CFE0914A0281E08E0F80934A020B
:101210008091BB00F0E0E75DFD4F808390914A0232
:10122000809149029817C8F285E8D8CFE0914A0228
:1012300081E08E0F80934A028091BB00F0E0E75D71
:10124000FD4F80838091280281115CCF81E08093E3
:10125000270284EA8093BC001092260226CF85ECF8
:101260008093BC001092260280912402803230F4D8
:10127000E0912402F0E0EC5FFD4F108260912402C7
:1012800070E0E0910202F091030284E092E009959F
:10129000109224020ACF1092250234CF1F920F928F
:1012A0000FB60F9211242F933F938F939F93AF9379
:1012B000BF9380918B0190918C01A0918D01B09191
:1012C0008E0130918A0123E0230F2D3758F50196C6
:1012D000A11DB11D20938A0180938B0190938C01F5
:1012E000A0938D01B0938E0180918F019091900118
:1012F000A0919101B09192010196A11DB11D809321
:101300008F0190939001A0939101B0939201BF91AE
:10131000AF919F918F913F912F910F900FBE0F90A2
:101320001F90189526E8230F0296A11DB11DD2CF5C
:101330001F920F920FB60F9211242F933F934F934A
:101340005F936F937F938F939F93AF93BF93EF932D
:10135000FF93E0910201F09103010995FF91EF9154
:10136000BF91AF919F918F917F916F915F914F91BD
:101370003F912F910F900FBE0F901F9018951F92C5
:101380000F920FB60F9211242F933F934F935F93B9
:101390006F937F938F939F93AF93BF93EF93FF933D
:1013A000E0910001F09101010995FF91EF91BF914A
:1013B000AF919F918F917F916F915F914F913F91ED
:1013C0002F910F900FBE0F901F9018951F920F92A4
:1013D0000FB60F9211242F933F934F935F936F9308
:1013E0007F938F939F93AF93BF93EF93FF938091DE
:1013F000700190917101A0917201B0917301892BDC
:101400008A2B8B2BD1F190916B01E0916C01F091C3
:101410006D01808189278083809170019091710195
:10142000A0917201B0917301181619061A061B06D5
:101430009CF48091700190917101A0917201B09122
:1014400073010197A109B109809370019093710113
:10145000A0937201B0937301FF91EF91BF91AF918F
:101460009F918F917F916F915F914F913F912F91BC
:101470000F900FBE0F901F901895809104010E944D
:101480008503EACF1F920F920FB60F9211242F936C
:101490003F934F935F936F937F938F939F93AF93FC
:1014A000BF93EF93FF938CE492E00E946D04FF9151
:1014B000EF91BF91AF919F918F917F916F915F91CC
:1014C0004F913F912F910F900FBE0F901F90189545
:1014D0001F920F920FB60F9211242F938F939F9309
:1014E000EF93FF93E0915C02F0915D028081E091C7
:1014F0006202F091630282FD1BC0908180916502BF
:101500008F5F8F7320916602821741F0E091650230
:10151000F0E0E45BFD4F958F80936502FF91EF91C2
:101520009F918F912F910F900FBE0F901F90189544
:101530008081F4CFA9EEB2E013961C921E9212970E
:1015400048EE53E060E070E014964D935D936D9328
:101550007C9317978FE091E011969C938E93ECE427
:10156000F2E013821282448355836683778381E29B
:1015700091E09183808385EC90E09587848784EC6B
:1015800090E09787868780EC90E0918B808B81EC50
:1015900090E0938B828B82EC90E0958B848B86EC31
:1015A00090E0978B868B118E128E138E148EE0E254
:1015B000F3E082E190E09287818783E190E0948775
:1015C0008387178682E0808B128A118A138A148A95
:1015D000158A168A178A108E118E128E138E148E0B
:1015E000158E168E178E10A211A213A212A28AE0D7
:1015F00090E095A384A38BE486A381EE87A310A635
:10160000B687A58781E2808760E087E00E94D102EB
:10161000E1E6F2E0E491A2E1B3E0EC93EDE4F2E084
:10162000E491F0E0EE0FFF1FE45CFD4F8591949193
:1016300012969C938E9311971B961C921B971D9646
:101640001C921D971C961C921C971A961C921A9716
:1016500019961C92199718961C92189717961C9217
:10166000179716961C92169715961C921597149616
:101670001C92149713961C921397EBEFF2E0168AC4
:10168000158A1182B287A18717821086108289E09D
:10169000838381E0848385838683E5EFF2E0118292
:1016A0001082138212821582148261E371E0CF01ED
:1016B0000C946A07CF93DF93CDB7DEB765970FB66B
:1016C000F894DEBF0FBECDBF789484B5826084BD30
:1016D00084B5816084BD85B5826085BD85B5816036
:1016E00085BD80916E00816080936E0010928100B4
:1016F000809181008260809381008091810081606F
:10170000809381008091800081608093800080912F
:10171000B10084608093B1008091B00081608093BB
:10172000B00080917A00846080937A0080917A0082
:10173000826080937A0080917A00816080937A0041
:1017400080917A00806880937A001092C10061E0F5
:101750008CE00E94640264E670E080E090E00E9409
:10176000440361E089E00E94D10264E670E080E019
:1017700090E00E94440361E089E00E94D10260E0B1
:1017800089E00E94640264E670E080E090E00E94DC
:101790004403E0915C02F0915D0282E08083E0917D
:1017A0005802F09159021082E0915A02F0915B02C6
:1017B0008FEC808310926402E0916002F0916102EC
:1017C00086E08083E0915E02F0915F02808180611B
:1017D0008083E0915E02F0915F0280818860808367
:1017E000E0915E02F0915F02808180688083E091E9
:1017F0005E02F0915F0280818F7D80838CE491E0B6
:101800000E94170664E670E080E090E00E944403C6
:101810008BEF91E00E942E0664EC79E080E090E08E
:101820000E94440361E083E00E94D10260E08EE008
:101830000E94D10260E08FE00E94D10260E080E16E
:101840000E94D10260E081E10E94D10261E08CE05F
:101850000E94D10261E08DE00E94D10281E591E019
:101860000E94170680E00E94EA0581E00E94EA05D6
:1018700082E00E94EA0583E00E94EA0584E00E947B
:10188000EA0581EF91E00E942E0684E080934803F0
:101890001092D5011092D4011092D7011092D60166
:1018A0000E9492028AE891E09093FF018093FE01EA
:1018B0008BE891E0909303028093020280913303BE
:1018C00020913503811103C0222309F4CCC08091FB
:1018D0002D0390912E033091280341E04093B301F2
:1018E00030936A0160913403622B60933903DC0109
:1018F000ED91FC910190F081E02D099590913403D8
:1019000080913603892B80933A0380933803909318
:101910003F030091D60181E0013208F09CC0109194
:101920006A010E941F036B017C01809126028111D4
:101930006CC082E08093260281E0809328028FEFC2
:101940008093250210924A0200934902A3E9B1E074
:10195000E9E2F2E080E00813F6C010924B028091B9
:101960004B02110F182B10934B02809127028130EC
:1019700009F0EDC0109227020E941F036B017C0149
:1019800080914B028093BB008091D9019091DA0144
:10199000A091DB01B091DC01892B8A2B8B2BA1F06C
:1019A0000E941F030091D9011091DA012091DB01FF
:1019B0003091DC016C197D098E099F090617170704
:1019C0002807390708F442C08091BC0083FDD8CFB6
:1019D00085EC8093BC000E941F036B017C01809109
:1019E0002602823009F4B5C0809125028F3F09F4A8
:1019F000D2C080912502803209F4CFC080912502A7
:101A0000803309F0CCC083E026C08091D901909149
:101A1000DA01A091DB01B091DC01892B8A2B8B2BA1
:101A200009F483CF0E941F038090D9019090DA01BE
:101A3000A090DB01B090DC016C197D098E099F0933
:101A400086169706A806B90608F06FCF8091D801D0
:101A50000E94B00285E01092D7011092D601109238
:101A6000B3018093480380912F038823D9F062E06B
:101A7000809130030E94D102809131039091320312
:101A800020913003223009F48CC0233059F4909314
:101A900003018093020180916900837F88608093B5
:101AA0006900E99A0E94770360933B0370933C03BB
:101AB00080933D0390933E03809148038111A2C11E
:101AC00087EE91E00E942E0604E044244A94542CB0
:101AD0003201E0EF8E2EE6E09E2EF6EEAF2EF1E024
:101AE000BF2EAAE4EA2EA2E0FA2EBEE5CB2EB2E08B
:101AF000DB2E80910401843009F05FC0F501149160
:101B000017FDF7C061E084E00E94D102112309F4BF
:101B1000C2C0123009F0D3C08091B100887F8260CA
:101B20008093B1008DED8093B3004092700150928C
:101B300071016092720170927301809170008260F5
:101B400080937000D6C09D9191938F5F04CF85EEF6
:101B500040CF8091D9019091DA01A091DB01B09141
:101B6000DC01892B8A2B8B2B09F439CF0E941F03B0
:101B70000091D9011091DA012091DB013091DC0153
:101B80006C197D098E099F09061717072807390761
:101B900008F025CF5BCF80E05ECF82E05CCF84E0B1
:101BA0005ACF9093010180930001809169008C7F4E
:101BB000826080936900E89A75CF8F3F09F099C0E1
:101BC00084E080930401F50114911F3F09F491C052
:101BD000113019F150F0123009F43CC017FD89C0E2
:101BE00061E084E00E94D10294CF14BC15BC84B59E
:101BF000826084BD85B5816085BDF7018491E82F41
:101C0000F0E0EE0FFF1FE25EFD4F85919491F6012B
:101C1000849180936F0110E075CF10928000109234
:101C20008100809181008860809381008091810093
:101C3000816080938100F7018491E82FF0E0EE0F3E
:101C4000FF1FE25EFD4F85919491F6018491809390
:101C50006E0158CF1092B0001092B1008091B00088
:101C600082608093B0008091B10081608093B10068
:101C7000F7018491E82FF0E0EE0FFF1FE25EFD4FC9
:101C80008591949190936D0180936C01F6018491FC
:101C900080936B0137CF85B5887F826085BD8DEDE0
:101CA00087BD409278015092790160927A017092DA
:101CB0007B0180916E00826080936E001AC01130AB
:101CC00009F098C080918100887F816080938100B5
:101CD0009092890080928800409274015092750120
:101CE000609276017092770180916F00826080939C
:101CF0006F006AEF70E080E090E00E94440384E0AF
:101D00000E9485036AEF70E080E090E00E94440347
:101D1000015009F0EECE68EE73E080E090E00E94A2
:101D20004403E0910403F09105031386158614869D
:101D300012861186108617821682158214821382EB
:101D40001092020310920303772473946624639421
:101D50006E01FAE0CF0ED11C00910403109105032F
:101D6000D8011D968C91882309F451C0F80113867F
:101D70001586148686E591E00E94170686EF91E0AD
:101D80000E942E066EEE72E080E090E00E94440316
:101D900061E083E00E94740721E3222E22E0322ECC
:101DA00000E010E08CE492E00E944D041816190641
:101DB0000CF013C21A8219821C821B821E821D82A1
:101DC00061E371E0CE0101960E946A070E940D0452
:101DD00097FD43C18A30910509F43FC18A871B866C
:101DE00041E050E0BE01665F7F4FCE0101960E9448
:101DF000C606ECCF123021F011117BCF80EF50CF0F
:101E000080EF91CE8CEE91E00E942E0684CFC80127
:101E10000E94B20581110AC0D8011B961C921B9723
:101E20001D961C921D971C961C92A4CF60EFC801B2
:101E30000E946605EE24E394A12C912CFF24F394D8
:101E4000C8010E941305B82EC8010E941305B1E015
:101E5000BB1272C0813009F091C0E0E4EF1508F0C8
:101E600085CFD8011B969C921B97911002C01D969E
:101E70007C92F8018381882309F478CFD8011396E6
:101E8000FE013A96055F1F4F7F018D918193A01748
:101E9000B107D9F767E0C7010E94FC04998989134B
:101EA0005BCF809102038F5F809302038A85883223
:101EB00039F008F07AC0803119F0823209F04CCF45
:101EC000809103038F5F809303038091FB02811154
:101ED00025C080910403909105030E94B205B701CB
:101EE00080910403909105030E94950564EB809115
:101EF0000403909105030E9466058091040390916C
:101F000005030E941305182F809104039091050387
:101F10000E94B205111102C06092FB028A858031D5
:101F200009F48EC080910403909105030E94B205CC
:101F3000811142C080E087C0EA2DF0E0B81214C0E1
:101F4000D8011B968C911B97F816B0F4AE0FBF1FEB
:101F500013968C918E2191F4B12CB8E0BF1518F036
:101F6000D8011C96FC929F2CE00FF11F83819E2DBF
:101F70009095892383830AC08F11EECFF801EA0D73
:101F8000F11D83818E298383BB24B3946B2DC801FB
:101F90000E943705F394EE0C19F4A394EE24E39415
:101FA000B7E0BA1508F04CCF58CF8B3309F488CF7F
:101FB000823409F0D1CE84CFB7018091040390918F
:101FC00005030E9495056EEB809104039091050333
:101FD0000E9466058E010F5F1F4F780118018090E7
:101FE00004039090050338E0A32EB12C512C442417
:101FF0004394C4010E94130581115428440CF1E05C
:10200000AF1AB108B1F7D7015D927D01AC15BD05DE
:1020100031F780910403909105030E94B20581304D
:1020200009F088CFF80181918F0181112AC2EE1643
:10203000FF06C1F77FCF8F3571F08F3709F07ACF68
:102040008CE001C08AE09091FE02981708F084CEDF
:102050008093FE0281CE8BE0F6CF8091F5029091C5
:10206000F602009709F490C169817A8161157105C2
:1020700009F488C14091F7025091F8022D813E8108
:102080004217530708F47EC10E94BE198D819E81BC
:102090009093FA028093F9021E821D82CE0101966E
:1020A0000E9496068091F9029091FA02892BC1F064
:1020B000E090F502F090F6026BE571E0C7010E9436
:1020C000B51961E0892B49F06DE571E0C7010E9407
:1020D000B519892B09F06FC160E08DE00E946402A0
:1020E0008091F9029091FA02009731F0E091F502A7
:1020F000F091F602309721F410927C01ECE7F1E0C8
:102100002081233709F069C0892B09F45FC1E09071
:10211000F502F090F60264E670E0C7010E94AA1989
:10212000009709F453C18E199F097C01AA24A39436
:10213000B12CE114F10421F05701EE24E394F12CC9
:102140001A8219821C821B821E821D8261E371E049
:10215000CE0101960E946A07C090F902D090FA025F
:10216000EC14FD0410F5AC14BD0408F46501E09115
:10217000F502F091F602EC0DFD1DB0801082609129
:10218000F5027091F6026E0D7F1DCE01019661156C
:10219000710509F41EC10E9460078091F5029091BB
:1021A000F602C80ED91ED601BC9289819A81F12C03
:1021B000009719F00E947A12F62EF0928901CE0152
:1021C00001960E94960661E089E00E94D102F1101A
:1021D00003C160E089E00E9464028FE00E940D0369
:1021E000BC01990F880B990B0E94EF140E94E8071D
:1021F0002B013C014092850150928601609287013B
:10220000709288018EE00E940D03BC01990F880B2B
:10221000990B0E94EF140E94E8074B015C01809229
:10222000810190928201A0928301B092840180E1A9
:102230000E940D03BC01990F880B990B0E94EF14AB
:102240000E94E8076B017C01C0927D01D0927E0163
:10225000E0927F01F092800181E10E940D03BC01B8
:10226000990F880B990B0E94EF140E94E8076A8B64
:102270007B8B8C8B9D8B1B861A861D861C861F86EE
:102280001E8661E671E0CE010A960E946A071A82F4
:1022900019821C821B821E821D826A857B856115C4
:1022A000710531F04E855F85CE0101960E943F0792
:1022B000B301A201CE0101960E94F2066BE571E026
:1022C0000E942907B501A4010E94F20663E671E0AD
:1022D0000E942907B701A6010E94F20665E671E097
:1022E0000E9429074A895B896C897D890E94F206D0
:1022F00067E671E00E9429070E94DE030E940F0634
:10230000CE0101960E949606CE010A960E9496067C
:10231000609185017091860180918701909188017B
:102320000E9404176E3071050CF09FC061E080E0E0
:102330000E94740761E081E00E947407609181014E
:102340007091820180918301909184010E94041711
:10235000643171050CF08FC061E082E00E94740767
:1023600068EE73E080E090E00E94440301151105DF
:1023700009F418CD0E945904882309F413CD0E9452
:10238000000010CD0E945B1889819A819093F6021B
:102390008093F5028B819C819093F8028093F702E1
:1023A0008D819E819093FA028093F9021A8219829C
:1023B0001C821B8271CE6FE571E0C7010E94B519C6
:1023C000892B09F08DCE60E08CE088CE8FEF9FEFF7
:1023D000ACCE0E948406E1CEBFEFFB1202C061E0EA
:1023E000F9CEF1018491833021F138F48130B9F0D4
:1023F0008230D1F0F7FCF3CFECCE873031F188306A
:1024000061F18430B9F78091800080628093800010
:102410008F2D90E090938B0080938A00DECE84B560
:10242000806884BDF7BCD9CE84B5806284BDF8BC19
:10243000D4CE809180008068809380008F2D90E0C2
:102440009093890080938800C8CE8091B000806806
:102450008093B000F092B300C0CE8091B000806253
:102460008093B000F092B400B8CE673171050CF4DF
:1024700065CF60E05CCF6E3271050CF471CF60E027
:102480006CCF68E0C1010E94FC049985891352CD8C
:102490008D819A859B3311F487FDD2CD8F3309F45A
:1024A000D1CD08F0C8CD8F3109F044CD89E0CBCD36
:1024B00085EF92E00C949606EF920F931F93CF93C3
:1024C000DF93E80134E047FD34E1042E000C550BA6
:1024D00057FF03C0519541955109E32E022F242F38
:1024E000AE010E94B612CE01DF91CF911F910F91E4
:1024F000EF9008951F93FC0199278827BC01E89469
:1025000011911032E9F3193010F01E30C8F31B326C
:1025100051F01D3249F4689406C00E94A112610F67
:10252000711D811D911D119110531A30B0F33EF4AD
:1025300090958095709561957F4F8F4F9F4F1F911C
:102540000895592F482F372F262F660F771F881F82
:10255000991F660F771F881F991F620F731F841FB3
:10256000951F660F771F881F991F0895A9E0B0E097
:10257000ECEBF2E10C94EE156A01F22EB02E102F66
:10258000FBE3AF2EA01608F41BE31F5F012F27E02B
:10259000AE014F5F5F4F0E941514BC018981982FD7
:1025A0009970913009F43FC09BE2E1FC04C09E2D7C
:1025B0009170E0FC3AC05E2D5071E82FE87083FF07
:1025C00046C084E0911101C083E0EF2DE81B8F1518
:1025D00008F0E0E0D6018E2F20E2552351F1992337
:1025E00029F0D6019C93C60101966C0196012D5FDE
:1025F0003F4FE2FE24C08EE4D6018C9391E4119605
:102600009C93119712968C93D9018E2F90E2811191
:102610001BC0E20FF32FF11D10828EEF9FEF299662
:10262000ECE00C940A169DE2C6CF90E2C4CF2D9345
:1026300081508111FCCFCE0ED11CE0E0D0CF8EE6D0
:10264000D6018C9391E6DBCF9D938150E0CF482F4C
:10265000447082FF3DC084E0911101C083E08F157A
:1026600010F4EF2DE81BD6018E2F20E2552309F13F
:10267000992329F0D6019C93C60101966C0196011D
:102680002D5F3F4FE2FE1BC089E4D6018C938EE4A0
:1026900011968C93119786E412968C93D9018E2F04
:1026A00090E2882309F4B5CF9D938150FACF2D9302
:1026B00081508111FCCFCE0ED11CE0E0D9CF89E64C
:1026C000D6018C938EE611968C93119786E6E4CF13
:1026D0009B0177FF02C030E020E0A1E0B0E0911163
:1026E00002C0B0E0A0E0F9013196AE0FBF1F8B2C05
:1026F000912CBB2009F461C05401EFEFAE1ABE0A61
:10270000AA0DBB1DFA161B0619F014F04F2D4A1B1B
:10271000511188C0E3FC59C07601A42FB0E2A11189
:102720004FC0C40ED11C992309F45BC040E0D60110
:102730001196F60190836D01552309F448C0012FCD
:10274000060F9A81582F507184FF03C0913309F40A
:10275000015010160CF047C0093008F008E0EEE216
:10276000FE2E5B01A01AB108850191948194910815
:102770002F3F320729F4D601FC92F60131966F0102
:102780006217730794F1021713077CF5DB01A21B94
:10279000B30BAA24A394B12CAC0EBD1EAA0DBB1D75
:1027A00011968C9121503109D601119628153905C1
:1027B000F4F0F60180836D01DBCFB12CA12CA0CF0A
:1027C000F701B1937F01A150AACF9111B0CFD601EB
:1027D000942F50E302C05D9391509111FCCFC40E31
:1027E000D11C40E0ACCF01E0BACF80E3DBCF621771
:1027F000730731F4963388F4953311F4552369F057
:10280000F6018083FD01842F90E2811108C0A40F9E
:10281000B11D1C9290E080E002CF81E3F1CF919353
:102820008150F3CF911183CF8ACF283008F027E071
:102830003327DA01990F311D87FD916000966105FC
:10284000710539F432602E5F3D9330E32A95E1F74C
:1028500008959F3F30F080387105610509F03C5FB5
:102860003C5F3D93913008F08068911DDF93CF93DA
:102870001F930F93FF92EF92192F987F9695E92F50
:1028800096959695E90FFF27E45EFE4F992733272B
:10289000EE24FF24A701E70105900894079428F48B
:1028A000360FE71EF81E491F511D660F771F881F40
:1028B000991F0694A1F70590079428F4E70EF81ED7
:1028C000491F561FC11D770F881F991F661F069449
:1028D000A1F70590079428F4F80E491F561FC71F4B
:1028E000D11D880F991F661F771F0694A1F70590C9
:1028F000079420F4490F561FC71FD81F990F661F52
:10290000771F881F0694A9F784911095177041F0DE
:10291000D695C79557954795F794E7941A95C1F7BB
:10292000E2ECF0E0689415901591359165919591E0
:1029300005907FE27395E118F10A430B560BC90B22
:10294000D009C0F7E10CF11E431F561FC91FD01D4F
:102950007EF4703311F48A95E6CFE894015030F09C
:10296000080F0AF40027021708F4202F2395022FDE
:102970007A3328F079E37D932A95E9F710C07D93A7
:102980002A9589F606949795679537951795179424
:10299000E118F10A430B560BC90BD00998F02395A7
:1029A0007E9173957A3308F070E37C932013B8F727
:1029B0007E9170617D9330F0839571E37D9370E338
:1029C0002A95E1F71124EF90FF900F911F91CF917D
:1029D000DF91992787FD90950895E89409C097FBAA
:1029E0003EF490958095709561957F4F8F4F9F4FE6
:1029F0009923A9F0F92F96E9BB279395F69587952A
:102A000077956795B795F111F8CFFAF4BB0F11F4EC
:102A100060FF1BC06F5F7F4F8F4F9F4F16C0882393
:102A200011F096E911C0772321F09EE8872F762FC9
:102A300005C0662371F096E8862F70E060E02AF00A
:102A40009A95660F771F881FDAF7880F96958795F6
:102A500097F908950E943D150C94AE150E94A0159B
:102A600038F00E94A71520F0952311F00C949715CB
:102A70000C949D1511240C94E2150E94BF1570F35F
:102A8000959FC1F3950F50E0551F629FF001729F13
:102A9000BB27F00DB11D639FAA27F00DB11DAA1F22
:102AA000649F6627B00DA11D661F829F2227B00D6F
:102AB000A11D621F739FB00DA11D621F839FA00DFA
:102AC000611D221F749F3327A00D611D231F849F4A
:102AD000600D211D822F762F6A2F11249F575040A1
:102AE0009AF0F1F088234AF0EE0FFF1FBB1F661F1C
:102AF000771F881F91505040A9F79E3F510580F0E5
:102B00000C9497150C94E2155F3FE4F3983ED4F3D0
:102B1000869577956795B795F795E7959F5FC1F788
:102B2000FE2B880F911D9695879597F9089597F933
:102B30009F6780E870E060E008959FEF80EC089563
:102B400000240A941616170618060906089500248C
:102B50000A9412161306140605060895092E039406
:102B6000000C11F4882352F0BB0F40F4BF2B11F47A
:102B700060FF04C06F5F7F4F8F4F9F4F089557FDD9
:102B80009058440F551F59F05F3F71F04795880FDB
:102B900097FB991F61F09F3F79F087950895121672
:102BA00013061406551FF2CF4695F1DF08C016161E
:102BB00017061806991FF1CF8695710561050894CF
:102BC0000895E894BB2766277727CB0197F90895E6
:102BD0002F923F924F925F926F927F928F929F922D
:102BE000AF92BF92CF92DF92EF92FF920F931F931B
:102BF000CF93DF93CDB7DEB7CA1BDB0B0FB6F894CC
:102C0000DEBF0FBECDBF09942A88398848885F840B
:102C10006E847D848C849B84AA84B984C884DF807C
:102C2000EE80FD800C811B81AA81B981CE0FD11D60
:102C30000FB6F894DEBF0FBECDBFED010895EE0FC5
:102C4000FF1F0590F491E02D09945058BB27AA2747
:102C50000E943D160C94AE150E94A01538F00E94FB
:102C6000A71520F039F49F3F19F426F40C949D1514
:102C70000EF4E095E7FB0C949715E92F0E94BF1521
:102C800058F3BA17620773078407950720F079F4A1
:102C9000A6F50C94E1150EF4E0950B2EBA2FA02D9D
:102CA0000B01B90190010C01CA01A0011124FF27F9
:102CB000591B99F0593F50F4503E68F11A16F040F4
:102CC000A22F232F342F4427585FF3CF46953795F3
:102CD0002795A795F0405395C9F77EF41F16BA0BB8
:102CE000620B730B840BBAF09150A1F0FF0FBB1F66
:102CF000661F771F881FC2F70EC0BA0F621F731FAF
:102D0000841F48F4879577956795B795F7959E3F0B
:102D100008F0B0CF9395880F08F09927EE0F97959C
:102D2000879508950E94A6160C94AE150E94A715CB
:102D300058F00E94A01540F029F45F3F29F00C9450
:102D4000971551110C94E2150C949D150E94BF1516
:102D500068F39923B1F3552391F3951B550BBB27CA
:102D6000AA2762177307840738F09F5F5F4F220F0F
:102D7000331F441FAA1FA9F335D00E2E3AF0E0E806
:102D800032D091505040E695001CCAF72BD0FE2F50
:102D900029D0660F771F881FBB1F261737074807E4
:102DA000AB07B0E809F0BB0B802DBF01FF2793589C
:102DB0005F4F3AF09E3F510578F00C9497150C94B4
:102DC000E2155F3FE4F3983ED4F3869577956795D7
:102DD000B795F7959F5FC9F7880F911D96958795D1
:102DE00097F90895E1E0660F771F881FBB1F6217F0
:102DF00073078407BA0720F0621B730B840BBA0BAE
:102E0000EE1F88F7E09508950E940B176894B111A2
:102E10000C94E21508950E94C71588F09F5798F00A
:102E2000B92F9927B751B0F0E1F0660F771F881FCF
:102E3000991F1AF0BA95C9F714C0B13091F00E94E9
:102E4000E115B1E008950C94E115672F782F8827DC
:102E5000B85F39F0B93FCCF3869577956795B39510
:102E6000D9F73EF490958095709561957F4F8F4F7F
:102E70009F4F089516F00C948A170C949D15689432
:102E80000C9497150E94C715A8F39923C1F3AEF3CC
:102E9000DF93CF931F930F93FF92C92FDD278823D2
:102EA0002AF02197660F771F881FDAF720E030E0BD
:102EB00040E85FEB9FE3883920F0803E38F02196B0
:102EC0008F770E942616E8E6F0E004C00E942616DE
:102ED000E5E9F0E00E9498178B01BE01EC01FB2EA2
:102EE0006F5771097595771F880B990B0E94EF1426
:102EF00028E132E741E35FE30E943D15AF2D9801E1
:102F0000AE01FF900F911F91CF91DF910E943D166E
:102F10000C94AE159F3F31F0915020F48795779532
:102F20006795B795880F911D9695879597F90895A0
:102F3000DF93CF931F930F93FF92EF92DF927B016A
:102F40008C01689406C0DA2EEF010E943D15FE0147
:102F5000E894A5912591359145915591A6F3EF01FE
:102F60000E943D16FE019701A801DA9469F7DF90EF
:102F7000EF90FF900F911F91CF91DF9108950F93E4
:102F80001F93CF93DF938230910510F482E090E09D
:102F9000E0914B03F0914C0330E020E0B0E0A0E082
:102FA000309799F42115310509F44AC0281B390BD3
:102FB00024303105D8F58A819B816115710589F12D
:102FC000FB0193838283FE0111C040815181028104
:102FD000138148175907E0F04817590799F41097DB
:102FE00061F012960C93129713961C933296CF01B0
:102FF000DF91CF911F910F91089500934B03109390
:103000004C03F4CF2115310551F04217530738F026
:10301000A901DB019A01BD01DF01F801C1CFEF0178
:10302000F9CF90934C0380934B03CDCFFE01E20F79
:10303000F31F819391932250310939832883D7CF8D
:103040002091490330914A03232B41F42091070139
:103050003091080130934A032093490320910501E0
:10306000309106012115310541F42DB73EB740914D
:10307000090150910A01241B350BE0914903F0919D
:103080004A03E217F307A0F42E1B3F0B281739075A
:1030900078F0AC014E5F5F4F2417350748F04E0FB4
:1030A0005F1F50934A0340934903819391939FCFAD
:1030B000F0E0E0E09CCFCF93DF930097E9F0FC01D4
:1030C000329713821282A0914B03B0914C03ED0111
:1030D00030E020E01097A1F420813181820F931F0E
:1030E0002091490330914A032817390709F061C03C
:1030F000F0934A03E0934903DF91CF910895EA01E9
:10310000CE17DF07E8F54A815B819E014115510525
:10311000B1F7E901FB83EA8349915991C40FD51FA7
:10312000EC17FD0761F4808191810296840F951F51
:10313000E90199838883828193819B838A83F0E06C
:10314000E0E012968D919C9113970097B9F52D911F
:103150003C911197CD010296820F931F2091490354
:1031600030914A032817390739F6309751F51092F4
:103170004C0310924B03B0934A03A0934903BCCF76
:10318000D383C28340815181840F951FC817D9070B
:1031900061F44E5F5F4F88819981480F591F5183B9
:1031A00040838A819B81938382832115310509F0B5
:1031B000B0CFF0934C03E0934B039ECFFD01DC01B5
:1031C000C0CF13821282D7CFB0E0A0E0EAEEF8E1E0
:1031D0000C94EA158C01009751F4CB010E94BF17A3
:1031E0008C01C801CDB7DEB7E0E10C940616FC01F6
:1031F000E60FF71F9C0122503109E217F30708F48C
:103200009DC0D901CD91DC911197C617D70798F0D1
:10321000C530D10530F3CE0104978617970708F320
:10322000C61BD70B2297C193D1936D937C93CF018B
:103230000E945B18D6CF5B01AC1ABD0A4C018C0E04
:103240009D1EA0914B03B0914C03512C412CF12CAD
:10325000E12C109731F58091490390914A0388152C
:10326000990509F05CC04616570608F058C08091D1
:10327000050190910601009741F48DB79EB74091EA
:10328000090150910A01841B950BE817F90708F012
:1032900055C0F0934A03E0934903F90171836083B9
:1032A000A0CF8D919C91119712966C9012971396C6
:1032B0007C901397A815B90559F56C0142E0C40E2E
:1032C000D11CCA14DB0420F1AC014A195B09DA01F4
:1032D0001296159780F06282738251834083D901E0
:1032E0006D937C93E114F10471F0D7011396FC9374
:1032F000EE93129776CF22968C0F9D1FF901918342
:103300008083F301EFCFF0934C03E0934B0369CF3D
:103310004816590608F42C017D01D3019ACFCB0140
:103320000E94BF177C01009749F0AE01B8010E94CE
:10333000A119C8010E945B18870153CF10E000E07B
:1033400050CFFB01DC0102C001900D924150504072
:10335000D8F70895FC018191861721F08823D9F7C9
:10336000992708953197CF010895FB01DC018D91D4
:10337000019080190110D9F3990B0895FB01DC012C
:1033800001900D920020E1F7089511E0C8E3D1E02B
:1033900004C0FE010E941F162196C933D107C9F748
:0433A000F894FFCFCF
:1033A40084038403FF00004D03800000000000E359
:1033B40001B601E7038C01AF019C018D01000000FF
:1033C400008F04B103EA03DC044D04F9033F040D48
:1033D4000A0052313100523132005231330052313D
:1033E40034003A586623003A596623004D3130348C
:1033F400004D3130310053313032004100610072F0
:0A34040000540042004300440000A1
:00000001FF
