:100000000C9457010C947F010C947F010C947F0198
:100010000C947F010C947F010C947F010C947F0160
:100020000C947F010C947F010C947F010C947F0150
:100030000C947F010C947F010C947F010C947F0140
:100040000C94DB0B0C947F010C944B0C0C94250C42
:100050000C947F010C947F010C947F010C947F0120
:100060000C947D0C0C947F0108000000BE92244982
:10007000123EABAAAA2ABECDCCCC4C3E00000080DA
:10008000BEABAAAAAA3E00000000BF000000803F4D
:100090000000000000084178D3BB4387D1133D190D
:1000A0000E3CC3BD4282AD2B3E68EC8276BED98F3A
:1000B000E1A93E4C80EFFFBE01C4FF7F3F0000007E
:1000C000000000407A10F35A00A0724E1809001088
:1000D000A5D4E80000E87648170000E40B540200BD
:1000E00000CA9A3B000000E1F505000080969800E8
:1000F000000040420F000000A08601000000102711
:1001000000000000E80300000000640000000000A0
:100110000A00000000000100000000002C76D888D2
:10012000DC674F0823DFC1DFAE59E1B1B796E5E3E5
:10013000E453C63AE651997696E8E6C28426EB89FE
:100140008C9B62ED407C6FFCEFBC9C9F40F2BAA59B
:100150006FA5F490055A2AF75C936B6CF9676DC133
:100160001BFCE0E40D47FEF520E6B500D0ED902E37
:100170000300943577050080841E080000204E0A95
:10018000000000C80C333333330F986E12831141D3
:10019000EF8D2114893BE65516CFFEE6DB18D1849E
:1001A0004B381BF77C1D901DA4BBE42420328472C5
:1001B0005E228100C9F124ECA1E53D273A426E237D
:1001C000003A416E23003A426E23003A416E23000A
:1001D0003A426E23003A416E2300005EBCE2613F6A
:1001E000DD83C29C7E20A3FD1F41009D23BE46DB14
:1001F00065F88C11AF32CA57E9745032303900506B
:100200003230380050323034005032303200503208
:100210003033005032313100503231300050323002
:100220003700503230350050323036004D313032E8
:10023000004D31303100496E697469616C697A69C9
:100240006E672043505520436F72652E2E2E00009E
:10025000000000240027002A0000000000250028DC
:10026000002B00000000080002010000030407004A
:10027000000000000000000000000023002600290C
:10028000000404040404040404020202020202033F
:100290000303030303010204081020408001020449
:1002A000081020010204081020009C0D5013112496
:1002B0001FBECFEFD8E0DEBFCDBF23E0A0E7B1E0A7
:1002C00001C01D92A632B207E1F711E0A0E0B1E053
:1002D000E2E1F5E302C005900D92A037B107D9F72E
:1002E00011E0C6E5D1E004C02197FE010E94171776
:1002F000C535D107C9F70E94460E0C947C1A0C94A0
:10030000000008950895833081F028F4813099F039
:100310008230A9F008958730A9F08830C9F0843080
:10032000B1F4809180008F7D03C0809180008F7731
:1003300080938000089584B58F7784BD089584B537
:100340008F7DFBCF8091B0008F778093B0000895B0
:100350008091B0008F7DF9CFCF93DF93282F30E0CD
:10036000F901ED59FD4F8491F901EB56FD4FD49100
:10037000F901EF57FD4FC491CC23A1F081110E94E8
:100380008301EC2FF0E0EE0FFF1FE958FD4FA59120
:10039000B491EC91ED2381E090E009F480E0DF91ED
:1003A000CF91089580E090E0FACF1F93CF93DF9331
:1003B000282F30E0F901ED59FD4F8491F901EB56FA
:1003C000FD4FD491F901EF57FD4FC491CC23A9F013
:1003D000162F81110E948301EC2FF0E0EE0FFF1F1A
:1003E000E75AFD4FA591B4918FB7F894EC91111194
:1003F00008C0D095DE23DC938FBFDF91CF911F9192
:100400000895DE2BF8CFCF93DF9390E0FC01EB56FD
:10041000FD4F24918F579D4FFC0184918823D1F08B
:1004200090E0880F991FFC01E15BFD4FA591B4910D
:10043000FC01E75AFD4FC591D49161110EC09FB7E1
:10044000F8948C91E22FE0958E238C932881E223FF
:10045000E8839FBFDF91CF9108958FB7F894EC9117
:10046000E22BEC938FBFF6CFCF93DF93EC0161E0EB
:1004700089E00E940302209731F460E089E0DF9177
:10048000CF910C94D501CF3FD10511F461E0F6CFA7
:10049000ECE6F2E0E491E33029F140F4E130B1F030
:1004A000E230D9F0C038D1058CF7E7CFE73021F141
:1004B000E83051F1E430B1F78091800080628093A0
:1004C0008000D0938B00C0938A0004C084B58068FC
:1004D00084BDC7BDDF91CF91089584B5806284BD8E
:1004E000C8BDF8CF80918000806880938000D09351
:1004F0008900C0938800EECF8091B000806880931F
:10050000B000C093B300E6CF8091B00080628093CA
:10051000B000C093B400DECF8E50806480937C0026
:1005200080917A00806480937A0080917A0086FDC1
:10053000FCCF809178009091790008953FB7F894AE
:100540008091E0019091E101A091E201B091E3017D
:1005500026B5A89B05C02F3F19F00196A11DB11D1E
:100560003FBFBA2FA92F982F8827BC01CD01620F5A
:10057000711D811D911D42E0660F771F881F991F15
:100580004A95D1F708958F929F92AF92BF92CF92E2
:10059000DF92EF92FF924B015C010E949E026B0181
:1005A0007C010E949E026C197D098E099F09683E9C
:1005B000734081059105A8F321E0821A9108A108F2
:1005C000B10888EEC80E83E0D81EE11CF11C81142E
:1005D0009104A104B10429F7FF90EF90DF90CF9030
:1005E000BF90AF909F908F9008950895FC01248153
:1005F00035816217730720F480819181009729F477
:100600001092D40184ED91E00895860F971F08950C
:10061000AF92BF92CF92DF92EF92FF920F931F9310
:10062000CF93DF936C017B018B01040F151FEB014E
:100630005E01AE18BF08C017D10759F06991D60105
:10064000ED91FC910190F081E02DC6010995892B77
:1006500079F7C501DF91CF911F910F91FF90EF9036
:10066000DF90CF90BF90AF900895FC0144815581F9
:10067000608171818EE392E00C940803FC01538D3C
:10068000448D252F30E0842F90E0821B930B54176C
:1006900010F0CF96089501970895FC01918D828DF9
:1006A000981761F0A28DAE0FBF2FB11D5D968C9192
:1006B000928D9F5F9F73928F90E008958FEF9FEFD1
:1006C00008952FB7F8948091E4019091E501A091ED
:1006D000E601B091E7012FBF809346029093470255
:1006E000A0934802B09349028EE392E00E944D032A
:1006F00097FF26C02FB7F8948091E4019091E5010F
:10070000A091E601B091E7012FBF409146025091C0
:1007100047026091480270914902841B950BA60B19
:10072000B70B409142025091430260914402709194
:10073000450284179507A607B707B0F28FEF9FEF22
:100740000895FC01918D828D981731F0828DE80F0C
:10075000F11D858D90E008958FEF9FEF0895FC01C6
:10076000918D228D892F90E0805C9F4F821B910993
:100770008F73992708958EE392E00E94AF0321E0E2
:10078000892B09F420E0822F089580E090E0892BE6
:1007900029F00E94BB0381110C9400000895FC0114
:1007A000A48DA80FB92FB11DA35ABF4F2C91848DD2
:1007B00090E001968F739927848FA689B7892C932F
:1007C000A089B1898C91837080648C93938D848D82
:1007D000981306C00288F389E02D80818F7D808385
:1007E0000895EF92FF920F931F93CF93DF93EC0145
:1007F00081E0888F9B8D8C8D98131AC0E889F989C8
:10080000808185FF15C09FB7F894EE89FF896083CA
:10081000E889F98980818370806480839FBF81E04B
:1008200090E0DF91CF911F910F91FF90EF9008958D
:10083000F62E0B8D10E00F5F1F4F0F731127E02E68
:100840008C8D8E110CC00FB607FCFACFE889F989A0
:10085000808185FFF5CFCE010E94CF03F1CFEB8DD4
:10086000EC0FFD2FF11DE35AFF4FF0829FB7F89474
:100870000B8FEA89FB8980818062CFCFCF93DF9392
:10088000EC01888D8823B9F0AA89BB89E889F989A8
:100890008C9185FD03C0808186FD0DC00FB607FCDD
:1008A000F7CF8C9185FFF2CF808185FFEDCFCE0110
:1008B0000E94CF03E9CFDF91CF910895209191015C
:1008C000260F3327331F21323105ECF42091140217
:1008D000FC0190E080E0243069F082E00895A0916E
:1008E00091012191AC014F585E4FA40FB52FB11D5E
:1008F0002C930196861798F380919101680F60936D
:10090000910180E0089581E008951092140281E041
:10091000809313021092EE0161E082E10E94D50102
:1009200061E083E10E94D501E9EBF0E080818E7FF8
:10093000808380818D7F808388E48093B80085E404
:100940008093BC000895CF93DF9391E09093700162
:100950008823B9F0C091B800D091BA008091BC0052
:100960008A7B8093BC0060E082E10E94D50160E058
:1009700083E10E94D5010E948504D093BA00C09300
:10098000B800DF91CF9108958F929F92AF92BF925E
:10099000CF92DF92EF92FF920F931F93CF93DF934B
:1009A000D0913D02D13208F0D7C0182FC0913C023F
:1009B0000E949E026B017C018091140281116BC028
:1009C00082E080931402109313028FEF809312023F
:1009D00010921102D0931002ACE1B2E0E0EFF1E02E
:1009E00080E0D81391C01092EF018091EF01CC0FFD
:1009F000C82BC093EF018091EE01813009F088C0CF
:100A00001092EE010E949E026B017C018091EF0129
:100A10008093BB008091160290911702A09118025A
:100A2000B0911902892B8A2B8B2BA1F00E949E0278
:100A300000911602109117022091180230911902AC
:100A40006C197D098E099F090617170728073907B2
:100A500008F442C08091BC0083FDD8CF85EC809320
:100A6000BC000E949E026B017C01809114028230C6
:100A700009F450C0809112028F3F09F46FC0809139
:100A80001202803209F46CC080911202803309F4A2
:100A900069C084E026C08091160290911702A0914F
:100AA0001802B0911902892B8A2B8B2B09F484CF61
:100AB0000E949E028090160290901702A090180249
:100AC000B09019026C197D098E099F098616970648
:100AD000A806B90608F070CF809115020E94A30401
:100AE00085E010921B0210923D0210921A02DF91D3
:100AF000CF911F910F91FF90EF90DF90CF90BF901B
:100B0000AF909F908F9008959D9191938F5F69CF43
:100B100085EEA5CF8091160290911702A091180240
:100B2000B0911902892B8A2B8B2B09F49ECF0E943E
:100B30009E02009116021091170220911802309126
:100B400019026C197D098E099F09061717072807D6
:100B5000390708F08ACFC0CF81E0C3CF80E0C1CF92
:100B600082E0BFCF83E0BDCFCF93DF93EC016A83F8
:100B70008E819F81288131E030931A0220933C02BC
:100B800010921B0210923D02DC01ED91FC9101904C
:100B9000F081E02D099581E00E94C40490E09D83DE
:100BA0008C83DF91CF910895FC01528121E030E0E8
:100BB00001C0220F6A95EAF7411107C0209525234D
:100BC0002283FC0162810C94B405252BF9CFFC0132
:100BD000808191E090931A0280933C0210921B0254
:100BE00010923D0281E00E94C40491E0811190E0E6
:100BF000892F08950F931F93CF938C011092ED01CD
:100C00001092EC0110921B0210923D020E9485048A
:100C100081E891E09093EB018093EA0182E891E012
:100C20009093E9018093E801C8010E94E705C82F6D
:100C3000882321F06FEFC8010E94B4058C2FCF915B
:100C40001F910F9108950895E091ED018091EC01BD
:100C5000E81730F4F0E0EC54FE4F808190E0089506
:100C60008FEF9FEF08959091ED018091EC012FEFB0
:100C70003FEF981748F4E92FF0E0EC54FE4F208145
:100C800030E09F5F9093ED01C90108958091EC01E0
:100C90009091ED01891B990B0895CF92DF92EF920D
:100CA000FF920F931F93CF93DF937C01CB018A01B7
:100CB00020911A02222389F0EB016B01C40ED51E8C
:100CC000CC15DD0569F06991D701ED91FC9101909A
:100CD000F081E02DC7010995F3CF642F0E945E04D7
:100CE000C801DF91CF911F910F91FF90EF90DF909E
:100CF000CF900895CF93DF931F92CDB7DEB769836E
:100D000020911A022223F9F020913D02203258F05E
:100D100021E030E0FC013383228390E080E00F90FB
:100D2000DF91CF91089580911B02E82FF0E0E45EFF
:100D3000FD4F998190838F5F80931B0280933D02CA
:100D400081E090E0ECCF61E0CE0101960E945E046C
:100D5000F7CF90E080E00895DC0180E0615090F0F2
:100D60009D919827E92FEF70F0E0E652FE4F249115
:100D7000E92FE295EF70F0E0E651FE4FE491822F0B
:100D80008E27ECCF0895DC012C911196ED91FC910A
:100D9000F8948181822B81839281322F3095932325
:100DA000928387E090E00197F1F78181832381832B
:100DB00083E290E00197F1F790817894EFECF0E016
:100DC0003197F1F7922381E009F480E00895FC0166
:100DD00090810180F281E02D292F209560FF14C0C1
:100DE000F8948281822382838181892B8183A3E28B
:100DF000B0E01197F1F78281982B9283789487ED78
:100E000090E00197F1F70895F8948281822382831C
:100E10008181892B8183AFEFB0E01197F1F7828157
:100E2000982B928378948FE090E0EBCFEF92FF9233
:100E30000F931F93CF93DF93EC01E62E08E010E0B1
:100E4000FF24F39461E08E2D8F2109F460E0CE0140
:100E50000E94E706FF0C01501109A1F7F894E981FF
:100E6000FA8191818881809589238183E981FA8142
:100E7000928188818095892382837894DF91CF91B4
:100E80001F910F91FF90EF900895EF92FF920F93B3
:100E90001F93CF93DF938C017B0165E50E941607BA
:100EA000E70188E0E80EF11C6991C8010E9416076D
:100EB000CE15DF05C9F7DF91CF911F910F91FF90FC
:100EC000EF900895FC0190810180F281E02DF8946B
:100ED0008181292F20958223818378943DE743E007
:100EE00050E0315029F1DA011197F1F7808189231F
:100EF000C1F3F8948281822382838181892B81834B
:100F00007894ABE7B7E01197F1F7F89481818223E9
:100F10008183A3E1B1E01197F1F78081982381E00B
:100F200009F080E07894E3E6F6E03197F1F7089570
:100F300080E008958F929F92AF92BF92CF92DF92FE
:100F4000EF92FF920F931F93CF93DF93EC011881E1
:100F50000E949E026B017C0180911402811164C089
:100F600081E080931402809313029FEF909312020A
:100F700010921102109210028093EF018091EF0104
:100F8000110F182B1093EF018091EE01813009F0C1
:100F900089C01092EE010E949E026B017C0180913B
:100FA000EF018093BB008091160290911702A091EF
:100FB0001802B0911902892B8A2B8B2BA1F00E9469
:100FC0009E02009116021091170220911802309192
:100FD00019026C197D098E099F0906171707280742
:100FE000390708F442C08091BC0083FDD8CF85EC5E
:100FF0008093BC000E949E026B017C0180911402D0
:10100000813009F451C08091110281116FC080912B
:101010001102A0EFB1E0E4EBF1E090E0981751F19C
:101020002D9121939F5FFACF809116029091170224
:10103000A0911802B0911902892B8A2B8B2B09F4ED
:101040008BCF0E949E028090160290901702A09073
:101050001802B09019026C197D098E099F09861635
:101060009706A806B90608F077CF809115020E946E
:10107000A30480E01092ED018093EC018130C1F176
:1010800082E890E09D838C838981DF91CF911F91CD
:101090000F91FF90EF90DF90CF90BF90AF909F9017
:1010A0008F90089585EEA4CF80911602909117023B
:1010B000A0911802B0911902892B8A2B8B2B09F46D
:1010C0009DCF0E949E02009116021091170220915E
:1010D0001802309119026C197D098E099F090617B3
:1010E00017072807390708F089CFBFCF81E091CFD4
:1010F0008E819F81DC01ED91FC910284F385E02DCE
:1011000009958983C2CF1F93CF93DF93EC01162FEC
:101110000E949A07298130E081E090E002C0880FA8
:10112000991F1A95E2F72823392381E01216130636
:101130000CF080E0DF91CF911F91089542E050E0E4
:101140006AE271E08EE392E00C940803CF93DF93A0
:10115000FC0101900020E9F73197AF01481B590BC2
:10116000BC018EE392E00E940803EC010E949E08FD
:101170008C0F9D1FDF91CF9108950F931F93CF93F5
:10118000DF938C01D0E0C0E0F801EC0FFD1F64910B
:10119000662341F08EE392E00E94F103892B11F067
:1011A0002196F2CF0E949E088C0F9D1FDF91CF9158
:1011B0001F910F910895CF93DF93EC01888199815E
:1011C000009711F00E941D19198218821D821C823D
:1011D0001B821A82DF91CF910895FC018081918159
:1011E000009711F00C941D190895FC0180819181E4
:1011F000009711F00C94721360E070E0CB01089539
:101200000F931F93CF93DF93EC018881998100970F
:1012100059F02A813B812617370730F081E0DF91B2
:10122000CF911F910F9108958B016F5F7F4F0E94A7
:10123000A619009759F0998388831B830A832C8110
:101240003D81232B59F7FC011082E8CF80E0E7CFE6
:10125000EF92FF920F931F93CF93DF936115710568
:1012600041F480E0DF91CF911F910F91FF90EF90BB
:10127000089541155105B1F07B01EC010C811D81F0
:10128000040F151FB8010E940009882351F328811B
:1012900039818C819D81B701820F931F0E94751A3D
:1012A0001D830C8381E0DECFEF92FF920F931F939B
:1012B000CF93DF93CDB7DEB764970FB6F894DEBF58
:1012C0000FBECDBF7C01CB01BA018E010F5F1F4F56
:1012D00022E044E00E945413FC0101900020E9F751
:1012E0003197AF01481B590BBC01C7010E94280967
:1012F000811103C0C7010E94DB08C70164960FB6C5
:10130000F894DEBF0FBECDBFDF91CF911F910F913B
:10131000FF90EF900895CF93DF93EC01FB010190D4
:101320000020E9F73197AF01461B570B0E942809AF
:10133000811103C0CE010E94DB08CE01DF91CF9165
:101340000895EF92FF920F931F93CF93DF93EC01D9
:101350007B018A01BA010E94000981110BC0CE01F4
:101360000E94DB08CE01DF91CF911F910F91FF907A
:10137000EF9008951D830C83B701888199810E94A5
:10138000751AF0CFFB0101900020E9F73197AF010A
:10139000461B570B0C94A109FB0101900020E9F7B3
:1013A0003197AF01461B570B0C94A109AF92BF9226
:1013B000CF92DF92EF92FF920F931F93CF93DF9321
:1013C000EC015B016A0179012417350720F48D2DAA
:1013D0006901E42EF82E198218821B821A821D825E
:1013E0001C826CE271E0CE010E94CC09D5011496FA
:1013F0000D911C91C016D106E8F4E016F10608F430
:101400008701D501ED91FC911197E00FF11FF0805C
:1014100010826D917C916C0D7D1DCE016115710561
:10142000A9F00E94C209F50180819181080F191F5E
:10143000D801FC92CE01DF91CF911F910F91FF90C7
:10144000EF90DF90CF90BF90AF9008950E94DB089F
:10145000EACFCF92DF92EF92FF920F931F93CF9339
:10146000DF93CDB7DEB72C970FB6F894DEBF0FBE73
:10147000CDBF182F062F18861F821A8619861C8644
:101480001B866CE271E0CE0107960E94CC096DE2EA
:1014900071E01123D1F061E371E01130B1F065E347
:1014A00071E0123091F069E371E0133071F06DE397
:1014B00071E0143051F061E471E0153031F065E411
:1014C00071E0163011F069E471E0CE0107960E94D8
:1014D000C20923E030E041E050E0BE01695F7F4F88
:1014E000CE0101960E94D609CE0101960E94F50810
:1014F0006B01CE0101960E94ED08C6010B9708977B
:1015000008F059C0612F8AE193E0011133C00E94B5
:101510008308882309F140E0612F8AE193E00E946B
:10152000D405CE0107960E94350385ED91E00E9417
:10153000BD08CE0107960E94ED082C960FB6F894D0
:10154000DEBF0FBECDBFDF91CF911F910F91FF90F6
:10155000EF90DF90CF900895612F8AE193E00E9491
:1015600083088111E6CFCE0107960E94350380EDF6
:1015700091E0DDCF0E948308813069F041E0612F66
:101580008AE193E00E94D405CE0107960E943503BC
:101590008DE491E00DC0612F8AE193E00E94830801
:1015A000813039F6CE0107960E94350382E591E03D
:1015B0000E94A608BECF85E1C81AD10888E0C816E7
:1015C000D10488F5612F86E093E001111FC00E94CD
:1015D0008308882369F040E0612F86E093E00E9451
:1015E000D405CE0107960E9435038BEC91E09FCF86
:1015F000612F86E093E00E94830881119ACFCE018B
:1016000007960E94350386EC91E091CF0E948308F3
:10161000813029F041E0612F86E093E0B3CF612F64
:1016200086E093E0BBCF812F01111CC00E94AC016A
:10163000892B59F060E0812F0E94D501CE010796D9
:101640000E94350381EC91E072CF812F0E94AC01A2
:10165000892B09F06ECFCE0107960E9435038CEBE3
:1016600091E065CF0E94AC01019729F061E0812FE4
:101670000E94D50189CF812F0E94AC01019709F00A
:1016800058CF90CFFB01DC0111961C921E9213964D
:101690001C921E92129715961C921E9214978617F2
:1016A000970749F0608171816115710521F04481CE
:1016B00055810C94A109089585ED8093BC0080911B
:1016C000160290911702A0911802B0911902079684
:1016D000A11DB11D23E0B695A795979587952A95ED
:1016E000D1F72091BC0024FD03C01092140208958C
:1016F00040911602509117026091180270911902E0
:10170000452B462B472B69F30097A105B10541F006
:1017100025E32A95F1F700000197A109B109E1CF6E
:10172000809115020C94A304CF92DF92EF92FF9266
:101730002AE038E240EA5BE30E9422166B017C015A
:10174000AC019B0160E070E080EA90E40E941D170C
:1017500020E030E44CE156E40E948A179B01AC0182
:10176000C701B6010E948A1720E030E44CE156E43C
:101770000E948A170E94041820E030E948E755E4E7
:101780000E948A172FE03FEC4BE55BE30E941E1797
:101790009B01AC0160E070E080E89FE30E948A1743
:1017A00023E333E948E853E40E941D17FF90EF90CC
:1017B000DF90CF9008951F920F920FB60F921124D1
:1017C0002F933F938F939F93AF93BF938091E401A7
:1017D0009091E501A091E601B091E7013091DF0120
:1017E00023E0230F2D3758F50196A11DB11D20933D
:1017F000DF018093E4019093E501A093E601B093AB
:10180000E7018091E0019091E101A091E201B091A6
:10181000E3010196A11DB11D8093E0019093E101C8
:10182000A093E201B093E301BF91AF919F918F919B
:101830003F912F910F900FBE0F901F90189526E8A3
:10184000230F0296A11DB11DD2CF1F920F920FB68A
:101850000F9211242F933F934F935F936F937F9336
:101860008F939F93AF93BF93EF93FF938EE392E099
:101870000E94CF03FF91EF91BF91AF919F918F9104
:101880007F916F915F914F913F912F910F900FBE7C
:101890000F901F9018951F920F920FB60F92112460
:1018A0002F938F939F93EF93FF93E0914E02F091CC
:1018B0004F028081E0915402F091550282FD1BC0DD
:1018C0009081809157028F5F8F7320915802821709
:1018D00041F0E0915702F0E0E25CFD4F958F80937C
:1018E0005702FF91EF919F918F912F910F900FBE13
:1018F0000F901F9018958081F4CF1F920F920FB612
:101900000F9211242F933F934F935F936F937F9385
:101910008F939F93AF93BF93EF93FF938091B90001
:10192000887F803609F44AC0F0F5883209F4A7C0F0
:1019300018F5803109F49BC0B8F4882309F4F9C084
:10194000883009F494C0FF91EF91BF91AF919F91BE
:101950008F917F916F915F914F913F912F910F9058
:101960000FBE0F901F901895883109F488C08032FF
:1019700051F78093120214C0803409F49DC040F4E2
:101980008033B9F38833F9F68093120285ECB0C046
:10199000803509F485C0883509F496C0883499F6F5
:1019A0000E945C0BD0CF883909F48CC038F5883799
:1019B00029F050F4883611F0803729F683E08093BF
:1019C00014021092B30157C0883809F47BC08039E3
:1019D00019F0803809F0B7CF8091B301803208F058
:1019E00071C0E091B30181E08E0F8093B3018091CB
:1019F000BB00F0E0ED56FE4F80833DC0803B39F0E8
:101A0000E0F4803A09F479C0883A09F09CCF84E088
:101A1000809314021092920110929101E091EA01D8
:101A2000F091EB0109958091910181110FC081E046
:101A3000809391011092710109C0803C09F4A6CFF6
:101A4000883C09F4A3CF883B09F07DCFE091920157
:101A500081E08E0F80939201F0E0EF58FE4F80817D
:101A60008093BB00909192018091910129C0809157
:101A7000EF018093BB0085EC8093BC0064CF909114
:101A8000110280911002981758F5E091110281E03F
:101A90008E0F80931102F0E0E051FE4F8081E9CF7C
:101AA000E091110281E08E0F809311028091BB00C2
:101AB000F0E0E051FE4F808390911102809110027E
:101AC0009817C8F285E8D8CFE091110281E08E0F17
:101AD000809311028091BB00F0E0E051FE4F8083C3
:101AE0008091130281115CCF81E08093EE0184EA42
:101AF0008093BC001092140226CF85EC8093BC002A
:101B0000109214028091B301803230F4E091B3015D
:101B1000F0E0ED56FE4F10826091B30170E0E0916D
:101B2000E801F091E90183E991E009951092B30190
:101B30000ACF1092120234CFEEE3F2E01382128247
:101B400048EE53E060E070E044835583668377831A
:101B50008AE091E09183808385EC90E0958784878B
:101B600084EC90E09787868780EC90E0918B808B67
:101B700081EC90E0938B828B82EC90E0958B848B50
:101B800086EC90E0978B868B118E128E138E148EBE
:101B9000AEE0B3E013961C921E92129714964D93EA
:101BA0005D936D937C9317978CE191E011969C93D4
:101BB0008E93EAE1F3E080E28083B783A68311820B
:101BC0008FEF8283838315821482E6E0F3E098E34B
:101BD0009083B783A68311828283838315821482C4
:101BE00060E087E00E940302ECE9F2E0E491A8EFF4
:101BF000B2E0EC93E8E8F2E0E491F0E0EE0FFF1FD2
:101C0000E958FD4F8591949112969C938E9311976C
:101C10001B961C921B971D961C921D971C961C923E
:101C20001C971A961C921A9719961C921997189637
:101C30001C92189717961C92179716961C92169737
:101C400015961C92159714961C92149713961C9235
:101C50001397E1EEF2E0168A158A1182B287A18706
:101C600017821086108289E0838381E084838583D4
:101C70008683EBEDF2E011821082138212821582CC
:101C800014826CE271E0CF010C94CC09CF93DF9306
:101C9000CDB7DEB761970FB6F894DEBF0FBECDBFEC
:101CA000789484B5826084BD84B5816084BD85B537
:101CB000826085BD85B5816085BD80916E00816043
:101CC00080936E00109281008091810082608093E9
:101CD00081008091810081608093810080918000EB
:101CE0008160809380008091B10084608093B10016
:101CF0008091B00081608093B00080917A00846010
:101D000080937A0080917A00826080937A0080913B
:101D10007A00816080937A0080917A008068809355
:101D20007A001092C10061E088E00E94D50164E66B
:101D300070E080E090E00E94C30261E089E00E94D0
:101D4000030264E670E080E090E00E94C30290E04D
:101D500080E00E94340261E084E00E94290A64E687
:101D600070E080E090E00E94C302E0914E02F091AA
:101D70004F0282E08083E0914A02F0914B02108290
:101D8000E0914C02F0914D028FEC8083109256024C
:101D9000E0915202F091530286E08083E09150027C
:101DA000F0915102808180618083E0915002F09136
:101DB0005102808188608083E0915002F09151024D
:101DC000808180688083E0915002F091510280818F
:101DD0008F7D808387E591E00E94A60864E670E02D
:101DE00080E090E00E94C30286E392E00E94BD087A
:101DF00064EC79E080E090E00E94C30260E08EE055
:101E00000E94030260E08FE00E94030260E080E134
:101E10000E94030260E081E10E94030261E088E029
:101E20000E94030261E08DE00E94030281E392E0E0
:101E30000E94BD0868EE73E080E090E00E94C3025B
:101E400061E080E00E94030261E081E00E94030201
:101E500061E082E00E94030261E083E00E940302ED
:101E600061E084E00E94030261E085E00E940302D9
:101E700061E086E00E94030261E087E00E940302C5
:101E80008EE092E00E94BD088AE193E00E94FA058C
:101E9000882309F4C2C089E092E00E94BD088AE16B
:101EA00093E00E94E705882309F4C0C08FEF91E01A
:101EB0000E94BD086FEF8AE193E00E94B40568EECE
:101EC00073E080E090E00E94C30261E080E00E9445
:101ED000030261E081E00E94030261E082E00E946F
:101EE000030261E083E00E94030261E084E00E945B
:101EF000030261E085E00E94030261E086E00E9447
:101F0000030261E087E00E94030287E292E00E9400
:101F1000BD0886E093E00E94FA05882309F48FC08B
:101F200082E292E00E94BD0886E093E00E94E7050D
:101F3000882309F487C088E192E00E94BD086FEF12
:101F400086E093E00E94B40568EE73E080E090E0E4
:101F50000E94C302E091EA02F091EB02138615861B
:101F600014861286118610861782168215821482B4
:101F700013821092E8021092E90277247394662487
:101F800063946E018AE0C80ED11C0091EA021091A0
:101F9000EB02D8011D968C91882309F45CC0F801EE
:101FA0001386158614868CE591E00E94A6088CE2C3
:101FB00092E00E94BD086EEE72E080E090E00E9428
:101FC000C30280E0282E80E0382E8EE392E00E944B
:101FD000AF03181619060CF05FC21A8219821C8210
:101FE0001B821E821D826CE271E0CE0101960E946E
:101FF000CC090E94610397FD54C18A30910509F410
:1020000050C18A871B8641E050E0BE01665F7F4F6A
:10201000CE0101960E942809ECCF8AE193E00E944C
:10202000FA0581113CCF84E092E037CF8AE193E05A
:102030000E94E70581113ECF8AEF91E039CF8DE113
:1020400092E070CF86E093E00E94E705811177CFA0
:1020500083E192E072CFC8010E94620781110AC039
:10206000D8011B961C921B971D961C921D971C96BF
:102070001C9299CF60EFC8010E941607EE24E394EA
:10208000A12C912CFF24F394C8010E94C306B82E02
:10209000C8010E94C306B1E0BB1272C0813009F0D2
:1020A00091C0E0E4EF1508F07ACFD8011B969C921E
:1020B0001B97911002C01D967C92F80183818823A2
:1020C00009F46DCFD8011396FE013A96055F1F4FB4
:1020D0007F018D9181930A171B07D9F767E0C7012C
:1020E0000E94AC069989891350CF8091E8028F5FD6
:1020F0008093E8028A85883239F008F07AC080310E
:1021000019F0823209F041CF8091E9028F5F80930C
:10211000E9028091EA029091EB022091E102211103
:1021200021C00E946207B7018091EA029091EB0200
:102130000E94450764EB8091EA029091EB020E94B5
:1021400016078091EA029091EB020E94C306182FB5
:102150008091EA029091EB020E946207111102C085
:102160006092E1028091EA029091EB022A8520318F
:1021700009F48AC00E946207811142C080E087C0D2
:10218000EA2DF0E0B81214C0D8011B968C911B9771
:10219000F816B0F4AE0FBF1F13968C918E2191F4F8
:1021A000B12CB8E0BF1518F0D8011C96FC929F2CFA
:1021B000E00FF11F83819E2D9095892383830AC0B0
:1021C0008F11EECFF801EA0DF11D83818E298383F3
:1021D000BB24B3946B2DC8010E94E706F394EE0C68
:1021E00019F4A394EE24E394B7E0BA1508F04CCFA9
:1021F00058CF8B3309F488CF823409F0C6CE84CF10
:10220000B7018091EA029091EB020E9445076EEBC4
:102210008091EA029091EB020E9416078E010F5FF7
:102220001F4F780118018090EA029090EB0298E02D
:10223000A92EB12C512C44244394C4010E94C306FE
:1022400081115428440CF1E0AF1AB108B1F7D7015D
:102250005D927D01AC15BD0531F78091EA02909148
:10226000EB020E946207813009F088CFF80181916A
:102270008F018111FEC1EE16FF06C1F77FCF8F35AA
:1022800071F08F3709F07ACF8CE001C08AE090912D
:10229000E402981708F079CE8093E40276CE8BE0C2
:1022A000F6CF8091DB029091DC02009709F48CC09C
:1022B00069817A816115710509F484C04091DD025C
:1022C0005091DE022D813E814217530708F47AC0F7
:1022D0000E94751A8D819E819093E0028093DF02A7
:1022E0001E821D82CE0101960E94ED088091DF02C0
:1022F0009091E002892BC1F00091DB021091DC0289
:1023000061E671E0C8010E946C1A61E0892B49F016
:1023100063E671E0C8010E946C1A892B09F06BC05A
:1023200060E08DE00E94D50170E060E08BED92E00E
:102330000E94F602DC018C91843409F06FC06BEDD1
:1023400072E0CE010A960E94420B61E070E0CE017D
:102350000A960E94F602FC0180818F3409F03CC18C
:102360002E853F8542E050E0BE01665F7F4FCE0183
:1023700001960E94D609CE0101960E94F508162FFB
:102380006093D501CE0101960E94ED081B501231D9
:1023900008F040C0E12FF0E0E053FE4E0C94171718
:1023A0000612D712DA12DD12E012E312E612E91277
:1023B0000A120A120612D712DA12DD12E012E31222
:1023C000E612E9120E941D1989819A819093DC021C
:1023D0008093DB028B819C819093DE028093DD02EF
:1023E0008D819E819093E0028093DF021A82198290
:1023F0001C821B8275CF65E671E0C8010E946C1AD1
:10240000892B09F091CF60E088E08CCF60E080E01C
:102410000E94290ACE010A960E94ED0870E060E051
:102420008BED92E00E94F602FC0180818337A1F5DA
:102430006BED72E0CE010A960E94420B2E853F851D
:1024400041E050E0BE01665F7F4FCE0101960E94E1
:10245000D609CE0101960E94F508162F6093D60189
:10246000CE0101960E94ED0861E0112349F08AE156
:1024700093E00E949A0780911B0384FF04C060E0F0
:1024800084E00E94290A8091D60190E00E943402E3
:10249000CE010A960E94ED088EE00E948C02BC01DB
:1024A000990F880B990B0E94E7150E94940B2B0142
:1024B0003C014092DB015092DC016092DD017092A0
:1024C000DE0180E10E948C02BC01990F880B990B00
:1024D0000E94E7150E94940B4B015C018092D7018A
:1024E0009092D801A092D901B092DA0181E10E94C4
:1024F0008C02BC01990F880B990B0E94E7150E9472
:10250000940B6B017C011B861A861D861C861F8618
:102510001E8667E671E0CE010A960E94CC09BE01D4
:10252000665F7F4FCE0101960E94420BB301A2016C
:10253000CE0101960E94540961E671E00E948B0968
:1025400040E050E0BA010E94540969E671E00E943F
:102550008B09B501A4010E9454096BE671E00E9449
:102560008B09B701A6010E9454096DE671E00E9433
:102570008B090E9435030E949E08CE0101960E949D
:10258000ED08CE010A960E94ED0868EE73E080E047
:1025900090E00E94C3022114310409F416CD0E9478
:1025A000BB03882309F411CD0E9400000ECD60E02A
:1025B00081E02ECF60E082E02BCF60E083E028CF87
:1025C00060E084E025CF60E085E022CF60E086E037
:1025D0001FCF60E087E01CCF61E070E0CE010A967B
:1025E0000E94F602DC018C91863409F013CF2E850F
:1025F0003F8542E050E0BE01665F7F4FCE0101960D
:102600000E94D609CE0101960E94F508162F60930C
:10261000D501CE0101960E94ED081B50123108F041
:10262000F9CEE12FF0E0E95EFC4E0C941717291368
:102630002B132D132F1331133313351337130A12A2
:102640000A1229132B132D132F13311333133513A0
:10265000371361E0DCCE61E0ABCF61E0ACCF61E08D
:10266000ADCF61E0AECF61E0AFCF61E0B0CF61E070
:10267000B1CF68E0C1010E94AC06998589137ECD77
:102680008D819A859B3311F487FDFECD8F3309F43C
:10269000FDCD08F0F4CD8F3109F070CD89E0F7CD94
:1026A0008BED92E00C94ED08EF920F931F93CF9374
:1026B000DF93E80134E047FD34E1042E000C550BB4
:1026C00057FF03C0519541955109E32E022F242F46
:1026D000AE010E94AE13CE01DF91CF911F910F91F9
:1026E000EF9008951F93FC0199278827BC01E89477
:1026F00011911032E9F3193010F01E30C8F31B327B
:1027000051F01D3249F4689406C00E949913610F7C
:10271000711D811D911D119110531A30B0F33EF4BB
:1027200090958095709561957F4F8F4F9F4F1F912A
:102730000895592F482F372F262F660F771F881F90
:10274000991F660F771F881F991F620F731F841FC1
:10275000951F660F771F881F991F0895A9E0B0E0A5
:10276000E4EBF3E10C94E6166A01F22EB02E102F82
:10277000FBE3AF2EA01608F41BE31F5F012F27E039
:10278000AE014F5F5F4F0E940D15BC018981982FEC
:102790009970913009F43FC09BE2E1FC04C09E2D8A
:1027A0009170E0FC3AC05E2D5071E82FE87083FF15
:1027B00046C084E0911101C083E0EF2DE81B8F1526
:1027C00008F0E0E0D6018E2F20E2552351F1992345
:1027D00029F0D6019C93C60101966C0196012D5FEC
:1027E0003F4FE2FE24C08EE4D6018C9391E4119613
:1027F0009C93119712968C93D9018E2F90E28111A0
:102800001BC0E20FF32FF11D10828EEF9FEF299670
:10281000ECE00C9402179DE2C6CF90E2C4CF2D935A
:1028200081508111FCCFCE0ED11CE0E0D0CF8EE6DE
:10283000D6018C9391E6DBCF9D938150E0CF482F5A
:10284000447082FF3DC084E0911101C083E08F1588
:1028500010F4EF2DE81BD6018E2F20E2552309F14D
:10286000992329F0D6019C93C60101966C0196012B
:102870002D5F3F4FE2FE1BC089E4D6018C938EE4AE
:1028800011968C93119786E412968C93D9018E2F12
:1028900090E2882309F4B5CF9D938150FACF2D9310
:1028A00081508111FCCFCE0ED11CE0E0D9CF89E65A
:1028B000D6018C938EE611968C93119786E6E4CF21
:1028C0009B0177FF02C030E020E0A1E0B0E0911171
:1028D00002C0B0E0A0E0F9013196AE0FBF1F8B2C13
:1028E000912CBB2009F461C05401EFEFAE1ABE0A6F
:1028F000AA0DBB1DFA161B0619F014F04F2D4A1B2A
:10290000511188C0E3FC59C07601A42FB0E2A11197
:102910004FC0C40ED11C992309F45BC040E0D6011E
:102920001196F60190836D01552309F448C0012FDB
:10293000060F9A81582F507184FF03C0913309F418
:10294000015010160CF047C0093008F008E0EEE224
:10295000FE2E5B01A01AB108850191948194910823
:102960002F3F320729F4D601FC92F60131966F0110
:102970006217730794F1021713077CF5DB01A21BA2
:10298000B30BAA24A394B12CAC0EBD1EAA0DBB1D83
:1029900011968C9121503109D601119628153905CF
:1029A000F4F0F60180836D01DBCFB12CA12CA0CF18
:1029B000F701B1937F01A150AACF9111B0CFD601F9
:1029C000942F50E302C05D9391509111FCCFC40E3F
:1029D000D11C40E0ACCF01E0BACF80E3DBCF62177F
:1029E000730731F4963388F4953311F4552369F065
:1029F000F6018083FD01842F90E2811108C0A40FAD
:102A0000B11D1C9290E080E002CF81E3F1CF919361
:102A10008150F3CF911183CF8ACF283008F027E07F
:102A20003327DA01990F311D87FD9160009661050A
:102A3000710539F432602E5F3D9330E32A95E1F75A
:102A400008959F3F30F080387105610509F03C5FC3
:102A50003C5F3D93913008F08068911DDF93CF93E8
:102A60001F930F93FF92EF92192F987F9695E92F5E
:102A700096959695E90FFF27E45EFE4F9927332739
:102A8000EE24FF24A701E70105900894079428F499
:102A9000360FE71EF81E491F511D660F771F881F4E
:102AA000991F0694A1F70590079428F4E70EF81EE5
:102AB000491F561FC11D770F881F991F661F069457
:102AC000A1F70590079428F4F80E491F561FC71F59
:102AD000D11D880F991F661F771F0694A1F70590D7
:102AE000079420F4490F561FC71FD81F990F661F60
:102AF000771F881F0694A9F784911095177041F0ED
:102B0000D695C79557954795F794E7941A95C1F7C9
:102B1000E2ECF0E0689415901591359165919591EE
:102B200005907FE27395E118F10A430B560BC90B30
:102B3000D009C0F7E10CF11E431F561FC91FD01D5D
:102B40007EF4703311F48A95E6CFE894015030F0AA
:102B5000080F0AF40027021708F4202F2395022FEC
:102B60007A3328F079E37D932A95E9F710C07D93B5
:102B70002A9589F606949795679537951795179432
:102B8000E118F10A430B560BC90BD00998F02395B5
:102B90007E9173957A3308F070E37C932013B8F735
:102BA0007E9170617D9330F0839571E37D9370E346
:102BB0002A95E1F71124EF90FF900F911F91CF918B
:102BC000DF91992787FD90950895E89409C097FBB8
:102BD0003EF490958095709561957F4F8F4F9F4FF4
:102BE0009923A9F0F92F96E9BB279395F695879538
:102BF00077956795B795F111F8CFFAF4BB0F11F4FB
:102C000060FF1BC06F5F7F4F8F4F9F4F16C08823A1
:102C100011F096E911C0772321F09EE8872F762FD7
:102C200005C0662371F096E8862F70E060E02AF018
:102C30009A95660F771F881FDAF7880F9695879504
:102C400097F908950E9435160C94A6160E949816BE
:102C500038F00E949F1620F0952311F00C948F16E7
:102C60000C94951611240C94DA160E94B71670F382
:102C7000959FC1F3950F50E0551F629FF001729F21
:102C8000BB27F00DB11D639FAA27F00DB11DAA1F30
:102C9000649F6627B00DA11D661F829F2227B00D7D
:102CA000A11D621F739FB00DA11D621F839FA00D08
:102CB000611D221F749F3327A00D611D231F849F58
:102CC000600D211D822F762F6A2F11249F575040AF
:102CD0009AF0F1F088234AF0EE0FFF1FBB1F661F2A
:102CE000771F881F91505040A9F79E3F510580F0F3
:102CF0000C948F160C94DA165F3FE4F3983ED4F3ED
:102D0000869577956795B795F795E7959F5FC1F796
:102D1000FE2B880F911D9695879597F9089597F941
:102D20009F6780E870E060E008959FEF80EC089571
:102D300000240A941616170618060906089500249A
:102D40000A9412161306140605060895092E039414
:102D5000000C11F4882352F0BB0F40F4BF2B11F488
:102D600060FF04C06F5F7F4F8F4F9F4F089557FDE7
:102D70009058440F551F59F05F3F71F04795880FE9
:102D800097FB991F61F09F3F79F087950895121680
:102D900013061406551FF2CF4695F1DF08C016162C
:102DA00017061806991FF1CF8695710561050894DD
:102DB0000895E894BB2766277727CB0197F90895F4
:102DC0002F923F924F925F926F927F928F929F923B
:102DD000AF92BF92CF92DF92EF92FF920F931F9329
:102DE000CF93DF93CDB7DEB7CA1BDB0B0FB6F894DA
:102DF000DEBF0FBECDBF09942A88398848885F841A
:102E00006E847D848C849B84AA84B984C884DF808A
:102E1000EE80FD800C811B81AA81B981CE0FD11D6E
:102E20000FB6F894DEBF0FBECDBFED010895EE0FD3
:102E3000FF1F0590F491E02D09945058BB27AA2755
:102E40000E9435170C94A6160E94981638F00E941E
:102E50009F1620F039F49F3F19F426F40C94951630
:102E60000EF4E095E7FB0C948F16E92F0E94B7163D
:102E700058F3BA17620773078407950720F079F4AF
:102E8000A6F50C94D9160EF4E0950B2EBA2FA02DB2
:102E90000B01B90190010C01CA01A0011124FF2707
:102EA000591B99F0593F50F4503E68F11A16F04002
:102EB000A22F232F342F4427585FF3CF4695379501
:102EC0002795A795F0405395C9F77EF41F16BA0BC6
:102ED000620B730B840BBAF09150A1F0FF0FBB1F74
:102EE000661F771F881FC2F70EC0BA0F621F731FBD
:102EF000841F48F4879577956795B795F7959E3F1A
:102F000008F0B0CF9395880F08F09927EE0F9795AA
:102F1000879508950E949E170C94A6160E949F16EE
:102F200058F00E94981640F029F45F3F29F00C9465
:102F30008F1651110C94DA160C9495160E94B71640
:102F400068F39923B1F3552391F3951B550BBB27D8
:102F5000AA2762177307840738F09F5F5F4F220F1D
:102F6000331F441FAA1FA9F335D00E2E3AF0E0E814
:102F700032D091505040E695001CCAF72BD0FE2F5E
:102F800029D0660F771F881FBB1F261737074807F2
:102F9000AB07B0E809F0BB0B802DBF01FF279358AA
:102FA0005F4F3AF09E3F510578F00C948F160C94C9
:102FB000DA165F3FE4F3983ED4F3869577956795EC
:102FC000B795F7959F5FC9F7880F911D96958795DF
:102FD00097F90895E1E0660F771F881FBB1F6217FE
:102FE00073078407BA0720F0621B730B840BBA0BBC
:102FF000EE1F88F7E095089516F00C944C180C9489
:10300000951668940C948F160E94BF16A8F3992306
:10301000C1F3AEF3DF93CF931F930F93FF92C92FAA
:10302000DD2788232AF02197660F771F881FDAF79C
:1030300020E030E040E85FEB9FE3883920F0803EFD
:1030400038F021968F770E941E17E8E6F0E004C062
:103050000E941E17E5E9F0E00E945A188B01BE019C
:10306000EC01FB2E6F5771097595771F880B990B33
:103070000E94E71528E132E741E35FE30E9435163D
:10308000AF2D9801AE01FF900F911F91CF91DF916D
:103090000E9435170C94A6169F3F31F0915020F4F2
:1030A000879577956795B795880F911D9695879524
:1030B00097F90895DF93CF931F930F93FF92EF92A9
:1030C000DF927B018C01689406C0DA2EEF010E942A
:1030D0003516FE01E894A5912591359145915591BC
:1030E000A6F3EF010E943517FE019701A801DA94BB
:1030F00069F7DF90EF90FF900F911F91CF91DF91D3
:1031000008950F931F93CF93DF938230910510F4AE
:1031100082E090E0E0912403F091250330E020E08C
:10312000B0E0A0E0309799F42115310509F44AC0C8
:10313000281B390B24303105D8F58A819B81611514
:10314000710589F1FB0193838283FE0111C04081E7
:1031500051810281138148175907E0F04817590738
:1031600099F4109761F012960C93129713961C9392
:103170003296CF01DF91CF911F910F910895009367
:10318000240310932503F4CF2115310551F0421784
:10319000530738F0A901DB019A01BD01DF01F801F5
:1031A000C1CFEF01F9CF9093250380932403CDCFB6
:1031B000FE01E20FF31F819391932250310939836D
:1031C0002883D7CF2091220330912303232B41F46E
:1031D00020910201309103013093230320932203B5
:1031E00020910001309101012115310541F42DB7E5
:1031F0003EB74091040150910501241B350BE0912D
:103200002203F0912303E217F307A0F42E1B3F0BD8
:103210002817390778F0AC014E5F5F4F2417350748
:1032200048F04E0F5F1F5093230340932203819376
:1032300091939FCFF0E0E0E09CCFCF93DF93009796
:10324000E9F0FC01329713821282A0912403B0911D
:103250002503ED0130E020E01097A1F420813181B9
:10326000820F931F209122033091230328173907DF
:1032700009F061C0F0932303E0932203DF91CF9123
:103280000895EA01CE17DF07E8F54A815B819E01C8
:1032900041155105B1F7E901FB83EA834991599141
:1032A000C40FD51FEC17FD0761F480819181029650
:1032B000840F951FE90199838883828193819B8381
:1032C0008A83F0E0E0E012968D919C91139700972D
:1032D000B9F52D913C911197CD010296820F931F64
:1032E00020912203309123032817390739F63097AC
:1032F00051F51092250310922403B0932303A09359
:103300002203BCCFD383C28340815181840F951F98
:10331000C817D90761F44E5F5F4F88819981480FC4
:10332000591F518340838A819B8193838283211516
:10333000310509F0B0CFF0932503E09324039ECF2D
:10334000FD01DC01C0CF13821282D7CFB0E0A0E034
:10335000ECEAF9E10C94E2168C01009751F4CB01F0
:103360000E9481188C01C801CDB7DEB7E0E10C9452
:10337000FE16FC01E60FF71F9C0122503109E217EF
:10338000F30708F49DC0D901CD91DC911197C617C0
:10339000D70798F0C530D10530F3CE0104978617D2
:1033A000970708F3C61BD70B2297C193D1936D9350
:1033B0007C93CF010E941D19D6CF5B01AC1ABD0AC8
:1033C0004C018C0E9D1EA0912403B0912503512C1D
:1033D000412CF12CE12C109731F580912203909132
:1033E00023038815990509F05CC04616570608F0B6
:1033F00058C08091000190910101009741F48DB770
:103400009EB74091040150910501841B950BE8176C
:10341000F90708F055C0F0932303E0932203F90164
:1034200071836083A0CF8D919C91119712966C90BF
:10343000129713967C901397A815B90559F56C014E
:1034400042E0C40ED11CCA14DB0420F1AC014A19BD
:103450005B09DA011296159780F0628273825183BC
:103460004083D9016D937C93E114F10471F0D7018D
:103470001396FC93EE93129776CF22968C0F9D1F96
:10348000F90191838083F301EFCFF0932503E0935B
:10349000240369CF4816590608F42C017D01D30195
:1034A0009ACFCB010E9481187C01009749F0AE01B0
:1034B000B8010E94631AC8010E941D19870153CFE9
:1034C00010E000E050CFFB01DC0102C001900D9242
:1034D00041505040D8F70895FB01DC018D910190D7
:1034E00080190110D9F3990B0895FB01DC010190BB
:1034F0000D920020E1F7089511E0C6E5D1E004C087
:10350000FE010E9417172196C735D107C9F7F89415
:02351000FFCFEB
:1035120000002603800000000000F10308033E03C0
:103522003E04AF034D03A103000000007A064D06DE
:10353200A90623064606330624060D0A0052313137
:10354200005231320052313300523134005231359F
:10355200005231360052313700523138003A586643
:1035620023003A596623004D313034005331303252
:103572000041006100720054004200430044000018
:00000001FF
