:100000000C9441010C941D0C0C94F60B0C9469019A
:100010000C9469010C9469010C9469010C94440CD2
:100020000C9469010C9469010C9469010C946901A8
:100030000C9469010C9469010C9469010C94690198
:100040000C94AC0B0C9469010C94C60C0C94A00C91
:100050000C9469010C9469010C9469010C94690178
:100060000C948D0A0C94690108000000BE9224498A
:10007000123EABAAAA2ABECDCCCC4C3E00000080DA
:10008000BEABAAAAAA3E00000000BF000000803F4D
:100090000000000000084178D3BB4387D1133D190D
:1000A0000E3CC3BD4282AD2B3E68EC8276BED98F3A
:1000B000E1A93E4C80EFFFBE01C4FF7F3F0000007E
:1000C000000000407A10F35A00A0724E1809001088
:1000D000A5D4E80000E87648170000E40B540200BD
:1000E00000CA9A3B000000E1F505000080969800E8
:1000F000000040420F000000A08601000000102711
:1001000000000000E80300000000640000000000A0
:100110000A00000000000100000000002C76D888D2
:10012000DC674F0823DFC1DFAE59E1B1B796E5E3E5
:10013000E453C63AE651997696E8E6C28426EB89FE
:100140008C9B62ED407C6FFCEFBC9C9F40F2BAA59B
:100150006FA5F490055A2AF75C936B6CF9676DC133
:100160001BFCE0E40D47FEF520E6B500D0ED902E37
:100170000300943577050080841E080000204E0A95
:10018000000000C80C333333330F986E12831141D3
:10019000EF8D2114893BE65516CFFEE6DB18D1849E
:1001A0004B381BF77C1D901DA4BBE42420328472C5
:1001B0005E228100C9F124ECA1E53D273A42652386
:1001C000003A41652300005EBCE2613FDD83C29CD2
:1001D0007E20A3FD1F41009D23BE46DB65F88C11E8
:1001E000AF32CA57E97450323034005032303200E6
:1001F00050323033005032303700503230350050FA
:10020000323036004D31303200496E697469616CAC
:10021000697A696E672043505520436F72652E2EB0
:100220002E0000000000240027002A000000000823
:1002300000020100000304070000000000000000AD
:1002400000000000250028002B0002000000002311
:100250000026002900040404040404040402020229
:1002600002020203030303030301020408102040F7
:100270008001020408102001020408102000F80C7C
:10028000C61211241FBECFEFD8E0DEBFCDBF23E0E2
:10029000A2E6B1E001C01D92AE36B207E1F711E06F
:1002A000A0E0B1E0EAE6F4E302C005900D92A236C8
:1002B000B107D9F711E0C0E4D1E004C02197FE01F5
:1002C0000E948D16CF33D107C9F70E94E00D0C9420
:1002D000281A0C9400002091E701260F3327331FC2
:1002E00021323105ECF420910D02FC0190E080E018
:1002F000243069F082E00895A091E7012191AC01DA
:100300004B535E4FA40FB52FB11D2C93019686174A
:1003100098F38091E701680F6093E70180E008950A
:1003200081E00895089508950895E091BC018091B9
:10033000BB01E81730F4F0E0E556FE4F808190E015
:1003400008958FEF9FEF08959091BC018091BB01BC
:100350002FEF3FEF981748F4E92FF0E0E556FE4FF6
:10036000208130E09F5F9093BC01C9010895809186
:10037000BB019091BC01891B990B0895CF92DF922C
:10038000EF92FF920F931F93CF93DF937C01CB01EA
:100390008A0120919A01222389F0EB016B01C40E9E
:1003A000D51ECC15DD0569F06991D701ED91FC9161
:1003B0000190F081E02DC7010995F3CF642F0E94D1
:1003C0006B01C801DF91CF911F910F91FF90EF90CA
:1003D000DF90CF900895CF93DF931F92CDB7DEB714
:1003E000698320919A012223F9F02091BD012032E6
:1003F00058F021E030E0FC013383228390E080E07C
:100400000F90DF91CF9108958091BE01E82FF0E029
:10041000E658FE4F998190838F5F8093BE01809351
:10042000BD0181E090E0ECCF61E0CE0101960E9439
:100430006B01F7CF833081F028F4813099F082305E
:10044000A9F008958730A9F08830C9F08430B1F45C
:10045000809180008F7D03C0809180008F77809392
:100460008000089584B58F7784BD089584B58F7D0D
:10047000FBCF8091B0008F778093B000089580917A
:10048000B0008F7DF9CFCF93DF93282F30E0F901B3
:10049000E45DFD4F8491F901E759FD4FD491F901D5
:1004A000EB5AFD4FC491CC23A1F081110E941A0296
:1004B000EC2FF0E0EE0FFF1FE55BFD4FA591B4912F
:1004C000EC91ED2381E090E009F480E0DF91CF91A1
:1004D000089580E090E0FACF1F93CF93DF93282F09
:1004E00030E0F901E45DFD4F8491F901E759FD4FDA
:1004F000D491F901EB5AFD4FC491CC23A9F0162FEA
:1005000081110E941A02EC2FF0E0EE0FFF1FE05C59
:10051000FD4FA591B4918FB7F894EC91111108C0DB
:10052000D095DE23DC938FBFDF91CF911F9108958B
:10053000DE2BF8CF10920D0281E080930F02109213
:100540000E0261E082E10E946C0261E083E10E94A0
:100550006C02E9EBF0E080818E7F808380818D7F6B
:10056000808388E48093B80085E48093BC0008957C
:10057000CF93DF9391E09093C4018823B9F0C091A9
:10058000B800D091BA008091BC008A7B8093BC00F7
:1005900060E082E10E946C0260E083E10E946C02F4
:1005A0000E949A02D093BA00C093B800DF91CF9115
:1005B0000895CF93DF9390E0FC01E759FD4F24911C
:1005C0008B5A9D4FFC0184918823C9F090E0880FDD
:1005D000991FFC01EE5DFD4FA591B491FC01E05C1B
:1005E000FD4FC591D49161110DC09FB7F8948C91C6
:1005F000209582238C938881282328839FBFDF91B5
:10060000CF910895623051F49FB7F8943C91822FB6
:10061000809583238C93E8812E2BEFCF8FB7F894AE
:10062000EC912E2B2C938FBFEACF8E508064809359
:100630007C0080917A00806480937A0080917A00B7
:1006400086FDFCCF809178009091790008953FB7A6
:10065000F8948091760190917701A0917801B09102
:10066000790126B5A89B05C02F3F19F00196A11D61
:10067000B11D3FBFBA2FA92F982F8827BC01CD01EC
:10068000620F711D811D911D42E0660F771F881F4B
:10069000991F4A95D1F708958F929F92AF92BF927A
:1006A000CF92DF92EF92FF926B017C010E942703B1
:1006B0004B015C01C114D104E104F104B9F00E94C2
:1006C0002703681979098A099B09683E73408105E7
:1006D000910580F321E0C21AD108E108F10888EE03
:1006E000880E83E0981EA11CB11CE4CFFF90EF9010
:1006F000DF90CF90BF90AF909F908F9008952FB7CD
:10070000F8946091720170917301809174019091DD
:1007100075012FBF089508950895909104018913DC
:100720000BC0EAE4F2E0E4919FEF90930401E13022
:1007300049F028F0E23061F060E00C946C02109215
:100740006E00FACF90916F009D7F90936F00F4CF71
:10075000909170009D7F9093700091E09093B00015
:100760009091B100987F94609093B1001092B30083
:10077000E3CF4F925F926F927F92AF92BF92CF92F0
:10078000DF92EF92FF920F931F93CF93DF93D4E00A
:1007900044244A94542C320140EFA42E46E0B42E57
:1007A0005AE4C52E52E0D52E09E512E06DE6E62E9C
:1007B00062E0F62E80910401843029F5F601C4919F
:1007C000C7FDBCC061E084E00E94D902CC2309F4DB
:1007D00088C0C23009F099C08091B100887F8260E2
:1007E0008093B1008DED8093B30040923802509217
:1007F000390260923A0270923B02809170008260EE
:10080000809370009BC08F3F09F098C084E0809374
:100810000401F601C491CF3F09F490C0C13019F131
:1008200050F0C23009F43CC0C7FD88C061E084E0EC
:100830000E94D902CECF14BC15BC84B5826084BDA1
:1008400085B5816085BDF8018491E82FF0E0EE0F59
:10085000FF1FE05CFD4F85919491F7018491809397
:100860003702C0E0AFCF10928000109281008091DB
:1008700081008860809381008091810081608093F5
:100880008100F8018491E82FF0E0EE0FFF1FE05C9B
:10089000FD4F85919491F70184918093360292CF18
:1008A0001092B0001092B1008091B00082608093ED
:1008B000B0008091B10081608093B100F801849113
:1008C000E82FF0E0EE0FFF1FE05CFD4F8591949163
:1008D0009093350280933402F70184918093330220
:1008E00071CF85B5887F826085BD8DED87BD4092D3
:1008F0004002509241026092420270924302809103
:100900006E00826080936E0019C0C130C1F5809185
:100910008100887F816080938100B0928900A092DD
:10092000880040923C0250923D0260923E027092DA
:100930003F0280916F00826080936F006AEF70E0E9
:1009400080E090E00E944C0384E00E948D036AEFF7
:1009500070E080E090E00E944C03D15009F02ACF73
:10096000DF91CF911F910F91FF90EF90DF90CF908B
:10097000BF90AF907F906F905F904F900895C2307E
:1009800021F0C111DBCF80EFB1CF80EF2CCFAF9240
:10099000BF92CF92DF92EF92FF920F931F93CF936C
:1009A000DF936C017B018B01040F151FEB015E01CE
:1009B000AE18BF08C017D10759F06991D601ED9163
:1009C000FC910190F081E02DC6010995892B79F702
:1009D000C501DF91CF911F910F91FF90EF90DF90B4
:1009E000CF90BF90AF900895FC0144815581608104
:1009F000718184E492E00C94C70490E080E0089553
:100A0000FC01538D448D252F30E0842F90E0821B14
:100A1000930B541710F0CF96089501970895FC0199
:100A2000918D828D981761F0A28DAE0FBF2FB11DF1
:100A30005D968C91928D9F5F9F73928F90E0089549
:100A40008FEF9FEF08950F931F930E947F03609392
:100A50004C0270934D0280934E0290934F0284E4B7
:100A600092E00E940F0597FF1DC00E947F03009136
:100A70004C0210914D0220914E0230914F02601BAA
:100A8000710B820B930B0091480210914902209147
:100A90004A0230914B026017710782079307F8F200
:100AA0008FEF9FEF1F910F910895FC01918D828D23
:100AB000981731F0828DE80FF11D858D90E0089533
:100AC0008FEF9FEF0895FC01918D228D892F90E08B
:100AD000805C9F4F821B91098F739927089584E44E
:100AE00092E00E94630521E0892B09F420E0822F27
:100AF000089580E090E0892B29F00E946F05811114
:100B00000C9400000895FC01A48DA80FB92FB11D0D
:100B1000A35ABF4F2C91848D90E001968F73992733
:100B2000848FA689B7892C93A089B1898C91837011
:100B300080648C93938D848D981306C00288F3890A
:100B4000E02D80818F7D80830895EF92FF920F9337
:100B50001F93CF93DF93EC0181E0888F9B8D8C8D69
:100B600098131AC0E889F989808185FF15C09FB75D
:100B7000F894EE89FF896083E889F9898081837020
:100B8000806480839FBF81E090E0DF91CF911F91CF
:100B90000F91FF90EF900895F62E0B8D10E00F5FF0
:100BA0001F4F0F731127E02E8C8D8E110CC00FB6C6
:100BB00007FCFACFE889F989808185FFF5CFCE015E
:100BC0000E948305F1CFEB8DEC0FFD2FF11DE35A51
:100BD000FF4FF0829FB7F8940B8FEA89FB898081E1
:100BE0008062CFCFCF93DF93EC01888D8823B9F05B
:100BF000AA89BB89E889F9898C9185FD03C0808128
:100C000086FD0DC00FB607FCF7CF8C9185FFF2CFA4
:100C1000808185FFEDCFCE010E948305E9CFDF9172
:100C2000CF910895DC0180E0615090F09D9198276C
:100C3000E92FEF70F0E0EA53FE4F2491E92FE2959F
:100C4000EF70F0E0EA52FE4FE491822F8E27ECCF56
:100C50000895DC012C911196ED91FC91F89481811D
:100C6000822B81839281322F30959323928387E068
:100C700090E00197F1F781818323818383E290E003
:100C80000197F1F790817894EFECF0E03197F1F76C
:100C9000922381E009F480E00895FC0190810180B5
:100CA000F281E02D292F209560FF14C0F8948281F5
:100CB000822382838181892B8183A3E2B0E0119713
:100CC000F1F78281982B9283789487ED90E00197D9
:100CD000F1F70895F8948281822382838181892BA0
:100CE0008183AFEFB0E01197F1F78281982B928367
:100CF00078948FE090E0EBCFEF92FF920F931F93E9
:100D0000CF93DF93EC01E62E08E010E0FF24F3948C
:100D100061E08E2D8F2109F460E0CE010E944D0626
:100D2000FF0C01501109A1F7F894E981FA81918132
:100D30008881809589238183E981FA8192818881E4
:100D40008095892382837894DF91CF911F910F91B1
:100D5000FF90EF900895EF92FF920F931F93CF9320
:100D6000DF938C017B0165E50E947C06E70188E04A
:100D7000E80EF11C6991C8010E947C06CE15DF05C2
:100D8000C9F7DF91CF911F910F91FF90EF900895D8
:100D9000FC0190810180F281E02DF8948181292F5E
:100DA00020958223818378943DE743E050E03150E1
:100DB00029F1DA011197F1F780818923C1F3F894C1
:100DC0008281822382838181892B81837894ABE71E
:100DD000B7E01197F1F7F894818182238183A3E131
:100DE000B1E01197F1F78081982381E009F080E06C
:100DF0007894E3E6F6E03197F1F7089580E00895FE
:100E0000FC0181E090E0A0E0B0E004C0880F991FF1
:100E1000AA1FBB1F6A95D2F72389282B238B24890D
:100E2000282B248B809595899823958B97899823D7
:100E3000978B96898923868B08958F929F92AF9284
:100E4000BF92CF92DF92EF92FF920F931F93CF93B7
:100E5000DF93EC0184E088A71092BC011092BB01E3
:100E60001092BE011092BD010E949A0282E991E0A7
:100E70009093E6018093E50183E991E09093EA0184
:100E80008093E9018B892D89811103C0222309F404
:100E9000C1C08D859E85388541E040939A0130938D
:100EA00062016C89622B698FDC01ED91FC910190EC
:100EB000F081E02D09959C898E89892B8A8F888FF6
:100EC0009F8F0091BD0181E0013208F09CC010911C
:100ED00062010E9427036B017C0180910D02811148
:100EE0006CC082E080930D0281E080930F028FEF4F
:100EF00080930C021092310200933002EAE7F1E095
:100F0000A0E1B2E080E00813B6C0109232028091F6
:100F10003202110F182B1093320280910E02813091
:100F200009F0ADC010920E020E9427036B017C01F4
:100F3000809132028093BB008091C0019091C101E9
:100F4000A091C201B091C301892B8A2B8B2BA1F0F8
:100F50000E9427030091C0011091C1012091C2019C
:100F60003091C3016C197D098E099F090617170777
:100F70002807390708F442C08091BC0083FDD8CF10
:100F800085EC8093BC000E9427036B017C0180915B
:100F90000D02823009F475C080910C028F3F09F474
:100FA00092C080910C02803209F48FC080910C02B3
:100FB000803309F48CC084E026C08091C0019091F8
:100FC000C101A091C201B091C301892B8A2B8B2B47
:100FD00009F483CF0E9427038090C0019090C10143
:100FE000A090C201B090C3016C197D098E099F09C0
:100FF00086169706A806B90608F06FCF8091BF0144
:101000000E94B80285E01092BE011092BD011092BC
:101010009A0188A78F858823B9F062E088890E94A9
:10102000D90289899A892889223009F452C023304B
:1010300059F4909303018093020180916900837FAA
:10104000886080936900E99A0E947F036B8F7C8F90
:101050008D8F9E8F81E098A5911180E0DF91CF91D7
:101060001F910F91FF90EF90DF90CF90BF90AF90C6
:101070009F908F90089591919D938F5F44CF85EEBF
:1010800080CF8091C0019091C101A091C201B09127
:10109000C301892B8A2B8B2B09F479CF0E9427035C
:1010A0000091C0011091C1012091C2013091C30192
:1010B0006C197D098E099F0906171707280739073C
:1010C00008F065CF9BCF80E09ECF82E09CCF83E08D
:1010D0009ACF9093010180930001809169008C7FE9
:1010E000826080936900E89AAFCF42E050E06FE2FF
:1010F00071E084E492E00C94C704CF93DF93FC0189
:1011000001900020E9F73197AF01481B590BBC0152
:1011100084E492E00E94C704EC010E9475088C0FE1
:101120009D1FDF91CF9108950F931F93CF93DF936E
:101130008C01D0E0C0E0F801EC0FFD1F6491662344
:1011400041F084E492E00E94A505892B11F02196DC
:10115000F2CF0E9475088C0F9D1FDF91CF911F91D8
:101160000F91089585ED8093BC008091C00190910E
:10117000C101A091C201B091C3010796A11DB11D8B
:1011800023E0B695A795979587952A95D1F7209155
:10119000BC0024FD03C010920D0208954091C001CF
:1011A0005091C1016091C2017091C301452B462B42
:1011B000472B69F30097A105B10541F025E32A9576
:1011C000F1F700000197A109B109E1CF8091BF01BA
:1011D0000C94B802CF93DF93EC018881998100973A
:1011E00011F00E94C918198218821D821C821B826C
:1011F0001A82DF91CF910895FC018081918100973F
:1012000011F00C94C91808950F931F93CF93DF9397
:10121000EC0188819981009759F02A813B8126173A
:10122000370730F081E0DF91CF911F910F91089542
:101230008B016F5F7F4F0E945219009759F099837D
:1012400088831B830A832C813D81232B59F7FC0162
:101250001082E8CF80E0E7CFEF92FF920F931F93C9
:10126000CF93DF936115710541F480E0DF91CF9159
:101270001F910F91FF90EF90089541155105B1F026
:101280007B01EC010C811D81040F151FB8010E9428
:101290000409882351F3288139818C819D81B7010C
:1012A000820F931F0E94211A1D830C8381E0DECFE1
:1012B000EF92FF920F931F93CF93DF93CDB7DEB7DB
:1012C00064970FB6F894DEBF0FBECDBF7C01CB0193
:1012D000BA018E010F5F1F4F22E044E00E94CA1244
:1012E000FC0101900020E9F73197AF01481B590B31
:1012F000BC01C7010E942C09811103C0C7010E94D3
:10130000EA08C70164960FB6F894DEBF0FBECDBFE2
:10131000DF91CF911F910F91FF90EF900895CF93A0
:10132000DF93EC01FB0101900020E9F73197AF0159
:10133000461B570B0E942C09811103C0CE010E944D
:10134000EA08CE01DF91CF910895EF92FF920F93BB
:101350001F93CF93DF93EC017B018A01BA010E94B6
:10136000040981110BC0CE010E94EA08CE01DF9171
:10137000CF911F910F91FF90EF9008951D830C83E3
:10138000B701888199810E94211AF0CFFB01019059
:101390000020E9F73197AF01461B570B0C94A509C4
:1013A000FB0101900020E9F73197AF01461B570B75
:1013B0000C94A5090F931F93CF93DF9300D000D017
:1013C00000D0CDB7DEB7182F062F1A8219821C82E3
:1013D0001B821E821D8261E371E0CE0101960E9494
:1013E000D00962E371E0112311F066E371E0CE01F0
:1013F00001960E94C609812F01112BC00E94430251
:10140000892BD9F060E0812F0E946C02CE010196F9
:101410000E94F40481EC91E00E949408CE010196B0
:101420000E94FC0826960FB6F894DEBF0FBECDBF13
:10143000DF91CF911F910F910895812F0E94430258
:10144000892B61F7CE0101960E94F4048CEB91E0A8
:10145000E3CF0E944302019769F061E0812F0E946F
:101460006C02CE0101960E94F4048AE391E00E948E
:101470007D08D4CF812F0E944302019779F6CE01D7
:1014800001960E94F4048FE391E0F1CFCF92DF92B6
:10149000EF92FF922AE038E240EA5BE30E9498155F
:1014A0006B017C01AC019B0160E070E080EA90E49C
:1014B0000E94931620E030E44CE156E40E940017AD
:1014C0009B01AC01C701B6010E94001720E030E487
:1014D0004CE156E40E9400170E94B01720E030E96A
:1014E00048E755E40E9400172FE03FEC4BE55BE333
:1014F0000E9494169B01AC0160E070E080E89FE3DD
:101500000E94001723E333E948E853E40E9493164E
:10151000FF90EF90DF90CF9008951F920F920FB63B
:101520000F9211242F933F934F935F936F937F9369
:101530008F939F93AF93BF93EF93FF938091B900E5
:10154000887F803609F44AC0F0F5883209F4A7C0D4
:1015500018F5803109F49BC0B8F4882309F4F9C068
:10156000883009F494C0FF91EF91BF91AF919F91A2
:101570008F917F916F915F914F913F912F910F903C
:101580000FBE0F901F901895883109F488C08032E3
:1015900051F780930C0214C0803409F49DC040F4CC
:1015A0008033B9F38833F9F680930C0285ECB0C030
:1015B000803509F485C0883509F496C0883499F6D9
:1015C0000E94B208D0CF883909F48CC038F588372A
:1015D00029F050F4883611F0803729F683E08093A3
:1015E0000D0210920B0257C0883809F47BC0803975
:1015F00019F0803809F0B7CF80910B02803208F0E3
:1016000071C0E0910B0281E08E0F80930B028091FC
:10161000BB00F0E0E551FE4F80833DC0803B39F0D8
:10162000E0F4803A09F479C0883A09F09CCF84E06C
:1016300080930D021092E8011092E701E091E5011C
:10164000F091E60109958091E70181110FC081E0D9
:101650008093E7011092C50109C0803C09F4A6CF30
:10166000883C09F4A3CF883B09F07DCFE091E801E5
:1016700081E08E0F8093E801F0E0EB53FE4F808114
:101680008093BB009091E8018091E70129C080918F
:1016900032028093BB0085EC8093BC0064CF9091B4
:1016A000310280913002981758F5E091310281E0C3
:1016B0008E0F80933102F0E0E05FFD4F8081E9CF33
:1016C000E091310281E08E0F809331028091BB0066
:1016D000F0E0E05FFD4F8083909131028091300215
:1016E0009817C8F285E8D8CFE091310281E08E0FDB
:1016F000809331028091BB00F0E0E05FFD4F80837A
:1017000080910F0281115CCF81E080930E0284EA08
:101710008093BC0010920D0226CF85EC8093BC0014
:1017200010920D0280910B02803230F4E0910B0296
:10173000F0E0E551FE4F108260910B0270E0E09105
:10174000E901F091EA018BEE91E0099510920B020C
:101750000ACF10920C0234CF1F920F920FB60F9245
:1017600011242F933F938F939F93AF93BF938091B7
:10177000720190917301A0917401B0917501309143
:10178000710123E0230F2D3758F50196A11DB11DDE
:10179000209371018093720190937301A09374015F
:1017A000B09375018091760190917701A0917801B5
:1017B000B09179010196A11DB11D8093760190939E
:1017C0007701A0937801B0937901BF91AF919F9178
:1017D0008F913F912F910F900FBE0F901F901895F2
:1017E00026E8230F0296A11DB11DD2CF1F920F92A2
:1017F0000FB60F9211242F933F934F935F936F93E4
:101800007F938F939F93AF93BF93EF93FF93E09159
:101810000201F09103010995FF91EF91BF91AF9102
:101820009F918F917F916F915F914F913F912F91F8
:101830000F900FBE0F901F9018951F920F920FB62A
:101840000F9211242F933F934F935F936F937F9346
:101850008F939F93AF93BF93EF93FF93E09100011A
:10186000F09101010995FF91EF91BF91AF919F9187
:101870008F917F916F915F914F913F912F910F9039
:101880000FBE0F901F9018951F920F920FB60F92D8
:1018900011242F933F934F935F936F937F938F9375
:1018A0009F93AF93BF93EF93FF93809138029091F2
:1018B0003902A0913A02B0913B02892B8A2B8B2BE3
:1018C000D1F190913302E0913402F09135028081A0
:1018D000892780838091380290913902A0913A0241
:1018E000B0913B02181619061A061B069CF480914B
:1018F000380290913902A0913A02B0913B020197CF
:10190000A109B1098093380290933902A0933A0259
:10191000B0933B02FF91EF91BF91AF919F918F9157
:101920007F916F915F914F913F912F910F900FBEDB
:101930000F901F901895809104010E948D03EACFAB
:101940001F920F920FB60F9211242F933F934F9334
:101950005F936F937F938F939F93AF93BF93EF9317
:10196000FF9384E492E00E948305FF91EF91BF9181
:10197000AF919F918F917F916F915F914F913F9127
:101980002F910F900FBE0F901F9018951F920F92DE
:101990000FB60F9211242F938F939F93EF93FF9382
:1019A000E0915402F09155028081E0915A02F09149
:1019B0005B0282FD1BC0908180915D028F5F8F73FF
:1019C00020915E02821741F0E0915D02F0E0EC5B55
:1019D000FD4F958F80935D02FF91EF919F918F91C5
:1019E0002F910F900FBE0F901F9018958081F4CF0C
:1019F000CF93DF93A1EEB2E013961C921E92129742
:101A000048EE53E060E070E014964D935D936D9363
:101A10007C9317978FE091E011969C938E93E4E46A
:101A2000F2E013821282448355836683778381E2D6
:101A300091E09183808385EC90E09587848784ECA6
:101A400090E09787868780EC90E0918B808B81EC8B
:101A500090E0938B828B82EC90E0958B848B86EC6C
:101A600090E0978B868B118E128E138E148EE1E48C
:101A7000F3E0C2E1D0E0D287C18763E170E0748710
:101A80006387178642E0408B128A118A138A148A70
:101A9000158A168A178A108E118E128E138E148E46
:101AA000158E168E178E10A211A213A212A22AE072
:101AB00030E035A324A39BE496A381EE87A310A670
:101AC000B687A58750E25087E8E1F3E0D287C18767
:101AD000748763871786408B128A118A138A148A47
:101AE000158A168A178A108E118E128E138E148EF6
:101AF000158E168E178E10A211A213A212A235A354
:101B000024A396A387A310A6B687A58781E2808722
:101B100060E087E00E94D902E0E7F2E0E491AAE009
:101B2000B3E0EC93ECE5F2E0E491F0E0EE0FFF1FA0
:101B3000E55BFD4F8591949112969C938E9311973E
:101B40001B961C921B971D961C921D971C961C920F
:101B50001C971A961C921A9719961C921997189608
:101B60001C92189717961C92179716961C92169708
:101B700015961C92159714961C92149713961C9206
:101B80001397E3EFF2E0168A158A1182B287A187D4
:101B900017821086108289E0838381E084838583A5
:101BA0008683EDEEF2E0118210821382128215829A
:101BB000148261E371E0CF01DF91CF910C94D009E1
:101BC000CF93DF93CDB7DEB765970FB6F894DEBF3E
:101BD0000FBECDBF789484B5826084BD84B581602A
:101BE00084BD85B5826085BD85B5816085BD8091E8
:101BF0006E00816080936E00109281008091810060
:101C00008260809381008091810081608093810057
:101C1000809180008160809380008091B100846019
:101C20008093B1008091B00081608093B00080917A
:101C30007A00846080937A0080917A008260809339
:101C40007A0080917A00816080937A0080917A0096
:101C5000806880937A001092C10061E08CE00E945D
:101C60006C0264E670E080E090E00E944C0361E06A
:101C700089E00E94D90264E670E080E090E00E9472
:101C80004C0361E089E00E94D90260E089E00E9493
:101C90006C0264E670E080E090E00E944C03E0910A
:101CA0005402F091550282E08083E0915002F0915D
:101CB00051021082E0915202F09153028FEC808326
:101CC00010925C02E0915802F091590286E0808304
:101CD000E0915602F0915702808180618083E0910B
:101CE0005602F0915702808188608083E09156020D
:101CF000F0915702808180688083E0915602F091D4
:101D0000570280818F7D808384E491E00E947D086A
:101D100064E670E080E090E00E944C0389E092E08D
:101D20000E94940864EC79E080E090E00E944C030B
:101D300060E08EE00E94D90260E08FE00E94D9024C
:101D400060E080E10E94D90260E081E10E94D90256
:101D500061E08CE00E94D90261E08DE00E94D9022E
:101D600089E491E00E947D0860E081E493E00E94B4
:101D7000000761E081E493E00E94000762E081E4F3
:101D800093E00E94000763E081E493E00E94000773
:101D900064E081E493E00E94000765E081E493E061
:101DA0000E94000766E081E493E00E94000767E07C
:101DB00081E493E00E94000780EF91E00E94940884
:101DC00081E493E00E941D07882309F4B0C08BEEE4
:101DD00091E00E9494080E94B90368EE73E080E0ED
:101DE00090E00E944C0360E088E193E00E940007CD
:101DF00061E088E193E00E94000762E088E193E0FF
:101E00000E94000763E088E193E00E94000764E01D
:101E100088E193E00E94000765E088E193E00E947A
:101E2000000766E088E193E00E94000767E088E130
:101E300093E00E9400078FEF91E00E94940888E1F0
:101E400093E00E941D07882309F476C08AEF91E091
:101E50000E9494080E94B90368EE73E080E090E06D
:101E60000E944C03E091FC02F091FD02138615865E
:101E700014861286118610861782168215821482A5
:101E800013821092FA021092FB0277247394662454
:101E900063946E018AE0C80ED11C0091FC0210917F
:101EA000FD02D8011D968C91882309F44AC0F801DF
:101EB0001386158614868EE491E00E947D0884E0E6
:101EC00092E00E9494086EEE72E080E090E00E9442
:101ED0004C0325E3222E22E0322E00E010E084E4C1
:101EE00092E00E946305181619060CF0FFC11A82D1
:101EF00019821C821B821E821D8261E371E0CE0169
:101F000001960E94D0090E94230597FD40C18A30A6
:101F1000910509F43CC18A871B8641E050E0BE016F
:101F2000665F7F4FCE0101960E942C09ECCF86EEB2
:101F300091E00E94940851CF85EF91E00E949408AF
:101F40008BCFC8010E94C80681110AC0D8011B9618
:101F50001C921B971D961C921D971C961C92ABCF32
:101F600060EFC8010E947C06EE24E394A12C912C22
:101F7000FF24F394C8010E942906B82EC8010E94CC
:101F80002906B1E0BB1272C0813009F091C0E0E4D3
:101F9000EF1508F08CCFD8011B969C921B979110DF
:101FA00002C01D967C92F8018381882309F47FCFBB
:101FB000D8011396FE013A96055F1F4F7F018D9160
:101FC0008193A017B107D9F767E0C7010E941206F5
:101FD0009989891362CF8091FA028F5F8093FA0208
:101FE0008A85883239F008F07AC0803119F082325F
:101FF00009F053CF8091FB028F5F8093FB028091A9
:10200000F302811125C08091FC029091FD020E9493
:10201000C806B7018091FC029091FD020E94AB06B8
:1020200064EB8091FC029091FD020E947C068091FD
:10203000FC029091FD020E942906182F8091FC025B
:102040009091FD020E94C806111102C06092F30235
:102050008A85803109F48EC08091FC029091FD0246
:102060000E94C806811142C080E087C0EA2DF0E0DE
:10207000B81214C0D8011B968C911B97F816B0F4B7
:10208000AE0FBF1F13968C918E2191F4B12CB8E046
:10209000BF1518F0D8011C96FC929F2CE00FF11F81
:1020A00083819E2D9095892383830AC08F11EECF63
:1020B000F801EA0DF11D83818E298383BB24B3943B
:1020C0006B2DC8010E944D06F394EE0C19F4A394F5
:1020D000EE24E394B7E0BA1508F04CCF58CF8B3319
:1020E00009F488CF823409F0D8CE84CFB70180912B
:1020F000FC029091FD020E94AB066EEB8091FC0207
:102100009091FD020E947C068E010F5F1F4F7801A7
:1021100018018090FC029090FD0238E0A32EB12CB3
:10212000512C44244394C4010E942906811154284F
:10213000440CF1E0AF1AB108B1F7D7015D927D010F
:10214000CA16DB0631F78091FC029091FD020E94D5
:10215000C806813009F088CFF80181918F01811183
:10216000FEC1EE15FF05C1F77FCF8F3571F08F37B8
:1021700009F07ACF8CE001C08AE09091F6029817BE
:1021800008F08BCE8093F60288CE8BE0F6CF80915C
:10219000ED029091EE02009709F46DC169817A8198
:1021A0006115710509F465C14091EF025091F0028B
:1021B0002D813E814217530708F45BC10E94211A0A
:1021C0008D819E819093F2028093F1021E821D8286
:1021D000CE0101960E94FC088091F1029091F202DA
:1021E000892BC1F0E090ED02F090EE0263E571E022
:1021F000C7010E94181A61E0892B49F065E571E07A
:10220000C7010E94181A892B09F04CC160E08DE0CB
:102210000E946C02C090F102D090F202C114D1046D
:1022200031F0E091ED02F091EE02309721F410923E
:102230006301E3E6F1E08081833709F057C0AA2407
:10224000A394B12CC114D10421F05601CC24C39421
:10225000D12C1A8219821C821B821E821D8261E38C
:1022600071E0CE0101960E94D009E090F102F09059
:10227000F202CE14DF0410F5AE14BF0408F47501A9
:10228000E091ED02F091EE02EE0DFF1DB0801082A4
:102290006091ED027091EE026C0D7D1DCE010196F4
:1022A0006115710509F409C10E94C6098091ED020A
:1022B0009091EE02E80EF91ED701BC9289819A81B5
:1022C000F12C009719F00E94E812F62EF09270019E
:1022D000CE0101960E94FC0861E089E00E94D902CB
:1022E000F110EEC060E089E00E946C028FE00E9475
:1022F0001503BC01990F880B990B0E945D150E9474
:10230000460A2B013C0140926C0150926D01609293
:102310006E0170926F018EE00E941503BC01990F4F
:10232000880B990B0E945D150E94460A4B015C01C7
:102330008092680190926901A0926A01B0926B014B
:1023400080E10E941503BC01990F880B990B0E9434
:102350005D150E94460A6B017C01C0926401D09217
:102360006501E0926601F092670181E10E94150328
:10237000BC01990F880B990B0E945D150E94460ABB
:102380006A8B7B8B8C8B9D8B1B861A861D861C868D
:102390001F861E8669E571E0CE010A960E94D0096B
:1023A0001A8219821C821B821E821D826A857B858D
:1023B0006115710531F04E855F85CE0101960E9451
:1023C000A509B301A201CE0101960E94580963E557
:1023D00071E00E948F09B501A4010E9458096BE5C4
:1023E00071E00E948F09B701A6010E9458096DE5AE
:1023F00071E00E948F094A895B896C897D890E94FE
:1024000058096FE571E00E948F090E94F4040E9450
:102410007508CE0101960E94FC08CE010A960E9422
:10242000FC0860916C0170916D0180916E0190913A
:102430006F010E9472176E3071050CF08AC061E066
:1024400080E00E94DA0961E081E00E94DA0968EE2A
:1024500073E080E090E00E944C030115110509F43F
:102460003ECD0E946F05882309F439CD0E940000FB
:1024700036CD0E94C91889819A819093EE0280938B
:10248000ED028B819C819093F0028093EF028D810D
:102490009E819093F2028093F1021A8219821C822B
:1024A0001B8294CE67E571E0C7010E94181A892B40
:1024B00009F0B0CE60E08CE0ABCE0E94EA08F6CE28
:1024C000BFEFFB1202C061E00ECFF10184918330B7
:1024D00021F138F48130B9F08230D1F0F7FCF3CF3C
:1024E00001CF873031F1883061F18430B9F78091C4
:1024F00080008062809380008F2D90E090938B000D
:1025000080938A00F3CE84B5806884BDF7BCEECE9C
:1025100084B5806284BDF8BCE9CE8091800080687B
:10252000809380008F2D90E09093890080938800A5
:10253000DDCE8091B00080688093B000F092B3004F
:10254000D5CE8091B00080628093B000F092B4004C
:10255000CDCE673171050CF47ACF60E071CF68E0C1
:10256000C1010E941206998589137ECD8D819A85BD
:102570009B3311F487FDFECD8F3309F4FDCD08F0B8
:10258000F4CD8F3109F070CD89E0F7CD8DEE92E07A
:102590000C94FC08EF920F931F93CF93DF93E80105
:1025A00034E047FD34E1042E000C550B57FF03C007
:1025B000519541955109E32E022F242FAE010E941F
:1025C0002413CE01DF91CF911F910F91EF900895C9
:1025D0001F93FC0199278827BC01E89411911032C0
:1025E000E9F3193010F01E30C8F31B3251F01D32E0
:1025F00049F4689406C00E940F13610F711D811D7C
:10260000911D119110531A30B0F33EF490958095BE
:10261000709561957F4F8F4F9F4F1F910895592F50
:10262000482F372F262F660F771F881F991F660F99
:10263000771F881F991F620F731F841F951F660FD6
:10264000771F881F991F0895A9E0B0E0EAE2F3E13F
:102650000C945C166A01F22EB02E102FFBE3AF2E05
:10266000A01608F41BE31F5F012F27E0AE014F5FA8
:102670005F4F0E948314BC018981982F997091301B
:1026800009F43FC09BE2E1FC04C09E2D9170E0FC88
:102690003AC05E2D5071E82FE87083FF46C084E099
:1026A000911101C083E0EF2DE81B8F1508F0E0E0E9
:1026B000D6018E2F20E2552351F1992329F0D6011E
:1026C0009C93C60101966C0196012D5F3F4FE2FE7F
:1026D00024C08EE4D6018C9391E411969C931197BB
:1026E00012968C93D9018E2F90E281111BC0E20FBC
:1026F000F32FF11D10828EEF9FEF2996ECE00C94E2
:1027000078169DE2C6CF90E2C4CF2D9381508111FF
:10271000FCCFCE0ED11CE0E0D0CF8EE6D6018C935C
:1027200091E6DBCF9D938150E0CF482F447082FF2C
:102730003DC084E0911101C083E08F1510F4EF2DAE
:10274000E81BD6018E2F20E2552309F1992329F0A9
:10275000D6019C93C60101966C0196012D5F3F4FF7
:10276000E2FE1BC089E4D6018C938EE411968C9313
:10277000119786E412968C93D9018E2F90E28823CC
:1027800009F4B5CF9D938150FACF2D9381508111DB
:10279000FCCFCE0ED11CE0E0D9CF89E6D6018C93D8
:1027A0008EE611968C93119786E6E4CF9B0177FF16
:1027B00002C030E020E0A1E0B0E0911102C0B0E042
:1027C000A0E0F9013196AE0FBF1F8B2C912CBB20DE
:1027D00009F461C05401EFEFAE1ABE0AAA0DBB1D89
:1027E000FA161B0619F014F04F2D4A1B511188C020
:1027F000E3FC59C07601A42FB0E2A1114FC0C40E72
:10280000D11C992309F45BC040E0D6011196F60172
:1028100090836D01552309F448C0012F060F9A815A
:10282000582F507184FF03C0913309F401501016E2
:102830000CF047C0093008F008E0EEE2FE2E5B0124
:10284000A01AB10885019194819491082F3F320715
:1028500029F4D601FC92F60131966F0162177307D5
:1028600094F1021713077CF5DB01A21BB30BAA241A
:10287000A394B12CAC0EBD1EAA0DBB1D11968C915C
:1028800021503109D601119628153905F4F0F601C9
:1028900080836D01DBCFB12CA12CA0CFF701B193C8
:1028A0007F01A150AACF9111B0CFD601942F50E350
:1028B00002C05D9391509111FCCFC40ED11C40E039
:1028C000ACCF01E0BACF80E3DBCF6217730731F4FE
:1028D000963388F4953311F4552369F0F60180831B
:1028E000FD01842F90E2811108C0A40FB11D1C923C
:1028F00090E080E002CF81E3F1CF91938150F3CF5C
:10290000911183CF8ACF283008F027E03327DA01EE
:10291000990F311D87FD916000966105710539F4AD
:1029200032602E5F3D9330E32A95E1F708959F3F93
:1029300030F080387105610509F03C5F3C5F3D93E4
:10294000913008F08068911DDF93CF931F930F9310
:10295000FF92EF92192F987F9695E92F969596956D
:10296000E90FFF27E45EFE4F99273327EE24FF246B
:10297000A701E70105900894079428F4360FE71E95
:10298000F81E491F511D660F771F881F991F069457
:10299000A1F70590079428F4E70EF81E491F561F6B
:1029A000C11D770F881F991F661F0694A1F7059018
:1029B000079428F4F80E491F561FC71FD11D880F12
:1029C000991F661F771F0694A1F70590079420F4BE
:1029D000490F561FC71FD81F990F661F771F881FE3
:1029E0000694A9F784911095177041F0D695C79574
:1029F00057954795F794E7941A95C1F7E2ECF0E004
:102A000068941590159135916591959105907FE2A7
:102A10007395E118F10A430B560BC90BD009C0F7A7
:102A2000E10CF11E431F561FC91FD01D7EF47033E9
:102A300011F48A95E6CFE894015030F0080F0AF4BB
:102A40000027021708F4202F2395022F7A3328F04D
:102A500079E37D932A95E9F710C07D932A9589F64D
:102A6000069497956795379517951794E118F10A8D
:102A7000430B560BC90BD00998F023957E917395A3
:102A80007A3308F070E37C932013B8F77E9170617D
:102A90007D9330F0839571E37D9370E32A95E1F7A0
:102AA0001124EF90FF900F911F91CF91DF91992703
:102AB00087FD90950895E89409C097FB3EF49095A2
:102AC0008095709561957F4F8F4F9F4F9923A9F007
:102AD000F92F96E9BB279395F69587957795679596
:102AE000B795F111F8CFFAF4BB0F11F460FF1BC0DA
:102AF0006F5F7F4F8F4F9F4F16C0882311F096E96D
:102B000011C0772321F09EE8872F762F05C066231A
:102B100071F096E8862F70E060E02AF09A95660FD3
:102B2000771F881FDAF7880F9695879597F908958C
:102B30000E94AB150C941C160E940E1638F00E94D1
:102B4000151620F0952311F00C9405160C940B1615
:102B500011240C9450160E942D1670F3959FC1F30A
:102B6000950F50E0551F629FF001729FBB27F00D3B
:102B7000B11D639FAA27F00DB11DAA1F649F662790
:102B8000B00DA11D661F829F2227B00DA11D621FDF
:102B9000739FB00DA11D621F839FA00D611D221F99
:102BA000749F3327A00D611D231F849F600D211D7D
:102BB000822F762F6A2F11249F5750409AF0F1F000
:102BC00088234AF0EE0FFF1FBB1F661F771F881F69
:102BD00091505040A9F79E3F510580F00C94051686
:102BE0000C9450165F3FE4F3983ED4F386957795A6
:102BF0006795B795F795E7959F5FC1F7FE2B880F0F
:102C0000911D9695879597F9089597F99F6780E8A4
:102C100070E060E008959FEF80EC089500240A942E
:102C20001616170618060906089500240A941216A7
:102C30001306140605060895092E0394000C11F4DA
:102C4000882352F0BB0F40F4BF2B11F460FF04C087
:102C50006F5F7F4F8F4F9F4F089557FD9058440FE0
:102C6000551F59F05F3F71F04795880F97FB991FEB
:102C700061F09F3F79F087950895121613061406A8
:102C8000551FF2CF4695F1DF08C016161706180635
:102C9000991FF1CF86957105610508940895E89410
:102CA000BB2766277727CB0197F908952F923F928C
:102CB0004F925F926F927F928F929F92AF92BF924C
:102CC000CF92DF92EF92FF920F931F93CF93DF93F8
:102CD000CDB7DEB7CA1BDB0B0FB6F894DEBF0FBE55
:102CE000CDBF09942A88398848885F846E847D84A2
:102CF0008C849B84AA84B984C884DF80EE80FD80A4
:102D00000C811B81AA81B981CE0FD11D0FB6F89419
:102D1000DEBF0FBECDBFED010895EE0FFF1F059082
:102D2000F491E02D09945058BB27AA270E94AB16B6
:102D30000C941C160E940E1638F00E94151620F0F6
:102D400039F49F3F19F426F40C940B160EF4E09519
:102D5000E7FB0C940516E92F0E942D1658F3BA17BD
:102D6000620773078407950720F079F4A6F50C94A1
:102D70004F160EF4E0950B2EBA2FA02D0B01B901C2
:102D800090010C01CA01A0011124FF27591B99F0E1
:102D9000593F50F4503E68F11A16F040A22F232FED
:102DA000342F4427585FF3CF469537952795A7953D
:102DB000F0405395C9F77EF41F16BA0B620B730BE4
:102DC000840BBAF09150A1F0FF0FBB1F661F771F55
:102DD000881FC2F70EC0BA0F621F731F841F48F40A
:102DE000879577956795B795F7959E3F08F0B0CF93
:102DF0009395880F08F09927EE0F9795879508957A
:102E00000E9414170C941C160E94151658F00E946C
:102E10000E1640F029F45F3F29F00C94051651116D
:102E20000C9450160C940B160E942D1668F39923DF
:102E3000B1F3552391F3951B550BBB27AA276217B6
:102E40007307840738F09F5F5F4F220F331F441FC3
:102E5000AA1FA9F335D00E2E3AF0E0E832D09150F7
:102E60005040E695001CCAF72BD0FE2F29D0660FE4
:102E7000771F881FBB1F261737074807AB07B0E827
:102E800009F0BB0B802DBF01FF2793585F4F3AF02D
:102E90009E3F510578F00C9405160C9450165F3F38
:102EA000E4F3983ED4F3869577956795B795F795B3
:102EB0009F5FC9F7880F911D9695879597F908959B
:102EC000E1E0660F771F881FBB1F62177307840737
:102ED000BA0720F0621B730B840BBA0BEE1F88F746
:102EE000E09508950E9479176894B1110C945016DA
:102EF00008950E94351688F09F5798F0B92F9927AA
:102F0000B751B0F0E1F0660F771F881F991F1AF0D4
:102F1000BA95C9F714C0B13091F00E944F16B1E0D4
:102F200008950C944F16672F782F8827B85F39F0D3
:102F3000B93FCCF3869577956795B395D9F73EF46D
:102F400090958095709561957F4F8F4F9F4F089515
:102F500016F00C94F8170C940B1668940C94051644
:102F60000E943516A8F39923C1F3AEF3DF93CF93F4
:102F70001F930F93FF92C92FDD2788232AF02197F3
:102F8000660F771F881FDAF720E030E040E85FEB3C
:102F90009FE3883920F0803E38F021968F770E9499
:102FA0009416E8E6F0E004C00E949416E5E9F0E02B
:102FB0000E9406188B01BE01EC01FB2E6F577109B0
:102FC0007595771F880B990B0E945D1528E132E7F4
:102FD00041E35FE30E94AB15AF2D9801AE01FF9076
:102FE0000F911F91CF91DF910E94AB160C941C168C
:102FF0009F3F31F0915020F4879577956795B7956D
:10300000880F911D9695879597F90895DF93CF9333
:103010001F930F93FF92EF92DF927B018C016894D4
:1030200006C0DA2EEF010E94AB15FE01E894A591CF
:103030002591359145915591A6F3EF010E94AB166C
:10304000FE019701A801DA9469F7DF90EF90FF90F5
:103050000F911F91CF91DF9108950F931F93CF93FD
:10306000DF938230910510F482E090E0E0916C03F0
:10307000F0916D0330E020E0B0E0A0E0309799F4EB
:103080002115310509F44AC0281B390B24303105BC
:10309000D8F58A819B816115710589F1FB019383C4
:1030A0008283FE0111C04081518102811381481742
:1030B0005907E0F04817590799F4109761F01296F4
:1030C0000C93129713961C933296CF01DF91CF91F8
:1030D0001F910F91089500936C0310936D03F4CF2B
:1030E0002115310551F04217530738F0A901DB01D2
:1030F0009A01BD01DF01F801C1CFEF01F9CF909333
:103100006D0380936C03CDCFFE01E20FF31F81931B
:1031100091932250310939832883D7CF20916A03B4
:1031200030916B03232B41F420910701309108016A
:1031300030936B0320936A032091050130910601BF
:103140002115310541F42DB73EB740910901509149
:103150000A01241B350BE0916A03F0916B03E2171F
:10316000F307A0F42E1B3F0B2817390778F0AC01AA
:103170004E5F5F4F2417350748F04E0F5F1F509387
:103180006B0340936A03819391939FCFF0E0E0E05B
:103190009CCFCF93DF930097E9F0FC013297138225
:1031A0001282A0916C03B0916D03ED0130E020E03C
:1031B0001097A1F420813181820F931F20916A031F
:1031C00030916B032817390709F061C0F0936B0346
:1031D000E0936A03DF91CF910895EA01CE17DF07EC
:1031E000E8F54A815B819E0141155105B1F7E9017E
:1031F000FB83EA8349915991C40FD51FEC17FD0752
:1032000061F4808191810296840F951FE901998371
:103210008883828193819B838A83F0E0E0E0129629
:103220008D919C9113970097B9F52D913C91119731
:10323000CD010296820F931F20916A0330916B0398
:103240002817390739F6309751F510926D0310920F
:103250006C03B0936B03A0936A03BCCFD383C28388
:1032600040815181840F951FC817D90761F44E5FC3
:103270005F4F88819981480F591F518340838A810C
:103280009B81938382832115310509F0B0CFF093A0
:103290006D03E0936C039ECFFD01DC01C0CF138270
:1032A0001282D7CFB0E0A0E0E8E5F9E10C9458161F
:1032B0008C01009751F4CB010E942D188C01C8019C
:1032C000CDB7DEB7E0E10C947416FC01E60FF71FF2
:1032D0009C0122503109E217F30708F49DC0D9017F
:1032E000CD91DC911197C617D70798F0C530D1055D
:1032F00030F3CE0104978617970708F3C61BD70B48
:103300002297C193D1936D937C93CF010E94C918EA
:10331000D6CF5B01AC1ABD0A4C018C0E9D1EA0914C
:103320006C03B0916D03512C412CF12CE12C1097C2
:1033300031F580916A0390916B038815990509F026
:103340005CC04616570608F058C080910501909160
:103350000601009741F48DB79EB740910901509145
:103360000A01841B950BE817F90708F055C0F09384
:103370006B03E0936A03F90171836083A0CF8D91A1
:103380009C91119712966C90129713967C901397BC
:10339000A815B90559F56C0142E0C40ED11CCA1438
:1033A000DB0420F1AC014A195B09DA01129615978A
:1033B00080F06282738251834083D9016D937C9344
:1033C000E114F10471F0D7011396FC93EE93129778
:1033D00076CF22968C0F9D1FF90191838083F30194
:1033E000EFCFF0936D03E0936C0369CF4816590655
:1033F00008F42C017D01D3019ACFCB010E942D1836
:103400007C01009749F0AE01B8010E940F1AC80173
:103410000E94C918870153CF10E000E050CFFB0194
:10342000DC0102C001900D9241505040D8F7089540
:10343000FB01DC018D91019080190110D9F3990BEA
:103440000895FB01DC0101900D920020E1F7089541
:1034500011E0C0E4D1E004C0FE010E948D16219667
:0A346000C134D107C9F7F894FFCF7B
:10346A008C038C03FF00006E03800000000000EB59
:10347A0001BE01FD049401B701A4019501000000F9
:10348A0000A505C7040005F20563050F0555050DDE
:10349A000A0052313100523132003A586623003A5A
:1034AA00596623004D313034004D313031005331EB
:1034BA00303200410061007200540042004300446F
:0234CA00000000
:00000001FF
