:100000000C943F010C9467010C9467010C946701F8
:100010000C9467010C9467010C9467010C946701C0
:100020000C9467010C9467010C9467010C946701B0
:100030000C9467010C9467010C9467010C946701A0
:100040000C944C0B0C9467010C94BC0B0C94960B09
:100050000C9467010C9467010C9467010C94670180
:100060000C94EE0B0C94670108000000BE9224492A
:10007000123EABAAAA2ABECDCCCC4C3E00000080DA
:10008000BEABAAAAAA3E00000000BF000000803F4D
:100090000000000000084178D3BB4387D1133D190D
:1000A0000E3CC3BD4282AD2B3E68EC8276BED98F3A
:1000B000E1A93E4C80EFFFBE01C4FF7F3F0000007E
:1000C000000000407A10F35A00A0724E1809001088
:1000D000A5D4E80000E87648170000E40B540200BD
:1000E00000CA9A3B000000E1F505000080969800E8
:1000F000000040420F000000A08601000000102711
:1001000000000000E80300000000640000000000A0
:100110000A00000000000100000000002C76D888D2
:10012000DC674F0823DFC1DFAE59E1B1B796E5E3E5
:10013000E453C63AE651997696E8E6C28426EB89FE
:100140008C9B62ED407C6FFCEFBC9C9F40F2BAA59B
:100150006FA5F490055A2AF75C936B6CF9676DC133
:100160001BFCE0E40D47FEF520E6B500D0ED902E37
:100170000300943577050080841E080000204E0A95
:10018000000000C80C333333330F986E12831141D3
:10019000EF8D2114893BE65516CFFEE6DB18D1849E
:1001A0004B381BF77C1D901DA4BBE42420328472C5
:1001B0005E228100C9F124ECA1E53D273A426E237D
:1001C000003A416E23003A426E23003A416E23000A
:1001D0003A426E23003A416E2300503231310050D2
:1001E000323130005032303700503230350050322A
:1001F0003039005032303800503230340050323014
:1002000032004D31303100496E697469616C697A30
:10021000696E672043505520436F72652E2E2E0065
:1002200000000000240027002A0000000000250034
:1002300028002B0000000008000201000003040752
:100240000000000000000000000000002300260065
:100250002900040404040404040402020202020249
:10026000030303030303010204081020408001027A
:10027000040810200102040810200D0D461111245D
:100280001FBECFEFD8E0DEBFCDBF23E0A0E9B1E0D5
:1002900001C01D92AE34B207E1F711E0A0E0B1E079
:1002A000EEEFF0E302C005900D92A039B107D9F747
:1002B00011E0CEE3D1E004C02197FE010E940D15AC
:1002C000CD33D107C9F70E94C20D0C9472180C945B
:1002D000000008950895833081F028F4813099F06A
:1002E0008230A9F008958730A9F08830C9F08430B1
:1002F000B1F4809180008F7D03C0809180008F7762
:1003000080938000089584B58F7784BD089584B567
:100310008F7DFBCF8091B0008F778093B0000895E0
:100320008091B0008F7DF9CFCF93DF93282F30E0FD
:10033000F901EC5CFD4F8491F901EA59FD4FD4912C
:10034000F901EE5AFD4FC491CC23A1F081110E9416
:100350006B01EC2FF0E0EE0FFF1FE85BFD4FA59166
:10036000B491EC91ED2381E090E009F480E0DF911D
:10037000CF91089580E090E0FACF1F93CF93DF9361
:10038000282F30E0F901EC5CFD4F8491F901EA5926
:10039000FD4FD491F901EE5AFD4FC491CC23A9F041
:1003A000162F81110E946B01EC2FF0E0EE0FFF1F62
:1003B000E65DFD4FA591B4918FB7F894EC911111C2
:1003C00008C0D095DE23DC938FBFDF91CF911F91C2
:1003D0000895DE2BF8CFCF93DF9390E0FC01EA592C
:1003E000FD4F24918E5A9D4FFC0184918823D1F0BA
:1003F00090E0880F991FFC01E05EFD4FA591B4913C
:10040000FC01E65DFD4FC591D49161110EC09FB70F
:10041000F8948C91E22FE0958E238C932881E2232F
:10042000E8839FBFDF91CF9108958FB7F894EC9147
:10043000E22BEC938FBFF6CFCF93DF93EC0161E01B
:1004400089E00E94EB01209731F460E089E0DF91C0
:10045000CF910C94BD01CF3FD10511F461E0F6CFEF
:10046000EDE3F2E0E491E33029F140F4E130B1F062
:10047000E230D9F0C038D1058CF7E7CFE73021F171
:10048000E83051F1E430B1F78091800080628093D0
:100490008000D0938B00C0938A0004C084B580682C
:1004A00084BDC7BDDF91CF91089584B5806284BDBE
:1004B000C8BDF8CF80918000806880938000D09381
:1004C0008900C0938800EECF8091B000806880934F
:1004D000B000C093B300E6CF8091B00080628093FB
:1004E000B000C093B400DECF8E50806480937C0057
:1004F00080917A00806480937A0080917A0086FDF2
:10050000FCCF809178009091790008953FB7F894DE
:100510008091000290910102A0910202B091030229
:1005200026B5A89B05C02F3F19F00196A11DB11D4E
:100530003FBFBA2FA92F982F8827BC01CD01620F8A
:10054000711D811D911D42E0660F771F881F991F45
:100550004A95D1F708958F929F92AF92BF92CF9212
:10056000DF92EF92FF924B015C010E9486026B01C9
:100570007C010E9486026C197D098E099F09683EE4
:10058000734081059105A8F321E0821A9108A10822
:10059000B10888EEC80E83E0D81EE11CF11C81145E
:1005A0009104A104B10429F7FF90EF90DF90CF9060
:1005B000BF90AF909F908F9008950895FC01248183
:1005C00035816217730720F480819181009729F4A7
:1005D0001092F40184EF91E00895860F971F08951B
:1005E000AF92BF92CF92DF92EF92FF920F931F9341
:1005F000CF93DF936C017B018B01040F151FEB017F
:100600005E01AE18BF08C017D10759F06991D60135
:10061000ED91FC910190F081E02DC6010995892BA7
:1006200079F7C501DF91CF911F910F91FF90EF9066
:10063000DF90CF90BF90AF900895FC014481558129
:10064000608171818EE592E00C94F002FC01538D83
:10065000448D252F30E0842F90E0821B930B54179C
:1006600010F0CF96089501970895FC01918D828D29
:10067000981761F0A28DAE0FBF2FB11D5D968C91C2
:10068000928D9F5F9F73928F90E008958FEF9FEF01
:1006900008952FB7F8948091040290910502A091DB
:1006A0000602B09107022FBF809366029093670203
:1006B000A0936802B09369028EE592E00E94350330
:1006C00097FF26C02FB7F8948091040290910502FD
:1006D000A0910602B09107022FBF4091660250918F
:1006E00067026091680270916902841B950BA60BEA
:1006F000B70B409162025091630260916402709165
:10070000650284179507A607B707B0F28FEF9FEF32
:100710000895FC01918D828D981731F0828DE80F3C
:10072000F11D858D90E008958FEF9FEF0895FC01F6
:10073000918D228D892F90E0805C9F4F821B9109C3
:100740008F73992708958EE592E00E94970321E028
:10075000892B09F420E0822F089580E090E0892B16
:1007600029F00E94A30381110C9400000895FC015C
:10077000A48DA80FB92FB11DA35ABF4F2C91848D02
:1007800090E001968F739927848FA689B7892C935F
:10079000A089B1898C91837080648C93938D848DB2
:1007A000981306C00288F389E02D80818F7D8083B5
:1007B0000895EF92FF920F931F93CF93DF93EC0175
:1007C00081E0888F9B8D8C8D98131AC0E889F989F8
:1007D000808185FF15C09FB7F894EE89FF896083FB
:1007E000E889F98980818370806480839FBF81E07C
:1007F00090E0DF91CF911F910F91FF90EF900895BE
:10080000F62E0B8D10E00F5F1F4F0F731127E02E98
:100810008C8D8E110CC00FB607FCFACFE889F989D0
:10082000808185FFF5CFCE010E94B703F1CFEB8D1C
:10083000EC0FFD2FF11DE35AFF4FF0829FB7F894A4
:100840000B8FEA89FB8980818062CFCFCF93DF93C2
:10085000EC01888D8823B9F0AA89BB89E889F989D8
:100860008C9185FD03C0808186FD0DC00FB607FC0D
:10087000F7CF8C9185FFF2CF808185FFEDCFCE0140
:100880000E94B703E9CFDF91CF9108952091B10184
:10089000260F3327331F21323105ECF42091340227
:1008A000FC0190E080E0243069F082E00895A0919E
:1008B000B1012191AC014F565E4FA40FB52FB11D70
:1008C0002C930196861798F38091B101680F60937D
:1008D000B10180E0089581E008951092340281E032
:1008E0008093330210920E0261E082E10E94BD010A
:1008F00061E083E10E94BD01E9EBF0E080818E7F41
:10090000808380818D7F808388E48093B80085E434
:100910008093BC000895CF93DF9391E09093900172
:100920008823B9F0C091B800D091BA008091BC0082
:100930008A7B8093BC0060E082E10E94BD0160E0A0
:1009400083E10E94BD010E946D04D093BA00C09360
:10095000B800DF91CF9108958F929F92AF92BF928E
:10096000CF92DF92EF92FF920F931F93CF93DF937B
:10097000D0915D02D13208F0D7C0182FC0915C022F
:100980000E9486026B017C018091340281116BC050
:1009900082E080933402109333028FEF809332020F
:1009A00010923102D0933002ACE3B2E0E0E1F2E029
:1009B00080E0D81391C010920F0280910F02CC0FEB
:1009C000C82BC0930F0280910E02813009F088C0BD
:1009D00010920E020E9486026B017C0180910F0230
:1009E0008093BB008091360290913702A09138022B
:1009F000B0913902892B8A2B8B2BA1F00E948602A1
:100A0000009136021091370220913802309139025C
:100A10006C197D098E099F090617170728073907E2
:100A200008F442C08091BC0083FDD8CF85EC809350
:100A3000BC000E9486026B017C01809134028230EE
:100A400009F450C0809132028F3F09F46FC0809149
:100A50003202803209F46CC080913202803309F492
:100A600069C084E026C08091360290913702A0913F
:100A70003802B0913902892B8A2B8B2B09F484CF51
:100A80000E9486028090360290903702A090380231
:100A9000B09039026C197D098E099F098616970658
:100AA000A806B90608F070CF809135020E948B0429
:100AB00085E010923B0210925D0210923A02DF91A3
:100AC000CF911F910F91FF90EF90DF90CF90BF904B
:100AD000AF909F908F9008959D9191938F5F69CF74
:100AE00085EEA5CF8091360290913702A091380211
:100AF000B0913902892B8A2B8B2B09F49ECF0E944F
:100B0000860200913602109137022091380230910E
:100B100039026C197D098E099F09061717072807E6
:100B2000390708F08ACFC0CF81E0C3CF80E0C1CFC2
:100B300082E0BFCF83E0BDCFCF93DF93EC016A8328
:100B40008E819F81288131E030933A0220935C02AC
:100B500010923B0210925D02DC01ED91FC9101903C
:100B6000F081E02D099581E00E94AC0490E09D8326
:100B70008C83DF91CF910895FC01683028F081E8E3
:100B800090E0958384830895828121E030E001C064
:100B9000220F6A95EAF7411107C020952823228386
:100BA0006281CF010C949C05282BF9CFFC01808138
:100BB00091E090933A0280935C0210923B02109273
:100BC0005D0281E00E94AC0491E0811190E0892FE8
:100BD00008950F931F93CF938C0110920D021092E2
:100BE0000C0210923B0210925D020E946D0489E695
:100BF00091E090930B0280930A028AE691E0909331
:100C0000090280930802C8010E94D605C82F8823D4
:100C100021F06FEFC8010E949C058C2FCF911F918E
:100C20000F9108950895E0910D0280910C02E8174C
:100C300030F4F0E0EC52FE4F808190E008958FEFA9
:100C40009FEF089590910D0280910C022FEF3FEFDE
:100C5000981748F4E92FF0E0EC52FE4F208130E085
:100C60009F5F90930D02C901089580910C029091AD
:100C70000D02891B990B0895CF92DF92EF92FF929C
:100C80000F931F93CF93DF937C01CB018A012091B7
:100C90003A02222389F0EB016B01C40ED51ECC155C
:100CA000DD0569F06991D701ED91FC910190F0812A
:100CB000E02DC7010995F3CF642F0E944604C801B7
:100CC000DF91CF911F910F91FF90EF90DF90CF9028
:100CD0000895CF93DF931F92CDB7DEB7698320913C
:100CE0003A022223F9F020915D02203258F021E0EF
:100CF00030E0FC013383228390E080E00F90DF91AD
:100D0000CF91089580913B02E82FF0E0E45CFD4F25
:100D1000998190838F5F80933B0280935D0281E095
:100D200090E0ECCF61E0CE0101960E944604F7CF3F
:100D300090E080E008958F929F92AF92BF92CF9201
:100D4000DF92EF92FF920F931F93CF93DF93EC010B
:100D500018810E9486026B017C018091340281110E
:100D600064C081E080933402809333029FEF9093BC
:100D70003202109231021092300280930F02809161
:100D80000F02110F182B10930F0280910E02813069
:100D900009F089C010920E020E9486026B017C014C
:100DA00080910F028093BB008091360290913702B0
:100DB000A0913802B0913902892B8A2B8B2BA1F09C
:100DC0000E9486020091360210913702209138026B
:100DD000309139026C197D098E099F090617170792
:100DE0002807390708F442C08091BC0083FDD8CFA2
:100DF00085EC8093BC000E9486026B017C0180918F
:100E00003402813009F451C08091310281116FC0E8
:100E100080913102A0E1B2E0E4EDF1E090E09817BA
:100E200051F12D9121939F5FFACF809136029091DD
:100E30003702A0913802B0913902892B8A2B8B2B73
:100E400009F48BCF0E948602809036029090370280
:100E5000A0903802B09039026C197D098E099F0963
:100E600086169706A806B90608F077CF8091350256
:100E70000E948B0480E010920D0280930C0281305E
:100E8000C1F182E890E09D838C838981DF91CF91CD
:100E90001F910F91FF90EF90DF90CF90BF90AF9098
:100EA0009F908F90089585EEA4CF80913602909107
:100EB0003702A0913802B0913902892B8A2B8B2BF3
:100EC00009F49DCF0E9486020091360210913702EC
:100ED00020913802309139026C197D098E099F09E1
:100EE000061717072807390708F089CFBFCF81E019
:100EF00091CF8E819F81DC01ED91FC910284F3857D
:100F0000E02D09958983C2CF1F93CF93DF9368307B
:100F100038F021E830E0FC013583248380E013C001
:100F2000162FEC010E949B06298130E081E090E0C1
:100F300002C0880F991F1A95E2F72823392381E010
:100F4000121613065CF7DF91CF911F91089542E0CE
:100F500050E06AE271E08EE592E00C94F0020F93AB
:100F60001F93CF93DF938C01D0E0C0E0F801EC0F2A
:100F7000FD1F6491662341F08EE592E00E94D90343
:100F8000892B11F02196F2CF0E94A7078C0F9D1F8D
:100F9000DF91CF911F910F910895CF93DF93FC01C3
:100FA00001900020E9F73197AF01481B590BBC01B4
:100FB0008EE592E00E94F002EC010E94A7078C0FE0
:100FC0009D1FDF91CF910895CF93DF93EC0188812E
:100FD0009981009711F00E941317198218821D82BF
:100FE0001C821B821A82DF91CF910895FC018081BF
:100FF0009181009711F00C9413170895FC018081E2
:101000009181009711F00C94681160E070E0CB01C1
:1010100008950F931F93CF93DF93EC0188819981FB
:10102000009759F02A813B812617370730F081E07D
:10103000DF91CF911F910F9108958B016F5F7F4FCB
:101040000E949C17009759F0998388831B830A8319
:101050002C813D81232B59F7FC011082E8CF80E0E1
:10106000E7CFEF92FF920F931F93CF93DF9361151A
:10107000710541F480E0DF91CF911F910F91FF90B6
:10108000EF90089541155105B1F07B01EC010C8101
:101090001D81040F151FB8010E940908882351F310
:1010A000288139818C819D81B701820F931F0E9415
:1010B0006B181D830C8381E0DECFEF92FF920F93BC
:1010C0001F93CF93DF93CDB7DEB764970FB6F89435
:1010D000DEBF0FBECDBF7C01CB01BA018E010F5F19
:1010E0001F4F22E044E00E944A11FC0101900020C1
:1010F000E9F73197AF01481B590BBC01C7010E94AA
:101100003108811103C0C7010E94E407C70164963A
:101110000FB6F894DEBF0FBECDBFDF91CF911F9108
:101120000F91FF90EF900895CF93DF93EC01FB01B7
:1011300001900020E9F73197AF01461B570B0E9441
:101140003108811103C0CE010E94E407CE01DF9176
:10115000CF910895EF92FF920F931F93CF93DF9358
:10116000EC017B018A01BA010E94090881110BC0C0
:10117000CE010E94E407CE01DF91CF911F910F9124
:10118000FF90EF9008951D830C83B70188819981AA
:101190000E946B18F0CFFB0101900020E9F7319716
:1011A000AF01461B570B0C94AA08FB0101900020CD
:1011B000E9F73197AF01461B570B0C94AA08AF9281
:1011C000BF92CF92DF92EF92FF920F931F93CF9334
:1011D000DF93EC015B016A0179012417350720F4E4
:1011E0008D2D6901E42EF82E198218821B821A8235
:1011F0001D821C826CE271E0CE010E94D508D501EF
:1012000014960D911C91C016D106E8F4E016F10673
:1012100008F48701D501ED91FC911197E00FF11FC2
:10122000F08010826D917C916C0D7D1DCE01611559
:101230007105A9F00E94CB08F50180819181080F0A
:10124000191FD801FC92CE01DF91CF911F910F9110
:10125000FF90EF90DF90CF90BF90AF9008950E94E5
:10126000E407EACFCF92DF92EF92FF920F931F93A2
:10127000CF93DF93CDB7DEB72C970FB6F894DEBFD0
:101280000FBECDBF182F062F18861F821A8619860B
:101290001C861B866CE271E0CE0107960E94D50881
:1012A0006DE271E0153641F161E371E0163609F443
:1012B00073C065E371E0173609F478C069E371E043
:1012C000183609F47DC06DE371E0193609F482C067
:1012D00061E471E01A3609F487C065E471E01B36F9
:1012E00009F48CC069E471E01C3609F491C0193C22
:1012F00009F04EC06DE471E0CE0107960E94CB0864
:1013000010E023E030E041E050E0BE01695F7F4F34
:10131000CE0101960E94DF08CE0101960E94FE07D1
:101320006B01CE0101960E94F607C60196012B5073
:1013300031092830310508F0ACC0612F8EE293E00E
:10134000011185C00E948407882309F472C040E01F
:10135000612F8EE293E00E94BC05CE0107960E94A9
:101360001D0385ED91E00E94AF07CE0107960E9414
:10137000F6072C960FB6F894DEBF0FBECDBFDF91F7
:10138000CF911F910F91FF90EF90DF90CF90089534
:101390001A3C41F461E571E0CE0107960E94CB084A
:1013A00011E0AFCF1B3C41F465E571E0CE0107963B
:1013B0000E94CB0812E0A5CF1C3C41F469E571E026
:1013C000CE0107960E94CB0813E09BCF1D3C41F451
:1013D0006DE571E0CE0107960E94CB0814E091CF35
:1013E0001E3C41F461E671E0CE0107960E94CB08F5
:1013F00015E087CF1F3C41F465E671E0CE0107960A
:101400000E94CB0816E07DCF103D41F469E671E003
:10141000CE0107960E94CB0817E073CF6DE671E00E
:101420001D3011F060E771E0CE0107960E94CB08F5
:1014300068CF612F8EE293E00E948407811195CFDF
:10144000CE0107960E941D0380ED91E08CCF0E9493
:101450008407813069F041E0612F8EE293E00E94C1
:10146000BC05CE0107960E941D0383E791E00EC0E4
:10147000612F8EE293E00E948407813009F075CFDE
:10148000CE0107960E941D0388E791E00E94CD07D8
:101490006CCF25E1C21AD10828E0C216D10488F524
:1014A000612F86E293E001111FC00E948407882308
:1014B00069F040E0612F86E293E00E94BC05CE0116
:1014C00007960E941D038BEC91E04DCF612F86E2C1
:1014D00093E00E948407811148CFCE0107960E94B5
:1014E0001D0386EC91E03FCF0E948407813029F0F4
:1014F00041E0612F86E293E0B2CF612F86E293E074
:10150000BACF0E9708F031CF812F01111CC00E9475
:101510009401892B59F060E0812F0E94BD01CE011A
:1015200007960E941D0381EC91E01DCF812F0E9440
:101530009401892B09F019CFCE0107960E941D0353
:101540008CEB91E010CF0E949401019729F061E0AB
:10155000812F0E94BD0185CF812F0E9494010197A8
:1015600009F003CF8DCFFB01DC0111961C921E9276
:1015700013961C921E92129715961C921E92149707
:101580008617970749F0608171816115710521F017
:10159000448155810C94AA08089585ED8093BC0080
:1015A0008091360290913702A0913802B0913902B1
:1015B0000796A11DB11D23E0B695A7959795879530
:1015C0002A95D1F72091BC0024FD03C0109234026B
:1015D000089540913602509137026091380270911F
:1015E0003902452B462B472B69F30097A105B1051E
:1015F00041F025E32A95F1F700000197A109B1090F
:10160000E1CF809135020C948B04CF92DF92EF9260
:10161000FF922AE038E240EA5BE30E9418146B0173
:101620007C01AC019B0160E070E080EA90E40E94E4
:10163000131520E030E44CE156E40E9480159B0134
:10164000AC01C701B6010E94801520E030E44CE1F6
:1016500056E40E9480150E94FA1520E030E948E720
:1016600055E40E9480152FE03FEC4BE55BE30E94C0
:1016700014159B01AC0160E070E080E89FE30E94DC
:10168000801523E333E948E853E40E941315FF90E3
:10169000EF90DF90CF9008951F920F920FB60F92A8
:1016A00011242F933F938F939F93AF93BF93809178
:1016B000040290910502A0910602B09107023091B8
:1016C000FF0123E0230F2D3758F50196A11DB11D11
:1016D0002093FF018093040290930502A0930602D9
:1016E000B09307028091000290910102A091020242
:1016F000B09103020196A11DB11D80930002909349
:101700000102A0930202B0930302BF91AF919F9197
:101710008F913F912F910F900FBE0F901F901895B2
:1017200026E8230F0296A11DB11DD2CF1F920F9262
:101730000FB60F9211242F933F934F935F936F93A4
:101740007F938F939F93AF93BF93EF93FF938EE518
:1017500092E00E94B703FF91EF91BF91AF919F91EB
:101760008F917F916F915F914F913F912F910F904A
:101770000FBE0F901F9018951F920F920FB60F92E9
:1017800011242F938F939F93EF93FF93E0916E0219
:10179000F0916F028081E0917402F091750282FDF8
:1017A0001BC09081809177028F5F8F7320917802A8
:1017B000821741F0E0917702F0E0E25AFD4F958FF9
:1017C00080937702FF91EF919F918F912F910F90CE
:1017D0000FBE0F901F9018958081F4CF1F920F922B
:1017E0000FB60F9211242F933F934F935F936F93F4
:1017F0007F938F939F93AF93BF93EF93FF938091CA
:10180000B900887F803609F44AC0F0F5883209F4BF
:10181000A7C018F5803109F49BC0B8F4882309F4F7
:10182000F9C0883009F494C0FF91EF91BF91AF9156
:101830009F918F917F916F915F914F913F912F91E8
:101840000F900FBE0F901F901895883109F488C033
:10185000803251F78093320214C0803409F49DC065
:1018600040F48033B9F38833F9F68093320285EC83
:10187000B0C0803509F485C0883509F496C0883435
:1018800099F60E94CD0AD0CF883909F48CC038F57A
:10189000883729F050F4883611F0803729F683E034
:1018A000809334021092D30157C0883809F47BC06A
:1018B000803919F0803809F0B7CF8091D301803298
:1018C00008F071C0E091D30181E08E0F8093D301C5
:1018D0008091BB00F0E0ED54FE4F80833DC0803B23
:1018E00039F0E0F4803A09F479C0883A09F09CCFE5
:1018F00084E0809334021092B2011092B101E09121
:101900000A02F0910B0209958091B10181110FC07B
:1019100081E08093B1011092910109C0803C09F4EB
:10192000A6CF883C09F4A3CF883B09F07DCFE09196
:10193000B20181E08E0F8093B201F0E0EF56FE4FCE
:1019400080818093BB009091B2018091B10129C048
:1019500080910F028093BB0085EC8093BC0064CF24
:101960009091310280913002981758F5E091310240
:1019700081E08E0F80933102F0E0E05FFD4F8081C7
:10198000E9CFE091310281E08E0F809331028091A6
:10199000BB00F0E0E05FFD4F8083909131028091C9
:1019A00030029817C8F285E8D8CFE091310281E083
:1019B0008E0F809331028091BB00F0E0E05FFD4F1D
:1019C00080838091330281115CCF81E080930E028D
:1019D00084EA8093BC001092340226CF85EC809379
:1019E000BC00109234028091D301803230F4E09137
:1019F000D301F0E0ED54FE4F10826091D30170E00E
:101A0000E0910802F091090283EB91E009951092B0
:101A1000D3010ACF1092320234CFEEE5F2E0138206
:101A2000128248EE53E060E070E0448355836683A1
:101A300077838AE091E09183808385EC90E09587BD
:101A4000848784EC90E09787868780EC90E0918B88
:101A5000808B81EC90E0938B828B82EC90E0958B75
:101A6000848B86EC90E0978B868B118E128E138E72
:101A7000148EA6E3B3E013961C921E92129714964E
:101A80004D935D936D937C9317978CE191E0119644
:101A90009C938E93E2E4F3E080E28083B783A68395
:101AA00011828FEF8283838315821482EEE2F3E04A
:101AB00095E29083B783A683118282838383158204
:101AC0001482E6E2F3E098E39083B783A683118261
:101AD000828383831582148260E087E00E94EB0199
:101AE000EDE6F2E0E491A8E1B3E0EC93E9E5F2E0A1
:101AF000E491F0E0EE0FFF1FE85BFD4F85919491BC
:101B000012969C938E9311971B961C921B971D9671
:101B10001C921D971C961C921C971A961C921A9741
:101B200019961C92199718961C92189717961C9242
:101B3000179716961C92169715961C921597149641
:101B40001C92149713961C921397E1E0F3E0168A07
:101B5000158A1182B287A18717821086108289E0C8
:101B6000838381E0848385838683EBEFF2E01182B7
:101B7000108213821282158214826CE271E0CF010E
:101B80000C94D508CF93DF93CDB7DEB72C970FB663
:101B9000F894DEBF0FBECDBF789484B5826084BD5B
:101BA00084B5816084BD85B5826085BD85B5816061
:101BB00085BD80916E00816080936E0010928100DF
:101BC000809181008260809381008091810081609A
:101BD000809381008091800081608093800080915B
:101BE000B10084608093B1008091B00081608093E7
:101BF000B00080917A00846080937A0080917A00AE
:101C0000826080937A0080917A00816080937A006C
:101C100080917A00806880937A001092C10061E020
:101C200088E00E94BD0164E670E080E090E00E94E0
:101C3000AB0261E089E00E94EB0164E670E080E0C5
:101C400090E00E94AB0290E080E00E941C0261E004
:101C500089E60E94320964E670E080E090E00E942C
:101C6000AB02E0916E02F0916F0282E08083E0911E
:101C70006A02F0916B021082E0916C02F0916D02A9
:101C80008FEC808310927602E0917202F0917302E1
:101C900086E08083E0917002F09171028081806122
:101CA0008083E0917002F09171028081886080836E
:101CB000E0917002F0917102808180688083E091F0
:101CC0007002F091710280818F7D80838DE791E0B9
:101CD0000E94CD0764E670E080E090E00E94AB02D5
:101CE00087E092E00E94AF0764EC79E080E090E04A
:101CF0000E94AB0260E08EE00E94EB0160E08FE0AA
:101D00000E94EB0160E080E10E94EB0160E081E174
:101D10000E94EB0161E088E00E94EB0161E08DE050
:101D20000E94EB0182E092E00E94AF0768EE73E050
:101D300080E090E00E94AB0282E493E00E94E9051B
:101D40008EE293E00E94E905882309F45AC08DEFE2
:101D500091E00E94AF078EE293E00E94D6058823AF
:101D600009F458C083EF91E00E94AF076FEF8EE255
:101D700093E00E949C0586E293E00E94E905882397
:101D800009F451C089EE91E00E94AF0786E293E02A
:101D90000E94D605882309F44FC08FED91E00E9480
:101DA000AF076FEF86E293E00E949C0580E0282E4B
:101DB00080E0382E8EE592E00E94970318161906EF
:101DC0000CF00CC11A8219821C821B821E821D8299
:101DD0006CE271E0CE0101960E94D5080E94490391
:101DE00097FD33C08A30910581F18F83188641E0D9
:101DF00050E0BE01695F7F4FCE0101960E9431081D
:101E0000EDCF8EE293E00E94E9058111A4CF88EF27
:101E100091E09FCF8EE293E00E94D6058111A6CF7C
:101E20008EEE91E0A1CF86E293E00E94E905811158
:101E3000ADCF84EE91E0A8CF86E293E00E94D60574
:101E40008111AFCF8AED91E0AACF8091FB029091F2
:101E5000FC02009709F44FC169817A81611571050F
:101E600009F447C14091FD025091FE022D813E814F
:101E70004217530708F43DC10E946B188D819E8163
:101E8000909300038093FF021E821D82CE01019673
:101E90000E94F6078091FF0290910003892BC1F008
:101EA000A090FB02B090FC0262E871E0C5010E94C4
:101EB000621860E0892B49F064E871E0C5010E9476
:101EC0006218892B09F02EC161E08DE00E94320971
:101ED00070E060E08BEF92E00E94DE02FC01808106
:101EE0008434F1F56BEF72E0CE0107960E94B30ADD
:101EF00061E070E0CE0107960E94DE02FC01808165
:101F00008E3409F05DC12B853C8542E050E0BE0176
:101F1000695F7F4FCE0101960E94DF08CE010196D6
:101F20000E94FE07162F6093F501CE0101960E94D4
:101F3000F6071C3609F42FC108F00AC1183609F457
:101F400024C108F0FCC0163609F419C108F01AC102
:101F500060E0153609F462C1CE0107960E94F607CB
:101F600070E060E08BEF92E00E94DE02FC01808175
:101F70008335A1F56BEF72E0CE0107960E94B30A9C
:101F80002B853C8541E050E0BE01695F7F4FCE016B
:101F900001960E94DF08CE0101960E94FE07162FCF
:101FA0006093F601CE0101960E94F60761E01123CD
:101FB00049F08EE293E00E949B0680912F0384FFFC
:101FC00004C060E089E60E9432098091F60190E049
:101FD0000E941C02CE0107960E94F6078EE00E9426
:101FE0007402BC01990F880B990B0E94DD130E94AB
:101FF000050B2B013C014092FB015092FC016092C9
:10200000FD017092FE0180E10E947402BC01990FF3
:10201000880B990B0E94DD130E94050B4B015C019C
:102020008092F7019092F801A092F901B092FA0122
:1020300081E10E947402BC01990F880B990B0E94E8
:10204000DD130E94050B6B017C0118861F821A8626
:1020500019861C861B8668E871E0CE0107960E94EF
:10206000D508BE01695F7F4FCE0101960E94B30A79
:10207000B301A201CE0101960E945D0862E871E001
:102080000E94940840E050E0BA010E945D086AE8AE
:1020900071E00E949408B501A4010E945D086CE8FB
:1020A00071E00E949408B701A6010E945D086EE8E5
:1020B00071E00E9494080E941D030E94A707CE01B0
:1020C00001960E94F607CE0107960E94F60768EE79
:1020D00073E080E090E00E94AB022114310409F427
:1020E00069CE0E94A303882309F464CE0E940000F5
:1020F00061CE0E94131789819A819093FC0280938C
:10210000FB028B819C819093FE028093FD028D8166
:102110009E81909300038093FF021A8219821C8291
:102120001B82B2CE66E871E0C5010E946218892B5D
:1021300009F0CECE60E088E00E94BD01C9CE1A361B
:1021400039F160E01B3608F48FC060E08BE667C0B1
:102150001C3C51F148F41A3C09F118F560E0193CB7
:1021600009F0FACE89EC5BC01E3C21F100F11F3C66
:1021700021F160E0103D09F0EFCE80ED50C060E04D
:1021800086E64DC060E087E64AC060E088E647C06A
:1021900060E08AE644C060E08CE641C060E08AEC22
:1021A0003EC060E08BEC3BC060E08CEC38C060E08F
:1021B0008DEC35C060E08EEC32C060E08FEC2FC05B
:1021C00061E070E0CE0107960E94DE02FC01808192
:1021D000863409F0C1CE2B853C8542E050E0BE013B
:1021E000695F7F4FCE0101960E94DF08CE01019604
:1021F0000E94FE07162F6093F501CE0101960E9402
:10220000F6071C36A9F1A8F4183661F158F4163611
:1022100029F130F561E0153609F09ECE85E60E9481
:1022200032099ACE1A3611F161E01B36E8F061E00E
:102230008DCF1C3C19F140F41A3CE1F0E8F461E068
:10224000193C09F48FCF88CE1E3CE1F0C8F01F3C4A
:10225000D9F061E0103D09F490CF7ECE61E090CFDF
:1022600061E091CF61E092CF89E6D9CF61E091CF73
:1022700061E092CF61E093CF61E094CF61E095CFD0
:1022800061E096CF61E097CF61E098CF8BEF92E06D
:102290000C94F607EF920F931F93CF93DF93E8010F
:1022A00034E047FD34E1042E000C550B57FF03C00A
:1022B000519541955109E32E022F242FAE010E9422
:1022C000A411CE01DF91CF911F910F91EF9008954E
:1022D0001F93FC0199278827BC01E89411911032C3
:1022E000E9F3193010F01E30C8F31B3251F01D32E3
:1022F00049F4689406C00E948F11610F711D811D01
:10230000911D119110531A30B0F33EF490958095C1
:10231000709561957F4F8F4F9F4F1F910895592F53
:10232000482F372F262F660F771F881F991F660F9C
:10233000771F881F991F620F731F841F951F660FD9
:10234000771F881F991F0895A9E0B0E0EAEAF1E13C
:102350000C94DC146A01F22EB02E102FFBE3AF2E8A
:10236000A01608F41BE31F5F012F27E0AE014F5FAB
:102370005F4F0E940313BC018981982F997091309F
:1023800009F43FC09BE2E1FC04C09E2D9170E0FC8B
:102390003AC05E2D5071E82FE87083FF46C084E09C
:1023A000911101C083E0EF2DE81B8F1508F0E0E0EC
:1023B000D6018E2F20E2552351F1992329F0D60121
:1023C0009C93C60101966C0196012D5F3F4FE2FE82
:1023D00024C08EE4D6018C9391E411969C931197BE
:1023E00012968C93D9018E2F90E281111BC0E20FBF
:1023F000F32FF11D10828EEF9FEF2996ECE00C94E5
:10240000F8149DE2C6CF90E2C4CF2D938150811184
:10241000FCCFCE0ED11CE0E0D0CF8EE6D6018C935F
:1024200091E6DBCF9D938150E0CF482F447082FF2F
:102430003DC084E0911101C083E08F1510F4EF2DB1
:10244000E81BD6018E2F20E2552309F1992329F0AC
:10245000D6019C93C60101966C0196012D5F3F4FFA
:10246000E2FE1BC089E4D6018C938EE411968C9316
:10247000119786E412968C93D9018E2F90E28823CF
:1024800009F4B5CF9D938150FACF2D9381508111DE
:10249000FCCFCE0ED11CE0E0D9CF89E6D6018C93DB
:1024A0008EE611968C93119786E6E4CF9B0177FF19
:1024B00002C030E020E0A1E0B0E0911102C0B0E045
:1024C000A0E0F9013196AE0FBF1F8B2C912CBB20E1
:1024D00009F461C05401EFEFAE1ABE0AAA0DBB1D8C
:1024E000FA161B0619F014F04F2D4A1B511188C023
:1024F000E3FC59C07601A42FB0E2A1114FC0C40E75
:10250000D11C992309F45BC040E0D6011196F60175
:1025100090836D01552309F448C0012F060F9A815D
:10252000582F507184FF03C0913309F401501016E5
:102530000CF047C0093008F008E0EEE2FE2E5B0127
:10254000A01AB10885019194819491082F3F320718
:1025500029F4D601FC92F60131966F0162177307D8
:1025600094F1021713077CF5DB01A21BB30BAA241D
:10257000A394B12CAC0EBD1EAA0DBB1D11968C915F
:1025800021503109D601119628153905F4F0F601CC
:1025900080836D01DBCFB12CA12CA0CFF701B193CB
:1025A0007F01A150AACF9111B0CFD601942F50E353
:1025B00002C05D9391509111FCCFC40ED11C40E03C
:1025C000ACCF01E0BACF80E3DBCF6217730731F401
:1025D000963388F4953311F4552369F0F60180831E
:1025E000FD01842F90E2811108C0A40FB11D1C923F
:1025F00090E080E002CF81E3F1CF91938150F3CF5F
:10260000911183CF8ACF283008F027E03327DA01F1
:10261000990F311D87FD916000966105710539F4B0
:1026200032602E5F3D9330E32A95E1F708959F3F96
:1026300030F080387105610509F03C5F3C5F3D93E7
:10264000913008F08068911DDF93CF931F930F9313
:10265000FF92EF92192F987F9695E92F9695969570
:10266000E90FFF27E45EFE4F99273327EE24FF246E
:10267000A701E70105900894079428F4360FE71E98
:10268000F81E491F511D660F771F881F991F06945A
:10269000A1F70590079428F4E70EF81E491F561F6E
:1026A000C11D770F881F991F661F0694A1F705901B
:1026B000079428F4F80E491F561FC71FD11D880F15
:1026C000991F661F771F0694A1F70590079420F4C1
:1026D000490F561FC71FD81F990F661F771F881FE6
:1026E0000694A9F784911095177041F0D695C79577
:1026F00057954795F794E7941A95C1F7E2ECF0E007
:1027000068941590159135916591959105907FE2AA
:102710007395E118F10A430B560BC90BD009C0F7AA
:10272000E10CF11E431F561FC91FD01D7EF47033EC
:1027300011F48A95E6CFE894015030F0080F0AF4BE
:102740000027021708F4202F2395022F7A3328F050
:1027500079E37D932A95E9F710C07D932A9589F650
:10276000069497956795379517951794E118F10A90
:10277000430B560BC90BD00998F023957E917395A6
:102780007A3308F070E37C932013B8F77E91706180
:102790007D9330F0839571E37D9370E32A95E1F7A3
:1027A0001124EF90FF900F911F91CF91DF91992706
:1027B00087FD90950895E89409C097FB3EF49095A5
:1027C0008095709561957F4F8F4F9F4F9923A9F00A
:1027D000F92F96E9BB279395F69587957795679599
:1027E000B795F111F8CFFAF4BB0F11F460FF1BC0DD
:1027F0006F5F7F4F8F4F9F4F16C0882311F096E970
:1028000011C0772321F09EE8872F762F05C066231D
:1028100071F096E8862F70E060E02AF09A95660FD6
:10282000771F881FDAF7880F9695879597F908958F
:102830000E942B140C949C140E948E1438F00E9459
:10284000951420F0952311F00C9485140C948B149E
:1028500011240C94D0140E94AD1470F3959FC1F311
:10286000950F50E0551F629FF001729FBB27F00D3E
:10287000B11D639FAA27F00DB11DAA1F649F662793
:10288000B00DA11D661F829F2227B00DA11D621FE2
:10289000739FB00DA11D621F839FA00D611D221F9C
:1028A000749F3327A00D611D231F849F600D211D80
:1028B000822F762F6A2F11249F5750409AF0F1F003
:1028C00088234AF0EE0FFF1FBB1F661F771F881F6C
:1028D00091505040A9F79E3F510580F00C9485140B
:1028E0000C94D0145F3FE4F3983ED4F3869577952B
:1028F0006795B795F795E7959F5FC1F7FE2B880F12
:10290000911D9695879597F9089597F99F6780E8A7
:1029100070E060E008959FEF80EC089500240A9431
:102920001616170618060906089500240A941216AA
:102930001306140605060895092E0394000C11F4DD
:10294000882352F0BB0F40F4BF2B11F460FF04C08A
:102950006F5F7F4F8F4F9F4F089557FD9058440FE3
:10296000551F59F05F3F71F04795880F97FB991FEE
:1029700061F09F3F79F087950895121613061406AB
:10298000551FF2CF4695F1DF08C016161706180638
:10299000991FF1CF86957105610508940895E89413
:1029A000BB2766277727CB0197F908952F923F928F
:1029B0004F925F926F927F928F929F92AF92BF924F
:1029C000CF92DF92EF92FF920F931F93CF93DF93FB
:1029D000CDB7DEB7CA1BDB0B0FB6F894DEBF0FBE58
:1029E000CDBF09942A88398848885F846E847D84A5
:1029F0008C849B84AA84B984C884DF80EE80FD80A7
:102A00000C811B81AA81B981CE0FD11D0FB6F8941C
:102A1000DEBF0FBECDBFED010895EE0FFF1F059085
:102A2000F491E02D09945058BB27AA270E942B153A
:102A30000C949C140E948E1438F00E94951420F07F
:102A400039F49F3F19F426F40C948B140EF4E0959E
:102A5000E7FB0C948514E92F0E94AD1458F3BA17C4
:102A6000620773078407950720F079F4A6F50C94A4
:102A7000CF140EF4E0950B2EBA2FA02D0B01B90147
:102A800090010C01CA01A0011124FF27591B99F0E4
:102A9000593F50F4503E68F11A16F040A22F232FF0
:102AA000342F4427585FF3CF469537952795A79540
:102AB000F0405395C9F77EF41F16BA0B620B730BE7
:102AC000840BBAF09150A1F0FF0FBB1F661F771F58
:102AD000881FC2F70EC0BA0F621F731F841F48F40D
:102AE000879577956795B795F7959E3F08F0B0CF96
:102AF0009395880F08F09927EE0F9795879508957D
:102B00000E9494150C949C140E94951458F00E94F5
:102B10008E1440F029F45F3F29F00C948514511174
:102B20000C94D0140C948B140E94AD1468F3992368
:102B3000B1F3552391F3951B550BBB27AA276217B9
:102B40007307840738F09F5F5F4F220F331F441FC6
:102B5000AA1FA9F335D00E2E3AF0E0E832D09150FA
:102B60005040E695001CCAF72BD0FE2F29D0660FE7
:102B7000771F881FBB1F261737074807AB07B0E82A
:102B800009F0BB0B802DBF01FF2793585F4F3AF030
:102B90009E3F510578F00C9485140C94D0145F3F3F
:102BA000E4F3983ED4F3869577956795B795F795B6
:102BB0009F5FC9F7880F911D9695879597F908959E
:102BC000E1E0660F771F881FBB1F6217730784073A
:102BD000BA0720F0621B730B840BBA0BEE1F88F749
:102BE000E095089516F00C9442160C948B1468949A
:102BF0000C9485140E94B514A8F39923C1F3AEF385
:102C0000DF93CF931F930F93FF92C92FDD27882364
:102C10002AF02197660F771F881FDAF720E030E04F
:102C200040E85FEB9FE3883920F0803E38F0219642
:102C30008F770E941415E8E6F0E004C00E94141596
:102C4000E5E9F0E00E9450168B01BE01EC01FB2E7D
:102C50006F5771097595771F880B990B0E94DD13CB
:102C600028E132E741E35FE30E942B14AF2D980186
:102C7000AE01FF900F911F91CF91DF910E942B1514
:102C80000C949C149F3F31F0915020F487957795D8
:102C90006795B795880F911D9695879597F9089533
:102CA000DF93CF931F930F93FF92EF92DF927B01FD
:102CB0008C01689406C0DA2EEF010E942B14FE01ED
:102CC000E894A5912591359145915591A6F3EF0191
:102CD0000E942B15FE019701A801DA9469F7DF9095
:102CE000EF90FF900F911F91CF91DF9108950F9377
:102CF0001F93CF93DF938230910510F482E090E030
:102D0000E0914C03F0914D0330E020E0B0E0A0E012
:102D1000309799F42115310509F44AC0281B390B65
:102D200024303105D8F58A819B816115710589F1BF
:102D3000FB0193838283FE0111C040815181028196
:102D4000138148175907E0F04817590799F410976D
:102D500061F012960C93129713961C933296CF0142
:102D6000DF91CF911F910F91089500934C03109321
:102D70004D03F4CF2115310551F04217530738F0B8
:102D8000A901DB019A01BD01DF01F801C1CFEF010B
:102D9000F9CF90934D0380934C03CDCFFE01E20F0A
:102DA000F31F819391932250310939832883D7CF20
:102DB00020914A0330914B03232B41F420910201CF
:102DC0003091030130934B0320934A03209100017B
:102DD000309101012115310541F42DB73EB74091E5
:102DE000040150910501241B350BE0914A03F09139
:102DF0004B03E217F307A0F42E1B3F0B28173907EC
:102E000078F0AC014E5F5F4F2417350748F04E0F46
:102E10005F1F50934B0340934A03819391939FCF3D
:102E2000F0E0E0E09CCFCF93DF930097E9F0FC0166
:102E3000329713821282A0914C03B0914D03ED01A1
:102E400030E020E01097A1F420813181820F931FA0
:102E500020914A0330914B032817390709F061C0CC
:102E6000F0934B03E0934A03DF91CF910895EA0179
:102E7000CE17DF07E8F54A815B819E0141155105B8
:102E8000B1F7E901FB83EA8349915991C40FD51F3A
:102E9000EC17FD0761F4808191810296840F951FE4
:102EA000E90199838883828193819B838A83F0E0FF
:102EB000E0E012968D919C9113970097B9F52D91B2
:102EC0003C911197CD010296820F931F20914A03E6
:102ED00030914B032817390739F6309751F5109286
:102EE0004D0310924C03B0934B03A0934A03BCCF05
:102EF000D383C28340815181840F951FC817D9079E
:102F000061F44E5F5F4F88819981480F591F51834B
:102F100040838A819B81938382832115310509F047
:102F2000B0CFF0934D03E0934C039ECFFD01DC0145
:102F3000C0CF13821282D7CFB0E0A0E0E2EAF7E17F
:102F40000C94D8148C01009751F4CB010E94771691
:102F50008C01C801CDB7DEB7E0E10C94F414FC019C
:102F6000E60FF71F9C0122503109E217F30708F41E
:102F70009DC0D901CD91DC911197C617D70798F064
:102F8000C530D10530F3CE0104978617970708F3B3
:102F9000C61BD70B2297C193D1936D937C93CF011E
:102FA0000E941317D6CF5B01AC1ABD0A4C018C0EE0
:102FB0009D1EA0914C03B0914D03512C412CF12C3E
:102FC000E12C109731F580914A0390914B038815BD
:102FD000990509F05CC04616570608F058C0809164
:102FE000000190910101009741F48DB79EB7409187
:102FF000040150910501841B950BE817F90708F0AF
:1030000055C0F0934B03E0934A03F9017183608349
:10301000A0CF8D919C91119712966C901297139658
:103020007C901397A815B90559F56C0142E0C40EC0
:10303000D11CCA14DB0420F1AC014A195B09DA0186
:103040001296159780F06282738251834083D90172
:103050006D937C93E114F10471F0D7011396FC9306
:10306000EE93129776CF22968C0F9D1FF9019183D4
:103070008083F301EFCFF0934D03E0934C0369CFCE
:103080004816590608F42C017D01D3019ACFCB01D3
:103090000E9477167C01009749F0AE01B8010E94AA
:1030A0005918C8010E941317870153CF10E000E0A0
:1030B00050CFFB01DC0102C001900D924150504005
:1030C000D8F70895FB01DC018D9101908019011062
:1030D000D9F3990B0895FB01DC0101900D920020BA
:1030E000E1F7089511E0CEE3D1E004C0FE010E94B3
:0E30F0000D152196CF33D107C9F7F894FFCF05
:1030FE0000004E03800000000000D903F0022603FA
:10310E0026049703350389030000000069063C0678
:10311E00980612063506220613060D0A00523131A4
:10312E0000523132005231330052313400523135B7
:10313E00005231360052313700523138005232319E
:10314E000052323200523233005232340052323593
:10315E0000523236005232370052323800523100AD
:10316E005230003A586623003A596623004D3130EA
:10317E0034004100610072005400420043004400DC
:00000001FF
