:100000000C9432010C94F1080C94CA080C945A0117
:100010000C945A010C945A010C945A010C9418092E
:100020000C945A010C945A010C945A010C945A01E4
:100030000C945A010C945A010C945A010C945A01D4
:100040000C9480080C945A010C94BE090C949809E5
:100050000C945A010C945A010C945A010C945A01B4
:100060000C9465070C945A0108000000BE922449C4
:10007000123EABAAAA2ABECDCCCC4C3E00000080DA
:10008000BEABAAAAAA3E00000000BF000000803F4D
:100090000000000000084178D3BB4387D1133D190D
:1000A0000E3CC3BD4282AD2B3E68EC8276BED98F3A
:1000B000E1A93E4C80EFFFBE01C4FF7F3F0000007E
:1000C000000000407A10F35A00A0724E1809001088
:1000D000A5D4E80000E87648170000E40B540200BD
:1000E00000CA9A3B000000E1F505000080969800E8
:1000F000000040420F000000A08601000000102711
:1001000000000000E80300000000640000000000A0
:100110000A00000000000100000000002C76D888D2
:10012000DC674F0823DFC1DFAE59E1B1B796E5E3E5
:10013000E453C63AE651997696E8E6C28426EB89FE
:100140008C9B62ED407C6FFCEFBC9C9F40F2BAA59B
:100150006FA5F490055A2AF75C936B6CF9676DC133
:100160001BFCE0E40D47FEF520E6B500D0ED902E37
:100170000300943577050080841E080000204E0A95
:10018000000000C80C333333330F986E12831141D3
:10019000EF8D2114893BE65516CFFEE6DB18D1849E
:1001A0004B381BF77C1D901DA4BBE42420328472C5
:1001B0005E228100C9F124ECA1E53D273A426E237D
:1001C000003A416E2300005EBCE2613FDD83C29CC9
:1001D0007E20A3FD1F41009D23BE46DB65F88C11E8
:1001E000AF32CA57E974024D31303200496E69743A
:1001F00069616C697A696E672043505520436F725C
:10020000652E2E2E0000000000240027002A00008A
:10021000000000250028002B00000000080002015B
:1002200000000304070000000000000000000000C0
:10023000002300260029000404040404040404022A
:100240000202020202030303030303010204081073
:100250002040800102040810200102040810200040
:10026000F009360F11241FBECFEFD8E0DEBFCDBF9F
:1002700023E0A2E6B1E001C01D92A332B207E1F78C
:1002800011E0A0E0B1E0EAE4FDE202C005900D92C9
:10029000A236B107D9F711E0C1E3D1E004C021973C
:1002A000FE010E94FD12C033D107C9F70E94D80A8F
:1002B0000C9498160C9400002091AB01260F332764
:1002C000331F21323105ECF42091CF01FC0190E085
:1002D00080E0243069F082E00895A091AB01219183
:1002E000AC0145575E4FA40FB52FB11D2C9301965D
:1002F000861798F38091AB01680F6093AB0180E0A3
:10030000089581E0089508958FEF9FEF08958FEF8E
:100310009FEF08958091840190E0919581959109D6
:100320000895CF93DF93CB01EA01642F0E945C0113
:10033000CE01DF91CF910895CF93DF931F92CDB778
:10034000DEB7698361E0CE0101960E945C0181E025
:1003500090E00F90DF91CF910895833081F028F4E1
:10036000813099F08230A9F008958730A9F0883063
:10037000C9F08430B1F4809180008F7D03C08091FA
:1003800080008F7780938000089584B58F7784BD37
:10039000089584B58F7DFBCF8091B0008F778093D7
:1003A000B00008958091B0008F7DF9CFCF93DF9397
:1003B000282F30E0F901E75EFD4F8491F901E55BFC
:1003C000FD4FD491F901E95CFD4FC491CC23A1F01C
:1003D00081110E94AD01EC2FF0E0EE0FFF1FE35DF5
:1003E000FD4FA591B491EC91ED2381E090E009F4EB
:1003F00080E0DF91CF91089580E090E0FACF1F93E5
:10040000CF93DF93282F30E0F901E75EFD4F849111
:10041000F901E55BFD4FD491F901E95CFD4FC49111
:10042000CC23A9F0162F81110E94AD01EC2FF0E032
:10043000EE0FFF1FE15FFD4FA591B4918FB7F894C8
:10044000EC91111108C0D095DE23DC938FBFDF91B2
:10045000CF911F910895DE2BF8CFCF93DF9390E0DB
:10046000FC01E55BFD4F2491895C9D4FFC0184916B
:100470008823D1F090E0880F991FFC01EB5FFD4FBE
:10048000A591B491FC01E15FFD4FC591D49161113B
:100490000EC09FB7F8948C91E22FE0958E238C9339
:1004A0002881E223E8839FBFDF91CF9108958FB722
:1004B000F894EC91E22BEC938FBFF6CF8E508064D2
:1004C00080937C0080917A00806480937A00809190
:1004D0007A0086FDFCCF8091780090917900089594
:1004E0003FB7F8948091800190918101A0918201A1
:1004F000B091830126B5A89B05C02F3F19F0019646
:10050000A11DB11D3FBFBA2FA92F982F8827BC016D
:10051000CD01620F711D811D911D42E0660F771F95
:10052000881F991F4A95D1F708958F929F92AF9295
:10053000BF92CF92DF92EF92FF924B015C010E943B
:1005400070026B017C010E9470026C197D098E099A
:100550009F09683E734081059105A8F321E0821A46
:100560009108A108B10888EEC80E83E0D81EE11CEE
:10057000F11C81149104A104B10429F7FF90EF90BC
:10058000DF90CF90BF90AF909F908F900895089587
:100590000895AF92BF92CF92DF92EF92FF920F93A6
:1005A0001F93CF93DF936C017B018B01040F151F09
:1005B000EB015E01AE18BF08C017D10759F0699171
:1005C000D601ED91FC910190F081E02DC6010995D5
:1005D000892B79F7C501DF91CF911F910F91FF9082
:1005E000EF90DF90CF90BF90AF900895FC014481D1
:1005F00055816081718189EF91E00C94C90290E08E
:1006000080E00895FC01538D448D252F30E0842F28
:1006100090E0821B930B541710F0CF96089501972A
:100620000895FC01918D828D981761F0A28DAE0F17
:10063000BF2FB11D5D968C91928D9F5F9F73928F9E
:1006400090E008958FEF9FEF08952FB7F894809171
:10065000F5019091F601A091F701B091F8012FBF3B
:100660008093010290930202A0930302B0930402CC
:1006700089EF91E00E94110397FF26C02FB7F894ED
:100680008091F5019091F601A091F701B091F801E8
:100690002FBF4091010250910202609103027091BC
:1006A0000402841B950BA60BB70B4091FD015091E2
:1006B000FE016091FF017091000284179507A60763
:1006C000B707B0F28FEF9FEF0895FC01918D828DF7
:1006D000981731F0828DE80FF11D858D90E0089517
:1006E0008FEF9FEF0895FC01918D228D892F90E06F
:1006F000805C9F4F821B91098F739927089589EF22
:1007000091E00E94730321E0892B09F420E0822FFD
:10071000089580E090E0892B29F00E947F038111E9
:100720000C9400000895FC01A48DA80FB92FB11DF1
:10073000A35ABF4F2C91848D90E001968F73992717
:10074000848FA689B7892C93A089B1898C918370F5
:1007500080648C93938D848D981306C00288F389EE
:10076000E02D80818F7D80830895EF92FF920F931B
:100770001F93CF93DF93EC0181E0888F9B8D8C8D4D
:1007800098131AC0E889F989808185FF15C09FB741
:10079000F894EE89FF896083E889F9898081837004
:1007A000806480839FBF81E090E0DF91CF911F91B3
:1007B0000F91FF90EF900895F62E0B8D10E00F5FD4
:1007C0001F4F0F731127E02E8C8D8E110CC00FB6AA
:1007D00007FCFACFE889F989808185FFF5CFCE0142
:1007E0000E949303F1CFEB8DEC0FFD2FF11DE35A27
:1007F000FF4FF0829FB7F8940B8FEA89FB898081C5
:100800008062CFCFCF93DF93EC01888D8823B9F03E
:10081000AA89BB89E889F9898C9185FD03C080810B
:1008200086FD0DC00FB607FCF7CF8C9185FFF2CF88
:10083000808185FFEDCFCE010E949303E9CFDF9148
:10084000CF910895DC0180E0615090F09D91982750
:10085000E92FEF70F0E0EA53FE4F2491E92FE29583
:10086000EF70F0E0EA52FE4FE491822F8E27ECCF3A
:100870000895DC012C911196ED91FC91F894818101
:10088000822B81839281322F30959323928387E04C
:1008900090E00197F1F781818323818383E290E0E7
:1008A0000197F1F790817894EFECF0E03197F1F750
:1008B000922381E009F480E00895FC019081018099
:1008C000F281E02D292F209560FF14C0F8948281D9
:1008D000822382838181892B8183A3E2B0E01197F7
:1008E000F1F78281982B9283789487ED90E00197BD
:1008F000F1F70895F8948281822382838181892B84
:100900008183AFEFB0E01197F1F78281982B92834A
:1009100078948FE090E0EBCFEF92FF920F931F93CC
:10092000CF93DF93EC01E62E08E010E0FF24F39470
:1009300061E08E2D8F2109F460E0CE010E945D04FC
:10094000FF0C01501109A1F7F894E981FA81918116
:100950008881809589238183E981FA8192818881C8
:100960008095892382837894DF91CF911F910F9195
:10097000FF90EF900895EF92FF920F931F93CF9304
:10098000DF938C017B0165E50E948C04E70188E020
:10099000E80EF11C6991C8010E948C04CE15DF0598
:1009A000C9F7DF91CF911F910F91FF90EF900895BC
:1009B000FC0190810180F281E02DF8948181292F42
:1009C00020958223818378943DE743E050E03150C5
:1009D00029F1DA011197F1F780818923C1F3F894A5
:1009E0008281822382838181892B81837894ABE702
:1009F000B7E01197F1F7F894818182238183A3E115
:100A0000B1E01197F1F78081982381E009F080E04F
:100A10007894E3E6F6E03197F1F7089580E00895E1
:100A200042E050E06FE271E089EF91E00C94C9027E
:100A3000CF93DF93FC0101900020E9F73197AF01DC
:100A4000481B590BBC0189EF91E00E94C902EC01DF
:100A50000E9410058C0F9D1FDF91CF9108950F9379
:100A60001F93CF93DF938C01D0E0C0E0F801EC0F2F
:100A7000FD1F6491662341F089EF91E00E94B50368
:100A8000892B11F02196F2CF0E9410058C0F9D1F2B
:100A9000DF91CF911F910F9108951F93CF93DF9313
:100AA00085ED8093BC008091870190918801A09191
:100AB0008901B0918A010796A11DB11D23E0B69569
:100AC000A795979587952A95D1F72091BC0024FD8D
:100AD00003C01092CF0152C040918701509188010C
:100AE0006091890170918A01452B462B472B69F350
:100AF0000097A105B10541F025E32A95F1F7000023
:100B00000197A109B109E1CF80918601C1E0C093AD
:100B10008501882399F1D091B8001091BA00809195
:100B2000BC008A7B8093BC0060E082E10E94FF01F0
:100B300060E083E10E94FF011092CF01C093D101D8
:100B40001092D00161E082E10E94FF0161E083E147
:100B50000E94FF018091B9008E7F8093B90080913F
:100B6000B9008D7F8093B90088E48093B80085E454
:100B70008093BC001093BA00D093B800DF91CF915E
:100B80001F910895CF93DF93EC018881998100979D
:100B900011F00E943915198218821D821C821B8255
:100BA0001A82DF91CF910895FC0180819181009795
:100BB00011F00C94391508950F931F93CF93DF9381
:100BC000EC0188819981009759F02A813B81261791
:100BD000370730F081E0DF91CF911F910F91089599
:100BE0008B016F5F7F4F0E94C215009759F0998368
:100BF00088831B830A832C813D81232B59F7FC01B9
:100C00001082E8CF80E0E7CFEF92FF920F931F931F
:100C1000CF93DF936115710541F480E0DF91CF91AF
:100C20001F910F91FF90EF90089541155105B1F07C
:100C30007B01EC010C811D81040F151FB8010E947E
:100C4000DC05882351F3288139818C819D81B7018E
:100C5000820F931F0E9491161D830C8381E0DECFCB
:100C6000EF92FF920F931F93CF93DF93CDB7DEB731
:100C700064970FB6F894DEBF0FBECDBF7C01CB01E9
:100C8000BA018E010F5F1F4F22E044E00E943A0F2D
:100C9000FC0101900020E9F73197AF01481B590B87
:100CA000BC01C7010E940406811103C0C7010E9454
:100CB000C205C70164960FB6F894DEBF0FBECDBF64
:100CC000DF91CF911F910F91FF90EF900895CF93F7
:100CD000DF93EC01FB0101900020E9F73197AF01B0
:100CE000461B570B0E940406811103C0CE010E94CF
:100CF000C205CE01DF91CF910895EF92FF920F933D
:100D00001F93CF93DF93EC017B018A01BA010E940C
:100D1000DC0581110BC0CE010E94C205CE01DF911E
:100D2000CF911F910F91FF90EF9008951D830C8339
:100D3000B701888199810E949116F0CFFB01019043
:100D40000020E9F73197AF01461B570B0C947D0645
:100D5000FB0101900020E9F73197AF01461B570BCB
:100D60000C947D060F931F93CF93DF9300D000D098
:100D700000D0CDB7DEB7182F062F1A8219821C8239
:100D80001B821E821D8261E371E0CE0101960E94EA
:100D9000A80662E371E0112311F066E371E0CE0171
:100DA00001960E949E06812F01112BC00E94D60140
:100DB000892BD9F060E0812F0E94FF01CE010196BE
:100DC0000E94F60281EC91E00E942F05CE0101966F
:100DD0000E94D40526960FB6F894DEBF0FBECDBF95
:100DE000DF91CF911F910F910895812F0E94D6011D
:100DF000892B61F7CE0101960E94F6028CEB91E0FF
:100E0000E3CF0E94D601019769F061E0812F0E9433
:100E1000FF01CE0101960E94F6028AE391E00E9452
:100E20001805D4CF812F0E94D601019779F6CE0103
:100E300001960E94F6028FE391E0F1CFCF92DF920C
:100E4000EF92FF922AE038E240EA5BE30E94081248
:100E50006B017C01AC019B0160E070E080EA90E4F2
:100E60000E94031320E030E44CE156E40E9470132A
:100E70009B01AC01C701B6010E94701320E030E471
:100E80004CE156E40E9470130E94201420E030E9E7
:100E900048E755E40E9470132FE03FEC4BE55BE31D
:100EA0000E9404139B01AC0160E070E080E89FE3C6
:100EB0000E94701323E333E948E853E40E940313CC
:100EC000FF90EF90DF90CF9008951F920F920FB692
:100ED0000F9211242F933F934F935F936F937F93C0
:100EE0008F939F93AF93BF93EF93FF938091B9003C
:100EF000887F803609F44AC0F0F5883209F4A5C02D
:100F000018F5803109F499C0B8F4882309F4F5C0C4
:100F1000883009F492C0FF91EF91BF91AF919F91FA
:100F20008F917F916F915F914F913F912F910F9092
:100F30000FBE0F901F901895883109F486C080323B
:100F400051F78093CE0114C0803409F49BC040F463
:100F50008033B9F38833F9F68093CE0185ECAEC0C7
:100F6000803509F483C0883509F494C0883499F633
:100F70000E944D05D0CF883909F48AC038F58837EA
:100F800029F050F4883611F0803729F683E08093F9
:100F9000CF011092CD0155C0883809F479C080394D
:100FA00019F0803809F0B7CF8091CD01803208F078
:100FB0006FC0E091CD0181E08E0F8093CD018091D3
:100FC000BB00F0E0E355FE4F80833BC0803B39F02F
:100FD000D0F4803A09F477C0883A09F09CCF84E0D5
:100FE0008093CF011092AC011092AB01F0E0E0E0F1
:100FF00009958091AB0181110FC081E08093AB0115
:1010000010928B0109C0803C09F4A8CF883C09F4F8
:10101000A5CF883B09F07FCFE091AC0181E08E0F36
:101020008093AC01F0E0E557FE4F80818093BB00D8
:101030009091AC018091AB0129C08091F401809323
:10104000BB0085EC8093BC0066CF9091F30180914A
:10105000F201981758F5E091F30181E08E0F80932B
:10106000F301F0E0EE52FE4F8081E9CFE091F30111
:1010700081E08E0F8093F3018091BB00F0E0EE528F
:10108000FE4F80839091F3018091F2019817C8F28E
:1010900085E8D8CFE091F30181E08E0F8093F301D2
:1010A0008091BB00F0E0EE52FE4F80838091D10131
:1010B00081115ECF81E08093D00184EA8093BC00EF
:1010C0001092CF0128CF85EC8093BC001092CF0105
:1010D0008091CD01803230F4E091CD01F0E0E35514
:1010E000FE4F10826091CD0170E08DEA91E0F0E05A
:1010F000E0E009951092CD010ECF1092CE0138CFCD
:101100001F920F920FB60F9211242F933F938F933C
:101110009F93AF93BF938091F5019091F601A091B9
:10112000F701B091F80130917F0123E0230F2D37B3
:1011300058F50196A11DB11D20937F018093F50103
:101140009093F601A093F701B093F801809180018C
:1011500090918101A0918201B09183010196A11D1E
:10116000B11D8093800190938101A0938201B0937F
:101170008301BF91AF919F918F913F912F910F90DC
:101180000FBE0F901F90189526E8230F0296A11D01
:10119000B11DD2CF1F920F920FB60F9211242F9331
:1011A0003F934F935F936F937F938F939F93AF93EF
:1011B000BF93EF93FF93E0910301F0910401099530
:1011C000FF91EF91BF91AF919F918F917F916F911F
:1011D0005F914F913F912F910F900FBE0F901F90F5
:1011E00018951F920F920FB60F9211242F933F93D1
:1011F0004F935F936F937F938F939F93AF93BF931F
:10120000EF93FF93E0910101F09102010995FF91A5
:10121000EF91BF91AF919F918F917F916F915F916E
:101220004F913F912F910F900FBE0F901F901895E7
:101230001F920F920FB60F9211242F933F934F934B
:101240005F936F937F938F939F93AF93BF93EF932E
:10125000FF9380916D0190916E01A0916F01B0910B
:101260007001892B8A2B8B2BC1F190916C0180919D
:10127000000089278093000080916D0190916E019C
:10128000A0916F01B0917001181619061A061B067D
:101290009CF480916D0190916E01A0916F01B091CD
:1012A00070010197A109B10980936D0190936E01BE
:1012B000A0936F01B0937001FF91EF91BF91AF9137
:1012C0009F918F917F916F915F914F913F912F915E
:1012D0000F900FBE0F901F90189580910001E6EEC1
:1012E000F1E0E4919FEF90930001E13051F030F094
:1012F000E23069F060E00E94FF01DECF10926E00E4
:10130000F9CF90916F009D7F90936F00F3CF9091F4
:1013100070009D7F9093700091E09093B000909149
:10132000B100987F94609093B1001092B300E2CF27
:101330001F920F920FB60F9211242F933F934F934A
:101340005F936F937F938F939F93AF93BF93EF932D
:10135000FF9389EF91E00E949303FF91EF91BF917A
:10136000AF919F918F917F916F915F914F913F913D
:101370002F910F900FBE0F901F9018951F920F92F4
:101380000FB60F9211242F938F939F93EF93FF9398
:10139000E0910902F0910A028081E0910F02F09140
:1013A000100282FD1BC09081809112028F5F8F73AB
:1013B00020911302821741F0E0911202F0E0E75011
:1013C000FE4F958F80931202FF91EF919F918F9125
:1013D0002F910F900FBE0F901F9018958081F4CF22
:1013E000CF93DF93A6E9B2E013961C921E92129758
:1013F00048EE53E060E070E014964D935D936D937A
:101400007C9317978FE091E011969C938E93E9EF70
:10141000F1E013821282448355836683778381E2ED
:1014200091E09183808385EC90E09587848784ECBC
:1014300090E09787868780EC90E0918B808B81ECA1
:1014400090E0938B828B82EC90E0958B848B86EC82
:1014500090E0978B868B118E128E138E148EE6EF92
:10146000F2E0C2E1D0E0D287C18763E170E0748727
:101470006387178642E0408B128A118A138A148A86
:10148000158A168A178A108E118E128E138E148E5C
:10149000158E168E178E10A211A213A212A22AE088
:1014A00030E035A324A39BE496A381EE87A310A686
:1014B000B687A58750E25087EDECF2E0D287C1876E
:1014C000748763871786408B128A118A138A148A5D
:1014D000158A168A178A108E118E128E138E148E0C
:1014E000158E168E178E10A211A213A212A235A36A
:1014F00024A396A387A310A6B687A58781E2808739
:1015000060E087E00E942D02E2E5F2E0E491AFEBBB
:10151000B2E0EC93EEE3F2E0E491F0E0EE0FFF1FB7
:10152000E35DFD4F8591949112969C938E93119754
:101530001B961C921B971D961C921D971C961C9225
:101540001C971A961C921A9719961C92199718961E
:101550001C92189717961C92179716961C9216971E
:1015600015961C92159714961C92149713961C921C
:101570001397E8EAF2E0168A158A1182B287A187EA
:1015800017821086108289E0838381E084838583BB
:101590008683E2EAF2E011821082138212821582BF
:1015A000148261E371E0CF01DF91CF910C94A80622
:1015B000CF93DF93CDB7DEB765970FB6F894DEBF54
:1015C0000FBECDBF789484B5826084BD84B5816040
:1015D00084BD85B5826085BD85B5816085BD8091FE
:1015E0006E00816080936E00109281008091810076
:1015F000826080938100809181008160809381006E
:10160000809180008160809380008091B10084602F
:101610008093B1008091B00081608093B000809190
:101620007A00846080937A0080917A00826080934F
:101630007A0080917A00816080937A0080917A00AC
:10164000806880937A001092C10061E08CE00E9473
:10165000FF0164E670E080E090E00E94950261E0A6
:1016600089E00E942D0264E670E080E090E00E9434
:10167000950261E089E00E942D0260E089E00E940D
:10168000FF0164E670E080E090E00E949502E09146
:101690000902F0910A0282E08083E0910502F09154
:1016A00006021082E0910702F09108028FEC80831D
:1016B00010921102E0910D02F0910E0286E08083FB
:1016C000E0910B02F0910C02808180618083E091B7
:1016D0000B02F0910C02808188608083E0910B0204
:1016E000F0910C02808180688083E0910B02F09180
:1016F0000C0280818F7D808384E491E00E94180534
:1017000064E670E080E090E00E9495028CEE91E04B
:101710000E942F0564EC79E080E090E00E94950241
:1017200060E08EE00E942D0260E08FE00E942D02BA
:1017300060E080E10E942D0260E081E10E942D02C4
:1017400061E08CE00E942D0261E08DE00E942D029C
:1017500089E491E00E941805E091B102F091B20293
:1017600013861586148612861186108617821682B5
:101770001582148213821092AF021092B002772465
:101780007394662463946E018AE0C80ED11C0091A4
:10179000B1021091B202D8011D968C91882309F4F0
:1017A00040C0F8011386158614868EE491E00E94ED
:1017B000180587EE91E00E942F056EEE72E080E042
:1017C00090E00E94950222E2222E22E0322E00E0DA
:1017D00010E089EF91E00E947303181619060CF0CF
:1017E000F5C11A8219821C821B821E821D8261E34E
:1017F00071E0CE0101960E94A8060E94250397FD84
:1018000036C18A30910509F432C18A871B8641E0CE
:1018100050E0BE01665F7F4FCE0101960E94040634
:10182000ECCFC8010E94D80481110AC0D8011B96D0
:101830001C921B971D961C921D971C961C92B5CF4F
:1018400060EFC8010E948C04EE24E394A12C912C3B
:10185000FF24F394C8010E943904B82EC8010E94E5
:101860003904B1E0BB1272C0813009F091C0E0E4EC
:10187000EF1508F096CFD8011B969C921B979110FC
:1018800002C01D967C92F8018381882309F489CFD8
:10189000D8011396FE013A96055F1F4F7F018D9187
:1018A0008193A017B107D9F767E0C7010E9422040E
:1018B000998989136CCF8091AF028F5F8093AF02BB
:1018C0008A85883239F008F07AC0803119F0823286
:1018D00009F05DCF8091B0028F5F8093B00280915C
:1018E000A802811125C08091B1029091B2020E949C
:1018F000D804B7018091B1029091B2020E94BB045A
:1019000064EB8091B1029091B2020E948C048091AC
:10191000B1029091B2020E943904182F8091B10255
:101920009091B2020E94D804111102C06092A802E4
:101930008A85803109F48EC08091B1029091B20203
:101940000E94D804811142C080E087C0EA2DF0E0F7
:10195000B81214C0D8011B968C911B97F816B0F4DE
:10196000AE0FBF1F13968C918E2191F4B12CB8E06D
:10197000BF1518F0D8011C96FC929F2CE00FF11FA8
:1019800083819E2D9095892383830AC08F11EECF8A
:10199000F801EA0DF11D83818E298383BB24B39462
:1019A0006B2DC8010E945D04F394EE0C19F4A3940E
:1019B000EE24E394B7E0BA1508F04CCF58CF8B3340
:1019C00009F488CF823409F0E2CE84CFB701809148
:1019D000B1029091B2020E94BB046EEB8091B10201
:1019E0009091B2020E948C048E010F5F1F4F78010C
:1019F00018018090B1029090B20238E0A32EB12C71
:101A0000512C44244394C4010E9439048111542868
:101A1000440CF1E0AF1AB108B1F7D7015D927D0136
:101A2000CA16DB0631F78091B1029091B2020E9492
:101A3000D804813009F088CFF80181918F0181119C
:101A4000FEC1EE15FF05C1F77FCF8F3571F08F37DF
:101A500009F07ACF8CE001C08AE09091AB02981730
:101A600008F095CE8093AB0292CE8BE0F6CF8091BA
:101A7000A2029091A302009709F46DC169817A8155
:101A80006115710509F465C14091A4025091A50248
:101A90002D813E814217530708F45BC10E949116C5
:101AA0008D819E819093A7028093A6021E821D8243
:101AB000CE0101960E94D4058091A6029091A702C2
:101AC000892BC1F0E090A202F090A30263E571E0DF
:101AD000C7010E94881661E0892B49F065E571E035
:101AE000C7010E948816892B09F04CC160E08DE087
:101AF0000E94FF01C090A602D090A702C114D10499
:101B000031F0E091A202F091A302309721F41092FB
:101B10007101E1E7F1E08081833709F057C0AA2421
:101B2000A394B12CC114D10421F05601CC24C39448
:101B3000D12C1A8219821C821B821E821D8261E3B3
:101B400071E0CE0101960E94A806E090A602F090F6
:101B5000A702CE14DF0410F5AE14BF0408F475011B
:101B6000E091A202F091A302EE0DFF1DB080108261
:101B70006091A2027091A3026C0D7D1DCE010196B1
:101B80006115710509F409C10E949E068091A202A7
:101B90009091A302E80EF91ED701BC9289819A8127
:101BA000F12C009719F00E94580FF62EF0927E014A
:101BB000CE0101960E94D40561E089E00E942D02C9
:101BC000F110EEC060E089E00E94FF018FE00E940A
:101BD0005E02BC01990F880B990B0E94CD110E94E7
:101BE0001E072B013C0140927A0150927B016092CA
:101BF0007C0170927D018EE00E945E02BC01990F13
:101C0000880B990B0E94CD110E941E074B015C01AD
:101C10008092760190927701A0927801B09279013A
:101C200080E10E945E02BC01990F880B990B0E9413
:101C3000CD110E941E076B017C01C0927201D092EF
:101C40007301E0927401F092750181E10E945E02DD
:101C5000BC01990F880B990B0E94CD110E941E07A1
:101C60006A8B7B8B8C8B9D8B1B861A861D861C86B4
:101C70001F861E8669E571E0CE010A960E94A806BD
:101C80001A8219821C821B821E821D826A857B85B4
:101C90006115710531F04E855F85CE0101960E9478
:101CA0007D06B301A201CE0101960E94300663E5D4
:101CB00071E00E946706B501A4010E9430066BE541
:101CC00071E00E946706B701A6010E9430066DE52B
:101CD00071E00E9467064A895B896C897D890E9450
:101CE00030066FE571E00E9467060E94F6020E94CE
:101CF0001005CE0101960E94D405CE010A960E94DD
:101D0000D40560917A0170917B0180917C01909162
:101D10007D010E94E2136E3071050CF08AC061E013
:101D200080E00E94B20661E081E00E94B20668EEA7
:101D300073E080E090E00E9495020115110509F41E
:101D400048CD0E947F03882309F443CD0E94000000
:101D500040CD0E94391589819A819093A302809386
:101D6000A2028B819C819093A5028093A4028D8115
:101D70009E819093A7028093A6021A8219821C82E8
:101D80001B8294CE67E571E0C7010E948816892BFB
:101D900009F0B0CE60E08CE0ABCE0E94C205F6CE7A
:101DA000BFEFFB1202C061E00ECFF10184918330DE
:101DB00021F138F48130B9F08230D1F0F7FCF3CF63
:101DC00001CF873031F1883061F18430B9F78091EB
:101DD00080008062809380008F2D90E090938B0034
:101DE00080938A00F3CE84B5806884BDF7BCEECEC4
:101DF00084B5806284BDF8BCE9CE809180008068A3
:101E0000809380008F2D90E09093890080938800CC
:101E1000DDCE8091B00080688093B000F092B30076
:101E2000D5CE8091B00080628093B000F092B40073
:101E3000CDCE673171050CF47ACF60E071CF68E0E8
:101E4000C1010E942204998589137ECD8D819A85D6
:101E50009B3311F487FDFECD8F3309F4FDCD08F0DF
:101E6000F4CD8F3109F070CD89E0F7CD82EA92E0B0
:101E70000C94D405EF920F931F93CF93DF93E80157
:101E800034E047FD34E1042E000C550B57FF03C02E
:101E9000519541955109E32E022F242FAE010E9446
:101EA000940FCE01DF91CF911F910F91EF90089584
:101EB0001F93FC0199278827BC01E89411911032E7
:101EC000E9F3193010F01E30C8F31B3251F01D3207
:101ED00049F4689406C00E947F0F610F711D811D37
:101EE000911D119110531A30B0F33EF490958095E6
:101EF000709561957F4F8F4F9F4F1F910895592F78
:101F0000482F372F262F660F771F881F991F660FC0
:101F1000771F881F991F620F731F841F951F660FFD
:101F2000771F881F991F0895A9E0B0E0EAE9FFE054
:101F30000C94CC126A01F22EB02E102FFBE3AF2EC0
:101F4000A01608F41BE31F5F012F27E0AE014F5FCF
:101F50005F4F0E94F310BC018981982F99709130D6
:101F600009F43FC09BE2E1FC04C09E2D9170E0FCAF
:101F70003AC05E2D5071E82FE87083FF46C084E0C0
:101F8000911101C083E0EF2DE81B8F1508F0E0E010
:101F9000D6018E2F20E2552351F1992329F0D60145
:101FA0009C93C60101966C0196012D5F3F4FE2FEA6
:101FB00024C08EE4D6018C9391E411969C931197E2
:101FC00012968C93D9018E2F90E281111BC0E20FE3
:101FD000F32FF11D10828EEF9FEF2996ECE00C9409
:101FE000E8129DE2C6CF90E2C4CF2D9381508111BB
:101FF000FCCFCE0ED11CE0E0D0CF8EE6D6018C9384
:1020000091E6DBCF9D938150E0CF482F447082FF53
:102010003DC084E0911101C083E08F1510F4EF2DD5
:10202000E81BD6018E2F20E2552309F1992329F0D0
:10203000D6019C93C60101966C0196012D5F3F4F1E
:10204000E2FE1BC089E4D6018C938EE411968C933A
:10205000119786E412968C93D9018E2F90E28823F3
:1020600009F4B5CF9D938150FACF2D938150811102
:10207000FCCFCE0ED11CE0E0D9CF89E6D6018C93FF
:102080008EE611968C93119786E6E4CF9B0177FF3D
:1020900002C030E020E0A1E0B0E0911102C0B0E069
:1020A000A0E0F9013196AE0FBF1F8B2C912CBB2005
:1020B00009F461C05401EFEFAE1ABE0AAA0DBB1DB0
:1020C000FA161B0619F014F04F2D4A1B511188C047
:1020D000E3FC59C07601A42FB0E2A1114FC0C40E99
:1020E000D11C992309F45BC040E0D6011196F6019A
:1020F00090836D01552309F448C0012F060F9A8182
:10210000582F507184FF03C0913309F40150101609
:102110000CF047C0093008F008E0EEE2FE2E5B014B
:10212000A01AB10885019194819491082F3F32073C
:1021300029F4D601FC92F60131966F0162177307FC
:1021400094F1021713077CF5DB01A21BB30BAA2441
:10215000A394B12CAC0EBD1EAA0DBB1D11968C9183
:1021600021503109D601119628153905F4F0F601F0
:1021700080836D01DBCFB12CA12CA0CFF701B193EF
:102180007F01A150AACF9111B0CFD601942F50E377
:1021900002C05D9391509111FCCFC40ED11C40E060
:1021A000ACCF01E0BACF80E3DBCF6217730731F425
:1021B000963388F4953311F4552369F0F601808342
:1021C000FD01842F90E2811108C0A40FB11D1C9263
:1021D00090E080E002CF81E3F1CF91938150F3CF83
:1021E000911183CF8ACF283008F027E03327DA0116
:1021F000990F311D87FD916000966105710539F4D5
:1022000032602E5F3D9330E32A95E1F708959F3FBA
:1022100030F080387105610509F03C5F3C5F3D930B
:10222000913008F08068911DDF93CF931F930F9337
:10223000FF92EF92192F987F9695E92F9695969594
:10224000E90FFF27E45EFE4F99273327EE24FF2492
:10225000A701E70105900894079428F4360FE71EBC
:10226000F81E491F511D660F771F881F991F06947E
:10227000A1F70590079428F4E70EF81E491F561F92
:10228000C11D770F881F991F661F0694A1F705903F
:10229000079428F4F80E491F561FC71FD11D880F39
:1022A000991F661F771F0694A1F70590079420F4E5
:1022B000490F561FC71FD81F990F661F771F881F0A
:1022C0000694A9F784911095177041F0D695C7959B
:1022D00057954795F794E7941A95C1F7E2ECF0E02B
:1022E00068941590159135916591959105907FE2CF
:1022F0007395E118F10A430B560BC90BD009C0F7CF
:10230000E10CF11E431F561FC91FD01D7EF4703310
:1023100011F48A95E6CFE894015030F0080F0AF4E2
:102320000027021708F4202F2395022F7A3328F074
:1023300079E37D932A95E9F710C07D932A9589F674
:10234000069497956795379517951794E118F10AB4
:10235000430B560BC90BD00998F023957E917395CA
:102360007A3308F070E37C932013B8F77E917061A4
:102370007D9330F0839571E37D9370E32A95E1F7C7
:102380001124EF90FF900F911F91CF91DF9199272A
:1023900087FD90950895E89409C097FB3EF49095C9
:1023A0008095709561957F4F8F4F9F4F9923A9F02E
:1023B000F92F96E9BB279395F695879577956795BD
:1023C000B795F111F8CFFAF4BB0F11F460FF1BC001
:1023D0006F5F7F4F8F4F9F4F16C0882311F096E994
:1023E00011C0772321F09EE8872F762F05C0662342
:1023F00071F096E8862F70E060E02AF09A95660FFB
:10240000771F881FDAF7880F9695879597F90895B3
:102410000E941B120C948C120E947E1238F00E94B3
:10242000851220F0952311F00C9475120C947B12F8
:1024300011240C94C0120E949D1270F3959FC1F359
:10244000950F50E0551F629FF001729FBB27F00D62
:10245000B11D639FAA27F00DB11DAA1F649F6627B7
:10246000B00DA11D661F829F2227B00DA11D621F06
:10247000739FB00DA11D621F839FA00D611D221FC0
:10248000749F3327A00D611D231F849F600D211DA4
:10249000822F762F6A2F11249F5750409AF0F1F027
:1024A00088234AF0EE0FFF1FBB1F661F771F881F90
:1024B00091505040A9F79E3F510580F00C94751241
:1024C0000C94C0125F3FE4F3983ED4F38695779561
:1024D0006795B795F795E7959F5FC1F7FE2B880F36
:1024E000911D9695879597F9089597F99F6780E8CC
:1024F00070E060E008959FEF80EC089500240A9456
:102500001616170618060906089500240A941216CE
:102510001306140605060895092E0394000C11F401
:10252000882352F0BB0F40F4BF2B11F460FF04C0AE
:102530006F5F7F4F8F4F9F4F089557FD9058440F07
:10254000551F59F05F3F71F04795880F97FB991F12
:1025500061F09F3F79F087950895121613061406CF
:10256000551FF2CF4695F1DF08C01616170618065C
:10257000991FF1CF86957105610508940895E89437
:10258000BB2766277727CB0197F908952F923F92B3
:102590004F925F926F927F928F929F92AF92BF9273
:1025A000CF92DF92EF92FF920F931F93CF93DF931F
:1025B000CDB7DEB7CA1BDB0B0FB6F894DEBF0FBE7C
:1025C000CDBF09942A88398848885F846E847D84C9
:1025D0008C849B84AA84B984C884DF80EE80FD80CB
:1025E0000C811B81AA81B981CE0FD11D0FB6F89441
:1025F000DEBF0FBECDBFED010895EE0FFF1F0590AA
:10260000F491E02D09945058BB27AA270E941B1370
:102610000C948C120E947E1238F00E94851220F0D9
:1026200039F49F3F19F426F40C947B120EF4E095D4
:10263000E7FB0C947512E92F0E949D1258F3BA170C
:10264000620773078407950720F079F4A6F50C94C8
:10265000BF120EF4E0950B2EBA2FA02D0B01B9017D
:1026600090010C01CA01A0011124FF27591B99F008
:10267000593F50F4503E68F11A16F040A22F232F14
:10268000342F4427585FF3CF469537952795A79564
:10269000F0405395C9F77EF41F16BA0B620B730B0B
:1026A000840BBAF09150A1F0FF0FBB1F661F771F7C
:1026B000881FC2F70EC0BA0F621F731F841F48F431
:1026C000879577956795B795F7959E3F08F0B0CFBA
:1026D0009395880F08F09927EE0F979587950895A1
:1026E0000E9484130C948C120E94851258F00E9450
:1026F0007E1240F029F45F3F29F00C9475125111BD
:102700000C94C0120C947B120E949D1268F39923C2
:10271000B1F3552391F3951B550BBB27AA276217DD
:102720007307840738F09F5F5F4F220F331F441FEA
:10273000AA1FA9F335D00E2E3AF0E0E832D091501E
:102740005040E695001CCAF72BD0FE2F29D0660F0B
:10275000771F881FBB1F261737074807AB07B0E84E
:1027600009F0BB0B802DBF01FF2793585F4F3AF054
:102770009E3F510578F00C9475120C94C0125F3F87
:10278000E4F3983ED4F3869577956795B795F795DA
:102790009F5FC9F7880F911D9695879597F90895C2
:1027A000E1E0660F771F881FBB1F6217730784075E
:1027B000BA0720F0621B730B840BBA0BEE1F88F76D
:1027C000E09508950E94E9136894B1110C94C01229
:1027D00008950E94A51288F09F5798F0B92F992765
:1027E000B751B0F0E1F0660F771F881F991F1AF0FC
:1027F000BA95C9F714C0B13091F00E94BF12B1E090
:1028000008950C94BF12672F782F8827B85F39F08E
:10281000B93FCCF3869577956795B395D9F73EF494
:1028200090958095709561957F4F8F4F9F4F08953C
:1028300016F00C9468140C947B1268940C94751226
:102840000E94A512A8F39923C1F3AEF3DF93CF93AF
:102850001F930F93FF92C92FDD2788232AF021971A
:10286000660F771F881FDAF720E030E040E85FEB63
:102870009FE3883920F0803E38F021968F770E94C0
:102880000413E8E6F0E004C00E940413E5E9F0E078
:102890000E9476148B01BE01EC01FB2E6F5771096B
:1028A0007595771F880B990B0E94CD1128E132E7AF
:1028B00041E35FE30E941B12AF2D9801AE01FF9030
:1028C0000F911F91CF91DF910E941B130C948C12DA
:1028D0009F3F31F0915020F4879577956795B79594
:1028E000880F911D9695879597F90895DF93CF935B
:1028F0001F930F93FF92EF92DF927B018C016894FC
:1029000006C0DA2EEF010E941B12FE01E894A59189
:102910002591359145915591A6F3EF010E941B1326
:10292000FE019701A801DA9469F7DF90EF90FF901C
:102930000F911F91CF91DF9108950F931F93CF9324
:10294000DF938230910510F482E090E0E091210362
:10295000F091220330E020E0B0E0A0E0309799F45D
:102960002115310509F44AC0281B390B24303105E3
:10297000D8F58A819B816115710589F1FB019383EB
:102980008283FE0111C04081518102811381481769
:102990005907E0F04817590799F4109761F012961B
:1029A0000C93129713961C933296CF01DF91CF911F
:1029B0001F910F9108950093210310932203F4CFE8
:1029C0002115310551F04217530738F0A901DB01F9
:1029D0009A01BD01DF01F801C1CFEF01F9CF90935A
:1029E000220380932103CDCFFE01E20FF31F8193D9
:1029F00091932250310939832883D7CF20911F0327
:102A000030912003232B41F42091070130910801DC
:102A10003093200320931F0320910501309106017C
:102A20002115310541F42DB73EB740910901509170
:102A30000A01241B350BE0911F03F0912003E217DC
:102A4000F307A0F42E1B3F0B2817390778F0AC01D1
:102A50004E5F5F4F2417350748F04E0F5F1F5093AE
:102A6000200340931F03819391939FCFF0E0E0E018
:102A70009CCFCF93DF930097E9F0FC01329713824C
:102A80001282A0912103B0912203ED0130E020E0F9
:102A90001097A1F420813181820F931F20911F0391
:102AA000309120032817390709F061C0F093200303
:102AB000E0931F03DF91CF910895EA01CE17DF075E
:102AC000E8F54A815B819E0141155105B1F7E901A5
:102AD000FB83EA8349915991C40FD51FEC17FD0779
:102AE00061F4808191810296840F951FE901998399
:102AF0008883828193819B838A83F0E0E0E0129651
:102B00008D919C9113970097B9F52D913C91119758
:102B1000CD010296820F931F20911F033091200355
:102B20002817390739F6309751F510922203109281
:102B30002103B0932003A0931F03BCCFD383C28390
:102B400040815181840F951FC817D90761F44E5FEA
:102B50005F4F88819981480F591F518340838A8133
:102B60009B81938382832115310509F0B0CFF093C7
:102B70002203E09321039ECFFD01DC01C0CF13822D
:102B80001282D7CFB0E0A0E0E8ECF5E10C94C812D7
:102B90008C01009751F4CB010E949D148C01C80157
:102BA000CDB7DEB7E0E10C94E412FC01E60FF71FAD
:102BB0009C0122503109E217F30708F49DC0D901A6
:102BC000CD91DC911197C617D70798F0C530D10584
:102BD00030F3CE0104978617970708F3C61BD70B6F
:102BE0002297C193D1936D937C93CF010E943915A5
:102BF000D6CF5B01AC1ABD0A4C018C0E9D1EA09174
:102C00002103B0912203512C412CF12CE12C10977F
:102C100031F580911F03909120038815990509F0E3
:102C20005CC04616570608F058C080910501909187
:102C30000601009741F48DB79EB74091090150916C
:102C40000A01841B950BE817F90708F055C0F093AB
:102C50002003E0931F03F90171836083A0CF8D915E
:102C60009C91119712966C90129713967C901397E3
:102C7000A815B90559F56C0142E0C40ED11CCA145F
:102C8000DB0420F1AC014A195B09DA0112961597B1
:102C900080F06282738251834083D9016D937C936B
:102CA000E114F10471F0D7011396FC93EE9312979F
:102CB00076CF22968C0F9D1FF90191838083F301BB
:102CC000EFCFF0932203E093210369CF4816590612
:102CD00008F42C017D01D3019ACFCB010E949D14F1
:102CE0007C01009749F0AE01B8010E947F16C8012F
:102CF0000E943915870153CF10E000E050CFFB014F
:102D0000DC0102C001900D9241505040D8F7089567
:102D1000FB01DC018D91019080190110D9F3990B11
:102D20000895FB01DC0101900D920020E1F7089568
:102D300011E0C1E3D1E004C0FE010E94FD12219622
:0A2D4000C233D107C9F7F894FFCFA2
:102D4A00FFC802C802000023038000000000009CA4
:102D5A00019101FF0283018A0187018401000000B9
:102D6A0000B503C902020302047303110365030DCC
:102D7A000A0052313100523132003A586623003A81
:102D8A00596623004D313034004D31303100533112
:102D9A003032004100610072005400420043004496
:022DAA00000027
:00000001FF
