:100000000C9443010C941F0C0C94F80B0C946B0192
:100010000C946B010C946B010C946B010C94460CCA
:100020000C946B010C946B010C946B010C946B01A0
:100030000C946B010C946B010C946B010C946B0190
:100040000C94AE0B0C946B010C94C80C0C94A20C89
:100050000C946B010C946B010C946B010C946B0170
:100060000C948F0A0C946B0108000000BE92244986
:10007000123EABAAAA2ABECDCCCC4C3E00000080DA
:10008000BEABAAAAAA3E00000000BF000000803F4D
:100090000000000000084178D3BB4387D1133D190D
:1000A0000E3CC3BD4282AD2B3E68EC8276BED98F3A
:1000B000E1A93E4C80EFFFBE01C4FF7F3F0000007E
:1000C000000000407A10F35A00A0724E1809001088
:1000D000A5D4E80000E87648170000E40B540200BD
:1000E00000CA9A3B000000E1F505000080969800E8
:1000F000000040420F000000A08601000000102711
:1001000000000000E80300000000640000000000A0
:100110000A00000000000100000000002C76D888D2
:10012000DC674F0823DFC1DFAE59E1B1B796E5E3E5
:10013000E453C63AE651997696E8E6C28426EB89FE
:100140008C9B62ED407C6FFCEFBC9C9F40F2BAA59B
:100150006FA5F490055A2AF75C936B6CF9676DC133
:100160001BFCE0E40D47FEF520E6B500D0ED902E37
:100170000300943577050080841E080000204E0A95
:10018000000000C80C333333330F986E12831141D3
:10019000EF8D2114893BE65516CFFEE6DB18D1849E
:1001A0004B381BF77C1D901DA4BBE42420328472C5
:1001B0005E228100C9F124ECA1E53D273A426E237D
:1001C000003A416E2300005EBCE2613FDD83C29CC9
:1001D0007E20A3FD1F41009D23BE46DB65F88C11E8
:1001E000AF32CA57E97450323034005032303200E6
:1001F00050323033005032303700503230350050FA
:10020000323036004D313032004D31303100496EE0
:10021000697469616C697A696E672043505520433F
:100220006F72652E2E2E0000000000240027002A89
:1002300000000000080002010000030407000000A5
:10024000000000000000000000250028002B000234
:100250000000000023002600290004040404040414
:100260000404020202020202030303030303010265
:100270000408102040800102040810200102040834
:100280001020FA0CCE1211241FBECFEFD8E0DEBF33
:10029000CDBF23E0ACE5B1E001C01D92A836B207A6
:1002A000E1F711E0A0E0B1E0EAE7F4E302C0059075
:1002B0000D92AC35B107D9F711E0C2E4D1E004C02A
:1002C0002197FE010E949516C134D107C9F70E94FB
:1002D000E20D0C94301A0C9400002091E101260FDD
:1002E0003327331F21323105ECF420910702FC0142
:1002F00090E080E0243069F082E00895A091E1016F
:100300002191AC0141545E4FA40FB52FB11D2C9328
:100310000196861798F38091E101680F6093E101DF
:1003200080E0089581E00895089508950895E0918A
:10033000B6018091B501E81730F4F0E0EB56FE4FBE
:10034000808190E008958FEF9FEF08959091B6011E
:100350008091B5012FEF3FEF981748F4E92FF0E0B7
:10036000EB56FE4F208130E09F5F9093B601C901AC
:1003700008958091B5019091B601891B990B08955C
:10038000CF92DF92EF92FF920F931F93CF93DF9361
:100390007C01CB018A0120919401222389F0EB0199
:1003A0006B01C40ED51ECC15DD0569F06991D7012E
:1003B000ED91FC910190F081E02DC7010995F3CFFB
:1003C000642F0E946D01C801DF91CF911F910F91A1
:1003D000FF90EF90DF90CF900895CF93DF931F921F
:1003E000CDB7DEB76983209194012223F9F02091E3
:1003F000B701203258F021E030E0FC013383228342
:1004000090E080E00F90DF91CF9108958091B80146
:10041000E82FF0E0EC58FE4F998190838F5F809336
:10042000B8018093B70181E090E0ECCF61E0CE01AC
:1004300001960E946D01F7CF833081F028F481305E
:1004400099F08230A9F008958730A9F08830C9F07A
:100450008430B1F4809180008F7D03C08091800052
:100460008F7780938000089584B58F7784BD089539
:1004700084B58F7DFBCF8091B0008F778093B000E3
:1004800008958091B0008F7DF9CFCF93DF93282F0F
:1004900030E0F901EF5CFD4F8491F901E259FD4F25
:1004A000D491F901E65AFD4FC491CC23A1F08111FA
:1004B0000E941C02EC2FF0E0EE0FFF1FE05BFD4FEF
:1004C000A591B491EC91ED2381E090E009F480E0F6
:1004D000DF91CF91089580E090E0FACF1F93CF9302
:1004E000DF93282F30E0F901EF5CFD4F8491F90193
:1004F000E259FD4FD491F901E65AFD4FC491CC2346
:10050000A9F0162F81110E941C02EC2FF0E0EE0FD3
:10051000FF1FEB5BFD4FA591B4918FB7F894EC9161
:10052000111108C0D095DE23DC938FBFDF91CF91EE
:100530001F910895DE2BF8CF1092070281E080937F
:1005400009021092080261E082E10E946E0261E0FD
:1005500083E10E946E02E9EBF0E080818E7F808370
:1005600080818D7F808388E48093B80085E48093C8
:10057000BC000895CF93DF9391E09093BE01882350
:10058000B9F0C091B800D091BA008091BC008A7BCC
:100590008093BC0060E082E10E946E0260E083E133
:1005A0000E946E020E949C02D093BA00C093B800D1
:1005B000DF91CF910895CF93DF9390E0FC01E25952
:1005C000FD4F2491865A9D4FFC0184918823C9F0E8
:1005D00090E0880F991FFC01E95DFD4FA591B49152
:1005E000FC01EB5BFD4FC591D49161110DC09FB72C
:1005F000F8948C91209582238C93888128232883DA
:100600009FBFDF91CF910895623051F49FB7F89466
:100610003C91822F809583238C93E8812E2BEFCF02
:100620008FB7F894EC912E2B2C938FBFEACF8E507E
:10063000806480937C0080917A00806480937A004B
:1006400080917A0086FDFCCF8091780090917900AE
:1006500008953FB7F8948091700190917101A09135
:100660007201B091730126B5A89B05C02F3F19F008
:100670000196A11DB11D3FBFBA2FA92F982F882722
:10068000BC01CD01620F711D811D911D42E0660FFD
:10069000771F881F991F4A95D1F708958F929F92CF
:1006A000AF92BF92CF92DF92EF92FF926B017C01EB
:1006B0000E9429034B015C01C114D104E104F1043F
:1006C000B9F00E942903681979098A099B09683ED3
:1006D00073408105910580F321E0C21AD108E10839
:1006E000F10888EE880E83E0981EA11CB11CE4CFAF
:1006F000FF90EF90DF90CF90BF90AF909F908F9042
:1007000008952FB7F89460916C0170916D018091FC
:100710006E0190916F012FBF0895089508959091F3
:10072000040189130BC0EFE4F2E0E4919FEF909392
:100730000401E13049F028F0E23061F060E00C940F
:100740006E0210926E00FACF90916F009D7F909391
:100750006F00F4CF909170009D7F9093700091E0B6
:100760009093B0009091B100987F94609093B10005
:100770001092B300E3CF4F925F926F927F92AF924D
:10078000BF92CF92DF92EF92FF920F931F93CF937E
:10079000DF93D4E044244A94542C320140EFA42E39
:1007A00046E0B42E5FE4C52E52E0D52E0EE512E0F1
:1007B00062E7E62E62E0F62E80910401843029F58E
:1007C000F601C491C7FDBCC061E084E00E94DB0279
:1007D000CC2309F488C0C23009F099C08091B100DF
:1007E000887F82608093B1008DED8093B30040924A
:1007F000320250923302609234027092350280913C
:1008000070008260809370009BC08F3F09F098C099
:1008100084E080930401F601C491CF3F09F490C0B5
:10082000C13019F150F0C23009F43CC0C7FD88C096
:1008300061E084E00E94DB02CECF14BC15BC84B51D
:10084000826084BD85B5816085BDF8018491E82F03
:10085000F0E0EE0FFF1FEB5BFD4F85919491F701E8
:10086000849180933102C0E0AFCF1092800010924B
:100870008100809181008860809381008091810057
:10088000816080938100F8018491E82FF0E0EE0F01
:10089000FF1FEB5BFD4F85919491F701849180934D
:1008A000300292CF1092B0001092B1008091B0004F
:1008B00082608093B0008091B10081608093B1002C
:1008C000F8018491E82FF0E0EE0FFF1FEB5BFD4F86
:1008D0008591949190932F0280932E02F701849139
:1008E00080932D0271CF85B5887F826085BD8DEDA7
:1008F00087BD40923A0250923B0260923C02709255
:100900003D0280916E00826080936E0019C0C130FC
:10091000C1F580918100887F816080938100B092D1
:100920008900A0928800409236025092370260926D
:1009300038027092390280916F00826080936F005C
:100940006AEF70E080E090E00E944E0384E00E9435
:100950008F036AEF70E080E090E00E944E03D15078
:1009600009F02ACFDF91CF911F910F91FF90EF9067
:10097000DF90CF90BF90AF907F906F905F904F903F
:100980000895C23021F0C111DBCF80EFB1CF80EFED
:100990002CCFAF92BF92CF92DF92EF92FF920F9344
:1009A0001F93CF93DF936C017B018B01040F151F05
:1009B000EB015E01AE18BF08C017D10759F069916D
:1009C000D601ED91FC910190F081E02DC6010995D1
:1009D000892B79F7C501DF91CF911F910F91FF907E
:1009E000EF90DF90CF90BF90AF900895FC014481CD
:1009F0005581608171818EE392E00C94C90490E08E
:100A000080E00895FC01538D448D252F30E0842F24
:100A100090E0821B930B541710F0CF960895019726
:100A20000895FC01918D828D981761F0A28DAE0F13
:100A3000BF2FB11D5D968C91928D9F5F9F73928F9A
:100A400090E008958FEF9FEF08950F931F930E94FA
:100A5000810360934602709347028093480290930B
:100A600049028EE392E00E94110597FF1DC00E948B
:100A70008103009146021091470220914802309173
:100A80004902601B710B820B930B00914202109183
:100A9000430220914402309145026017710782079A
:100AA0009307F8F28FEF9FEF1F910F910895FC01CC
:100AB000918D828D981731F0828DE80FF11D858D13
:100AC00090E008958FEF9FEF0895FC01918D228DA6
:100AD000892F90E0805C9F4F821B91098F7399272B
:100AE00008958EE392E00E94650521E0892B09F4C8
:100AF00020E0822F089580E090E0892B29F00E9469
:100B0000710581110C9400000895FC01A48DA80FBB
:100B1000B92FB11DA35ABF4F2C91848D90E001963F
:100B20008F739927848FA689B7892C93A089B1895F
:100B30008C91837080648C93938D848D981306C000
:100B40000288F389E02D80818F7D80830895EF9264
:100B5000FF920F931F93CF93DF93EC0181E0888F77
:100B60009B8D8C8D98131AC0E889F989808185FF47
:100B700015C09FB7F894EE89FF896083E889F989E9
:100B800080818370806480839FBF81E090E0DF91EB
:100B9000CF911F910F91FF90EF900895F62E0B8D3E
:100BA00010E00F5F1F4F0F731127E02E8C8D8E11F9
:100BB0000CC00FB607FCFACFE889F989808185FF60
:100BC000F5CFCE010E948505F1CFEB8DEC0FFD2F07
:100BD000F11DE35AFF4FF0829FB7F8940B8FEA891B
:100BE000FB8980818062CFCFCF93DF93EC01888D2A
:100BF0008823B9F0AA89BB89E889F9898C9185FD98
:100C000003C0808186FD0DC00FB607FCF7CF8C9125
:100C100085FFF2CF808185FFEDCFCE010E94850553
:100C2000E9CFDF91CF910895DC0180E0615090F031
:100C30009D919827E92FEF70F0E0EA53FE4F249141
:100C4000E92FE295EF70F0E0EA52FE4FE491822F37
:100C50008E27ECCF0895DC012C911196ED91FC913B
:100C6000F8948181822B81839281322F3095932356
:100C7000928387E090E00197F1F78181832381835C
:100C800083E290E00197F1F790817894EFECF0E047
:100C90003197F1F7922381E009F480E00895FC0197
:100CA00090810180F281E02D292F209560FF14C0F2
:100CB000F8948281822382838181892B8183A3E2BC
:100CC000B0E01197F1F78281982B9283789487EDA9
:100CD00090E00197F1F70895F8948281822382834E
:100CE0008181892B8183AFEFB0E01197F1F7828189
:100CF000982B928378948FE090E0EBCFEF92FF9265
:100D00000F931F93CF93DF93EC01E62E08E010E0E2
:100D1000FF24F39461E08E2D8F2109F460E0CE0171
:100D20000E944F06FF0C01501109A1F7F894E981C8
:100D3000FA8191818881809589238183E981FA8173
:100D4000928188818095892382837894DF91CF91E5
:100D50001F910F91FF90EF900895EF92FF920F93E4
:100D60001F93CF93DF938C017B0165E50E947E0684
:100D7000E70188E0E80EF11C6991C8010E947E0637
:100D8000CE15DF05C9F7DF91CF911F910F91FF902D
:100D9000EF900895FC0190810180F281E02DF8949C
:100DA0008181292F20958223818378943DE743E038
:100DB00050E0315029F1DA011197F1F78081892350
:100DC000C1F3F8948281822382838181892B81837C
:100DD0007894ABE7B7E01197F1F7F894818182231B
:100DE0008183A3E1B1E01197F1F78081982381E03D
:100DF00009F080E07894E3E6F6E03197F1F70895A2
:100E000080E00895FC0181E090E0A0E0B0E004C043
:100E1000880F991FAA1FBB1F6A95D2F72389282B19
:100E2000238B2489282B248B809595899823958B57
:100E300097899823978B96898923868B08958F921B
:100E40009F92AF92BF92CF92DF92EF92FF920F9359
:100E50001F93CF93DF93EC0184E088A71092B60133
:100E60001092B5011092B8011092B7010E949C0235
:100E700084E991E09093E0018093DF0185E991E0BE
:100E80009093E4018093E3018B892D89811103C044
:100E9000222309F4C1C08D859E85388541E04093A9
:100EA000940130935C016C89622B698FDC01ED91B8
:100EB000FC910190F081E02D09959C898E89892B08
:100EC0008A8F888F9F8F0091B70181E0013208F0EF
:100ED0009CC010915C010E9429036B017C018091F0
:100EE000070281116CC082E08093070281E0809349
:100EF00009028FEF8093060210922B0200932A02C0
:100F0000E4E7F1E0AAE0B2E080E00813B6C0109296
:100F10002C0280912C02110F182B10932C0280911F
:100F20000802813009F0ADC0109208020E94290326
:100F30006B017C0180912C028093BB008091BA01EF
:100F40009091BB01A091BC01B091BD01892B8A2B6E
:100F50008B2BA1F00E9429030091BA011091BB01D3
:100F60002091BC013091BD016C197D098E099F094A
:100F7000061717072807390708F442C08091BC00FC
:100F800083FDD8CF85EC8093BC000E9429036B01C0
:100F90007C0180910702823009F475C080910602BD
:100FA0008F3F09F492C080910602803209F48FC00D
:100FB00080910602803309F48CC084E026C08091C1
:100FC000BA019091BB01A091BC01B091BD01892BE8
:100FD0008A2B8B2B09F483CF0E9429038090BA01BE
:100FE0009090BB01A090BC01B090BD016C197D092F
:100FF0008E099F0986169706A806B90608F06FCFD6
:101000008091B9010E94BA0285E01092B801109255
:10101000B7011092940188A78F858823B9F062E008
:1010200088890E94DB0289899A892889223009F4FB
:1010300052C0233059F490930301809302018091B0
:101040006900837F886080936900E99A0E94810328
:101050006B8F7C8F8D8F9E8F81E098A5911180E0A2
:10106000DF91CF911F910F91FF90EF90DF90CF9084
:10107000BF90AF909F908F90089591919D938F5FB7
:1010800044CF85EE80CF8091BA019091BB01A091B1
:10109000BC01B091BD01892B8A2B8B2B09F479CF30
:1010A0000E9429030091BA011091BB012091BC015B
:1010B0003091BD016C197D098E099F09061717072C
:1010C0002807390708F065CF9BCF80E09ECF82E0EC
:1010D0009CCF83E09ACF909301018093000180918F
:1010E00069008C7F826080936900E89AAFCF42E00C
:1010F00050E06FE271E08EE392E00C94C904CF936C
:10110000DF93FC0101900020E9F73197AF01481B04
:10111000590BBC018EE392E00E94C904EC010E94CD
:1011200077088C0F9D1FDF91CF9108950F931F9328
:10113000CF93DF938C01D0E0C0E0F801EC0FFD1FEE
:101140006491662341F08EE392E00E94A705892B0B
:1011500011F02196F2CF0E9477088C0F9D1FDF912E
:10116000CF911F910F91089585ED8093BC008091E0
:10117000BA019091BB01A091BC01B091BD0107964D
:10118000A11DB11D23E0B695A795979587952A9542
:10119000D1F72091BC0024FD03C0109207020895EE
:1011A0004091BA015091BB016091BC017091BD01A9
:1011B000452B462B472B69F30097A105B10541F05C
:1011C00025E32A95F1F700000197A109B109E1CFC4
:1011D0008091B9010C94BA02CF93DF93EC0188811E
:1011E0009981009711F00E94D118198218821D82EE
:1011F0001C821B821A82DF91CF910895FC018081AD
:101200009181009711F00C94D11808950F931F93BA
:10121000CF93DF93EC0188819981009759F02A815F
:101220003B812617370730F081E0DF91CF911F9186
:101230000F9108958B016F5F7F4F0E945A1900979D
:1012400059F0998388831B830A832C813D81232B4A
:1012500059F7FC011082E8CF80E0E7CFEF92FF92D0
:101260000F931F93CF93DF936115710541F480E0D5
:10127000DF91CF911F910F91FF90EF90089541154D
:101280005105B1F07B01EC010C811D81040F151F8C
:10129000B8010E940609882351F3288139818C8185
:1012A0009D81B701820F931F0E94291A1D830C8311
:1012B00081E0DECFEF92FF920F931F93CF93DF93E6
:1012C000CDB7DEB764970FB6F894DEBF0FBECDBFC3
:1012D0007C01CB01BA018E010F5F1F4F22E044E079
:1012E0000E94D212FC0101900020E9F73197AF0172
:1012F000481B590BBC01C7010E942E09811103C074
:10130000C7010E94EC08C70164960FB6F894DEBFCF
:101310000FBECDBFDF91CF911F910F91FF90EF9046
:101320000895CF93DF93EC01FB0101900020E9F7D2
:101330003197AF01461B570B0E942E09811103C044
:10134000CE010E94EC08CE01DF91CF910895EF927B
:10135000FF920F931F93CF93DF93EC017B018A01E0
:10136000BA010E94060981110BC0CE010E94EC084F
:10137000CE01DF91CF911F910F91FF90EF900895D3
:101380001D830C83B701888199810E94291AF0CFAF
:10139000FB0101900020E9F73197AF01461B570B85
:1013A0000C94A709FB0101900020E9F73197AF01E8
:1013B000461B570B0C94A7090F931F93CF93DF93F2
:1013C00000D000D000D0CDB7DEB7182F062F1A827C
:1013D00019821C821B821E821D8261E371E0CE0194
:1013E00001960E94D20962E371E0112311F066E3D5
:1013F00071E0CE0101960E94C809812F01112BC016
:101400000E944502892BD9F060E0812F0E946E0274
:10141000CE0101960E94F60481EC91E00E949608AC
:10142000CE0101960E94FE0826960FB6F894DEBF04
:101430000FBECDBFDF91CF911F910F910895812FE6
:101440000E944502892B61F7CE0101960E94F604A5
:101450008CEB91E0E3CF0E944502019769F061E0D7
:10146000812F0E946E02CE0101960E94F6048AE34B
:1014700091E00E947F08D4CF812F0E9445020197FE
:1014800079F6CE0101960E94F6048FE391E0F1CF48
:10149000CF92DF92EF92FF922AE038E240EA5BE3DC
:1014A0000E94A0156B017C01AC019B0160E070E023
:1014B00080EA90E40E949B1620E030E44CE156E480
:1014C0000E9408179B01AC01C701B6010E940817D2
:1014D00020E030E44CE156E40E9408170E94B8175F
:1014E00020E030E948E755E40E9408172FE03FEC80
:1014F0004BE55BE30E949C169B01AC0160E070E051
:1015000080E89FE30E94081723E333E948E853E4A7
:101510000E949B16FF90EF90DF90CF9008951F924E
:101520000F920FB60F9211242F933F934F935F9317
:101530006F937F938F939F93AF93BF93EF93FF939B
:101540008091B900887F803609F44AC0F0F588326E
:1015500009F4A7C018F5803109F49BC0B8F48823BA
:1015600009F4F9C0883009F494C0FF91EF91BF915C
:10157000AF919F918F917F916F915F914F913F912B
:101580002F910F900FBE0F901F901895883109F47E
:1015900088C0803251F78093060214C0803409F469
:1015A0009DC040F48033B9F38833F9F68093060286
:1015B00085ECB0C0803509F485C0883509F496C043
:1015C000883499F60E94B408D0CF883909F48CC0C9
:1015D00038F5883729F050F4883611F0803729F62D
:1015E00083E0809307021092050257C0883809F4FF
:1015F0007BC0803919F0803809F0B7CF809105029F
:10160000803208F071C0E091050281E08E0F809376
:1016100005028091BB00F0E0EB51FE4F80833DC09E
:10162000803B39F0E0F4803A09F479C0883A09F057
:101630009CCF84E0809307021092E2011092E101B6
:10164000E091DF01F091E00109958091E1018111C4
:101650000FC081E08093E1011092BF0109C0803C7E
:1016600009F4A6CF883C09F4A3CF883B09F07DCFCD
:10167000E091E20181E08E0F8093E201F0E0E1541D
:10168000FE4F80818093BB009091E2018091E10147
:1016900029C080912C028093BB0085EC8093BC0014
:1016A00064CF90912B0280912A02981758F5E0910F
:1016B0002B0281E08E0F80932B02F0E0E65FFD4F5E
:1016C0008081E9CFE0912B0281E08E0F80932B0285
:1016D0008091BB00F0E0E65FFD4F808390912B028C
:1016E00080912A029817C8F285E8D8CFE0912B02A2
:1016F00081E08E0F80932B028091BB00F0E0E65FCB
:10170000FD4F80838091090281115CCF81E080933D
:10171000080284EA8093BC001092070226CF85EC71
:101720008093BC001092070280910502803230F451
:10173000E0910502F0E0EB51FE4F1082609105024E
:1017400070E0E091E301F091E40185EE91E009950C
:10175000109205020ACF1092060234CF1F920F9208
:101760000FB60F9211242F933F938F939F93AF93B4
:10177000BF9380916C0190916D01A0916E01B09129
:101780006F0130916B0123E0230F2D3758F501963F
:10179000A11DB11D20936B0180936C0190936D018D
:1017A000A0936E01B0936F018091700190917101CF
:1017B000A0917201B09173010196A11DB11D80939A
:1017C000700190937101A0937201B0937301BF9166
:1017D000AF919F918F913F912F910F900FBE0F90DE
:1017E0001F90189526E8230F0296A11DB11DD2CF98
:1017F0001F920F920FB60F9211242F933F934F9386
:101800005F936F937F938F939F93AF93BF93EF9368
:10181000FF93E0910201F09103010995FF91EF918F
:10182000BF91AF919F918F917F916F915F914F91F8
:101830003F912F910F900FBE0F901F9018951F9200
:101840000F920FB60F9211242F933F934F935F93F4
:101850006F937F938F939F93AF93BF93EF93FF9378
:10186000E0910001F09101010995FF91EF91BF9185
:10187000AF919F918F917F916F915F914F913F9128
:101880002F910F900FBE0F901F9018951F920F92DF
:101890000FB60F9211242F933F934F935F936F9343
:1018A0007F938F939F93AF93BF93EF93FF93809119
:1018B000320290913302A0913402B0913502892B0B
:1018C0008A2B8B2BD1F190912D02E0912E02F09179
:1018D0002F02808189278083809132029091330288
:1018E000A0913402B0913502181619061A061B068B
:1018F0009CF48091320290913302A0913402B09115
:1019000035020197A109B109809332029093330205
:10191000A0933402B0933502FF91EF91BF91AF9144
:101920009F918F917F916F915F914F913F912F91F7
:101930000F900FBE0F901F901895809104010E9488
:101940008F03EACF1F920F920FB60F9211242F939D
:101950003F934F935F936F937F938F939F93AF9337
:10196000BF93EF93FF938EE392E00E948505FF9172
:10197000EF91BF91AF919F918F917F916F915F9107
:101980004F913F912F910F900FBE0F901F90189580
:101990001F920F920FB60F9211242F938F939F9344
:1019A000EF93FF93E0914E02F0914F028081E0911E
:1019B0005402F091550282FD1BC090818091570224
:1019C0008F5F8F7320915802821741F0E091570288
:1019D000F0E0E25CFD4F958F80935702FF91EF910D
:1019E0009F918F912F910F900FBE0F901F90189580
:1019F0008081F4CFCF93DF93ABEDB2E013961C92CE
:101A00001E92129748EE53E060E070E014964D93FA
:101A10005D936D937C9317978FE091E011969C9363
:101A20008E93EEE3F2E01382128244835583668341
:101A3000778381E291E09183808385EC90E09587C4
:101A4000848784EC90E09787868780EC90E0918B88
:101A5000808B81EC90E0938B828B82EC90E0958B75
:101A6000848B86EC90E0978B868B118E128E138E72
:101A7000148EEBE3F3E0C2E1D0E0D287C18763E1EB
:101A800070E074876387178642E0408B128A118A60
:101A9000138A148A158A168A178A108E118E128E4E
:101AA000138E148E158E168E178E10A211A213A2ED
:101AB00012A22AE030E035A324A39BE496A381EE92
:101AC00087A310A6B687A58750E25087E2E1F3E02E
:101AD000D287C187748763871786408B128A118AE1
:101AE000138A148A158A168A178A108E118E128EFE
:101AF000138E148E158E168E178E10A211A213A29D
:101B000012A235A324A396A387A310A6B687A58700
:101B100081E2808760E087E00E94DB02E5E7F2E097
:101B2000E491A4E0B3E0EC93E1E6F2E0E491F0E0CC
:101B3000EE0FFF1FE05BFD4F8591949112969C93F1
:101B40008E9311971B961C921B971D961C921D97A6
:101B50001C961C921C971A961C921A9719961C9206
:101B6000199718961C92189717961C921797169605
:101B70001C92169715961C92159714961C92149702
:101B800013961C921397EDEEF2E0168A158A1182D5
:101B9000B287A18717821086108289E0838381E053
:101BA000848385838683E7EEF2E0118210821382BC
:101BB00012821582148261E371E0CF01DF91CF912F
:101BC0000C94D209CF93DF93CDB7DEB765970FB6EC
:101BD000F894DEBF0FBECDBF789484B5826084BD1B
:101BE00084B5816084BD85B5826085BD85B5816021
:101BF00085BD80916E00816080936E00109281009F
:101C00008091810082608093810080918100816059
:101C1000809381008091800081608093800080911A
:101C2000B10084608093B1008091B00081608093A6
:101C3000B00080917A00846080937A0080917A006D
:101C4000826080937A0080917A00816080937A002C
:101C500080917A00806880937A001092C10061E0E0
:101C60008CE00E946E0264E670E080E090E00E94EA
:101C70004E0361E089E00E94DB0264E670E080E0F0
:101C800090E00E944E0361E089E00E94DB0260E088
:101C900089E00E946E0264E670E080E090E00E94BD
:101CA0004E03E0914E02F0914F0282E08083E0917A
:101CB0004A02F0914B021082E0914C02F0914D02E9
:101CC0008FEC808310925602E0915202F091530201
:101CD00086E08083E0915002F09151028081806122
:101CE0008083E0915002F09151028081886080836E
:101CF000E0915002F0915102808180688083E091F0
:101D00005002F091510280818F7D808384E491E0C4
:101D10000E947F0864E670E080E090E00E944E033D
:101D20008EE092E00E94960864EC79E080E090E01A
:101D30000E944E0360E08EE00E94DB0260E08FE0D4
:101D40000E94DB0260E080E10E94DB0260E081E152
:101D50000E94DB0261E08CE00E94DB0261E08DE02A
:101D60000E94DB0289E092E00E94960868EE73E030
:101D700080E090E00E944E0360E08BE393E00E94DD
:101D8000020761E08BE393E00E94020762E08BE3CD
:101D900093E00E94020763E08BE393E00E94020756
:101DA00064E08BE393E00E94020765E08BE393E03D
:101DB0000E94020766E08BE393E00E94020767E05F
:101DC0008BE393E00E94020780EF91E00E94960867
:101DD0008BE393E00E941F07882309F4B0C08BEEC9
:101DE00091E00E9496080E94BB0368EE73E080E0D9
:101DF00090E00E944E0360E082E193E00E940207BF
:101E000061E082E193E00E94020762E082E193E0F8
:101E10000E94020763E082E193E00E94020764E00F
:101E200082E193E00E94020765E082E193E00E9474
:101E3000020766E082E193E00E94020767E082E128
:101E400093E00E9402078FEF91E00E94960882E1E2
:101E500093E00E941F07882309F476C08AEF91E07F
:101E60000E9496080E94BB0368EE73E080E090E059
:101E70000E944E03E091F602F091F7021386158658
:101E80001486128611861086178216821582148295
:101E900013821092F4021092F50277247394662450
:101EA00063946E018AE0C80ED11C0091F602109175
:101EB000F702D8011D968C91882309F44AC0F801D5
:101EC00013861586148689E491E00E947F0884E0D9
:101ED00092E00E9496086EEE72E080E090E00E9430
:101EE0004E032AE3222E22E0322E00E010E08EE3A1
:101EF00092E00E946505181619060CF0FFC11A82BF
:101F000019821C821B821E821D8261E371E0CE0158
:101F100001960E94D2090E94250597FD40C18A3092
:101F2000910509F43CC18A871B8641E050E0BE015F
:101F3000665F7F4FCE0101960E942E09ECCF86EEA0
:101F400091E00E94960851CF85EF91E00E9496089B
:101F50008BCFC8010E94CA0681110AC0D8011B9606
:101F60001C921B971D961C921D971C961C92ABCF22
:101F700060EFC8010E947E06EE24E394A12C912C10
:101F8000FF24F394C8010E942B06B82EC8010E94BA
:101F90002B06B1E0BB1272C0813009F091C0E0E4C1
:101FA000EF1508F08CCFD8011B969C921B979110CF
:101FB00002C01D967C92F8018381882309F47FCFAB
:101FC000D8011396FE013A96055F1F4F7F018D9150
:101FD0008193A017B107D9F767E0C7010E941406E3
:101FE0009989891362CF8091F4028F5F8093F40204
:101FF0008A85883239F008F07AC0803119F082324F
:1020000009F053CF8091F5028F5F8093F5028091A4
:10201000ED02811125C08091F6029091F7020E9495
:10202000CA06B7018091F6029091F7020E94AD06B0
:1020300064EB8091F6029091F7020E947E068091F7
:10204000F6029091F7020E942B06182F8091F6025B
:102050009091F7020E94CA06111102C06092ED022F
:102060008A85803109F48EC08091F6029091F70242
:102070000E94CA06811142C080E087C0EA2DF0E0CC
:10208000B81214C0D8011B968C911B97F816B0F4A7
:10209000AE0FBF1F13968C918E2191F4B12CB8E036
:1020A000BF1518F0D8011C96FC929F2CE00FF11F71
:1020B00083819E2D9095892383830AC08F11EECF53
:1020C000F801EA0DF11D83818E298383BB24B3942B
:1020D0006B2DC8010E944F06F394EE0C19F4A394E3
:1020E000EE24E394B7E0BA1508F04CCF58CF8B3309
:1020F00009F488CF823409F0D8CE84CFB70180911B
:10210000F6029091F7020E94AD066EEB8091F60206
:102110009091F7020E947E068E010F5F1F4F78019B
:1021200018018090F6029090F70238E0A32EB12CAF
:10213000512C44244394C4010E942B06811154283D
:10214000440CF1E0AF1AB108B1F7D7015D927D01FF
:10215000CA16DB0631F78091F6029091F7020E94D1
:10216000CA06813009F088CFF80181918F01811171
:10217000FEC1EE15FF05C1F77FCF8F3571F08F37A8
:1021800009F07ACF8CE001C08AE09091F0029817B4
:1021900008F08BCE8093F00288CE8BE0F6CF809152
:1021A000E7029091E802009709F46DC169817A8194
:1021B0006115710509F465C14091E9025091EA0287
:1021C0002D813E814217530708F45BC10E94291AF2
:1021D0008D819E819093EC028093EB021E821D8282
:1021E000CE0101960E94FE088091EB029091EC02D4
:1021F000892BC1F0E090E702F090E8026EE471E014
:10220000C7010E94201A61E0892B49F060E571E066
:10221000C7010E94201A892B09F04CC160E08DE0B3
:102220000E946E02C090EB02D090EC02C114D10467
:1022300031F0E091E702F091E802309721F410923A
:102240005D01EDE5F1E08081833709F057C0AA24F4
:10225000A394B12CC114D10421F05601CC24C39411
:10226000D12C1A8219821C821B821E821D8261E37C
:1022700071E0CE0101960E94D209E090EB02F0904D
:10228000EC02CE14DF0410F5AE14BF0408F475019F
:10229000E091E702F091E802EE0DFF1DB0801082A0
:1022A0006091E7027091E8026C0D7D1DCE010196F0
:1022B0006115710509F409C10E94C8098091E702FE
:1022C0009091E802E80EF91ED701BC9289819A81AB
:1022D000F12C009719F00E94F012F62EF0926A018C
:1022E000CE0101960E94FE0861E089E00E94DB02B7
:1022F000F110EEC060E089E00E946E028FE00E9463
:102300001703BC01990F880B990B0E9465150E9459
:10231000480A2B013C01409266015092670160928D
:102320006801709269018EE00E941703BC01990F49
:10233000880B990B0E9465150E94480A4B015C01AD
:102340008092620190926301A0926401B092650153
:1023500080E10E941703BC01990F880B990B0E9422
:1023600065150E94480A6B017C01C0925E01D09203
:102370005F01E0926001F092610181E10E94170328
:10238000BC01990F880B990B0E9465150E94480AA1
:102390006A8B7B8B8C8B9D8B1B861A861D861C867D
:1023A0001F861E8664E571E0CE010A960E94D2095E
:1023B0001A8219821C821B821E821D826A857B857D
:1023C0006115710531F04E855F85CE0101960E9441
:1023D000A709B301A201CE0101960E945A096EE439
:1023E00071E00E949109B501A4010E945A0966E5B5
:1023F00071E00E949109B701A6010E945A0968E59F
:1024000071E00E9491094A895B896C897D890E94EB
:102410005A096AE571E00E9491090E94F6040E943F
:102420007708CE0101960E94FE08CE010A960E940E
:10243000FE0860916601709167018091680190913A
:1024400069010E947A176E3071050CF08AC061E054
:1024500080E00E94DC0961E081E00E94DC0968EE16
:1024600073E080E090E00E944E030115110509F42D
:102470003ECD0E947105882309F439CD0E940000E9
:1024800036CD0E94D11889819A819093E802809379
:10249000E7028B819C819093EA028093E9028D810F
:1024A0009E819093EC028093EB021A8219821C8227
:1024B0001B8294CE62E571E0C7010E94201A892B2D
:1024C00009F0B0CE60E08CE0ABCE0E94EC08F6CE16
:1024D000BFEFFB1202C061E00ECFF10184918330A7
:1024E00021F138F48130B9F08230D1F0F7FCF3CF2C
:1024F00001CF873031F1883061F18430B9F78091B4
:1025000080008062809380008F2D90E090938B00FC
:1025100080938A00F3CE84B5806884BDF7BCEECE8C
:1025200084B5806284BDF8BCE9CE8091800080686B
:10253000809380008F2D90E0909389008093880095
:10254000DDCE8091B00080688093B000F092B3003F
:10255000D5CE8091B00080628093B000F092B4003C
:10256000CDCE673171050CF47ACF60E071CF68E0B1
:10257000C1010E941406998589137ECD8D819A85AB
:102580009B3311F487FDFECD8F3309F4FDCD08F0A8
:10259000F4CD8F3109F070CD89E0F7CD87EE92E070
:1025A0000C94FE08EF920F931F93CF93DF93E801F3
:1025B00034E047FD34E1042E000C550B57FF03C0F7
:1025C000519541955109E32E022F242FAE010E940F
:1025D0002C13CE01DF91CF911F910F91EF900895B1
:1025E0001F93FC0199278827BC01E89411911032B0
:1025F000E9F3193010F01E30C8F31B3251F01D32D0
:1026000049F4689406C00E941713610F711D811D63
:10261000911D119110531A30B0F33EF490958095AE
:10262000709561957F4F8F4F9F4F1F910895592F40
:10263000482F372F262F660F771F881F991F660F89
:10264000771F881F991F620F731F841F951F660FC6
:10265000771F881F991F0895A9E0B0E0E2E3F3E136
:102660000C9464166A01F22EB02E102FFBE3AF2EED
:10267000A01608F41BE31F5F012F27E0AE014F5F98
:102680005F4F0E948B14BC018981982F9970913003
:1026900009F43FC09BE2E1FC04C09E2D9170E0FC78
:1026A0003AC05E2D5071E82FE87083FF46C084E089
:1026B000911101C083E0EF2DE81B8F1508F0E0E0D9
:1026C000D6018E2F20E2552351F1992329F0D6010E
:1026D0009C93C60101966C0196012D5F3F4FE2FE6F
:1026E00024C08EE4D6018C9391E411969C931197AB
:1026F00012968C93D9018E2F90E281111BC0E20FAC
:10270000F32FF11D10828EEF9FEF2996ECE00C94D1
:1027100080169DE2C6CF90E2C4CF2D9381508111E7
:10272000FCCFCE0ED11CE0E0D0CF8EE6D6018C934C
:1027300091E6DBCF9D938150E0CF482F447082FF1C
:102740003DC084E0911101C083E08F1510F4EF2D9E
:10275000E81BD6018E2F20E2552309F1992329F099
:10276000D6019C93C60101966C0196012D5F3F4FE7
:10277000E2FE1BC089E4D6018C938EE411968C9303
:10278000119786E412968C93D9018E2F90E28823BC
:1027900009F4B5CF9D938150FACF2D9381508111CB
:1027A000FCCFCE0ED11CE0E0D9CF89E6D6018C93C8
:1027B0008EE611968C93119786E6E4CF9B0177FF06
:1027C00002C030E020E0A1E0B0E0911102C0B0E032
:1027D000A0E0F9013196AE0FBF1F8B2C912CBB20CE
:1027E00009F461C05401EFEFAE1ABE0AAA0DBB1D79
:1027F000FA161B0619F014F04F2D4A1B511188C010
:10280000E3FC59C07601A42FB0E2A1114FC0C40E61
:10281000D11C992309F45BC040E0D6011196F60162
:1028200090836D01552309F448C0012F060F9A814A
:10283000582F507184FF03C0913309F401501016D2
:102840000CF047C0093008F008E0EEE2FE2E5B0114
:10285000A01AB10885019194819491082F3F320705
:1028600029F4D601FC92F60131966F0162177307C5
:1028700094F1021713077CF5DB01A21BB30BAA240A
:10288000A394B12CAC0EBD1EAA0DBB1D11968C914C
:1028900021503109D601119628153905F4F0F601B9
:1028A00080836D01DBCFB12CA12CA0CFF701B193B8
:1028B0007F01A150AACF9111B0CFD601942F50E340
:1028C00002C05D9391509111FCCFC40ED11C40E029
:1028D000ACCF01E0BACF80E3DBCF6217730731F4EE
:1028E000963388F4953311F4552369F0F60180830B
:1028F000FD01842F90E2811108C0A40FB11D1C922C
:1029000090E080E002CF81E3F1CF91938150F3CF4B
:10291000911183CF8ACF283008F027E03327DA01DE
:10292000990F311D87FD916000966105710539F49D
:1029300032602E5F3D9330E32A95E1F708959F3F83
:1029400030F080387105610509F03C5F3C5F3D93D4
:10295000913008F08068911DDF93CF931F930F9300
:10296000FF92EF92192F987F9695E92F969596955D
:10297000E90FFF27E45EFE4F99273327EE24FF245B
:10298000A701E70105900894079428F4360FE71E85
:10299000F81E491F511D660F771F881F991F069447
:1029A000A1F70590079428F4E70EF81E491F561F5B
:1029B000C11D770F881F991F661F0694A1F7059008
:1029C000079428F4F80E491F561FC71FD11D880F02
:1029D000991F661F771F0694A1F70590079420F4AE
:1029E000490F561FC71FD81F990F661F771F881FD3
:1029F0000694A9F784911095177041F0D695C79564
:102A000057954795F794E7941A95C1F7E2ECF0E0F3
:102A100068941590159135916591959105907FE297
:102A20007395E118F10A430B560BC90BD009C0F797
:102A3000E10CF11E431F561FC91FD01D7EF47033D9
:102A400011F48A95E6CFE894015030F0080F0AF4AB
:102A50000027021708F4202F2395022F7A3328F03D
:102A600079E37D932A95E9F710C07D932A9589F63D
:102A7000069497956795379517951794E118F10A7D
:102A8000430B560BC90BD00998F023957E91739593
:102A90007A3308F070E37C932013B8F77E9170616D
:102AA0007D9330F0839571E37D9370E32A95E1F790
:102AB0001124EF90FF900F911F91CF91DF919927F3
:102AC00087FD90950895E89409C097FB3EF4909592
:102AD0008095709561957F4F8F4F9F4F9923A9F0F7
:102AE000F92F96E9BB279395F69587957795679586
:102AF000B795F111F8CFFAF4BB0F11F460FF1BC0CA
:102B00006F5F7F4F8F4F9F4F16C0882311F096E95C
:102B100011C0772321F09EE8872F762F05C066230A
:102B200071F096E8862F70E060E02AF09A95660FC3
:102B3000771F881FDAF7880F9695879597F908957C
:102B40000E94B3150C9424160E94161638F00E94A9
:102B50001D1620F0952311F00C940D160C941316ED
:102B600011240C9458160E94351670F3959FC1F3EA
:102B7000950F50E0551F629FF001729FBB27F00D2B
:102B8000B11D639FAA27F00DB11DAA1F649F662780
:102B9000B00DA11D661F829F2227B00DA11D621FCF
:102BA000739FB00DA11D621F839FA00D611D221F89
:102BB000749F3327A00D611D231F849F600D211D6D
:102BC000822F762F6A2F11249F5750409AF0F1F0F0
:102BD00088234AF0EE0FFF1FBB1F661F771F881F59
:102BE00091505040A9F79E3F510580F00C940D166E
:102BF0000C9458165F3FE4F3983ED4F3869577958E
:102C00006795B795F795E7959F5FC1F7FE2B880FFE
:102C1000911D9695879597F9089597F99F6780E894
:102C200070E060E008959FEF80EC089500240A941E
:102C30001616170618060906089500240A94121697
:102C40001306140605060895092E0394000C11F4CA
:102C5000882352F0BB0F40F4BF2B11F460FF04C077
:102C60006F5F7F4F8F4F9F4F089557FD9058440FD0
:102C7000551F59F05F3F71F04795880F97FB991FDB
:102C800061F09F3F79F08795089512161306140698
:102C9000551FF2CF4695F1DF08C016161706180625
:102CA000991FF1CF86957105610508940895E89400
:102CB000BB2766277727CB0197F908952F923F927C
:102CC0004F925F926F927F928F929F92AF92BF923C
:102CD000CF92DF92EF92FF920F931F93CF93DF93E8
:102CE000CDB7DEB7CA1BDB0B0FB6F894DEBF0FBE45
:102CF000CDBF09942A88398848885F846E847D8492
:102D00008C849B84AA84B984C884DF80EE80FD8093
:102D10000C811B81AA81B981CE0FD11D0FB6F89409
:102D2000DEBF0FBECDBFED010895EE0FFF1F059072
:102D3000F491E02D09945058BB27AA270E94B3169E
:102D40000C9424160E94161638F00E941D1620F0CE
:102D500039F49F3F19F426F40C9413160EF4E09501
:102D6000E7FB0C940D16E92F0E94351658F3BA179D
:102D7000620773078407950720F079F4A6F50C9491
:102D800057160EF4E0950B2EBA2FA02D0B01B901AA
:102D900090010C01CA01A0011124FF27591B99F0D1
:102DA000593F50F4503E68F11A16F040A22F232FDD
:102DB000342F4427585FF3CF469537952795A7952D
:102DC000F0405395C9F77EF41F16BA0B620B730BD4
:102DD000840BBAF09150A1F0FF0FBB1F661F771F45
:102DE000881FC2F70EC0BA0F621F731F841F48F4FA
:102DF000879577956795B795F7959E3F08F0B0CF83
:102E00009395880F08F09927EE0F97958795089569
:102E10000E941C170C9424160E941D1658F00E9444
:102E2000161640F029F45F3F29F00C940D1651114D
:102E30000C9458160C9413160E94351668F39923B7
:102E4000B1F3552391F3951B550BBB27AA276217A6
:102E50007307840738F09F5F5F4F220F331F441FB3
:102E6000AA1FA9F335D00E2E3AF0E0E832D09150E7
:102E70005040E695001CCAF72BD0FE2F29D0660FD4
:102E8000771F881FBB1F261737074807AB07B0E817
:102E900009F0BB0B802DBF01FF2793585F4F3AF01D
:102EA0009E3F510578F00C940D160C9458165F3F18
:102EB000E4F3983ED4F3869577956795B795F795A3
:102EC0009F5FC9F7880F911D9695879597F908958B
:102ED000E1E0660F771F881FBB1F62177307840727
:102EE000BA0720F0621B730B840BBA0BEE1F88F736
:102EF000E09508950E9481176894B1110C945816BA
:102F000008950E943D1688F09F5798F0B92F992791
:102F1000B751B0F0E1F0660F771F881F991F1AF0C4
:102F2000BA95C9F714C0B13091F00E945716B1E0BC
:102F300008950C945716672F782F8827B85F39F0BB
:102F4000B93FCCF3869577956795B395D9F73EF45D
:102F500090958095709561957F4F8F4F9F4F089505
:102F600016F00C9400180C94131668940C940D161B
:102F70000E943D16A8F39923C1F3AEF3DF93CF93DC
:102F80001F930F93FF92C92FDD2788232AF02197E3
:102F9000660F771F881FDAF720E030E040E85FEB2C
:102FA0009FE3883920F0803E38F021968F770E9489
:102FB0009C16E8E6F0E004C00E949C16E5E9F0E00B
:102FC0000E940E188B01BE01EC01FB2E6F57710998
:102FD0007595771F880B990B0E94651528E132E7DC
:102FE00041E35FE30E94B315AF2D9801AE01FF905E
:102FF0000F911F91CF91DF910E94B3160C9424166C
:103000009F3F31F0915020F4879577956795B7955C
:10301000880F911D9695879597F90895DF93CF9323
:103020001F930F93FF92EF92DF927B018C016894C4
:1030300006C0DA2EEF010E94B315FE01E894A591B7
:103040002591359145915591A6F3EF010E94B31654
:10305000FE019701A801DA9469F7DF90EF90FF90E5
:103060000F911F91CF91DF9108950F931F93CF93ED
:10307000DF938230910510F482E090E0E0916603E6
:10308000F091670330E020E0B0E0A0E0309799F4E1
:103090002115310509F44AC0281B390B24303105AC
:1030A000D8F58A819B816115710589F1FB019383B4
:1030B0008283FE0111C04081518102811381481732
:1030C0005907E0F04817590799F4109761F01296E4
:1030D0000C93129713961C933296CF01DF91CF91E8
:1030E0001F910F9108950093660310936703F4CF27
:1030F0002115310551F04217530738F0A901DB01C2
:103100009A01BD01DF01F801C1CFEF01F9CF909322
:10311000670380936603CDCFFE01E20FF31F819317
:1031200091932250310939832883D7CF20916403AA
:1031300030916503232B41F4209107013091080160
:1031400030936503209364032091050130910601BB
:103150002115310541F42DB73EB740910901509139
:103160000A01241B350BE0916403F0916503E2171B
:10317000F307A0F42E1B3F0B2817390778F0AC019A
:103180004E5F5F4F2417350748F04E0F5F1F509377
:10319000650340936403819391939FCFF0E0E0E057
:1031A0009CCFCF93DF930097E9F0FC013297138215
:1031B0001282A0916603B0916703ED0130E020E038
:1031C0001097A1F420813181820F931F2091640315
:1031D000309165032817390709F061C0F093650342
:1031E000E0936403DF91CF910895EA01CE17DF07E2
:1031F000E8F54A815B819E0141155105B1F7E9016E
:10320000FB83EA8349915991C40FD51FEC17FD0741
:1032100061F4808191810296840F951FE901998361
:103220008883828193819B838A83F0E0E0E0129619
:103230008D919C9113970097B9F52D913C91119721
:10324000CD010296820F931F209164033091650394
:103250002817390739F6309751F510926703109205
:103260006603B0936503A0936403BCCFD383C2838A
:1032700040815181840F951FC817D90761F44E5FB3
:103280005F4F88819981480F591F518340838A81FC
:103290009B81938382832115310509F0B0CFF09390
:1032A0006703E09366039ECFFD01DC01C0CF13826C
:1032B0001282D7CFB0E0A0E0E0E6F9E10C9460160E
:1032C0008C01009751F4CB010E9435188C01C80184
:1032D000CDB7DEB7E0E10C947C16FC01E60FF71FDA
:1032E0009C0122503109E217F30708F49DC0D9016F
:1032F000CD91DC911197C617D70798F0C530D1054D
:1033000030F3CE0104978617970708F3C61BD70B37
:103310002297C193D1936D937C93CF010E94D118D2
:10332000D6CF5B01AC1ABD0A4C018C0E9D1EA0913C
:103330006603B0916703512C412CF12CE12C1097BE
:1033400031F580916403909165038815990509F022
:103350005CC04616570608F058C080910501909150
:103360000601009741F48DB79EB740910901509135
:103370000A01841B950BE817F90708F055C0F09374
:103380006503E0936403F90171836083A0CF8D919D
:103390009C91119712966C90129713967C901397AC
:1033A000A815B90559F56C0142E0C40ED11CCA1428
:1033B000DB0420F1AC014A195B09DA01129615977A
:1033C00080F06282738251834083D9016D937C9334
:1033D000E114F10471F0D7011396FC93EE93129768
:1033E00076CF22968C0F9D1FF90191838083F30184
:1033F000EFCFF0936703E093660369CF4816590651
:1034000008F42C017D01D3019ACFCB010E9435181D
:103410007C01009749F0AE01B8010E94171AC8015B
:103420000E94D118870153CF10E000E050CFFB017C
:10343000DC0102C001900D9241505040D8F7089530
:10344000FB01DC018D91019080190110D9F3990BDA
:103450000895FB01DC0101900D920020E1F7089531
:1034600011E0C2E4D1E004C0FE010E94951621964D
:0A347000C334D107C9F7F894FFCF69
:10347A008E038E03FF00006803800000000000ED49
:10348A0001C001FF049601B901A6019701000000DD
:10349A0000A705C9040205F4056505110557050DC0
:1034AA000A0052313100523132003A586623003A4A
:1034BA00596623004D313034005331303200410017
:0C34CA0061007200540042004300440006
:00000001FF
